{
	"contracts/Swapper.sol": {
		"Swapper": {
			"abi": [
				{
					"inputs": [],
					"name": "AlreadyRequested",
					"type": "error"
				},
				{
					"inputs": [],
					"name": "BadRequest",
					"type": "error"
				},
				{
					"inputs": [],
					"name": "InvalidAddress",
					"type": "error"
				},
				{
					"inputs": [
						{
							"internalType": "address",
							"name": "impersonator",
							"type": "address"
						}
					],
					"name": "InvalidRequestee",
					"type": "error"
				},
				{
					"inputs": [],
					"name": "NotApproved",
					"type": "error"
				},
				{
					"inputs": [
						{
							"internalType": "address",
							"name": "_nft",
							"type": "address"
						},
						{
							"internalType": "uint256",
							"name": "_id",
							"type": "uint256"
						}
					],
					"name": "NotOwnedByRequestee",
					"type": "error"
				},
				{
					"inputs": [
						{
							"internalType": "address",
							"name": "_nft",
							"type": "address"
						},
						{
							"internalType": "uint256",
							"name": "_id",
							"type": "uint256"
						}
					],
					"name": "NotOwnedByRequester",
					"type": "error"
				},
				{
					"inputs": [
						{
							"internalType": "uint8",
							"name": "size",
							"type": "uint8"
						}
					],
					"name": "RequesteeInboxFull",
					"type": "error"
				},
				{
					"inputs": [],
					"name": "SelfRequest",
					"type": "error"
				},
				{
					"inputs": [
						{
							"internalType": "address",
							"name": "_requestee",
							"type": "address"
						},
						{
							"internalType": "uint256",
							"name": "_requestId",
							"type": "uint256"
						}
					],
					"name": "_requestPool",
					"outputs": [
						{
							"internalType": "uint256",
							"name": "requestId",
							"type": "uint256"
						},
						{
							"internalType": "address",
							"name": "requester",
							"type": "address"
						},
						{
							"internalType": "address",
							"name": "requestee",
							"type": "address"
						},
						{
							"internalType": "address",
							"name": "ownedNft",
							"type": "address"
						},
						{
							"internalType": "uint256",
							"name": "ownedNftId",
							"type": "uint256"
						},
						{
							"internalType": "address",
							"name": "requestedNft",
							"type": "address"
						},
						{
							"internalType": "uint256",
							"name": "requestedNftId",
							"type": "uint256"
						}
					],
					"stateMutability": "view",
					"type": "function"
				},
				{
					"inputs": [
						{
							"internalType": "uint256",
							"name": "_requestId",
							"type": "uint256"
						}
					],
					"name": "acceptRequest",
					"outputs": [],
					"stateMutability": "nonpayable",
					"type": "function"
				},
				{
					"inputs": [
						{
							"internalType": "address",
							"name": "_user",
							"type": "address"
						}
					],
					"name": "approve",
					"outputs": [],
					"stateMutability": "nonpayable",
					"type": "function"
				},
				{
					"inputs": [
						{
							"internalType": "address",
							"name": "_requestee",
							"type": "address"
						},
						{
							"internalType": "address",
							"name": "_requester",
							"type": "address"
						}
					],
					"name": "approvedAddresses",
					"outputs": [
						{
							"internalType": "bool",
							"name": "",
							"type": "bool"
						}
					],
					"stateMutability": "view",
					"type": "function"
				},
				{
					"inputs": [
						{
							"internalType": "uint256",
							"name": "_requestId",
							"type": "uint256"
						}
					],
					"name": "cancelRequest",
					"outputs": [],
					"stateMutability": "nonpayable",
					"type": "function"
				},
				{
					"inputs": [
						{
							"internalType": "address",
							"name": "_user",
							"type": "address"
						}
					],
					"name": "fetchAccepted",
					"outputs": [
						{
							"components": [
								{
									"internalType": "uint256",
									"name": "requestId",
									"type": "uint256"
								},
								{
									"internalType": "address",
									"name": "requester",
									"type": "address"
								},
								{
									"internalType": "address",
									"name": "requestee",
									"type": "address"
								},
								{
									"internalType": "address",
									"name": "ownedNft",
									"type": "address"
								},
								{
									"internalType": "uint256",
									"name": "ownedNftId",
									"type": "uint256"
								},
								{
									"internalType": "address",
									"name": "requestedNft",
									"type": "address"
								},
								{
									"internalType": "uint256",
									"name": "requestedNftId",
									"type": "uint256"
								}
							],
							"internalType": "struct Swapper.Request[]",
							"name": "",
							"type": "tuple[]"
						}
					],
					"stateMutability": "view",
					"type": "function"
				},
				{
					"inputs": [
						{
							"internalType": "address",
							"name": "_user",
							"type": "address"
						}
					],
					"name": "fetchCanceled",
					"outputs": [
						{
							"components": [
								{
									"internalType": "uint256",
									"name": "requestId",
									"type": "uint256"
								},
								{
									"internalType": "address",
									"name": "requester",
									"type": "address"
								},
								{
									"internalType": "address",
									"name": "requestee",
									"type": "address"
								},
								{
									"internalType": "address",
									"name": "ownedNft",
									"type": "address"
								},
								{
									"internalType": "uint256",
									"name": "ownedNftId",
									"type": "uint256"
								},
								{
									"internalType": "address",
									"name": "requestedNft",
									"type": "address"
								},
								{
									"internalType": "uint256",
									"name": "requestedNftId",
									"type": "uint256"
								}
							],
							"internalType": "struct Swapper.Request[]",
							"name": "",
							"type": "tuple[]"
						}
					],
					"stateMutability": "view",
					"type": "function"
				},
				{
					"inputs": [
						{
							"internalType": "address",
							"name": "_user",
							"type": "address"
						}
					],
					"name": "fetchInbox",
					"outputs": [
						{
							"components": [
								{
									"internalType": "uint256",
									"name": "requestId",
									"type": "uint256"
								},
								{
									"internalType": "address",
									"name": "requester",
									"type": "address"
								},
								{
									"internalType": "address",
									"name": "requestee",
									"type": "address"
								},
								{
									"internalType": "address",
									"name": "ownedNft",
									"type": "address"
								},
								{
									"internalType": "uint256",
									"name": "ownedNftId",
									"type": "uint256"
								},
								{
									"internalType": "address",
									"name": "requestedNft",
									"type": "address"
								},
								{
									"internalType": "uint256",
									"name": "requestedNftId",
									"type": "uint256"
								}
							],
							"internalType": "struct Swapper.Request[]",
							"name": "",
							"type": "tuple[]"
						}
					],
					"stateMutability": "view",
					"type": "function"
				},
				{
					"inputs": [
						{
							"internalType": "address",
							"name": "_user",
							"type": "address"
						}
					],
					"name": "fetchOutbox",
					"outputs": [
						{
							"components": [
								{
									"internalType": "uint256",
									"name": "requestId",
									"type": "uint256"
								},
								{
									"internalType": "address",
									"name": "requester",
									"type": "address"
								},
								{
									"internalType": "address",
									"name": "requestee",
									"type": "address"
								},
								{
									"internalType": "address",
									"name": "ownedNft",
									"type": "address"
								},
								{
									"internalType": "uint256",
									"name": "ownedNftId",
									"type": "uint256"
								},
								{
									"internalType": "address",
									"name": "requestedNft",
									"type": "address"
								},
								{
									"internalType": "uint256",
									"name": "requestedNftId",
									"type": "uint256"
								}
							],
							"internalType": "struct Swapper.Request[]",
							"name": "",
							"type": "tuple[]"
						}
					],
					"stateMutability": "view",
					"type": "function"
				},
				{
					"inputs": [
						{
							"internalType": "address",
							"name": "_user",
							"type": "address"
						}
					],
					"name": "fetchRejected",
					"outputs": [
						{
							"components": [
								{
									"internalType": "uint256",
									"name": "requestId",
									"type": "uint256"
								},
								{
									"internalType": "address",
									"name": "requester",
									"type": "address"
								},
								{
									"internalType": "address",
									"name": "requestee",
									"type": "address"
								},
								{
									"internalType": "address",
									"name": "ownedNft",
									"type": "address"
								},
								{
									"internalType": "uint256",
									"name": "ownedNftId",
									"type": "uint256"
								},
								{
									"internalType": "address",
									"name": "requestedNft",
									"type": "address"
								},
								{
									"internalType": "uint256",
									"name": "requestedNftId",
									"type": "uint256"
								}
							],
							"internalType": "struct Swapper.Request[]",
							"name": "",
							"type": "tuple[]"
						}
					],
					"stateMutability": "view",
					"type": "function"
				},
				{
					"inputs": [
						{
							"internalType": "address",
							"name": "_operator",
							"type": "address"
						},
						{
							"internalType": "address",
							"name": "_from",
							"type": "address"
						},
						{
							"internalType": "uint256",
							"name": "_tokenId",
							"type": "uint256"
						},
						{
							"internalType": "bytes",
							"name": "_data",
							"type": "bytes"
						}
					],
					"name": "onERC721Received",
					"outputs": [
						{
							"internalType": "bytes4",
							"name": "",
							"type": "bytes4"
						}
					],
					"stateMutability": "pure",
					"type": "function"
				},
				{
					"inputs": [
						{
							"internalType": "uint256",
							"name": "_requestId",
							"type": "uint256"
						}
					],
					"name": "rejectRequest",
					"outputs": [],
					"stateMutability": "nonpayable",
					"type": "function"
				},
				{
					"inputs": [
						{
							"components": [
								{
									"internalType": "address",
									"name": "requestee",
									"type": "address"
								},
								{
									"internalType": "address",
									"name": "ownedNft",
									"type": "address"
								},
								{
									"internalType": "uint256",
									"name": "ownedNftId",
									"type": "uint256"
								},
								{
									"internalType": "address",
									"name": "requestedNft",
									"type": "address"
								},
								{
									"internalType": "uint256",
									"name": "requestedNftId",
									"type": "uint256"
								}
							],
							"internalType": "struct Swapper.RequestIn",
							"name": "_inRequest",
							"type": "tuple"
						}
					],
					"name": "requestNftSwap",
					"outputs": [],
					"stateMutability": "nonpayable",
					"type": "function"
				},
				{
					"inputs": [
						{
							"internalType": "address",
							"name": "_requestee",
							"type": "address"
						},
						{
							"internalType": "uint256",
							"name": "",
							"type": "uint256"
						}
					],
					"name": "requesteeInbox",
					"outputs": [
						{
							"internalType": "uint256",
							"name": "requestId",
							"type": "uint256"
						},
						{
							"internalType": "address",
							"name": "requester",
							"type": "address"
						},
						{
							"internalType": "address",
							"name": "requestee",
							"type": "address"
						},
						{
							"internalType": "address",
							"name": "ownedNft",
							"type": "address"
						},
						{
							"internalType": "uint256",
							"name": "ownedNftId",
							"type": "uint256"
						},
						{
							"internalType": "address",
							"name": "requestedNft",
							"type": "address"
						},
						{
							"internalType": "uint256",
							"name": "requestedNftId",
							"type": "uint256"
						}
					],
					"stateMutability": "view",
					"type": "function"
				},
				{
					"inputs": [
						{
							"internalType": "address",
							"name": "_requester",
							"type": "address"
						},
						{
							"internalType": "uint256",
							"name": "",
							"type": "uint256"
						}
					],
					"name": "requesterOutbox",
					"outputs": [
						{
							"internalType": "uint256",
							"name": "requestId",
							"type": "uint256"
						},
						{
							"internalType": "address",
							"name": "requester",
							"type": "address"
						},
						{
							"internalType": "address",
							"name": "requestee",
							"type": "address"
						},
						{
							"internalType": "address",
							"name": "ownedNft",
							"type": "address"
						},
						{
							"internalType": "uint256",
							"name": "ownedNftId",
							"type": "uint256"
						},
						{
							"internalType": "address",
							"name": "requestedNft",
							"type": "address"
						},
						{
							"internalType": "uint256",
							"name": "requestedNftId",
							"type": "uint256"
						}
					],
					"stateMutability": "view",
					"type": "function"
				},
				{
					"inputs": [
						{
							"internalType": "address",
							"name": "_user",
							"type": "address"
						}
					],
					"name": "revokeApproval",
					"outputs": [],
					"stateMutability": "nonpayable",
					"type": "function"
				},
				{
					"inputs": [
						{
							"internalType": "address",
							"name": "_requestee",
							"type": "address"
						},
						{
							"internalType": "uint256",
							"name": "",
							"type": "uint256"
						}
					],
					"name": "userAcceptedRequests",
					"outputs": [
						{
							"internalType": "uint256",
							"name": "requestId",
							"type": "uint256"
						},
						{
							"internalType": "address",
							"name": "requester",
							"type": "address"
						},
						{
							"internalType": "address",
							"name": "requestee",
							"type": "address"
						},
						{
							"internalType": "address",
							"name": "ownedNft",
							"type": "address"
						},
						{
							"internalType": "uint256",
							"name": "ownedNftId",
							"type": "uint256"
						},
						{
							"internalType": "address",
							"name": "requestedNft",
							"type": "address"
						},
						{
							"internalType": "uint256",
							"name": "requestedNftId",
							"type": "uint256"
						}
					],
					"stateMutability": "view",
					"type": "function"
				},
				{
					"inputs": [
						{
							"internalType": "address",
							"name": "_user",
							"type": "address"
						},
						{
							"internalType": "uint256",
							"name": "",
							"type": "uint256"
						}
					],
					"name": "userCanceledRequests",
					"outputs": [
						{
							"internalType": "uint256",
							"name": "requestId",
							"type": "uint256"
						},
						{
							"internalType": "address",
							"name": "requester",
							"type": "address"
						},
						{
							"internalType": "address",
							"name": "requestee",
							"type": "address"
						},
						{
							"internalType": "address",
							"name": "ownedNft",
							"type": "address"
						},
						{
							"internalType": "uint256",
							"name": "ownedNftId",
							"type": "uint256"
						},
						{
							"internalType": "address",
							"name": "requestedNft",
							"type": "address"
						},
						{
							"internalType": "uint256",
							"name": "requestedNftId",
							"type": "uint256"
						}
					],
					"stateMutability": "view",
					"type": "function"
				},
				{
					"inputs": [
						{
							"internalType": "address",
							"name": "_requestee",
							"type": "address"
						},
						{
							"internalType": "uint256",
							"name": "",
							"type": "uint256"
						}
					],
					"name": "userRejectedRequests",
					"outputs": [
						{
							"internalType": "uint256",
							"name": "requestId",
							"type": "uint256"
						},
						{
							"internalType": "address",
							"name": "requester",
							"type": "address"
						},
						{
							"internalType": "address",
							"name": "requestee",
							"type": "address"
						},
						{
							"internalType": "address",
							"name": "ownedNft",
							"type": "address"
						},
						{
							"internalType": "uint256",
							"name": "ownedNftId",
							"type": "uint256"
						},
						{
							"internalType": "address",
							"name": "requestedNft",
							"type": "address"
						},
						{
							"internalType": "uint256",
							"name": "requestedNftId",
							"type": "uint256"
						}
					],
					"stateMutability": "view",
					"type": "function"
				}
			],
			"devdoc": {
				"details": "Trustless NFT swapping implementation bewteen two parties A and B. Party A sends a swap request to party B indicating they would like to swap their Nft for an Nft owned by party B. Contract takes custody of party A's Nft and sends the request to party B's inbox party B can accept or reject the request. If party B accepts, the swap transaction is executed If party B rejects, party A's nft is returned to their wallet. Party A also has the ability to cancel their request provided it hasn't been accepted/rejected by party B.",
				"kind": "dev",
				"methods": {
					"acceptRequest(uint256)": {
						"details": "Accept an incoming request",
						"params": {
							"_requestId": "is the identifier for the request to be accepted."
						}
					},
					"approve(address)": {
						"details": "Allow a user to be able to send a swap request.",
						"params": {
							"_user": "is the user address to be approved."
						}
					},
					"cancelRequest(uint256)": {
						"details": "Allows a requester to cancel their request.",
						"params": {
							"_requestId": "is the identifier of the request."
						}
					},
					"rejectRequest(uint256)": {
						"details": "Reject an incoming request.",
						"params": {
							"_requestId": "is the identifier for the request."
						}
					},
					"requestNftSwap((address,address,uint256,address,uint256))": {
						"details": "Send a swap request to a user.",
						"params": {
							"_inRequest": "holds the request data. see RequestIn struct."
						}
					},
					"revokeApproval(address)": {
						"details": "Prevent an address from sending a request",
						"params": {
							"_user": "is the user address whose approval is to be revoked."
						}
					}
				},
				"version": 1
			},
			"evm": {
				"assembly": "    /* \"contracts/Swapper.sol\":889:12846  contract Swapper{... */\n  mstore(0x40, 0x80)\n    /* \"contracts/Swapper.sol\":1022:1023  1 */\n  0x01\n    /* \"contracts/Swapper.sol\":991:1023  uint internal _nextRequestId = 1 */\n  0x00\n  sstore\n    /* \"contracts/Swapper.sol\":889:12846  contract Swapper{... */\n  callvalue\n  dup1\n  iszero\n  tag_1\n  jumpi\n  0x00\n  dup1\n  revert\ntag_1:\n  pop\n  dataSize(sub_0)\n  dup1\n  dataOffset(sub_0)\n  0x00\n  codecopy\n  0x00\n  return\nstop\n\nsub_0: assembly {\n        /* \"contracts/Swapper.sol\":889:12846  contract Swapper{... */\n      mstore(0x40, 0x80)\n      callvalue\n      dup1\n      iszero\n      tag_1\n      jumpi\n      0x00\n      dup1\n      revert\n    tag_1:\n      pop\n      jumpi(tag_2, lt(calldatasize, 0x04))\n      shr(0xe0, calldataload(0x00))\n      dup1\n      0x6da8c3a5\n      gt\n      tag_22\n      jumpi\n      dup1\n      0xdb49380e\n      gt\n      tag_23\n      jumpi\n      dup1\n      0xdb49380e\n      eq\n      tag_17\n      jumpi\n      dup1\n      0xdfe6f6b9\n      eq\n      tag_18\n      jumpi\n      dup1\n      0xe48af81a\n      eq\n      tag_19\n      jumpi\n      dup1\n      0xf74aa766\n      eq\n      tag_20\n      jumpi\n      dup1\n      0xfc4b1a7d\n      eq\n      tag_21\n      jumpi\n      jump(tag_2)\n    tag_23:\n      dup1\n      0x6da8c3a5\n      eq\n      tag_12\n      jumpi\n      dup1\n      0x8fb5d8c7\n      eq\n      tag_13\n      jumpi\n      dup1\n      0xa001585d\n      eq\n      tag_14\n      jumpi\n      dup1\n      0xcff1c1d1\n      eq\n      tag_15\n      jumpi\n      dup1\n      0xdaea85c5\n      eq\n      tag_16\n      jumpi\n      jump(tag_2)\n    tag_22:\n      dup1\n      0x3eec3703\n      gt\n      tag_24\n      jumpi\n      dup1\n      0x3eec3703\n      eq\n      tag_7\n      jumpi\n      dup1\n      0x484685b0\n      eq\n      tag_8\n      jumpi\n      dup1\n      0x4ab4e4c1\n      eq\n      tag_9\n      jumpi\n      dup1\n      0x4b346b68\n      eq\n      tag_10\n      jumpi\n      dup1\n      0x4ba1f098\n      eq\n      tag_11\n      jumpi\n      jump(tag_2)\n    tag_24:\n      dup1\n      0x150b7a02\n      eq\n      tag_3\n      jumpi\n      dup1\n      0x2d7788db\n      eq\n      tag_4\n      jumpi\n      dup1\n      0x3015394c\n      eq\n      tag_5\n      jumpi\n      dup1\n      0x38d24b69\n      eq\n      tag_6\n      jumpi\n    tag_2:\n      0x00\n      dup1\n      revert\n        /* \"contracts/Swapper.sol\":12530:12835  function onERC721Received(... */\n    tag_3:\n      tag_25\n      0x04\n      dup1\n      calldatasize\n      sub\n      dup2\n      add\n      swap1\n      tag_26\n      swap2\n      swap1\n      tag_27\n      jump\t// in\n    tag_26:\n      tag_28\n      jump\t// in\n    tag_25:\n      mload(0x40)\n      tag_29\n      swap2\n      swap1\n      tag_30\n      jump\t// in\n    tag_29:\n      mload(0x40)\n      dup1\n      swap2\n      sub\n      swap1\n      return\n        /* \"contracts/Swapper.sol\":8197:9491  function rejectRequest(uint _requestId) public{... */\n    tag_4:\n      tag_31\n      0x04\n      dup1\n      calldatasize\n      sub\n      dup2\n      add\n      swap1\n      tag_32\n      swap2\n      swap1\n      tag_33\n      jump\t// in\n    tag_32:\n      tag_34\n      jump\t// in\n    tag_31:\n      stop\n        /* \"contracts/Swapper.sol\":9760:10705  function cancelRequest(uint _requestId) external {... */\n    tag_5:\n      tag_35\n      0x04\n      dup1\n      calldatasize\n      sub\n      dup2\n      add\n      swap1\n      tag_36\n      swap2\n      swap1\n      tag_33\n      jump\t// in\n    tag_36:\n      tag_37\n      jump\t// in\n    tag_35:\n      stop\n        /* \"contracts/Swapper.sol\":2088:2151  mapping(address _user => Request[]) public userCanceledRequests */\n    tag_6:\n      tag_38\n      0x04\n      dup1\n      calldatasize\n      sub\n      dup2\n      add\n      swap1\n      tag_39\n      swap2\n      swap1\n      tag_40\n      jump\t// in\n    tag_39:\n      tag_41\n      jump\t// in\n    tag_38:\n      mload(0x40)\n      tag_42\n      swap8\n      swap7\n      swap6\n      swap5\n      swap4\n      swap3\n      swap2\n      swap1\n      tag_43\n      jump\t// in\n    tag_42:\n      mload(0x40)\n      dup1\n      swap2\n      sub\n      swap1\n      return\n        /* \"contracts/Swapper.sol\":10744:10865  function fetchInbox(address _user) external view returns(Request[] memory){... */\n    tag_7:\n      tag_44\n      0x04\n      dup1\n      calldatasize\n      sub\n      dup2\n      add\n      swap1\n      tag_45\n      swap2\n      swap1\n      tag_46\n      jump\t// in\n    tag_45:\n      tag_47\n      jump\t// in\n    tag_44:\n      mload(0x40)\n      tag_48\n      swap2\n      swap1\n      tag_49\n      jump\t// in\n    tag_48:\n      mload(0x40)\n      dup1\n      swap2\n      sub\n      swap1\n      return\n        /* \"contracts/Swapper.sol\":12412:12522  function revokeApproval(address _user) external{... */\n    tag_8:\n      tag_50\n      0x04\n      dup1\n      calldatasize\n      sub\n      dup2\n      add\n      swap1\n      tag_51\n      swap2\n      swap1\n      tag_46\n      jump\t// in\n    tag_51:\n      tag_52\n      jump\t// in\n    tag_50:\n      stop\n        /* \"contracts/Swapper.sol\":10905:11028  function fetchOutbox(address _user) external view returns(Request[] memory){... */\n    tag_9:\n      tag_53\n      0x04\n      dup1\n      calldatasize\n      sub\n      dup2\n      add\n      swap1\n      tag_54\n      swap2\n      swap1\n      tag_46\n      jump\t// in\n    tag_54:\n      tag_55\n      jump\t// in\n    tag_53:\n      mload(0x40)\n      tag_56\n      swap2\n      swap1\n      tag_49\n      jump\t// in\n    tag_56:\n      mload(0x40)\n      dup1\n      swap2\n      sub\n      swap1\n      return\n        /* \"contracts/Swapper.sol\":1527:1614  mapping(address _requestee => mapping (uint _requestId => Request)) public _requestPool */\n    tag_10:\n      tag_57\n      0x04\n      dup1\n      calldatasize\n      sub\n      dup2\n      add\n      swap1\n      tag_58\n      swap2\n      swap1\n      tag_40\n      jump\t// in\n    tag_58:\n      tag_59\n      jump\t// in\n    tag_57:\n      mload(0x40)\n      tag_60\n      swap8\n      swap7\n      swap6\n      swap5\n      swap4\n      swap3\n      swap2\n      swap1\n      tag_43\n      jump\t// in\n    tag_60:\n      mload(0x40)\n      dup1\n      swap2\n      sub\n      swap1\n      return\n        /* \"contracts/Swapper.sol\":5205:7094  function acceptRequest(uint _requestId) external {... */\n    tag_11:\n      tag_61\n      0x04\n      dup1\n      calldatasize\n      sub\n      dup2\n      add\n      swap1\n      tag_62\n      swap2\n      swap1\n      tag_33\n      jump\t// in\n    tag_62:\n      tag_63\n      jump\t// in\n    tag_61:\n      stop\n        /* \"contracts/Swapper.sol\":1755:1818  mapping(address _requester => Request[]) public requesterOutbox */\n    tag_12:\n      tag_64\n      0x04\n      dup1\n      calldatasize\n      sub\n      dup2\n      add\n      swap1\n      tag_65\n      swap2\n      swap1\n      tag_40\n      jump\t// in\n    tag_65:\n      tag_66\n      jump\t// in\n    tag_64:\n      mload(0x40)\n      tag_67\n      swap8\n      swap7\n      swap6\n      swap5\n      swap4\n      swap3\n      swap2\n      swap1\n      tag_43\n      jump\t// in\n    tag_67:\n      mload(0x40)\n      dup1\n      swap2\n      sub\n      swap1\n      return\n        /* \"contracts/Swapper.sol\":11258:11388  function fetchRejected(address _user) external view returns(Request[] memory){... */\n    tag_13:\n      tag_68\n      0x04\n      dup1\n      calldatasize\n      sub\n      dup2\n      add\n      swap1\n      tag_69\n      swap2\n      swap1\n      tag_46\n      jump\t// in\n    tag_69:\n      tag_70\n      jump\t// in\n    tag_68:\n      mload(0x40)\n      tag_71\n      swap2\n      swap1\n      tag_49\n      jump\t// in\n    tag_71:\n      mload(0x40)\n      dup1\n      swap2\n      sub\n      swap1\n      return\n        /* \"contracts/Swapper.sol\":2193:2284  mapping(address _requestee => mapping(address _requester => bool)) public approvedAddresses */\n    tag_14:\n      tag_72\n      0x04\n      dup1\n      calldatasize\n      sub\n      dup2\n      add\n      swap1\n      tag_73\n      swap2\n      swap1\n      tag_74\n      jump\t// in\n    tag_73:\n      tag_75\n      jump\t// in\n    tag_72:\n      mload(0x40)\n      tag_76\n      swap2\n      swap1\n      tag_77\n      jump\t// in\n    tag_76:\n      mload(0x40)\n      dup1\n      swap2\n      sub\n      swap1\n      return\n        /* \"contracts/Swapper.sol\":11439:11569  function fetchCanceled(address _user) external view returns(Request[] memory){... */\n    tag_15:\n      tag_78\n      0x04\n      dup1\n      calldatasize\n      sub\n      dup2\n      add\n      swap1\n      tag_79\n      swap2\n      swap1\n      tag_46\n      jump\t// in\n    tag_79:\n      tag_80\n      jump\t// in\n    tag_78:\n      mload(0x40)\n      tag_81\n      swap2\n      swap1\n      tag_49\n      jump\t// in\n    tag_81:\n      mload(0x40)\n      dup1\n      swap2\n      sub\n      swap1\n      return\n        /* \"contracts/Swapper.sol\":12158:12260  function approve(address _user) external{... */\n    tag_16:\n      tag_82\n      0x04\n      dup1\n      calldatasize\n      sub\n      dup2\n      add\n      swap1\n      tag_83\n      swap2\n      swap1\n      tag_46\n      jump\t// in\n    tag_83:\n      tag_84\n      jump\t// in\n    tag_82:\n      stop\n        /* \"contracts/Swapper.sol\":1864:1932  mapping(address _requestee => Request[]) public userAcceptedRequests */\n    tag_17:\n      tag_85\n      0x04\n      dup1\n      calldatasize\n      sub\n      dup2\n      add\n      swap1\n      tag_86\n      swap2\n      swap1\n      tag_40\n      jump\t// in\n    tag_86:\n      tag_87\n      jump\t// in\n    tag_85:\n      mload(0x40)\n      tag_88\n      swap8\n      swap7\n      swap6\n      swap5\n      swap4\n      swap3\n      swap2\n      swap1\n      tag_43\n      jump\t// in\n    tag_88:\n      mload(0x40)\n      dup1\n      swap2\n      sub\n      swap1\n      return\n        /* \"contracts/Swapper.sol\":1653:1715  mapping(address _requestee => Request[]) public requesteeInbox */\n    tag_18:\n      tag_89\n      0x04\n      dup1\n      calldatasize\n      sub\n      dup2\n      add\n      swap1\n      tag_90\n      swap2\n      swap1\n      tag_40\n      jump\t// in\n    tag_90:\n      tag_91\n      jump\t// in\n    tag_89:\n      mload(0x40)\n      tag_92\n      swap8\n      swap7\n      swap6\n      swap5\n      swap4\n      swap3\n      swap2\n      swap1\n      tag_43\n      jump\t// in\n    tag_92:\n      mload(0x40)\n      dup1\n      swap2\n      sub\n      swap1\n      return\n        /* \"contracts/Swapper.sol\":2998:4893  function requestNftSwap(RequestIn calldata _inRequest) external{... */\n    tag_19:\n      tag_93\n      0x04\n      dup1\n      calldatasize\n      sub\n      dup2\n      add\n      swap1\n      tag_94\n      swap2\n      swap1\n      tag_95\n      jump\t// in\n    tag_94:\n      tag_96\n      jump\t// in\n    tag_93:\n      stop\n        /* \"contracts/Swapper.sol\":1978:2046  mapping(address _requestee => Request[]) public userRejectedRequests */\n    tag_20:\n      tag_97\n      0x04\n      dup1\n      calldatasize\n      sub\n      dup2\n      add\n      swap1\n      tag_98\n      swap2\n      swap1\n      tag_40\n      jump\t// in\n    tag_98:\n      tag_99\n      jump\t// in\n    tag_97:\n      mload(0x40)\n      tag_100\n      swap8\n      swap7\n      swap6\n      swap5\n      swap4\n      swap3\n      swap2\n      swap1\n      tag_43\n      jump\t// in\n    tag_100:\n      mload(0x40)\n      dup1\n      swap2\n      sub\n      swap1\n      return\n        /* \"contracts/Swapper.sol\":11078:11208  function fetchAccepted(address _user) external view returns(Request[] memory){... */\n    tag_21:\n      tag_101\n      0x04\n      dup1\n      calldatasize\n      sub\n      dup2\n      add\n      swap1\n      tag_102\n      swap2\n      swap1\n      tag_46\n      jump\t// in\n    tag_102:\n      tag_103\n      jump\t// in\n    tag_101:\n      mload(0x40)\n      tag_104\n      swap2\n      swap1\n      tag_49\n      jump\t// in\n    tag_104:\n      mload(0x40)\n      dup1\n      swap2\n      sub\n      swap1\n      return\n        /* \"contracts/Swapper.sol\":12530:12835  function onERC721Received(... */\n    tag_28:\n        /* \"contracts/Swapper.sol\":12696:12702  bytes4 */\n      0x00\n        /* \"contracts/Swapper.sol\":12792:12833  IERC721Receiver.onERC721Received.selector */\n      shl(0xe0, 0x150b7a02)\n        /* \"contracts/Swapper.sol\":12785:12833  return IERC721Receiver.onERC721Received.selector */\n      swap1\n      pop\n        /* \"contracts/Swapper.sol\":12530:12835  function onERC721Received(... */\n      swap6\n      swap5\n      pop\n      pop\n      pop\n      pop\n      pop\n      jump\t// out\n        /* \"contracts/Swapper.sol\":8197:9491  function rejectRequest(uint _requestId) public{... */\n    tag_34:\n        /* \"contracts/Swapper.sol\":8254:8277  Request memory _request */\n      0x00\n        /* \"contracts/Swapper.sol\":8280:8292  _requestPool */\n      0x01\n        /* \"contracts/Swapper.sol\":8280:8304  _requestPool[msg.sender] */\n      0x00\n        /* \"contracts/Swapper.sol\":8293:8303  msg.sender */\n      caller\n        /* \"contracts/Swapper.sol\":8280:8304  _requestPool[msg.sender] */\n      0xffffffffffffffffffffffffffffffffffffffff\n      and\n      0xffffffffffffffffffffffffffffffffffffffff\n      and\n      dup2\n      mstore\n      0x20\n      add\n      swap1\n      dup2\n      mstore\n      0x20\n      add\n      0x00\n      keccak256\n        /* \"contracts/Swapper.sol\":8280:8316  _requestPool[msg.sender][_requestId] */\n      0x00\n        /* \"contracts/Swapper.sol\":8305:8315  _requestId */\n      dup4\n        /* \"contracts/Swapper.sol\":8280:8316  _requestPool[msg.sender][_requestId] */\n      dup2\n      mstore\n      0x20\n      add\n      swap1\n      dup2\n      mstore\n      0x20\n      add\n      0x00\n      keccak256\n        /* \"contracts/Swapper.sol\":8254:8316  Request memory _request = _requestPool[msg.sender][_requestId] */\n      mload(0x40)\n      dup1\n      0xe0\n      add\n      0x40\n      mstore\n      swap1\n      dup2\n      0x00\n      dup3\n      add\n      sload\n      dup2\n      mstore\n      0x20\n      add\n      0x01\n      dup3\n      add\n      0x00\n      swap1\n      sload\n      swap1\n      0x0100\n      exp\n      swap1\n      div\n      0xffffffffffffffffffffffffffffffffffffffff\n      and\n      0xffffffffffffffffffffffffffffffffffffffff\n      and\n      0xffffffffffffffffffffffffffffffffffffffff\n      and\n      dup2\n      mstore\n      0x20\n      add\n      0x02\n      dup3\n      add\n      0x00\n      swap1\n      sload\n      swap1\n      0x0100\n      exp\n      swap1\n      div\n      0xffffffffffffffffffffffffffffffffffffffff\n      and\n      0xffffffffffffffffffffffffffffffffffffffff\n      and\n      0xffffffffffffffffffffffffffffffffffffffff\n      and\n      dup2\n      mstore\n      0x20\n      add\n      0x03\n      dup3\n      add\n      0x00\n      swap1\n      sload\n      swap1\n      0x0100\n      exp\n      swap1\n      div\n      0xffffffffffffffffffffffffffffffffffffffff\n      and\n      0xffffffffffffffffffffffffffffffffffffffff\n      and\n      0xffffffffffffffffffffffffffffffffffffffff\n      and\n      dup2\n      mstore\n      0x20\n      add\n      0x04\n      dup3\n      add\n      sload\n      dup2\n      mstore\n      0x20\n      add\n      0x05\n      dup3\n      add\n      0x00\n      swap1\n      sload\n      swap1\n      0x0100\n      exp\n      swap1\n      div\n      0xffffffffffffffffffffffffffffffffffffffff\n      and\n      0xffffffffffffffffffffffffffffffffffffffff\n      and\n      0xffffffffffffffffffffffffffffffffffffffff\n      and\n      dup2\n      mstore\n      0x20\n      add\n      0x06\n      dup3\n      add\n      sload\n      dup2\n      mstore\n      pop\n      pop\n      swap1\n      pop\n        /* \"contracts/Swapper.sol\":8331:8349  _isEmpty(_request) */\n      tag_107\n        /* \"contracts/Swapper.sol\":8340:8348  _request */\n      dup2\n        /* \"contracts/Swapper.sol\":8331:8339  _isEmpty */\n      tag_108\n        /* \"contracts/Swapper.sol\":8331:8349  _isEmpty(_request) */\n      jump\t// in\n    tag_107:\n        /* \"contracts/Swapper.sol\":8327:8396  if (_isEmpty(_request)){... */\n      iszero\n      tag_109\n      jumpi\n        /* \"contracts/Swapper.sol\":8372:8384  BadRequest() */\n      mload(0x40)\n      0x41cc6b2100000000000000000000000000000000000000000000000000000000\n      dup2\n      mstore\n      0x04\n      add\n      mload(0x40)\n      dup1\n      swap2\n      sub\n      swap1\n      revert\n        /* \"contracts/Swapper.sol\":8327:8396  if (_isEmpty(_request)){... */\n    tag_109:\n        /* \"contracts/Swapper.sol\":8432:8442  msg.sender */\n      caller\n        /* \"contracts/Swapper.sol\":8410:8442  _request.requestee != msg.sender */\n      0xffffffffffffffffffffffffffffffffffffffff\n      and\n        /* \"contracts/Swapper.sol\":8410:8418  _request */\n      dup2\n        /* \"contracts/Swapper.sol\":8410:8428  _request.requestee */\n      0x40\n      add\n      mload\n        /* \"contracts/Swapper.sol\":8410:8442  _request.requestee != msg.sender */\n      0xffffffffffffffffffffffffffffffffffffffff\n      and\n      eq\n        /* \"contracts/Swapper.sol\":8406:8505  if (_request.requestee != msg.sender){... */\n      tag_110\n      jumpi\n        /* \"contracts/Swapper.sol\":8482:8492  msg.sender */\n      caller\n        /* \"contracts/Swapper.sol\":8465:8493  InvalidRequestee(msg.sender) */\n      mload(0x40)\n      0xce1f365a00000000000000000000000000000000000000000000000000000000\n      dup2\n      mstore\n      0x04\n      add\n      tag_111\n      swap2\n      swap1\n      tag_112\n      jump\t// in\n    tag_111:\n      mload(0x40)\n      dup1\n      swap2\n      sub\n      swap1\n      revert\n        /* \"contracts/Swapper.sol\":8406:8505  if (_request.requestee != msg.sender){... */\n    tag_110:\n        /* \"contracts/Swapper.sol\":8525:8546  IERC721 _requesterNft */\n      0x00\n        /* \"contracts/Swapper.sol\":8557:8565  _request */\n      dup2\n        /* \"contracts/Swapper.sol\":8557:8574  _request.ownedNft */\n      0x60\n      add\n      mload\n        /* \"contracts/Swapper.sol\":8525:8575  IERC721 _requesterNft = IERC721(_request.ownedNft) */\n      swap1\n      pop\n        /* \"contracts/Swapper.sol\":8586:8599  _requesterNft */\n      dup1\n        /* \"contracts/Swapper.sol\":8586:8616  _requesterNft.safeTransferFrom */\n      0xffffffffffffffffffffffffffffffffffffffff\n      and\n      0x42842e0e\n        /* \"contracts/Swapper.sol\":8625:8629  this */\n      address\n        /* \"contracts/Swapper.sol\":8632:8640  _request */\n      dup5\n        /* \"contracts/Swapper.sol\":8632:8650  _request.requester */\n      0x20\n      add\n      mload\n        /* \"contracts/Swapper.sol\":8652:8660  _request */\n      dup6\n        /* \"contracts/Swapper.sol\":8652:8671  _request.ownedNftId */\n      0x80\n      add\n      mload\n        /* \"contracts/Swapper.sol\":8586:8672  _requesterNft.safeTransferFrom(address(this), _request.requester, _request.ownedNftId) */\n      mload(0x40)\n      dup5\n      0xffffffff\n      and\n      0xe0\n      shl\n      dup2\n      mstore\n      0x04\n      add\n      tag_113\n      swap4\n      swap3\n      swap2\n      swap1\n      tag_114\n      jump\t// in\n    tag_113:\n      0x00\n      mload(0x40)\n      dup1\n      dup4\n      sub\n      dup2\n      0x00\n      dup8\n      dup1\n      extcodesize\n      iszero\n      dup1\n      iszero\n      tag_115\n      jumpi\n      0x00\n      dup1\n      revert\n    tag_115:\n      pop\n      gas\n      call\n      iszero\n      dup1\n      iszero\n      tag_117\n      jumpi\n      returndatasize\n      0x00\n      dup1\n      returndatacopy\n      revert(0x00, returndatasize)\n    tag_117:\n      pop\n      pop\n      pop\n      pop\n        /* \"contracts/Swapper.sol\":8683:8701  address _requester */\n      0x00\n        /* \"contracts/Swapper.sol\":8704:8712  _request */\n      dup3\n        /* \"contracts/Swapper.sol\":8704:8722  _request.requester */\n      0x20\n      add\n      mload\n        /* \"contracts/Swapper.sol\":8683:8722  address _requester = _request.requester */\n      swap1\n      pop\n        /* \"contracts/Swapper.sol\":8733:8751  address _requestee */\n      0x00\n        /* \"contracts/Swapper.sol\":8754:8762  _request */\n      dup4\n        /* \"contracts/Swapper.sol\":8754:8772  _request.requestee */\n      0x40\n      add\n      mload\n        /* \"contracts/Swapper.sol\":8733:8772  address _requestee = _request.requestee */\n      swap1\n      pop\n        /* \"contracts/Swapper.sol\":8800:8812  _requestPool */\n      0x01\n        /* \"contracts/Swapper.sol\":8800:8832  _requestPool[_request.requestee] */\n      0x00\n        /* \"contracts/Swapper.sol\":8813:8821  _request */\n      dup6\n        /* \"contracts/Swapper.sol\":8813:8831  _request.requestee */\n      0x40\n      add\n      mload\n        /* \"contracts/Swapper.sol\":8800:8832  _requestPool[_request.requestee] */\n      0xffffffffffffffffffffffffffffffffffffffff\n      and\n      0xffffffffffffffffffffffffffffffffffffffff\n      and\n      dup2\n      mstore\n      0x20\n      add\n      swap1\n      dup2\n      mstore\n      0x20\n      add\n      0x00\n      keccak256\n        /* \"contracts/Swapper.sol\":8800:8844  _requestPool[_request.requestee][_requestId] */\n      0x00\n        /* \"contracts/Swapper.sol\":8833:8843  _requestId */\n      dup7\n        /* \"contracts/Swapper.sol\":8800:8844  _requestPool[_request.requestee][_requestId] */\n      dup2\n      mstore\n      0x20\n      add\n      swap1\n      dup2\n      mstore\n      0x20\n      add\n      0x00\n      keccak256\n      0x00\n        /* \"contracts/Swapper.sol\":8793:8844  delete _requestPool[_request.requestee][_requestId] */\n      dup1\n      dup3\n      add\n      0x00\n      swap1\n      sstore\n      0x01\n      dup3\n      add\n      exp(0x0100, 0x00)\n      dup2\n      sload\n      swap1\n      0xffffffffffffffffffffffffffffffffffffffff\n      mul\n      not\n      and\n      swap1\n      sstore\n      0x02\n      dup3\n      add\n      exp(0x0100, 0x00)\n      dup2\n      sload\n      swap1\n      0xffffffffffffffffffffffffffffffffffffffff\n      mul\n      not\n      and\n      swap1\n      sstore\n      0x03\n      dup3\n      add\n      exp(0x0100, 0x00)\n      dup2\n      sload\n      swap1\n      0xffffffffffffffffffffffffffffffffffffffff\n      mul\n      not\n      and\n      swap1\n      sstore\n      0x04\n      dup3\n      add\n      0x00\n      swap1\n      sstore\n      0x05\n      dup3\n      add\n      exp(0x0100, 0x00)\n      dup2\n      sload\n      swap1\n      0xffffffffffffffffffffffffffffffffffffffff\n      mul\n      not\n      and\n      swap1\n      sstore\n      0x06\n      dup3\n      add\n      0x00\n      swap1\n      sstore\n      pop\n      pop\n        /* \"contracts/Swapper.sol\":8855:8883  Request[] memory userPending */\n      0x00\n        /* \"contracts/Swapper.sol\":8886:8900  requesteeInbox */\n      0x02\n        /* \"contracts/Swapper.sol\":8886:8912  requesteeInbox[_requestee] */\n      0x00\n        /* \"contracts/Swapper.sol\":8901:8911  _requestee */\n      dup4\n        /* \"contracts/Swapper.sol\":8886:8912  requesteeInbox[_requestee] */\n      0xffffffffffffffffffffffffffffffffffffffff\n      and\n      0xffffffffffffffffffffffffffffffffffffffff\n      and\n      dup2\n      mstore\n      0x20\n      add\n      swap1\n      dup2\n      mstore\n      0x20\n      add\n      0x00\n      keccak256\n        /* \"contracts/Swapper.sol\":8855:8912  Request[] memory userPending = requesteeInbox[_requestee] */\n      dup1\n      sload\n      dup1\n      0x20\n      mul\n      0x20\n      add\n      mload(0x40)\n      swap1\n      dup2\n      add\n      0x40\n      mstore\n      dup1\n      swap3\n      swap2\n      swap1\n      dup2\n      dup2\n      mstore\n      0x20\n      add\n      0x00\n      swap1\n    tag_118:\n      dup3\n      dup3\n      lt\n      iszero\n      tag_119\n      jumpi\n      dup4\n      dup3\n      swap1\n      0x00\n      mstore\n      keccak256(0x00, 0x20)\n      swap1\n      0x07\n      mul\n      add\n      mload(0x40)\n      dup1\n      0xe0\n      add\n      0x40\n      mstore\n      swap1\n      dup2\n      0x00\n      dup3\n      add\n      sload\n      dup2\n      mstore\n      0x20\n      add\n      0x01\n      dup3\n      add\n      0x00\n      swap1\n      sload\n      swap1\n      0x0100\n      exp\n      swap1\n      div\n      0xffffffffffffffffffffffffffffffffffffffff\n      and\n      0xffffffffffffffffffffffffffffffffffffffff\n      and\n      0xffffffffffffffffffffffffffffffffffffffff\n      and\n      dup2\n      mstore\n      0x20\n      add\n      0x02\n      dup3\n      add\n      0x00\n      swap1\n      sload\n      swap1\n      0x0100\n      exp\n      swap1\n      div\n      0xffffffffffffffffffffffffffffffffffffffff\n      and\n      0xffffffffffffffffffffffffffffffffffffffff\n      and\n      0xffffffffffffffffffffffffffffffffffffffff\n      and\n      dup2\n      mstore\n      0x20\n      add\n      0x03\n      dup3\n      add\n      0x00\n      swap1\n      sload\n      swap1\n      0x0100\n      exp\n      swap1\n      div\n      0xffffffffffffffffffffffffffffffffffffffff\n      and\n      0xffffffffffffffffffffffffffffffffffffffff\n      and\n      0xffffffffffffffffffffffffffffffffffffffff\n      and\n      dup2\n      mstore\n      0x20\n      add\n      0x04\n      dup3\n      add\n      sload\n      dup2\n      mstore\n      0x20\n      add\n      0x05\n      dup3\n      add\n      0x00\n      swap1\n      sload\n      swap1\n      0x0100\n      exp\n      swap1\n      div\n      0xffffffffffffffffffffffffffffffffffffffff\n      and\n      0xffffffffffffffffffffffffffffffffffffffff\n      and\n      0xffffffffffffffffffffffffffffffffffffffff\n      and\n      dup2\n      mstore\n      0x20\n      add\n      0x06\n      dup3\n      add\n      sload\n      dup2\n      mstore\n      pop\n      pop\n      dup2\n      mstore\n      0x20\n      add\n      swap1\n      0x01\n      add\n      swap1\n      jump(tag_118)\n    tag_119:\n      pop\n      pop\n      pop\n      pop\n      swap1\n      pop\n        /* \"contracts/Swapper.sol\":9004:9018  requesteeInbox */\n      0x02\n        /* \"contracts/Swapper.sol\":9004:9038  requesteeInbox[_request.requestee] */\n      0x00\n        /* \"contracts/Swapper.sol\":9019:9027  _request */\n      dup7\n        /* \"contracts/Swapper.sol\":9019:9037  _request.requestee */\n      0x40\n      add\n      mload\n        /* \"contracts/Swapper.sol\":9004:9038  requesteeInbox[_request.requestee] */\n      0xffffffffffffffffffffffffffffffffffffffff\n      and\n      0xffffffffffffffffffffffffffffffffffffffff\n      and\n      dup2\n      mstore\n      0x20\n      add\n      swap1\n      dup2\n      mstore\n      0x20\n      add\n      0x00\n      keccak256\n      0x00\n        /* \"contracts/Swapper.sol\":8997:9038  delete requesteeInbox[_request.requestee] */\n      tag_121\n      swap2\n      swap1\n      tag_122\n      jump\t// in\n    tag_121:\n        /* \"contracts/Swapper.sol\":9049:9115  removeRequest(location.inbox, _requestee, userPending, _requestId) */\n      tag_123\n        /* \"contracts/Swapper.sol\":9063:9077  location.inbox */\n      0x01\n        /* \"contracts/Swapper.sol\":9079:9089  _requestee */\n      dup4\n        /* \"contracts/Swapper.sol\":9091:9102  userPending */\n      dup4\n        /* \"contracts/Swapper.sol\":9104:9114  _requestId */\n      dup10\n        /* \"contracts/Swapper.sol\":9049:9062  removeRequest */\n      tag_124\n        /* \"contracts/Swapper.sol\":9049:9115  removeRequest(location.inbox, _requestee, userPending, _requestId) */\n      jump\t// in\n    tag_123:\n        /* \"contracts/Swapper.sol\":9176:9209  Request[] memory _requesterOutbox */\n      0x00\n        /* \"contracts/Swapper.sol\":9212:9227  requesterOutbox */\n      0x03\n        /* \"contracts/Swapper.sol\":9212:9239  requesterOutbox[_requester] */\n      0x00\n        /* \"contracts/Swapper.sol\":9228:9238  _requester */\n      dup6\n        /* \"contracts/Swapper.sol\":9212:9239  requesterOutbox[_requester] */\n      0xffffffffffffffffffffffffffffffffffffffff\n      and\n      0xffffffffffffffffffffffffffffffffffffffff\n      and\n      dup2\n      mstore\n      0x20\n      add\n      swap1\n      dup2\n      mstore\n      0x20\n      add\n      0x00\n      keccak256\n        /* \"contracts/Swapper.sol\":9176:9239  Request[] memory _requesterOutbox = requesterOutbox[_requester] */\n      dup1\n      sload\n      dup1\n      0x20\n      mul\n      0x20\n      add\n      mload(0x40)\n      swap1\n      dup2\n      add\n      0x40\n      mstore\n      dup1\n      swap3\n      swap2\n      swap1\n      dup2\n      dup2\n      mstore\n      0x20\n      add\n      0x00\n      swap1\n    tag_125:\n      dup3\n      dup3\n      lt\n      iszero\n      tag_126\n      jumpi\n      dup4\n      dup3\n      swap1\n      0x00\n      mstore\n      keccak256(0x00, 0x20)\n      swap1\n      0x07\n      mul\n      add\n      mload(0x40)\n      dup1\n      0xe0\n      add\n      0x40\n      mstore\n      swap1\n      dup2\n      0x00\n      dup3\n      add\n      sload\n      dup2\n      mstore\n      0x20\n      add\n      0x01\n      dup3\n      add\n      0x00\n      swap1\n      sload\n      swap1\n      0x0100\n      exp\n      swap1\n      div\n      0xffffffffffffffffffffffffffffffffffffffff\n      and\n      0xffffffffffffffffffffffffffffffffffffffff\n      and\n      0xffffffffffffffffffffffffffffffffffffffff\n      and\n      dup2\n      mstore\n      0x20\n      add\n      0x02\n      dup3\n      add\n      0x00\n      swap1\n      sload\n      swap1\n      0x0100\n      exp\n      swap1\n      div\n      0xffffffffffffffffffffffffffffffffffffffff\n      and\n      0xffffffffffffffffffffffffffffffffffffffff\n      and\n      0xffffffffffffffffffffffffffffffffffffffff\n      and\n      dup2\n      mstore\n      0x20\n      add\n      0x03\n      dup3\n      add\n      0x00\n      swap1\n      sload\n      swap1\n      0x0100\n      exp\n      swap1\n      div\n      0xffffffffffffffffffffffffffffffffffffffff\n      and\n      0xffffffffffffffffffffffffffffffffffffffff\n      and\n      0xffffffffffffffffffffffffffffffffffffffff\n      and\n      dup2\n      mstore\n      0x20\n      add\n      0x04\n      dup3\n      add\n      sload\n      dup2\n      mstore\n      0x20\n      add\n      0x05\n      dup3\n      add\n      0x00\n      swap1\n      sload\n      swap1\n      0x0100\n      exp\n      swap1\n      div\n      0xffffffffffffffffffffffffffffffffffffffff\n      and\n      0xffffffffffffffffffffffffffffffffffffffff\n      and\n      0xffffffffffffffffffffffffffffffffffffffff\n      and\n      dup2\n      mstore\n      0x20\n      add\n      0x06\n      dup3\n      add\n      sload\n      dup2\n      mstore\n      pop\n      pop\n      dup2\n      mstore\n      0x20\n      add\n      swap1\n      0x01\n      add\n      swap1\n      jump(tag_125)\n    tag_126:\n      pop\n      pop\n      pop\n      pop\n      swap1\n      pop\n        /* \"contracts/Swapper.sol\":9257:9272  requesterOutbox */\n      0x03\n        /* \"contracts/Swapper.sol\":9257:9284  requesterOutbox[_requester] */\n      0x00\n        /* \"contracts/Swapper.sol\":9273:9283  _requester */\n      dup6\n        /* \"contracts/Swapper.sol\":9257:9284  requesterOutbox[_requester] */\n      0xffffffffffffffffffffffffffffffffffffffff\n      and\n      0xffffffffffffffffffffffffffffffffffffffff\n      and\n      dup2\n      mstore\n      0x20\n      add\n      swap1\n      dup2\n      mstore\n      0x20\n      add\n      0x00\n      keccak256\n      0x00\n        /* \"contracts/Swapper.sol\":9250:9284  delete requesterOutbox[_requester] */\n      tag_128\n      swap2\n      swap1\n      tag_122\n      jump\t// in\n    tag_128:\n        /* \"contracts/Swapper.sol\":9295:9367  removeRequest(location.outbox, _requester, _requesterOutbox, _requestId) */\n      tag_129\n        /* \"contracts/Swapper.sol\":9309:9324  location.outbox */\n      0x00\n        /* \"contracts/Swapper.sol\":9326:9336  _requester */\n      dup6\n        /* \"contracts/Swapper.sol\":9338:9354  _requesterOutbox */\n      dup4\n        /* \"contracts/Swapper.sol\":9356:9366  _requestId */\n      dup11\n        /* \"contracts/Swapper.sol\":9295:9308  removeRequest */\n      tag_124\n        /* \"contracts/Swapper.sol\":9295:9367  removeRequest(location.outbox, _requester, _requesterOutbox, _requestId) */\n      jump\t// in\n    tag_129:\n        /* \"contracts/Swapper.sol\":9378:9398  userRejectedRequests */\n      0x05\n        /* \"contracts/Swapper.sol\":9378:9410  userRejectedRequests[_requestee] */\n      0x00\n        /* \"contracts/Swapper.sol\":9399:9409  _requestee */\n      dup5\n        /* \"contracts/Swapper.sol\":9378:9410  userRejectedRequests[_requestee] */\n      0xffffffffffffffffffffffffffffffffffffffff\n      and\n      0xffffffffffffffffffffffffffffffffffffffff\n      and\n      dup2\n      mstore\n      0x20\n      add\n      swap1\n      dup2\n      mstore\n      0x20\n      add\n      0x00\n      keccak256\n        /* \"contracts/Swapper.sol\":9416:9424  _request */\n      dup7\n        /* \"contracts/Swapper.sol\":9378:9425  userRejectedRequests[_requestee].push(_request) */\n      swap1\n      dup1\n      0x01\n      dup2\n      sload\n      add\n      dup1\n      dup3\n      sstore\n      dup1\n      swap2\n      pop\n      pop\n      0x01\n      swap1\n      sub\n      swap1\n      0x00\n      mstore\n      keccak256(0x00, 0x20)\n      swap1\n      0x07\n      mul\n      add\n      0x00\n      swap1\n      swap2\n      swap1\n      swap2\n      swap1\n      swap2\n      pop\n      0x00\n      dup3\n      add\n      mload\n      dup2\n      0x00\n      add\n      sstore\n      0x20\n      dup3\n      add\n      mload\n      dup2\n      0x01\n      add\n      exp(0x0100, 0x00)\n      dup2\n      sload\n      dup2\n      0xffffffffffffffffffffffffffffffffffffffff\n      mul\n      not\n      and\n      swap1\n      dup4\n      0xffffffffffffffffffffffffffffffffffffffff\n      and\n      mul\n      or\n      swap1\n      sstore\n      pop\n      0x40\n      dup3\n      add\n      mload\n      dup2\n      0x02\n      add\n      exp(0x0100, 0x00)\n      dup2\n      sload\n      dup2\n      0xffffffffffffffffffffffffffffffffffffffff\n      mul\n      not\n      and\n      swap1\n      dup4\n      0xffffffffffffffffffffffffffffffffffffffff\n      and\n      mul\n      or\n      swap1\n      sstore\n      pop\n      0x60\n      dup3\n      add\n      mload\n      dup2\n      0x03\n      add\n      exp(0x0100, 0x00)\n      dup2\n      sload\n      dup2\n      0xffffffffffffffffffffffffffffffffffffffff\n      mul\n      not\n      and\n      swap1\n      dup4\n      0xffffffffffffffffffffffffffffffffffffffff\n      and\n      mul\n      or\n      swap1\n      sstore\n      pop\n      0x80\n      dup3\n      add\n      mload\n      dup2\n      0x04\n      add\n      sstore\n      0xa0\n      dup3\n      add\n      mload\n      dup2\n      0x05\n      add\n      exp(0x0100, 0x00)\n      dup2\n      sload\n      dup2\n      0xffffffffffffffffffffffffffffffffffffffff\n      mul\n      not\n      and\n      swap1\n      dup4\n      0xffffffffffffffffffffffffffffffffffffffff\n      and\n      mul\n      or\n      swap1\n      sstore\n      pop\n      0xc0\n      dup3\n      add\n      mload\n      dup2\n      0x06\n      add\n      sstore\n      pop\n      pop\n        /* \"contracts/Swapper.sol\":9436:9456  userRejectedRequests */\n      0x05\n        /* \"contracts/Swapper.sol\":9436:9468  userRejectedRequests[_requester] */\n      0x00\n        /* \"contracts/Swapper.sol\":9457:9467  _requester */\n      dup6\n        /* \"contracts/Swapper.sol\":9436:9468  userRejectedRequests[_requester] */\n      0xffffffffffffffffffffffffffffffffffffffff\n      and\n      0xffffffffffffffffffffffffffffffffffffffff\n      and\n      dup2\n      mstore\n      0x20\n      add\n      swap1\n      dup2\n      mstore\n      0x20\n      add\n      0x00\n      keccak256\n        /* \"contracts/Swapper.sol\":9474:9482  _request */\n      dup7\n        /* \"contracts/Swapper.sol\":9436:9483  userRejectedRequests[_requester].push(_request) */\n      swap1\n      dup1\n      0x01\n      dup2\n      sload\n      add\n      dup1\n      dup3\n      sstore\n      dup1\n      swap2\n      pop\n      pop\n      0x01\n      swap1\n      sub\n      swap1\n      0x00\n      mstore\n      keccak256(0x00, 0x20)\n      swap1\n      0x07\n      mul\n      add\n      0x00\n      swap1\n      swap2\n      swap1\n      swap2\n      swap1\n      swap2\n      pop\n      0x00\n      dup3\n      add\n      mload\n      dup2\n      0x00\n      add\n      sstore\n      0x20\n      dup3\n      add\n      mload\n      dup2\n      0x01\n      add\n      exp(0x0100, 0x00)\n      dup2\n      sload\n      dup2\n      0xffffffffffffffffffffffffffffffffffffffff\n      mul\n      not\n      and\n      swap1\n      dup4\n      0xffffffffffffffffffffffffffffffffffffffff\n      and\n      mul\n      or\n      swap1\n      sstore\n      pop\n      0x40\n      dup3\n      add\n      mload\n      dup2\n      0x02\n      add\n      exp(0x0100, 0x00)\n      dup2\n      sload\n      dup2\n      0xffffffffffffffffffffffffffffffffffffffff\n      mul\n      not\n      and\n      swap1\n      dup4\n      0xffffffffffffffffffffffffffffffffffffffff\n      and\n      mul\n      or\n      swap1\n      sstore\n      pop\n      0x60\n      dup3\n      add\n      mload\n      dup2\n      0x03\n      add\n      exp(0x0100, 0x00)\n      dup2\n      sload\n      dup2\n      0xffffffffffffffffffffffffffffffffffffffff\n      mul\n      not\n      and\n      swap1\n      dup4\n      0xffffffffffffffffffffffffffffffffffffffff\n      and\n      mul\n      or\n      swap1\n      sstore\n      pop\n      0x80\n      dup3\n      add\n      mload\n      dup2\n      0x04\n      add\n      sstore\n      0xa0\n      dup3\n      add\n      mload\n      dup2\n      0x05\n      add\n      exp(0x0100, 0x00)\n      dup2\n      sload\n      dup2\n      0xffffffffffffffffffffffffffffffffffffffff\n      mul\n      not\n      and\n      swap1\n      dup4\n      0xffffffffffffffffffffffffffffffffffffffff\n      and\n      mul\n      or\n      swap1\n      sstore\n      pop\n      0xc0\n      dup3\n      add\n      mload\n      dup2\n      0x06\n      add\n      sstore\n      pop\n      pop\n        /* \"contracts/Swapper.sol\":8243:9491  {... */\n      pop\n      pop\n      pop\n      pop\n      pop\n      pop\n        /* \"contracts/Swapper.sol\":8197:9491  function rejectRequest(uint _requestId) public{... */\n      pop\n      jump\t// out\n        /* \"contracts/Swapper.sol\":9760:10705  function cancelRequest(uint _requestId) external {... */\n    tag_37:\n        /* \"contracts/Swapper.sol\":9820:9843  Request memory _request */\n      0x00\n        /* \"contracts/Swapper.sol\":9846:9858  _requestPool */\n      0x01\n        /* \"contracts/Swapper.sol\":9846:9870  _requestPool[msg.sender] */\n      0x00\n        /* \"contracts/Swapper.sol\":9859:9869  msg.sender */\n      caller\n        /* \"contracts/Swapper.sol\":9846:9870  _requestPool[msg.sender] */\n      0xffffffffffffffffffffffffffffffffffffffff\n      and\n      0xffffffffffffffffffffffffffffffffffffffff\n      and\n      dup2\n      mstore\n      0x20\n      add\n      swap1\n      dup2\n      mstore\n      0x20\n      add\n      0x00\n      keccak256\n        /* \"contracts/Swapper.sol\":9846:9882  _requestPool[msg.sender][_requestId] */\n      0x00\n        /* \"contracts/Swapper.sol\":9871:9881  _requestId */\n      dup4\n        /* \"contracts/Swapper.sol\":9846:9882  _requestPool[msg.sender][_requestId] */\n      dup2\n      mstore\n      0x20\n      add\n      swap1\n      dup2\n      mstore\n      0x20\n      add\n      0x00\n      keccak256\n        /* \"contracts/Swapper.sol\":9820:9882  Request memory _request = _requestPool[msg.sender][_requestId] */\n      mload(0x40)\n      dup1\n      0xe0\n      add\n      0x40\n      mstore\n      swap1\n      dup2\n      0x00\n      dup3\n      add\n      sload\n      dup2\n      mstore\n      0x20\n      add\n      0x01\n      dup3\n      add\n      0x00\n      swap1\n      sload\n      swap1\n      0x0100\n      exp\n      swap1\n      div\n      0xffffffffffffffffffffffffffffffffffffffff\n      and\n      0xffffffffffffffffffffffffffffffffffffffff\n      and\n      0xffffffffffffffffffffffffffffffffffffffff\n      and\n      dup2\n      mstore\n      0x20\n      add\n      0x02\n      dup3\n      add\n      0x00\n      swap1\n      sload\n      swap1\n      0x0100\n      exp\n      swap1\n      div\n      0xffffffffffffffffffffffffffffffffffffffff\n      and\n      0xffffffffffffffffffffffffffffffffffffffff\n      and\n      0xffffffffffffffffffffffffffffffffffffffff\n      and\n      dup2\n      mstore\n      0x20\n      add\n      0x03\n      dup3\n      add\n      0x00\n      swap1\n      sload\n      swap1\n      0x0100\n      exp\n      swap1\n      div\n      0xffffffffffffffffffffffffffffffffffffffff\n      and\n      0xffffffffffffffffffffffffffffffffffffffff\n      and\n      0xffffffffffffffffffffffffffffffffffffffff\n      and\n      dup2\n      mstore\n      0x20\n      add\n      0x04\n      dup3\n      add\n      sload\n      dup2\n      mstore\n      0x20\n      add\n      0x05\n      dup3\n      add\n      0x00\n      swap1\n      sload\n      swap1\n      0x0100\n      exp\n      swap1\n      div\n      0xffffffffffffffffffffffffffffffffffffffff\n      and\n      0xffffffffffffffffffffffffffffffffffffffff\n      and\n      0xffffffffffffffffffffffffffffffffffffffff\n      and\n      dup2\n      mstore\n      0x20\n      add\n      0x06\n      dup3\n      add\n      sload\n      dup2\n      mstore\n      pop\n      pop\n      swap1\n      pop\n        /* \"contracts/Swapper.sol\":9897:9915  _isEmpty(_request) */\n      tag_133\n        /* \"contracts/Swapper.sol\":9906:9914  _request */\n      dup2\n        /* \"contracts/Swapper.sol\":9897:9905  _isEmpty */\n      tag_108\n        /* \"contracts/Swapper.sol\":9897:9915  _isEmpty(_request) */\n      jump\t// in\n    tag_133:\n        /* \"contracts/Swapper.sol\":9893:9962  if (_isEmpty(_request)){... */\n      iszero\n      tag_134\n      jumpi\n        /* \"contracts/Swapper.sol\":9938:9950  BadRequest() */\n      mload(0x40)\n      0x41cc6b2100000000000000000000000000000000000000000000000000000000\n      dup2\n      mstore\n      0x04\n      add\n      mload(0x40)\n      dup1\n      swap2\n      sub\n      swap1\n      revert\n        /* \"contracts/Swapper.sol\":9893:9962  if (_isEmpty(_request)){... */\n    tag_134:\n        /* \"contracts/Swapper.sol\":9998:10008  msg.sender */\n      caller\n        /* \"contracts/Swapper.sol\":9976:10008  _request.requester != msg.sender */\n      0xffffffffffffffffffffffffffffffffffffffff\n      and\n        /* \"contracts/Swapper.sol\":9976:9984  _request */\n      dup2\n        /* \"contracts/Swapper.sol\":9976:9994  _request.requester */\n      0x20\n      add\n      mload\n        /* \"contracts/Swapper.sol\":9976:10008  _request.requester != msg.sender */\n      0xffffffffffffffffffffffffffffffffffffffff\n      and\n      eq\n        /* \"contracts/Swapper.sol\":9972:10071  if (_request.requester != msg.sender){... */\n      tag_135\n      jumpi\n        /* \"contracts/Swapper.sol\":10048:10058  msg.sender */\n      caller\n        /* \"contracts/Swapper.sol\":10031:10059  InvalidRequestee(msg.sender) */\n      mload(0x40)\n      0xce1f365a00000000000000000000000000000000000000000000000000000000\n      dup2\n      mstore\n      0x04\n      add\n      tag_136\n      swap2\n      swap1\n      tag_112\n      jump\t// in\n    tag_136:\n      mload(0x40)\n      dup1\n      swap2\n      sub\n      swap1\n      revert\n        /* \"contracts/Swapper.sol\":9972:10071  if (_request.requester != msg.sender){... */\n    tag_135:\n        /* \"contracts/Swapper.sol\":10083:10101  address _requester */\n      0x00\n        /* \"contracts/Swapper.sol\":10104:10112  _request */\n      dup2\n        /* \"contracts/Swapper.sol\":10104:10122  _request.requester */\n      0x20\n      add\n      mload\n        /* \"contracts/Swapper.sol\":10083:10122  address _requester = _request.requester */\n      swap1\n      pop\n        /* \"contracts/Swapper.sol\":10133:10151  address _requestee */\n      0x00\n        /* \"contracts/Swapper.sol\":10154:10162  _request */\n      dup3\n        /* \"contracts/Swapper.sol\":10154:10172  _request.requestee */\n      0x40\n      add\n      mload\n        /* \"contracts/Swapper.sol\":10133:10172  address _requestee = _request.requestee */\n      swap1\n      pop\n        /* \"contracts/Swapper.sol\":10183:10216  Request[] memory _requesterOutbox */\n      0x00\n        /* \"contracts/Swapper.sol\":10219:10234  requesterOutbox */\n      0x03\n        /* \"contracts/Swapper.sol\":10219:10246  requesterOutbox[msg.sender] */\n      0x00\n        /* \"contracts/Swapper.sol\":10235:10245  msg.sender */\n      caller\n        /* \"contracts/Swapper.sol\":10219:10246  requesterOutbox[msg.sender] */\n      0xffffffffffffffffffffffffffffffffffffffff\n      and\n      0xffffffffffffffffffffffffffffffffffffffff\n      and\n      dup2\n      mstore\n      0x20\n      add\n      swap1\n      dup2\n      mstore\n      0x20\n      add\n      0x00\n      keccak256\n        /* \"contracts/Swapper.sol\":10183:10246  Request[] memory _requesterOutbox = requesterOutbox[msg.sender] */\n      dup1\n      sload\n      dup1\n      0x20\n      mul\n      0x20\n      add\n      mload(0x40)\n      swap1\n      dup2\n      add\n      0x40\n      mstore\n      dup1\n      swap3\n      swap2\n      swap1\n      dup2\n      dup2\n      mstore\n      0x20\n      add\n      0x00\n      swap1\n    tag_137:\n      dup3\n      dup3\n      lt\n      iszero\n      tag_138\n      jumpi\n      dup4\n      dup3\n      swap1\n      0x00\n      mstore\n      keccak256(0x00, 0x20)\n      swap1\n      0x07\n      mul\n      add\n      mload(0x40)\n      dup1\n      0xe0\n      add\n      0x40\n      mstore\n      swap1\n      dup2\n      0x00\n      dup3\n      add\n      sload\n      dup2\n      mstore\n      0x20\n      add\n      0x01\n      dup3\n      add\n      0x00\n      swap1\n      sload\n      swap1\n      0x0100\n      exp\n      swap1\n      div\n      0xffffffffffffffffffffffffffffffffffffffff\n      and\n      0xffffffffffffffffffffffffffffffffffffffff\n      and\n      0xffffffffffffffffffffffffffffffffffffffff\n      and\n      dup2\n      mstore\n      0x20\n      add\n      0x02\n      dup3\n      add\n      0x00\n      swap1\n      sload\n      swap1\n      0x0100\n      exp\n      swap1\n      div\n      0xffffffffffffffffffffffffffffffffffffffff\n      and\n      0xffffffffffffffffffffffffffffffffffffffff\n      and\n      0xffffffffffffffffffffffffffffffffffffffff\n      and\n      dup2\n      mstore\n      0x20\n      add\n      0x03\n      dup3\n      add\n      0x00\n      swap1\n      sload\n      swap1\n      0x0100\n      exp\n      swap1\n      div\n      0xffffffffffffffffffffffffffffffffffffffff\n      and\n      0xffffffffffffffffffffffffffffffffffffffff\n      and\n      0xffffffffffffffffffffffffffffffffffffffff\n      and\n      dup2\n      mstore\n      0x20\n      add\n      0x04\n      dup3\n      add\n      sload\n      dup2\n      mstore\n      0x20\n      add\n      0x05\n      dup3\n      add\n      0x00\n      swap1\n      sload\n      swap1\n      0x0100\n      exp\n      swap1\n      div\n      0xffffffffffffffffffffffffffffffffffffffff\n      and\n      0xffffffffffffffffffffffffffffffffffffffff\n      and\n      0xffffffffffffffffffffffffffffffffffffffff\n      and\n      dup2\n      mstore\n      0x20\n      add\n      0x06\n      dup3\n      add\n      sload\n      dup2\n      mstore\n      pop\n      pop\n      dup2\n      mstore\n      0x20\n      add\n      swap1\n      0x01\n      add\n      swap1\n      jump(tag_137)\n    tag_138:\n      pop\n      pop\n      pop\n      pop\n      swap1\n      pop\n        /* \"contracts/Swapper.sol\":10257:10289  Request[] memory _requesteeInbox */\n      0x00\n        /* \"contracts/Swapper.sol\":10292:10306  requesteeInbox */\n      0x02\n        /* \"contracts/Swapper.sol\":10292:10326  requesteeInbox[_request.requestee] */\n      0x00\n        /* \"contracts/Swapper.sol\":10307:10315  _request */\n      dup7\n        /* \"contracts/Swapper.sol\":10307:10325  _request.requestee */\n      0x40\n      add\n      mload\n        /* \"contracts/Swapper.sol\":10292:10326  requesteeInbox[_request.requestee] */\n      0xffffffffffffffffffffffffffffffffffffffff\n      and\n      0xffffffffffffffffffffffffffffffffffffffff\n      and\n      dup2\n      mstore\n      0x20\n      add\n      swap1\n      dup2\n      mstore\n      0x20\n      add\n      0x00\n      keccak256\n        /* \"contracts/Swapper.sol\":10257:10326  Request[] memory _requesteeInbox = requesteeInbox[_request.requestee] */\n      dup1\n      sload\n      dup1\n      0x20\n      mul\n      0x20\n      add\n      mload(0x40)\n      swap1\n      dup2\n      add\n      0x40\n      mstore\n      dup1\n      swap3\n      swap2\n      swap1\n      dup2\n      dup2\n      mstore\n      0x20\n      add\n      0x00\n      swap1\n    tag_140:\n      dup3\n      dup3\n      lt\n      iszero\n      tag_141\n      jumpi\n      dup4\n      dup3\n      swap1\n      0x00\n      mstore\n      keccak256(0x00, 0x20)\n      swap1\n      0x07\n      mul\n      add\n      mload(0x40)\n      dup1\n      0xe0\n      add\n      0x40\n      mstore\n      swap1\n      dup2\n      0x00\n      dup3\n      add\n      sload\n      dup2\n      mstore\n      0x20\n      add\n      0x01\n      dup3\n      add\n      0x00\n      swap1\n      sload\n      swap1\n      0x0100\n      exp\n      swap1\n      div\n      0xffffffffffffffffffffffffffffffffffffffff\n      and\n      0xffffffffffffffffffffffffffffffffffffffff\n      and\n      0xffffffffffffffffffffffffffffffffffffffff\n      and\n      dup2\n      mstore\n      0x20\n      add\n      0x02\n      dup3\n      add\n      0x00\n      swap1\n      sload\n      swap1\n      0x0100\n      exp\n      swap1\n      div\n      0xffffffffffffffffffffffffffffffffffffffff\n      and\n      0xffffffffffffffffffffffffffffffffffffffff\n      and\n      0xffffffffffffffffffffffffffffffffffffffff\n      and\n      dup2\n      mstore\n      0x20\n      add\n      0x03\n      dup3\n      add\n      0x00\n      swap1\n      sload\n      swap1\n      0x0100\n      exp\n      swap1\n      div\n      0xffffffffffffffffffffffffffffffffffffffff\n      and\n      0xffffffffffffffffffffffffffffffffffffffff\n      and\n      0xffffffffffffffffffffffffffffffffffffffff\n      and\n      dup2\n      mstore\n      0x20\n      add\n      0x04\n      dup3\n      add\n      sload\n      dup2\n      mstore\n      0x20\n      add\n      0x05\n      dup3\n      add\n      0x00\n      swap1\n      sload\n      swap1\n      0x0100\n      exp\n      swap1\n      div\n      0xffffffffffffffffffffffffffffffffffffffff\n      and\n      0xffffffffffffffffffffffffffffffffffffffff\n      and\n      0xffffffffffffffffffffffffffffffffffffffff\n      and\n      dup2\n      mstore\n      0x20\n      add\n      0x06\n      dup3\n      add\n      sload\n      dup2\n      mstore\n      pop\n      pop\n      dup2\n      mstore\n      0x20\n      add\n      swap1\n      0x01\n      add\n      swap1\n      jump(tag_140)\n    tag_141:\n      pop\n      pop\n      pop\n      pop\n      swap1\n      pop\n        /* \"contracts/Swapper.sol\":10346:10361  requesterOutbox */\n      0x03\n        /* \"contracts/Swapper.sol\":10346:10373  requesterOutbox[_requester] */\n      0x00\n        /* \"contracts/Swapper.sol\":10362:10372  _requester */\n      dup6\n        /* \"contracts/Swapper.sol\":10346:10373  requesterOutbox[_requester] */\n      0xffffffffffffffffffffffffffffffffffffffff\n      and\n      0xffffffffffffffffffffffffffffffffffffffff\n      and\n      dup2\n      mstore\n      0x20\n      add\n      swap1\n      dup2\n      mstore\n      0x20\n      add\n      0x00\n      keccak256\n      0x00\n        /* \"contracts/Swapper.sol\":10339:10373  delete requesterOutbox[_requester] */\n      tag_143\n      swap2\n      swap1\n      tag_122\n      jump\t// in\n    tag_143:\n        /* \"contracts/Swapper.sol\":10384:10456  removeRequest(location.outbox, _requester, _requesterOutbox, _requestId) */\n      tag_144\n        /* \"contracts/Swapper.sol\":10398:10413  location.outbox */\n      0x00\n        /* \"contracts/Swapper.sol\":10415:10425  _requester */\n      dup6\n        /* \"contracts/Swapper.sol\":10427:10443  _requesterOutbox */\n      dup5\n        /* \"contracts/Swapper.sol\":10445:10455  _requestId */\n      dup10\n        /* \"contracts/Swapper.sol\":10384:10397  removeRequest */\n      tag_124\n        /* \"contracts/Swapper.sol\":10384:10456  removeRequest(location.outbox, _requester, _requesterOutbox, _requestId) */\n      jump\t// in\n    tag_144:\n        /* \"contracts/Swapper.sol\":10474:10488  requesteeInbox */\n      0x02\n        /* \"contracts/Swapper.sol\":10474:10500  requesteeInbox[_requestee] */\n      0x00\n        /* \"contracts/Swapper.sol\":10489:10499  _requestee */\n      dup5\n        /* \"contracts/Swapper.sol\":10474:10500  requesteeInbox[_requestee] */\n      0xffffffffffffffffffffffffffffffffffffffff\n      and\n      0xffffffffffffffffffffffffffffffffffffffff\n      and\n      dup2\n      mstore\n      0x20\n      add\n      swap1\n      dup2\n      mstore\n      0x20\n      add\n      0x00\n      keccak256\n      0x00\n        /* \"contracts/Swapper.sol\":10467:10500  delete requesteeInbox[_requestee] */\n      tag_145\n      swap2\n      swap1\n      tag_122\n      jump\t// in\n    tag_145:\n        /* \"contracts/Swapper.sol\":10511:10581  removeRequest(location.inbox, _requestee, _requesteeInbox, _requestId) */\n      tag_146\n        /* \"contracts/Swapper.sol\":10525:10539  location.inbox */\n      0x01\n        /* \"contracts/Swapper.sol\":10541:10551  _requestee */\n      dup5\n        /* \"contracts/Swapper.sol\":10553:10568  _requesteeInbox */\n      dup4\n        /* \"contracts/Swapper.sol\":10570:10580  _requestId */\n      dup10\n        /* \"contracts/Swapper.sol\":10511:10524  removeRequest */\n      tag_124\n        /* \"contracts/Swapper.sol\":10511:10581  removeRequest(location.inbox, _requestee, _requesteeInbox, _requestId) */\n      jump\t// in\n    tag_146:\n        /* \"contracts/Swapper.sol\":10592:10612  userCanceledRequests */\n      0x06\n        /* \"contracts/Swapper.sol\":10592:10624  userCanceledRequests[_requester] */\n      0x00\n        /* \"contracts/Swapper.sol\":10613:10623  _requester */\n      dup6\n        /* \"contracts/Swapper.sol\":10592:10624  userCanceledRequests[_requester] */\n      0xffffffffffffffffffffffffffffffffffffffff\n      and\n      0xffffffffffffffffffffffffffffffffffffffff\n      and\n      dup2\n      mstore\n      0x20\n      add\n      swap1\n      dup2\n      mstore\n      0x20\n      add\n      0x00\n      keccak256\n        /* \"contracts/Swapper.sol\":10630:10638  _request */\n      dup6\n        /* \"contracts/Swapper.sol\":10592:10639  userCanceledRequests[_requester].push(_request) */\n      swap1\n      dup1\n      0x01\n      dup2\n      sload\n      add\n      dup1\n      dup3\n      sstore\n      dup1\n      swap2\n      pop\n      pop\n      0x01\n      swap1\n      sub\n      swap1\n      0x00\n      mstore\n      keccak256(0x00, 0x20)\n      swap1\n      0x07\n      mul\n      add\n      0x00\n      swap1\n      swap2\n      swap1\n      swap2\n      swap1\n      swap2\n      pop\n      0x00\n      dup3\n      add\n      mload\n      dup2\n      0x00\n      add\n      sstore\n      0x20\n      dup3\n      add\n      mload\n      dup2\n      0x01\n      add\n      exp(0x0100, 0x00)\n      dup2\n      sload\n      dup2\n      0xffffffffffffffffffffffffffffffffffffffff\n      mul\n      not\n      and\n      swap1\n      dup4\n      0xffffffffffffffffffffffffffffffffffffffff\n      and\n      mul\n      or\n      swap1\n      sstore\n      pop\n      0x40\n      dup3\n      add\n      mload\n      dup2\n      0x02\n      add\n      exp(0x0100, 0x00)\n      dup2\n      sload\n      dup2\n      0xffffffffffffffffffffffffffffffffffffffff\n      mul\n      not\n      and\n      swap1\n      dup4\n      0xffffffffffffffffffffffffffffffffffffffff\n      and\n      mul\n      or\n      swap1\n      sstore\n      pop\n      0x60\n      dup3\n      add\n      mload\n      dup2\n      0x03\n      add\n      exp(0x0100, 0x00)\n      dup2\n      sload\n      dup2\n      0xffffffffffffffffffffffffffffffffffffffff\n      mul\n      not\n      and\n      swap1\n      dup4\n      0xffffffffffffffffffffffffffffffffffffffff\n      and\n      mul\n      or\n      swap1\n      sstore\n      pop\n      0x80\n      dup3\n      add\n      mload\n      dup2\n      0x04\n      add\n      sstore\n      0xa0\n      dup3\n      add\n      mload\n      dup2\n      0x05\n      add\n      exp(0x0100, 0x00)\n      dup2\n      sload\n      dup2\n      0xffffffffffffffffffffffffffffffffffffffff\n      mul\n      not\n      and\n      swap1\n      dup4\n      0xffffffffffffffffffffffffffffffffffffffff\n      and\n      mul\n      or\n      swap1\n      sstore\n      pop\n      0xc0\n      dup3\n      add\n      mload\n      dup2\n      0x06\n      add\n      sstore\n      pop\n      pop\n        /* \"contracts/Swapper.sol\":10650:10670  userCanceledRequests */\n      0x06\n        /* \"contracts/Swapper.sol\":10650:10682  userCanceledRequests[_requestee] */\n      0x00\n        /* \"contracts/Swapper.sol\":10671:10681  _requestee */\n      dup5\n        /* \"contracts/Swapper.sol\":10650:10682  userCanceledRequests[_requestee] */\n      0xffffffffffffffffffffffffffffffffffffffff\n      and\n      0xffffffffffffffffffffffffffffffffffffffff\n      and\n      dup2\n      mstore\n      0x20\n      add\n      swap1\n      dup2\n      mstore\n      0x20\n      add\n      0x00\n      keccak256\n        /* \"contracts/Swapper.sol\":10688:10696  _request */\n      dup6\n        /* \"contracts/Swapper.sol\":10650:10697  userCanceledRequests[_requestee].push(_request) */\n      swap1\n      dup1\n      0x01\n      dup2\n      sload\n      add\n      dup1\n      dup3\n      sstore\n      dup1\n      swap2\n      pop\n      pop\n      0x01\n      swap1\n      sub\n      swap1\n      0x00\n      mstore\n      keccak256(0x00, 0x20)\n      swap1\n      0x07\n      mul\n      add\n      0x00\n      swap1\n      swap2\n      swap1\n      swap2\n      swap1\n      swap2\n      pop\n      0x00\n      dup3\n      add\n      mload\n      dup2\n      0x00\n      add\n      sstore\n      0x20\n      dup3\n      add\n      mload\n      dup2\n      0x01\n      add\n      exp(0x0100, 0x00)\n      dup2\n      sload\n      dup2\n      0xffffffffffffffffffffffffffffffffffffffff\n      mul\n      not\n      and\n      swap1\n      dup4\n      0xffffffffffffffffffffffffffffffffffffffff\n      and\n      mul\n      or\n      swap1\n      sstore\n      pop\n      0x40\n      dup3\n      add\n      mload\n      dup2\n      0x02\n      add\n      exp(0x0100, 0x00)\n      dup2\n      sload\n      dup2\n      0xffffffffffffffffffffffffffffffffffffffff\n      mul\n      not\n      and\n      swap1\n      dup4\n      0xffffffffffffffffffffffffffffffffffffffff\n      and\n      mul\n      or\n      swap1\n      sstore\n      pop\n      0x60\n      dup3\n      add\n      mload\n      dup2\n      0x03\n      add\n      exp(0x0100, 0x00)\n      dup2\n      sload\n      dup2\n      0xffffffffffffffffffffffffffffffffffffffff\n      mul\n      not\n      and\n      swap1\n      dup4\n      0xffffffffffffffffffffffffffffffffffffffff\n      and\n      mul\n      or\n      swap1\n      sstore\n      pop\n      0x80\n      dup3\n      add\n      mload\n      dup2\n      0x04\n      add\n      sstore\n      0xa0\n      dup3\n      add\n      mload\n      dup2\n      0x05\n      add\n      exp(0x0100, 0x00)\n      dup2\n      sload\n      dup2\n      0xffffffffffffffffffffffffffffffffffffffff\n      mul\n      not\n      and\n      swap1\n      dup4\n      0xffffffffffffffffffffffffffffffffffffffff\n      and\n      mul\n      or\n      swap1\n      sstore\n      pop\n      0xc0\n      dup3\n      add\n      mload\n      dup2\n      0x06\n      add\n      sstore\n      pop\n      pop\n        /* \"contracts/Swapper.sol\":9809:10705  {... */\n      pop\n      pop\n      pop\n      pop\n      pop\n        /* \"contracts/Swapper.sol\":9760:10705  function cancelRequest(uint _requestId) external {... */\n      pop\n      jump\t// out\n        /* \"contracts/Swapper.sol\":2088:2151  mapping(address _user => Request[]) public userCanceledRequests */\n    tag_41:\n      mstore(0x20, 0x06)\n      dup2\n      0x00\n      mstore\n      keccak256(0x00, 0x40)\n      dup2\n      dup2\n      sload\n      dup2\n      lt\n      tag_149\n      jumpi\n      0x00\n      dup1\n      revert\n    tag_149:\n      swap1\n      0x00\n      mstore\n      keccak256(0x00, 0x20)\n      swap1\n      0x07\n      mul\n      add\n      0x00\n      swap2\n      pop\n      swap2\n      pop\n      pop\n      dup1\n      0x00\n      add\n      sload\n      swap1\n      dup1\n      0x01\n      add\n      0x00\n      swap1\n      sload\n      swap1\n      0x0100\n      exp\n      swap1\n      div\n      0xffffffffffffffffffffffffffffffffffffffff\n      and\n      swap1\n      dup1\n      0x02\n      add\n      0x00\n      swap1\n      sload\n      swap1\n      0x0100\n      exp\n      swap1\n      div\n      0xffffffffffffffffffffffffffffffffffffffff\n      and\n      swap1\n      dup1\n      0x03\n      add\n      0x00\n      swap1\n      sload\n      swap1\n      0x0100\n      exp\n      swap1\n      div\n      0xffffffffffffffffffffffffffffffffffffffff\n      and\n      swap1\n      dup1\n      0x04\n      add\n      sload\n      swap1\n      dup1\n      0x05\n      add\n      0x00\n      swap1\n      sload\n      swap1\n      0x0100\n      exp\n      swap1\n      div\n      0xffffffffffffffffffffffffffffffffffffffff\n      and\n      swap1\n      dup1\n      0x06\n      add\n      sload\n      swap1\n      pop\n      dup8\n      jump\t// out\n        /* \"contracts/Swapper.sol\":10744:10865  function fetchInbox(address _user) external view returns(Request[] memory){... */\n    tag_47:\n        /* \"contracts/Swapper.sol\":10801:10817  Request[] memory */\n      0x60\n        /* \"contracts/Swapper.sol\":10836:10850  requesteeInbox */\n      0x02\n        /* \"contracts/Swapper.sol\":10836:10857  requesteeInbox[_user] */\n      0x00\n        /* \"contracts/Swapper.sol\":10851:10856  _user */\n      dup4\n        /* \"contracts/Swapper.sol\":10836:10857  requesteeInbox[_user] */\n      0xffffffffffffffffffffffffffffffffffffffff\n      and\n      0xffffffffffffffffffffffffffffffffffffffff\n      and\n      dup2\n      mstore\n      0x20\n      add\n      swap1\n      dup2\n      mstore\n      0x20\n      add\n      0x00\n      keccak256\n        /* \"contracts/Swapper.sol\":10829:10857  return requesteeInbox[_user] */\n      dup1\n      sload\n      dup1\n      0x20\n      mul\n      0x20\n      add\n      mload(0x40)\n      swap1\n      dup2\n      add\n      0x40\n      mstore\n      dup1\n      swap3\n      swap2\n      swap1\n      dup2\n      dup2\n      mstore\n      0x20\n      add\n      0x00\n      swap1\n    tag_152:\n      dup3\n      dup3\n      lt\n      iszero\n      tag_153\n      jumpi\n      dup4\n      dup3\n      swap1\n      0x00\n      mstore\n      keccak256(0x00, 0x20)\n      swap1\n      0x07\n      mul\n      add\n      mload(0x40)\n      dup1\n      0xe0\n      add\n      0x40\n      mstore\n      swap1\n      dup2\n      0x00\n      dup3\n      add\n      sload\n      dup2\n      mstore\n      0x20\n      add\n      0x01\n      dup3\n      add\n      0x00\n      swap1\n      sload\n      swap1\n      0x0100\n      exp\n      swap1\n      div\n      0xffffffffffffffffffffffffffffffffffffffff\n      and\n      0xffffffffffffffffffffffffffffffffffffffff\n      and\n      0xffffffffffffffffffffffffffffffffffffffff\n      and\n      dup2\n      mstore\n      0x20\n      add\n      0x02\n      dup3\n      add\n      0x00\n      swap1\n      sload\n      swap1\n      0x0100\n      exp\n      swap1\n      div\n      0xffffffffffffffffffffffffffffffffffffffff\n      and\n      0xffffffffffffffffffffffffffffffffffffffff\n      and\n      0xffffffffffffffffffffffffffffffffffffffff\n      and\n      dup2\n      mstore\n      0x20\n      add\n      0x03\n      dup3\n      add\n      0x00\n      swap1\n      sload\n      swap1\n      0x0100\n      exp\n      swap1\n      div\n      0xffffffffffffffffffffffffffffffffffffffff\n      and\n      0xffffffffffffffffffffffffffffffffffffffff\n      and\n      0xffffffffffffffffffffffffffffffffffffffff\n      and\n      dup2\n      mstore\n      0x20\n      add\n      0x04\n      dup3\n      add\n      sload\n      dup2\n      mstore\n      0x20\n      add\n      0x05\n      dup3\n      add\n      0x00\n      swap1\n      sload\n      swap1\n      0x0100\n      exp\n      swap1\n      div\n      0xffffffffffffffffffffffffffffffffffffffff\n      and\n      0xffffffffffffffffffffffffffffffffffffffff\n      and\n      0xffffffffffffffffffffffffffffffffffffffff\n      and\n      dup2\n      mstore\n      0x20\n      add\n      0x06\n      dup3\n      add\n      sload\n      dup2\n      mstore\n      pop\n      pop\n      dup2\n      mstore\n      0x20\n      add\n      swap1\n      0x01\n      add\n      swap1\n      jump(tag_152)\n    tag_153:\n      pop\n      pop\n      pop\n      pop\n      swap1\n      pop\n        /* \"contracts/Swapper.sol\":10744:10865  function fetchInbox(address _user) external view returns(Request[] memory){... */\n      swap2\n      swap1\n      pop\n      jump\t// out\n        /* \"contracts/Swapper.sol\":12412:12522  function revokeApproval(address _user) external{... */\n    tag_52:\n        /* \"contracts/Swapper.sol\":12509:12514  false */\n      0x00\n        /* \"contracts/Swapper.sol\":12470:12487  approvedAddresses */\n      0x07\n        /* \"contracts/Swapper.sol\":12470:12499  approvedAddresses[msg.sender] */\n      0x00\n        /* \"contracts/Swapper.sol\":12488:12498  msg.sender */\n      caller\n        /* \"contracts/Swapper.sol\":12470:12499  approvedAddresses[msg.sender] */\n      0xffffffffffffffffffffffffffffffffffffffff\n      and\n      0xffffffffffffffffffffffffffffffffffffffff\n      and\n      dup2\n      mstore\n      0x20\n      add\n      swap1\n      dup2\n      mstore\n      0x20\n      add\n      0x00\n      keccak256\n        /* \"contracts/Swapper.sol\":12470:12506  approvedAddresses[msg.sender][_user] */\n      0x00\n        /* \"contracts/Swapper.sol\":12500:12505  _user */\n      dup4\n        /* \"contracts/Swapper.sol\":12470:12506  approvedAddresses[msg.sender][_user] */\n      0xffffffffffffffffffffffffffffffffffffffff\n      and\n      0xffffffffffffffffffffffffffffffffffffffff\n      and\n      dup2\n      mstore\n      0x20\n      add\n      swap1\n      dup2\n      mstore\n      0x20\n      add\n      0x00\n      keccak256\n      0x00\n        /* \"contracts/Swapper.sol\":12470:12514  approvedAddresses[msg.sender][_user] = false */\n      0x0100\n      exp\n      dup2\n      sload\n      dup2\n      0xff\n      mul\n      not\n      and\n      swap1\n      dup4\n      iszero\n      iszero\n      mul\n      or\n      swap1\n      sstore\n      pop\n        /* \"contracts/Swapper.sol\":12412:12522  function revokeApproval(address _user) external{... */\n      pop\n      jump\t// out\n        /* \"contracts/Swapper.sol\":10905:11028  function fetchOutbox(address _user) external view returns(Request[] memory){... */\n    tag_55:\n        /* \"contracts/Swapper.sol\":10963:10979  Request[] memory */\n      0x60\n        /* \"contracts/Swapper.sol\":10998:11013  requesterOutbox */\n      0x03\n        /* \"contracts/Swapper.sol\":10998:11020  requesterOutbox[_user] */\n      0x00\n        /* \"contracts/Swapper.sol\":11014:11019  _user */\n      dup4\n        /* \"contracts/Swapper.sol\":10998:11020  requesterOutbox[_user] */\n      0xffffffffffffffffffffffffffffffffffffffff\n      and\n      0xffffffffffffffffffffffffffffffffffffffff\n      and\n      dup2\n      mstore\n      0x20\n      add\n      swap1\n      dup2\n      mstore\n      0x20\n      add\n      0x00\n      keccak256\n        /* \"contracts/Swapper.sol\":10991:11020  return requesterOutbox[_user] */\n      dup1\n      sload\n      dup1\n      0x20\n      mul\n      0x20\n      add\n      mload(0x40)\n      swap1\n      dup2\n      add\n      0x40\n      mstore\n      dup1\n      swap3\n      swap2\n      swap1\n      dup2\n      dup2\n      mstore\n      0x20\n      add\n      0x00\n      swap1\n    tag_157:\n      dup3\n      dup3\n      lt\n      iszero\n      tag_158\n      jumpi\n      dup4\n      dup3\n      swap1\n      0x00\n      mstore\n      keccak256(0x00, 0x20)\n      swap1\n      0x07\n      mul\n      add\n      mload(0x40)\n      dup1\n      0xe0\n      add\n      0x40\n      mstore\n      swap1\n      dup2\n      0x00\n      dup3\n      add\n      sload\n      dup2\n      mstore\n      0x20\n      add\n      0x01\n      dup3\n      add\n      0x00\n      swap1\n      sload\n      swap1\n      0x0100\n      exp\n      swap1\n      div\n      0xffffffffffffffffffffffffffffffffffffffff\n      and\n      0xffffffffffffffffffffffffffffffffffffffff\n      and\n      0xffffffffffffffffffffffffffffffffffffffff\n      and\n      dup2\n      mstore\n      0x20\n      add\n      0x02\n      dup3\n      add\n      0x00\n      swap1\n      sload\n      swap1\n      0x0100\n      exp\n      swap1\n      div\n      0xffffffffffffffffffffffffffffffffffffffff\n      and\n      0xffffffffffffffffffffffffffffffffffffffff\n      and\n      0xffffffffffffffffffffffffffffffffffffffff\n      and\n      dup2\n      mstore\n      0x20\n      add\n      0x03\n      dup3\n      add\n      0x00\n      swap1\n      sload\n      swap1\n      0x0100\n      exp\n      swap1\n      div\n      0xffffffffffffffffffffffffffffffffffffffff\n      and\n      0xffffffffffffffffffffffffffffffffffffffff\n      and\n      0xffffffffffffffffffffffffffffffffffffffff\n      and\n      dup2\n      mstore\n      0x20\n      add\n      0x04\n      dup3\n      add\n      sload\n      dup2\n      mstore\n      0x20\n      add\n      0x05\n      dup3\n      add\n      0x00\n      swap1\n      sload\n      swap1\n      0x0100\n      exp\n      swap1\n      div\n      0xffffffffffffffffffffffffffffffffffffffff\n      and\n      0xffffffffffffffffffffffffffffffffffffffff\n      and\n      0xffffffffffffffffffffffffffffffffffffffff\n      and\n      dup2\n      mstore\n      0x20\n      add\n      0x06\n      dup3\n      add\n      sload\n      dup2\n      mstore\n      pop\n      pop\n      dup2\n      mstore\n      0x20\n      add\n      swap1\n      0x01\n      add\n      swap1\n      jump(tag_157)\n    tag_158:\n      pop\n      pop\n      pop\n      pop\n      swap1\n      pop\n        /* \"contracts/Swapper.sol\":10905:11028  function fetchOutbox(address _user) external view returns(Request[] memory){... */\n      swap2\n      swap1\n      pop\n      jump\t// out\n        /* \"contracts/Swapper.sol\":1527:1614  mapping(address _requestee => mapping (uint _requestId => Request)) public _requestPool */\n    tag_59:\n      mstore(0x20, 0x01)\n      dup2\n      0x00\n      mstore\n      mstore(0x20, keccak256(0x00, 0x40))\n      dup1\n      0x00\n      mstore\n      keccak256(0x00, 0x40)\n      0x00\n      swap2\n      pop\n      swap2\n      pop\n      pop\n      dup1\n      0x00\n      add\n      sload\n      swap1\n      dup1\n      0x01\n      add\n      0x00\n      swap1\n      sload\n      swap1\n      0x0100\n      exp\n      swap1\n      div\n      0xffffffffffffffffffffffffffffffffffffffff\n      and\n      swap1\n      dup1\n      0x02\n      add\n      0x00\n      swap1\n      sload\n      swap1\n      0x0100\n      exp\n      swap1\n      div\n      0xffffffffffffffffffffffffffffffffffffffff\n      and\n      swap1\n      dup1\n      0x03\n      add\n      0x00\n      swap1\n      sload\n      swap1\n      0x0100\n      exp\n      swap1\n      div\n      0xffffffffffffffffffffffffffffffffffffffff\n      and\n      swap1\n      dup1\n      0x04\n      add\n      sload\n      swap1\n      dup1\n      0x05\n      add\n      0x00\n      swap1\n      sload\n      swap1\n      0x0100\n      exp\n      swap1\n      div\n      0xffffffffffffffffffffffffffffffffffffffff\n      and\n      swap1\n      dup1\n      0x06\n      add\n      sload\n      swap1\n      pop\n      dup8\n      jump\t// out\n        /* \"contracts/Swapper.sol\":5205:7094  function acceptRequest(uint _requestId) external {... */\n    tag_63:\n        /* \"contracts/Swapper.sol\":5265:5288  Request memory _request */\n      0x00\n        /* \"contracts/Swapper.sol\":5291:5303  _requestPool */\n      0x01\n        /* \"contracts/Swapper.sol\":5291:5315  _requestPool[msg.sender] */\n      0x00\n        /* \"contracts/Swapper.sol\":5304:5314  msg.sender */\n      caller\n        /* \"contracts/Swapper.sol\":5291:5315  _requestPool[msg.sender] */\n      0xffffffffffffffffffffffffffffffffffffffff\n      and\n      0xffffffffffffffffffffffffffffffffffffffff\n      and\n      dup2\n      mstore\n      0x20\n      add\n      swap1\n      dup2\n      mstore\n      0x20\n      add\n      0x00\n      keccak256\n        /* \"contracts/Swapper.sol\":5291:5327  _requestPool[msg.sender][_requestId] */\n      0x00\n        /* \"contracts/Swapper.sol\":5316:5326  _requestId */\n      dup4\n        /* \"contracts/Swapper.sol\":5291:5327  _requestPool[msg.sender][_requestId] */\n      dup2\n      mstore\n      0x20\n      add\n      swap1\n      dup2\n      mstore\n      0x20\n      add\n      0x00\n      keccak256\n        /* \"contracts/Swapper.sol\":5265:5327  Request memory _request = _requestPool[msg.sender][_requestId] */\n      mload(0x40)\n      dup1\n      0xe0\n      add\n      0x40\n      mstore\n      swap1\n      dup2\n      0x00\n      dup3\n      add\n      sload\n      dup2\n      mstore\n      0x20\n      add\n      0x01\n      dup3\n      add\n      0x00\n      swap1\n      sload\n      swap1\n      0x0100\n      exp\n      swap1\n      div\n      0xffffffffffffffffffffffffffffffffffffffff\n      and\n      0xffffffffffffffffffffffffffffffffffffffff\n      and\n      0xffffffffffffffffffffffffffffffffffffffff\n      and\n      dup2\n      mstore\n      0x20\n      add\n      0x02\n      dup3\n      add\n      0x00\n      swap1\n      sload\n      swap1\n      0x0100\n      exp\n      swap1\n      div\n      0xffffffffffffffffffffffffffffffffffffffff\n      and\n      0xffffffffffffffffffffffffffffffffffffffff\n      and\n      0xffffffffffffffffffffffffffffffffffffffff\n      and\n      dup2\n      mstore\n      0x20\n      add\n      0x03\n      dup3\n      add\n      0x00\n      swap1\n      sload\n      swap1\n      0x0100\n      exp\n      swap1\n      div\n      0xffffffffffffffffffffffffffffffffffffffff\n      and\n      0xffffffffffffffffffffffffffffffffffffffff\n      and\n      0xffffffffffffffffffffffffffffffffffffffff\n      and\n      dup2\n      mstore\n      0x20\n      add\n      0x04\n      dup3\n      add\n      sload\n      dup2\n      mstore\n      0x20\n      add\n      0x05\n      dup3\n      add\n      0x00\n      swap1\n      sload\n      swap1\n      0x0100\n      exp\n      swap1\n      div\n      0xffffffffffffffffffffffffffffffffffffffff\n      and\n      0xffffffffffffffffffffffffffffffffffffffff\n      and\n      0xffffffffffffffffffffffffffffffffffffffff\n      and\n      dup2\n      mstore\n      0x20\n      add\n      0x06\n      dup3\n      add\n      sload\n      dup2\n      mstore\n      pop\n      pop\n      swap1\n      pop\n        /* \"contracts/Swapper.sol\":5342:5360  _isEmpty(_request) */\n      tag_161\n        /* \"contracts/Swapper.sol\":5351:5359  _request */\n      dup2\n        /* \"contracts/Swapper.sol\":5342:5350  _isEmpty */\n      tag_108\n        /* \"contracts/Swapper.sol\":5342:5360  _isEmpty(_request) */\n      jump\t// in\n    tag_161:\n        /* \"contracts/Swapper.sol\":5338:5407  if (_isEmpty(_request)){... */\n      iszero\n      tag_162\n      jumpi\n        /* \"contracts/Swapper.sol\":5383:5395  BadRequest() */\n      mload(0x40)\n      0x41cc6b2100000000000000000000000000000000000000000000000000000000\n      dup2\n      mstore\n      0x04\n      add\n      mload(0x40)\n      dup1\n      swap2\n      sub\n      swap1\n      revert\n        /* \"contracts/Swapper.sol\":5338:5407  if (_isEmpty(_request)){... */\n    tag_162:\n        /* \"contracts/Swapper.sol\":5443:5453  msg.sender */\n      caller\n        /* \"contracts/Swapper.sol\":5421:5453  _request.requestee != msg.sender */\n      0xffffffffffffffffffffffffffffffffffffffff\n      and\n        /* \"contracts/Swapper.sol\":5421:5429  _request */\n      dup2\n        /* \"contracts/Swapper.sol\":5421:5439  _request.requestee */\n      0x40\n      add\n      mload\n        /* \"contracts/Swapper.sol\":5421:5453  _request.requestee != msg.sender */\n      0xffffffffffffffffffffffffffffffffffffffff\n      and\n      eq\n        /* \"contracts/Swapper.sol\":5417:5516  if (_request.requestee != msg.sender){... */\n      tag_163\n      jumpi\n        /* \"contracts/Swapper.sol\":5493:5503  msg.sender */\n      caller\n        /* \"contracts/Swapper.sol\":5476:5504  InvalidRequestee(msg.sender) */\n      mload(0x40)\n      0xce1f365a00000000000000000000000000000000000000000000000000000000\n      dup2\n      mstore\n      0x04\n      add\n      tag_164\n      swap2\n      swap1\n      tag_112\n      jump\t// in\n    tag_164:\n      mload(0x40)\n      dup1\n      swap2\n      sub\n      swap1\n      revert\n        /* \"contracts/Swapper.sol\":5417:5516  if (_request.requestee != msg.sender){... */\n    tag_163:\n        /* \"contracts/Swapper.sol\":5528:5546  address _requester */\n      0x00\n        /* \"contracts/Swapper.sol\":5549:5557  _request */\n      dup2\n        /* \"contracts/Swapper.sol\":5549:5567  _request.requester */\n      0x20\n      add\n      mload\n        /* \"contracts/Swapper.sol\":5528:5567  address _requester = _request.requester */\n      swap1\n      pop\n        /* \"contracts/Swapper.sol\":5578:5596  address _requestee */\n      0x00\n        /* \"contracts/Swapper.sol\":5599:5607  _request */\n      dup3\n        /* \"contracts/Swapper.sol\":5599:5617  _request.requestee */\n      0x40\n      add\n      mload\n        /* \"contracts/Swapper.sol\":5578:5617  address _requestee = _request.requestee */\n      swap1\n      pop\n        /* \"contracts/Swapper.sol\":5628:5649  IERC721 _requestedNft */\n      0x00\n        /* \"contracts/Swapper.sol\":5660:5668  _request */\n      dup4\n        /* \"contracts/Swapper.sol\":5660:5681  _request.requestedNft */\n      0xa0\n      add\n      mload\n        /* \"contracts/Swapper.sol\":5628:5682  IERC721 _requestedNft = IERC721(_request.requestedNft) */\n      swap1\n      pop\n        /* \"contracts/Swapper.sol\":5693:5714  IERC721 _requesterNft */\n      0x00\n        /* \"contracts/Swapper.sol\":5725:5733  _request */\n      dup5\n        /* \"contracts/Swapper.sol\":5725:5742  _request.ownedNft */\n      0x60\n      add\n      mload\n        /* \"contracts/Swapper.sol\":5693:5743  IERC721 _requesterNft = IERC721(_request.ownedNft) */\n      swap1\n      pop\n        /* \"contracts/Swapper.sol\":5823:5833  msg.sender */\n      caller\n        /* \"contracts/Swapper.sol\":5773:5833  _requestedNft.ownerOf(_request.requestedNftId) != msg.sender */\n      0xffffffffffffffffffffffffffffffffffffffff\n      and\n        /* \"contracts/Swapper.sol\":5773:5786  _requestedNft */\n      dup3\n        /* \"contracts/Swapper.sol\":5773:5794  _requestedNft.ownerOf */\n      0xffffffffffffffffffffffffffffffffffffffff\n      and\n      0x6352211e\n        /* \"contracts/Swapper.sol\":5795:5803  _request */\n      dup8\n        /* \"contracts/Swapper.sol\":5795:5818  _request.requestedNftId */\n      0xc0\n      add\n      mload\n        /* \"contracts/Swapper.sol\":5773:5819  _requestedNft.ownerOf(_request.requestedNftId) */\n      mload(0x40)\n      dup3\n      0xffffffff\n      and\n      0xe0\n      shl\n      dup2\n      mstore\n      0x04\n      add\n      tag_165\n      swap2\n      swap1\n      tag_166\n      jump\t// in\n    tag_165:\n      0x20\n      mload(0x40)\n      dup1\n      dup4\n      sub\n      dup2\n      dup7\n      gas\n      staticcall\n      iszero\n      dup1\n      iszero\n      tag_168\n      jumpi\n      returndatasize\n      0x00\n      dup1\n      returndatacopy\n      revert(0x00, returndatasize)\n    tag_168:\n      pop\n      pop\n      pop\n      pop\n      mload(0x40)\n      returndatasize\n      not(0x1f)\n      0x1f\n      dup3\n      add\n      and\n      dup3\n      add\n      dup1\n      0x40\n      mstore\n      pop\n      dup2\n      add\n      swap1\n      tag_169\n      swap2\n      swap1\n      tag_170\n      jump\t// in\n    tag_169:\n        /* \"contracts/Swapper.sol\":5773:5833  _requestedNft.ownerOf(_request.requestedNftId) != msg.sender */\n      0xffffffffffffffffffffffffffffffffffffffff\n      and\n      eq\n        /* \"contracts/Swapper.sol\":5770:7087  if(_requestedNft.ownerOf(_request.requestedNftId) != msg.sender){... */\n      tag_171\n      jumpi\n        /* \"contracts/Swapper.sol\":5849:5874  rejectRequest(_requestId) */\n      tag_172\n        /* \"contracts/Swapper.sol\":5863:5873  _requestId */\n      dup7\n        /* \"contracts/Swapper.sol\":5849:5862  rejectRequest */\n      tag_34\n        /* \"contracts/Swapper.sol\":5849:5874  rejectRequest(_requestId) */\n      jump\t// in\n    tag_172:\n        /* \"contracts/Swapper.sol\":5889:5909  userCanceledRequests */\n      0x06\n        /* \"contracts/Swapper.sol\":5889:5921  userCanceledRequests[_requester] */\n      0x00\n        /* \"contracts/Swapper.sol\":5910:5920  _requester */\n      dup6\n        /* \"contracts/Swapper.sol\":5889:5921  userCanceledRequests[_requester] */\n      0xffffffffffffffffffffffffffffffffffffffff\n      and\n      0xffffffffffffffffffffffffffffffffffffffff\n      and\n      dup2\n      mstore\n      0x20\n      add\n      swap1\n      dup2\n      mstore\n      0x20\n      add\n      0x00\n      keccak256\n        /* \"contracts/Swapper.sol\":5927:5935  _request */\n      dup6\n        /* \"contracts/Swapper.sol\":5889:5936  userCanceledRequests[_requester].push(_request) */\n      swap1\n      dup1\n      0x01\n      dup2\n      sload\n      add\n      dup1\n      dup3\n      sstore\n      dup1\n      swap2\n      pop\n      pop\n      0x01\n      swap1\n      sub\n      swap1\n      0x00\n      mstore\n      keccak256(0x00, 0x20)\n      swap1\n      0x07\n      mul\n      add\n      0x00\n      swap1\n      swap2\n      swap1\n      swap2\n      swap1\n      swap2\n      pop\n      0x00\n      dup3\n      add\n      mload\n      dup2\n      0x00\n      add\n      sstore\n      0x20\n      dup3\n      add\n      mload\n      dup2\n      0x01\n      add\n      exp(0x0100, 0x00)\n      dup2\n      sload\n      dup2\n      0xffffffffffffffffffffffffffffffffffffffff\n      mul\n      not\n      and\n      swap1\n      dup4\n      0xffffffffffffffffffffffffffffffffffffffff\n      and\n      mul\n      or\n      swap1\n      sstore\n      pop\n      0x40\n      dup3\n      add\n      mload\n      dup2\n      0x02\n      add\n      exp(0x0100, 0x00)\n      dup2\n      sload\n      dup2\n      0xffffffffffffffffffffffffffffffffffffffff\n      mul\n      not\n      and\n      swap1\n      dup4\n      0xffffffffffffffffffffffffffffffffffffffff\n      and\n      mul\n      or\n      swap1\n      sstore\n      pop\n      0x60\n      dup3\n      add\n      mload\n      dup2\n      0x03\n      add\n      exp(0x0100, 0x00)\n      dup2\n      sload\n      dup2\n      0xffffffffffffffffffffffffffffffffffffffff\n      mul\n      not\n      and\n      swap1\n      dup4\n      0xffffffffffffffffffffffffffffffffffffffff\n      and\n      mul\n      or\n      swap1\n      sstore\n      pop\n      0x80\n      dup3\n      add\n      mload\n      dup2\n      0x04\n      add\n      sstore\n      0xa0\n      dup3\n      add\n      mload\n      dup2\n      0x05\n      add\n      exp(0x0100, 0x00)\n      dup2\n      sload\n      dup2\n      0xffffffffffffffffffffffffffffffffffffffff\n      mul\n      not\n      and\n      swap1\n      dup4\n      0xffffffffffffffffffffffffffffffffffffffff\n      and\n      mul\n      or\n      swap1\n      sstore\n      pop\n      0xc0\n      dup3\n      add\n      mload\n      dup2\n      0x06\n      add\n      sstore\n      pop\n      pop\n        /* \"contracts/Swapper.sol\":5951:5971  userCanceledRequests */\n      0x06\n        /* \"contracts/Swapper.sol\":5951:5983  userCanceledRequests[_requestee] */\n      0x00\n        /* \"contracts/Swapper.sol\":5972:5982  _requestee */\n      dup5\n        /* \"contracts/Swapper.sol\":5951:5983  userCanceledRequests[_requestee] */\n      0xffffffffffffffffffffffffffffffffffffffff\n      and\n      0xffffffffffffffffffffffffffffffffffffffff\n      and\n      dup2\n      mstore\n      0x20\n      add\n      swap1\n      dup2\n      mstore\n      0x20\n      add\n      0x00\n      keccak256\n        /* \"contracts/Swapper.sol\":5989:5997  _request */\n      dup6\n        /* \"contracts/Swapper.sol\":5951:5998  userCanceledRequests[_requestee].push(_request) */\n      swap1\n      dup1\n      0x01\n      dup2\n      sload\n      add\n      dup1\n      dup3\n      sstore\n      dup1\n      swap2\n      pop\n      pop\n      0x01\n      swap1\n      sub\n      swap1\n      0x00\n      mstore\n      keccak256(0x00, 0x20)\n      swap1\n      0x07\n      mul\n      add\n      0x00\n      swap1\n      swap2\n      swap1\n      swap2\n      swap1\n      swap2\n      pop\n      0x00\n      dup3\n      add\n      mload\n      dup2\n      0x00\n      add\n      sstore\n      0x20\n      dup3\n      add\n      mload\n      dup2\n      0x01\n      add\n      exp(0x0100, 0x00)\n      dup2\n      sload\n      dup2\n      0xffffffffffffffffffffffffffffffffffffffff\n      mul\n      not\n      and\n      swap1\n      dup4\n      0xffffffffffffffffffffffffffffffffffffffff\n      and\n      mul\n      or\n      swap1\n      sstore\n      pop\n      0x40\n      dup3\n      add\n      mload\n      dup2\n      0x02\n      add\n      exp(0x0100, 0x00)\n      dup2\n      sload\n      dup2\n      0xffffffffffffffffffffffffffffffffffffffff\n      mul\n      not\n      and\n      swap1\n      dup4\n      0xffffffffffffffffffffffffffffffffffffffff\n      and\n      mul\n      or\n      swap1\n      sstore\n      pop\n      0x60\n      dup3\n      add\n      mload\n      dup2\n      0x03\n      add\n      exp(0x0100, 0x00)\n      dup2\n      sload\n      dup2\n      0xffffffffffffffffffffffffffffffffffffffff\n      mul\n      not\n      and\n      swap1\n      dup4\n      0xffffffffffffffffffffffffffffffffffffffff\n      and\n      mul\n      or\n      swap1\n      sstore\n      pop\n      0x80\n      dup3\n      add\n      mload\n      dup2\n      0x04\n      add\n      sstore\n      0xa0\n      dup3\n      add\n      mload\n      dup2\n      0x05\n      add\n      exp(0x0100, 0x00)\n      dup2\n      sload\n      dup2\n      0xffffffffffffffffffffffffffffffffffffffff\n      mul\n      not\n      and\n      swap1\n      dup4\n      0xffffffffffffffffffffffffffffffffffffffff\n      and\n      mul\n      or\n      swap1\n      sstore\n      pop\n      0xc0\n      dup3\n      add\n      mload\n      dup2\n      0x06\n      add\n      sstore\n      pop\n      pop\n        /* \"contracts/Swapper.sol\":5770:7087  if(_requestedNft.ownerOf(_request.requestedNftId) != msg.sender){... */\n      jump(tag_175)\n    tag_171:\n        /* \"contracts/Swapper.sol\":6041:6054  _requestedNft */\n      dup2\n        /* \"contracts/Swapper.sol\":6041:6071  _requestedNft.safeTransferFrom */\n      0xffffffffffffffffffffffffffffffffffffffff\n      and\n      0x42842e0e\n        /* \"contracts/Swapper.sol\":6072:6082  msg.sender */\n      caller\n        /* \"contracts/Swapper.sol\":6092:6096  this */\n      address\n        /* \"contracts/Swapper.sol\":6099:6107  _request */\n      dup9\n        /* \"contracts/Swapper.sol\":6099:6122  _request.requestedNftId */\n      0xc0\n      add\n      mload\n        /* \"contracts/Swapper.sol\":6041:6123  _requestedNft.safeTransferFrom(msg.sender, address(this), _request.requestedNftId) */\n      mload(0x40)\n      dup5\n      0xffffffff\n      and\n      0xe0\n      shl\n      dup2\n      mstore\n      0x04\n      add\n      tag_176\n      swap4\n      swap3\n      swap2\n      swap1\n      tag_114\n      jump\t// in\n    tag_176:\n      0x00\n      mload(0x40)\n      dup1\n      dup4\n      sub\n      dup2\n      0x00\n      dup8\n      dup1\n      extcodesize\n      iszero\n      dup1\n      iszero\n      tag_177\n      jumpi\n      0x00\n      dup1\n      revert\n    tag_177:\n      pop\n      gas\n      call\n      iszero\n      dup1\n      iszero\n      tag_179\n      jumpi\n      returndatasize\n      0x00\n      dup1\n      returndatacopy\n      revert(0x00, returndatasize)\n    tag_179:\n      pop\n      pop\n      pop\n      pop\n        /* \"contracts/Swapper.sol\":6138:6151  _requesterNft */\n      dup1\n        /* \"contracts/Swapper.sol\":6138:6168  _requesterNft.safeTransferFrom */\n      0xffffffffffffffffffffffffffffffffffffffff\n      and\n      0x42842e0e\n        /* \"contracts/Swapper.sol\":6177:6181  this */\n      address\n        /* \"contracts/Swapper.sol\":6184:6194  _requestee */\n      dup6\n        /* \"contracts/Swapper.sol\":6196:6204  _request */\n      dup9\n        /* \"contracts/Swapper.sol\":6196:6215  _request.ownedNftId */\n      0x80\n      add\n      mload\n        /* \"contracts/Swapper.sol\":6138:6216  _requesterNft.safeTransferFrom(address(this), _requestee, _request.ownedNftId) */\n      mload(0x40)\n      dup5\n      0xffffffff\n      and\n      0xe0\n      shl\n      dup2\n      mstore\n      0x04\n      add\n      tag_180\n      swap4\n      swap3\n      swap2\n      swap1\n      tag_114\n      jump\t// in\n    tag_180:\n      0x00\n      mload(0x40)\n      dup1\n      dup4\n      sub\n      dup2\n      0x00\n      dup8\n      dup1\n      extcodesize\n      iszero\n      dup1\n      iszero\n      tag_181\n      jumpi\n      0x00\n      dup1\n      revert\n    tag_181:\n      pop\n      gas\n      call\n      iszero\n      dup1\n      iszero\n      tag_183\n      jumpi\n      returndatasize\n      0x00\n      dup1\n      returndatacopy\n      revert(0x00, returndatasize)\n    tag_183:\n      pop\n      pop\n      pop\n      pop\n        /* \"contracts/Swapper.sol\":6231:6244  _requestedNft */\n      dup2\n        /* \"contracts/Swapper.sol\":6231:6261  _requestedNft.safeTransferFrom */\n      0xffffffffffffffffffffffffffffffffffffffff\n      and\n      0x42842e0e\n        /* \"contracts/Swapper.sol\":6270:6274  this */\n      address\n        /* \"contracts/Swapper.sol\":6277:6287  _requester */\n      dup7\n        /* \"contracts/Swapper.sol\":6289:6297  _request */\n      dup9\n        /* \"contracts/Swapper.sol\":6289:6312  _request.requestedNftId */\n      0xc0\n      add\n      mload\n        /* \"contracts/Swapper.sol\":6231:6313  _requestedNft.safeTransferFrom(address(this), _requester, _request.requestedNftId) */\n      mload(0x40)\n      dup5\n      0xffffffff\n      and\n      0xe0\n      shl\n      dup2\n      mstore\n      0x04\n      add\n      tag_184\n      swap4\n      swap3\n      swap2\n      swap1\n      tag_114\n      jump\t// in\n    tag_184:\n      0x00\n      mload(0x40)\n      dup1\n      dup4\n      sub\n      dup2\n      0x00\n      dup8\n      dup1\n      extcodesize\n      iszero\n      dup1\n      iszero\n      tag_185\n      jumpi\n      0x00\n      dup1\n      revert\n    tag_185:\n      pop\n      gas\n      call\n      iszero\n      dup1\n      iszero\n      tag_187\n      jumpi\n      returndatasize\n      0x00\n      dup1\n      returndatacopy\n      revert(0x00, returndatasize)\n    tag_187:\n      pop\n      pop\n      pop\n      pop\n        /* \"contracts/Swapper.sol\":6335:6347  _requestPool */\n      0x01\n        /* \"contracts/Swapper.sol\":6335:6359  _requestPool[_requestee] */\n      0x00\n        /* \"contracts/Swapper.sol\":6348:6358  _requestee */\n      dup5\n        /* \"contracts/Swapper.sol\":6335:6359  _requestPool[_requestee] */\n      0xffffffffffffffffffffffffffffffffffffffff\n      and\n      0xffffffffffffffffffffffffffffffffffffffff\n      and\n      dup2\n      mstore\n      0x20\n      add\n      swap1\n      dup2\n      mstore\n      0x20\n      add\n      0x00\n      keccak256\n        /* \"contracts/Swapper.sol\":6335:6371  _requestPool[_requestee][_requestId] */\n      0x00\n        /* \"contracts/Swapper.sol\":6360:6370  _requestId */\n      dup8\n        /* \"contracts/Swapper.sol\":6335:6371  _requestPool[_requestee][_requestId] */\n      dup2\n      mstore\n      0x20\n      add\n      swap1\n      dup2\n      mstore\n      0x20\n      add\n      0x00\n      keccak256\n      0x00\n        /* \"contracts/Swapper.sol\":6328:6371  delete _requestPool[_requestee][_requestId] */\n      dup1\n      dup3\n      add\n      0x00\n      swap1\n      sstore\n      0x01\n      dup3\n      add\n      exp(0x0100, 0x00)\n      dup2\n      sload\n      swap1\n      0xffffffffffffffffffffffffffffffffffffffff\n      mul\n      not\n      and\n      swap1\n      sstore\n      0x02\n      dup3\n      add\n      exp(0x0100, 0x00)\n      dup2\n      sload\n      swap1\n      0xffffffffffffffffffffffffffffffffffffffff\n      mul\n      not\n      and\n      swap1\n      sstore\n      0x03\n      dup3\n      add\n      exp(0x0100, 0x00)\n      dup2\n      sload\n      swap1\n      0xffffffffffffffffffffffffffffffffffffffff\n      mul\n      not\n      and\n      swap1\n      sstore\n      0x04\n      dup3\n      add\n      0x00\n      swap1\n      sstore\n      0x05\n      dup3\n      add\n      exp(0x0100, 0x00)\n      dup2\n      sload\n      swap1\n      0xffffffffffffffffffffffffffffffffffffffff\n      mul\n      not\n      and\n      swap1\n      sstore\n      0x06\n      dup3\n      add\n      0x00\n      swap1\n      sstore\n      pop\n      pop\n        /* \"contracts/Swapper.sol\":6386:6414  Request[] memory userPending */\n      0x00\n        /* \"contracts/Swapper.sol\":6417:6431  requesteeInbox */\n      0x02\n        /* \"contracts/Swapper.sol\":6417:6443  requesteeInbox[_requestee] */\n      0x00\n        /* \"contracts/Swapper.sol\":6432:6442  _requestee */\n      dup6\n        /* \"contracts/Swapper.sol\":6417:6443  requesteeInbox[_requestee] */\n      0xffffffffffffffffffffffffffffffffffffffff\n      and\n      0xffffffffffffffffffffffffffffffffffffffff\n      and\n      dup2\n      mstore\n      0x20\n      add\n      swap1\n      dup2\n      mstore\n      0x20\n      add\n      0x00\n      keccak256\n        /* \"contracts/Swapper.sol\":6386:6443  Request[] memory userPending = requesteeInbox[_requestee] */\n      dup1\n      sload\n      dup1\n      0x20\n      mul\n      0x20\n      add\n      mload(0x40)\n      swap1\n      dup2\n      add\n      0x40\n      mstore\n      dup1\n      swap3\n      swap2\n      swap1\n      dup2\n      dup2\n      mstore\n      0x20\n      add\n      0x00\n      swap1\n    tag_188:\n      dup3\n      dup3\n      lt\n      iszero\n      tag_189\n      jumpi\n      dup4\n      dup3\n      swap1\n      0x00\n      mstore\n      keccak256(0x00, 0x20)\n      swap1\n      0x07\n      mul\n      add\n      mload(0x40)\n      dup1\n      0xe0\n      add\n      0x40\n      mstore\n      swap1\n      dup2\n      0x00\n      dup3\n      add\n      sload\n      dup2\n      mstore\n      0x20\n      add\n      0x01\n      dup3\n      add\n      0x00\n      swap1\n      sload\n      swap1\n      0x0100\n      exp\n      swap1\n      div\n      0xffffffffffffffffffffffffffffffffffffffff\n      and\n      0xffffffffffffffffffffffffffffffffffffffff\n      and\n      0xffffffffffffffffffffffffffffffffffffffff\n      and\n      dup2\n      mstore\n      0x20\n      add\n      0x02\n      dup3\n      add\n      0x00\n      swap1\n      sload\n      swap1\n      0x0100\n      exp\n      swap1\n      div\n      0xffffffffffffffffffffffffffffffffffffffff\n      and\n      0xffffffffffffffffffffffffffffffffffffffff\n      and\n      0xffffffffffffffffffffffffffffffffffffffff\n      and\n      dup2\n      mstore\n      0x20\n      add\n      0x03\n      dup3\n      add\n      0x00\n      swap1\n      sload\n      swap1\n      0x0100\n      exp\n      swap1\n      div\n      0xffffffffffffffffffffffffffffffffffffffff\n      and\n      0xffffffffffffffffffffffffffffffffffffffff\n      and\n      0xffffffffffffffffffffffffffffffffffffffff\n      and\n      dup2\n      mstore\n      0x20\n      add\n      0x04\n      dup3\n      add\n      sload\n      dup2\n      mstore\n      0x20\n      add\n      0x05\n      dup3\n      add\n      0x00\n      swap1\n      sload\n      swap1\n      0x0100\n      exp\n      swap1\n      div\n      0xffffffffffffffffffffffffffffffffffffffff\n      and\n      0xffffffffffffffffffffffffffffffffffffffff\n      and\n      0xffffffffffffffffffffffffffffffffffffffff\n      and\n      dup2\n      mstore\n      0x20\n      add\n      0x06\n      dup3\n      add\n      sload\n      dup2\n      mstore\n      pop\n      pop\n      dup2\n      mstore\n      0x20\n      add\n      swap1\n      0x01\n      add\n      swap1\n      jump(tag_188)\n    tag_189:\n      pop\n      pop\n      pop\n      pop\n      swap1\n      pop\n        /* \"contracts/Swapper.sol\":6458:6491  Request[] memory requesterPending */\n      0x00\n        /* \"contracts/Swapper.sol\":6494:6509  requesterOutbox */\n      0x03\n        /* \"contracts/Swapper.sol\":6494:6521  requesterOutbox[_requester] */\n      0x00\n        /* \"contracts/Swapper.sol\":6510:6520  _requester */\n      dup8\n        /* \"contracts/Swapper.sol\":6494:6521  requesterOutbox[_requester] */\n      0xffffffffffffffffffffffffffffffffffffffff\n      and\n      0xffffffffffffffffffffffffffffffffffffffff\n      and\n      dup2\n      mstore\n      0x20\n      add\n      swap1\n      dup2\n      mstore\n      0x20\n      add\n      0x00\n      keccak256\n        /* \"contracts/Swapper.sol\":6458:6521  Request[] memory requesterPending = requesterOutbox[_requester] */\n      dup1\n      sload\n      dup1\n      0x20\n      mul\n      0x20\n      add\n      mload(0x40)\n      swap1\n      dup2\n      add\n      0x40\n      mstore\n      dup1\n      swap3\n      swap2\n      swap1\n      dup2\n      dup2\n      mstore\n      0x20\n      add\n      0x00\n      swap1\n    tag_191:\n      dup3\n      dup3\n      lt\n      iszero\n      tag_192\n      jumpi\n      dup4\n      dup3\n      swap1\n      0x00\n      mstore\n      keccak256(0x00, 0x20)\n      swap1\n      0x07\n      mul\n      add\n      mload(0x40)\n      dup1\n      0xe0\n      add\n      0x40\n      mstore\n      swap1\n      dup2\n      0x00\n      dup3\n      add\n      sload\n      dup2\n      mstore\n      0x20\n      add\n      0x01\n      dup3\n      add\n      0x00\n      swap1\n      sload\n      swap1\n      0x0100\n      exp\n      swap1\n      div\n      0xffffffffffffffffffffffffffffffffffffffff\n      and\n      0xffffffffffffffffffffffffffffffffffffffff\n      and\n      0xffffffffffffffffffffffffffffffffffffffff\n      and\n      dup2\n      mstore\n      0x20\n      add\n      0x02\n      dup3\n      add\n      0x00\n      swap1\n      sload\n      swap1\n      0x0100\n      exp\n      swap1\n      div\n      0xffffffffffffffffffffffffffffffffffffffff\n      and\n      0xffffffffffffffffffffffffffffffffffffffff\n      and\n      0xffffffffffffffffffffffffffffffffffffffff\n      and\n      dup2\n      mstore\n      0x20\n      add\n      0x03\n      dup3\n      add\n      0x00\n      swap1\n      sload\n      swap1\n      0x0100\n      exp\n      swap1\n      div\n      0xffffffffffffffffffffffffffffffffffffffff\n      and\n      0xffffffffffffffffffffffffffffffffffffffff\n      and\n      0xffffffffffffffffffffffffffffffffffffffff\n      and\n      dup2\n      mstore\n      0x20\n      add\n      0x04\n      dup3\n      add\n      sload\n      dup2\n      mstore\n      0x20\n      add\n      0x05\n      dup3\n      add\n      0x00\n      swap1\n      sload\n      swap1\n      0x0100\n      exp\n      swap1\n      div\n      0xffffffffffffffffffffffffffffffffffffffff\n      and\n      0xffffffffffffffffffffffffffffffffffffffff\n      and\n      0xffffffffffffffffffffffffffffffffffffffff\n      and\n      dup2\n      mstore\n      0x20\n      add\n      0x06\n      dup3\n      add\n      sload\n      dup2\n      mstore\n      pop\n      pop\n      dup2\n      mstore\n      0x20\n      add\n      swap1\n      0x01\n      add\n      swap1\n      jump(tag_191)\n    tag_192:\n      pop\n      pop\n      pop\n      pop\n      swap1\n      pop\n        /* \"contracts/Swapper.sol\":6626:6640  requesteeInbox */\n      0x02\n        /* \"contracts/Swapper.sol\":6626:6652  requesteeInbox[_requestee] */\n      0x00\n        /* \"contracts/Swapper.sol\":6641:6651  _requestee */\n      dup7\n        /* \"contracts/Swapper.sol\":6626:6652  requesteeInbox[_requestee] */\n      0xffffffffffffffffffffffffffffffffffffffff\n      and\n      0xffffffffffffffffffffffffffffffffffffffff\n      and\n      dup2\n      mstore\n      0x20\n      add\n      swap1\n      dup2\n      mstore\n      0x20\n      add\n      0x00\n      keccak256\n      0x00\n        /* \"contracts/Swapper.sol\":6619:6652  delete requesteeInbox[_requestee] */\n      tag_194\n      swap2\n      swap1\n      tag_122\n      jump\t// in\n    tag_194:\n        /* \"contracts/Swapper.sol\":6667:6733  removeRequest(location.inbox, _requestee, userPending, _requestId) */\n      tag_195\n        /* \"contracts/Swapper.sol\":6681:6695  location.inbox */\n      0x01\n        /* \"contracts/Swapper.sol\":6697:6707  _requestee */\n      dup7\n        /* \"contracts/Swapper.sol\":6709:6720  userPending */\n      dup5\n        /* \"contracts/Swapper.sol\":6722:6732  _requestId */\n      dup12\n        /* \"contracts/Swapper.sol\":6667:6680  removeRequest */\n      tag_124\n        /* \"contracts/Swapper.sol\":6667:6733  removeRequest(location.inbox, _requestee, userPending, _requestId) */\n      jump\t// in\n    tag_195:\n        /* \"contracts/Swapper.sol\":6748:6768  userAcceptedRequests */\n      0x04\n        /* \"contracts/Swapper.sol\":6748:6780  userAcceptedRequests[_requestee] */\n      0x00\n        /* \"contracts/Swapper.sol\":6769:6779  _requestee */\n      dup7\n        /* \"contracts/Swapper.sol\":6748:6780  userAcceptedRequests[_requestee] */\n      0xffffffffffffffffffffffffffffffffffffffff\n      and\n      0xffffffffffffffffffffffffffffffffffffffff\n      and\n      dup2\n      mstore\n      0x20\n      add\n      swap1\n      dup2\n      mstore\n      0x20\n      add\n      0x00\n      keccak256\n        /* \"contracts/Swapper.sol\":6786:6794  _request */\n      dup8\n        /* \"contracts/Swapper.sol\":6748:6795  userAcceptedRequests[_requestee].push(_request) */\n      swap1\n      dup1\n      0x01\n      dup2\n      sload\n      add\n      dup1\n      dup3\n      sstore\n      dup1\n      swap2\n      pop\n      pop\n      0x01\n      swap1\n      sub\n      swap1\n      0x00\n      mstore\n      keccak256(0x00, 0x20)\n      swap1\n      0x07\n      mul\n      add\n      0x00\n      swap1\n      swap2\n      swap1\n      swap2\n      swap1\n      swap2\n      pop\n      0x00\n      dup3\n      add\n      mload\n      dup2\n      0x00\n      add\n      sstore\n      0x20\n      dup3\n      add\n      mload\n      dup2\n      0x01\n      add\n      exp(0x0100, 0x00)\n      dup2\n      sload\n      dup2\n      0xffffffffffffffffffffffffffffffffffffffff\n      mul\n      not\n      and\n      swap1\n      dup4\n      0xffffffffffffffffffffffffffffffffffffffff\n      and\n      mul\n      or\n      swap1\n      sstore\n      pop\n      0x40\n      dup3\n      add\n      mload\n      dup2\n      0x02\n      add\n      exp(0x0100, 0x00)\n      dup2\n      sload\n      dup2\n      0xffffffffffffffffffffffffffffffffffffffff\n      mul\n      not\n      and\n      swap1\n      dup4\n      0xffffffffffffffffffffffffffffffffffffffff\n      and\n      mul\n      or\n      swap1\n      sstore\n      pop\n      0x60\n      dup3\n      add\n      mload\n      dup2\n      0x03\n      add\n      exp(0x0100, 0x00)\n      dup2\n      sload\n      dup2\n      0xffffffffffffffffffffffffffffffffffffffff\n      mul\n      not\n      and\n      swap1\n      dup4\n      0xffffffffffffffffffffffffffffffffffffffff\n      and\n      mul\n      or\n      swap1\n      sstore\n      pop\n      0x80\n      dup3\n      add\n      mload\n      dup2\n      0x04\n      add\n      sstore\n      0xa0\n      dup3\n      add\n      mload\n      dup2\n      0x05\n      add\n      exp(0x0100, 0x00)\n      dup2\n      sload\n      dup2\n      0xffffffffffffffffffffffffffffffffffffffff\n      mul\n      not\n      and\n      swap1\n      dup4\n      0xffffffffffffffffffffffffffffffffffffffff\n      and\n      mul\n      or\n      swap1\n      sstore\n      pop\n      0xc0\n      dup3\n      add\n      mload\n      dup2\n      0x06\n      add\n      sstore\n      pop\n      pop\n        /* \"contracts/Swapper.sol\":6899:6914  requesterOutbox */\n      0x03\n        /* \"contracts/Swapper.sol\":6899:6926  requesterOutbox[_requester] */\n      0x00\n        /* \"contracts/Swapper.sol\":6915:6925  _requester */\n      dup8\n        /* \"contracts/Swapper.sol\":6899:6926  requesterOutbox[_requester] */\n      0xffffffffffffffffffffffffffffffffffffffff\n      and\n      0xffffffffffffffffffffffffffffffffffffffff\n      and\n      dup2\n      mstore\n      0x20\n      add\n      swap1\n      dup2\n      mstore\n      0x20\n      add\n      0x00\n      keccak256\n      0x00\n        /* \"contracts/Swapper.sol\":6892:6926  delete requesterOutbox[_requester] */\n      tag_197\n      swap2\n      swap1\n      tag_122\n      jump\t// in\n    tag_197:\n        /* \"contracts/Swapper.sol\":6941:7013  removeRequest(location.outbox, _requester, requesterPending, _requestId) */\n      tag_198\n        /* \"contracts/Swapper.sol\":6955:6970  location.outbox */\n      0x00\n        /* \"contracts/Swapper.sol\":6972:6982  _requester */\n      dup8\n        /* \"contracts/Swapper.sol\":6984:7000  requesterPending */\n      dup4\n        /* \"contracts/Swapper.sol\":7002:7012  _requestId */\n      dup12\n        /* \"contracts/Swapper.sol\":6941:6954  removeRequest */\n      tag_124\n        /* \"contracts/Swapper.sol\":6941:7013  removeRequest(location.outbox, _requester, requesterPending, _requestId) */\n      jump\t// in\n    tag_198:\n        /* \"contracts/Swapper.sol\":7028:7048  userAcceptedRequests */\n      0x04\n        /* \"contracts/Swapper.sol\":7028:7060  userAcceptedRequests[_requester] */\n      0x00\n        /* \"contracts/Swapper.sol\":7049:7059  _requester */\n      dup8\n        /* \"contracts/Swapper.sol\":7028:7060  userAcceptedRequests[_requester] */\n      0xffffffffffffffffffffffffffffffffffffffff\n      and\n      0xffffffffffffffffffffffffffffffffffffffff\n      and\n      dup2\n      mstore\n      0x20\n      add\n      swap1\n      dup2\n      mstore\n      0x20\n      add\n      0x00\n      keccak256\n        /* \"contracts/Swapper.sol\":7066:7074  _request */\n      dup8\n        /* \"contracts/Swapper.sol\":7028:7075  userAcceptedRequests[_requester].push(_request) */\n      swap1\n      dup1\n      0x01\n      dup2\n      sload\n      add\n      dup1\n      dup3\n      sstore\n      dup1\n      swap2\n      pop\n      pop\n      0x01\n      swap1\n      sub\n      swap1\n      0x00\n      mstore\n      keccak256(0x00, 0x20)\n      swap1\n      0x07\n      mul\n      add\n      0x00\n      swap1\n      swap2\n      swap1\n      swap2\n      swap1\n      swap2\n      pop\n      0x00\n      dup3\n      add\n      mload\n      dup2\n      0x00\n      add\n      sstore\n      0x20\n      dup3\n      add\n      mload\n      dup2\n      0x01\n      add\n      exp(0x0100, 0x00)\n      dup2\n      sload\n      dup2\n      0xffffffffffffffffffffffffffffffffffffffff\n      mul\n      not\n      and\n      swap1\n      dup4\n      0xffffffffffffffffffffffffffffffffffffffff\n      and\n      mul\n      or\n      swap1\n      sstore\n      pop\n      0x40\n      dup3\n      add\n      mload\n      dup2\n      0x02\n      add\n      exp(0x0100, 0x00)\n      dup2\n      sload\n      dup2\n      0xffffffffffffffffffffffffffffffffffffffff\n      mul\n      not\n      and\n      swap1\n      dup4\n      0xffffffffffffffffffffffffffffffffffffffff\n      and\n      mul\n      or\n      swap1\n      sstore\n      pop\n      0x60\n      dup3\n      add\n      mload\n      dup2\n      0x03\n      add\n      exp(0x0100, 0x00)\n      dup2\n      sload\n      dup2\n      0xffffffffffffffffffffffffffffffffffffffff\n      mul\n      not\n      and\n      swap1\n      dup4\n      0xffffffffffffffffffffffffffffffffffffffff\n      and\n      mul\n      or\n      swap1\n      sstore\n      pop\n      0x80\n      dup3\n      add\n      mload\n      dup2\n      0x04\n      add\n      sstore\n      0xa0\n      dup3\n      add\n      mload\n      dup2\n      0x05\n      add\n      exp(0x0100, 0x00)\n      dup2\n      sload\n      dup2\n      0xffffffffffffffffffffffffffffffffffffffff\n      mul\n      not\n      and\n      swap1\n      dup4\n      0xffffffffffffffffffffffffffffffffffffffff\n      and\n      mul\n      or\n      swap1\n      sstore\n      pop\n      0xc0\n      dup3\n      add\n      mload\n      dup2\n      0x06\n      add\n      sstore\n      pop\n      pop\n        /* \"contracts/Swapper.sol\":6026:7087  {... */\n      pop\n      pop\n        /* \"contracts/Swapper.sol\":5770:7087  if(_requestedNft.ownerOf(_request.requestedNftId) != msg.sender){... */\n    tag_175:\n        /* \"contracts/Swapper.sol\":5254:7094  {... */\n      pop\n      pop\n      pop\n      pop\n      pop\n        /* \"contracts/Swapper.sol\":5205:7094  function acceptRequest(uint _requestId) external {... */\n      pop\n      jump\t// out\n        /* \"contracts/Swapper.sol\":1755:1818  mapping(address _requester => Request[]) public requesterOutbox */\n    tag_66:\n      mstore(0x20, 0x03)\n      dup2\n      0x00\n      mstore\n      keccak256(0x00, 0x40)\n      dup2\n      dup2\n      sload\n      dup2\n      lt\n      tag_200\n      jumpi\n      0x00\n      dup1\n      revert\n    tag_200:\n      swap1\n      0x00\n      mstore\n      keccak256(0x00, 0x20)\n      swap1\n      0x07\n      mul\n      add\n      0x00\n      swap2\n      pop\n      swap2\n      pop\n      pop\n      dup1\n      0x00\n      add\n      sload\n      swap1\n      dup1\n      0x01\n      add\n      0x00\n      swap1\n      sload\n      swap1\n      0x0100\n      exp\n      swap1\n      div\n      0xffffffffffffffffffffffffffffffffffffffff\n      and\n      swap1\n      dup1\n      0x02\n      add\n      0x00\n      swap1\n      sload\n      swap1\n      0x0100\n      exp\n      swap1\n      div\n      0xffffffffffffffffffffffffffffffffffffffff\n      and\n      swap1\n      dup1\n      0x03\n      add\n      0x00\n      swap1\n      sload\n      swap1\n      0x0100\n      exp\n      swap1\n      div\n      0xffffffffffffffffffffffffffffffffffffffff\n      and\n      swap1\n      dup1\n      0x04\n      add\n      sload\n      swap1\n      dup1\n      0x05\n      add\n      0x00\n      swap1\n      sload\n      swap1\n      0x0100\n      exp\n      swap1\n      div\n      0xffffffffffffffffffffffffffffffffffffffff\n      and\n      swap1\n      dup1\n      0x06\n      add\n      sload\n      swap1\n      pop\n      dup8\n      jump\t// out\n        /* \"contracts/Swapper.sol\":11258:11388  function fetchRejected(address _user) external view returns(Request[] memory){... */\n    tag_70:\n        /* \"contracts/Swapper.sol\":11318:11334  Request[] memory */\n      0x60\n        /* \"contracts/Swapper.sol\":11353:11373  userRejectedRequests */\n      0x05\n        /* \"contracts/Swapper.sol\":11353:11380  userRejectedRequests[_user] */\n      0x00\n        /* \"contracts/Swapper.sol\":11374:11379  _user */\n      dup4\n        /* \"contracts/Swapper.sol\":11353:11380  userRejectedRequests[_user] */\n      0xffffffffffffffffffffffffffffffffffffffff\n      and\n      0xffffffffffffffffffffffffffffffffffffffff\n      and\n      dup2\n      mstore\n      0x20\n      add\n      swap1\n      dup2\n      mstore\n      0x20\n      add\n      0x00\n      keccak256\n        /* \"contracts/Swapper.sol\":11346:11380  return userRejectedRequests[_user] */\n      dup1\n      sload\n      dup1\n      0x20\n      mul\n      0x20\n      add\n      mload(0x40)\n      swap1\n      dup2\n      add\n      0x40\n      mstore\n      dup1\n      swap3\n      swap2\n      swap1\n      dup2\n      dup2\n      mstore\n      0x20\n      add\n      0x00\n      swap1\n    tag_203:\n      dup3\n      dup3\n      lt\n      iszero\n      tag_204\n      jumpi\n      dup4\n      dup3\n      swap1\n      0x00\n      mstore\n      keccak256(0x00, 0x20)\n      swap1\n      0x07\n      mul\n      add\n      mload(0x40)\n      dup1\n      0xe0\n      add\n      0x40\n      mstore\n      swap1\n      dup2\n      0x00\n      dup3\n      add\n      sload\n      dup2\n      mstore\n      0x20\n      add\n      0x01\n      dup3\n      add\n      0x00\n      swap1\n      sload\n      swap1\n      0x0100\n      exp\n      swap1\n      div\n      0xffffffffffffffffffffffffffffffffffffffff\n      and\n      0xffffffffffffffffffffffffffffffffffffffff\n      and\n      0xffffffffffffffffffffffffffffffffffffffff\n      and\n      dup2\n      mstore\n      0x20\n      add\n      0x02\n      dup3\n      add\n      0x00\n      swap1\n      sload\n      swap1\n      0x0100\n      exp\n      swap1\n      div\n      0xffffffffffffffffffffffffffffffffffffffff\n      and\n      0xffffffffffffffffffffffffffffffffffffffff\n      and\n      0xffffffffffffffffffffffffffffffffffffffff\n      and\n      dup2\n      mstore\n      0x20\n      add\n      0x03\n      dup3\n      add\n      0x00\n      swap1\n      sload\n      swap1\n      0x0100\n      exp\n      swap1\n      div\n      0xffffffffffffffffffffffffffffffffffffffff\n      and\n      0xffffffffffffffffffffffffffffffffffffffff\n      and\n      0xffffffffffffffffffffffffffffffffffffffff\n      and\n      dup2\n      mstore\n      0x20\n      add\n      0x04\n      dup3\n      add\n      sload\n      dup2\n      mstore\n      0x20\n      add\n      0x05\n      dup3\n      add\n      0x00\n      swap1\n      sload\n      swap1\n      0x0100\n      exp\n      swap1\n      div\n      0xffffffffffffffffffffffffffffffffffffffff\n      and\n      0xffffffffffffffffffffffffffffffffffffffff\n      and\n      0xffffffffffffffffffffffffffffffffffffffff\n      and\n      dup2\n      mstore\n      0x20\n      add\n      0x06\n      dup3\n      add\n      sload\n      dup2\n      mstore\n      pop\n      pop\n      dup2\n      mstore\n      0x20\n      add\n      swap1\n      0x01\n      add\n      swap1\n      jump(tag_203)\n    tag_204:\n      pop\n      pop\n      pop\n      pop\n      swap1\n      pop\n        /* \"contracts/Swapper.sol\":11258:11388  function fetchRejected(address _user) external view returns(Request[] memory){... */\n      swap2\n      swap1\n      pop\n      jump\t// out\n        /* \"contracts/Swapper.sol\":2193:2284  mapping(address _requestee => mapping(address _requester => bool)) public approvedAddresses */\n    tag_75:\n      mstore(0x20, 0x07)\n      dup2\n      0x00\n      mstore\n      mstore(0x20, keccak256(0x00, 0x40))\n      dup1\n      0x00\n      mstore\n      keccak256(0x00, 0x40)\n      0x00\n      swap2\n      pop\n      swap2\n      pop\n      swap1\n      sload\n      swap1\n      0x0100\n      exp\n      swap1\n      div\n      0xff\n      and\n      dup2\n      jump\t// out\n        /* \"contracts/Swapper.sol\":11439:11569  function fetchCanceled(address _user) external view returns(Request[] memory){... */\n    tag_80:\n        /* \"contracts/Swapper.sol\":11499:11515  Request[] memory */\n      0x60\n        /* \"contracts/Swapper.sol\":11534:11554  userCanceledRequests */\n      0x06\n        /* \"contracts/Swapper.sol\":11534:11561  userCanceledRequests[_user] */\n      0x00\n        /* \"contracts/Swapper.sol\":11555:11560  _user */\n      dup4\n        /* \"contracts/Swapper.sol\":11534:11561  userCanceledRequests[_user] */\n      0xffffffffffffffffffffffffffffffffffffffff\n      and\n      0xffffffffffffffffffffffffffffffffffffffff\n      and\n      dup2\n      mstore\n      0x20\n      add\n      swap1\n      dup2\n      mstore\n      0x20\n      add\n      0x00\n      keccak256\n        /* \"contracts/Swapper.sol\":11527:11561  return userCanceledRequests[_user] */\n      dup1\n      sload\n      dup1\n      0x20\n      mul\n      0x20\n      add\n      mload(0x40)\n      swap1\n      dup2\n      add\n      0x40\n      mstore\n      dup1\n      swap3\n      swap2\n      swap1\n      dup2\n      dup2\n      mstore\n      0x20\n      add\n      0x00\n      swap1\n    tag_207:\n      dup3\n      dup3\n      lt\n      iszero\n      tag_208\n      jumpi\n      dup4\n      dup3\n      swap1\n      0x00\n      mstore\n      keccak256(0x00, 0x20)\n      swap1\n      0x07\n      mul\n      add\n      mload(0x40)\n      dup1\n      0xe0\n      add\n      0x40\n      mstore\n      swap1\n      dup2\n      0x00\n      dup3\n      add\n      sload\n      dup2\n      mstore\n      0x20\n      add\n      0x01\n      dup3\n      add\n      0x00\n      swap1\n      sload\n      swap1\n      0x0100\n      exp\n      swap1\n      div\n      0xffffffffffffffffffffffffffffffffffffffff\n      and\n      0xffffffffffffffffffffffffffffffffffffffff\n      and\n      0xffffffffffffffffffffffffffffffffffffffff\n      and\n      dup2\n      mstore\n      0x20\n      add\n      0x02\n      dup3\n      add\n      0x00\n      swap1\n      sload\n      swap1\n      0x0100\n      exp\n      swap1\n      div\n      0xffffffffffffffffffffffffffffffffffffffff\n      and\n      0xffffffffffffffffffffffffffffffffffffffff\n      and\n      0xffffffffffffffffffffffffffffffffffffffff\n      and\n      dup2\n      mstore\n      0x20\n      add\n      0x03\n      dup3\n      add\n      0x00\n      swap1\n      sload\n      swap1\n      0x0100\n      exp\n      swap1\n      div\n      0xffffffffffffffffffffffffffffffffffffffff\n      and\n      0xffffffffffffffffffffffffffffffffffffffff\n      and\n      0xffffffffffffffffffffffffffffffffffffffff\n      and\n      dup2\n      mstore\n      0x20\n      add\n      0x04\n      dup3\n      add\n      sload\n      dup2\n      mstore\n      0x20\n      add\n      0x05\n      dup3\n      add\n      0x00\n      swap1\n      sload\n      swap1\n      0x0100\n      exp\n      swap1\n      div\n      0xffffffffffffffffffffffffffffffffffffffff\n      and\n      0xffffffffffffffffffffffffffffffffffffffff\n      and\n      0xffffffffffffffffffffffffffffffffffffffff\n      and\n      dup2\n      mstore\n      0x20\n      add\n      0x06\n      dup3\n      add\n      sload\n      dup2\n      mstore\n      pop\n      pop\n      dup2\n      mstore\n      0x20\n      add\n      swap1\n      0x01\n      add\n      swap1\n      jump(tag_207)\n    tag_208:\n      pop\n      pop\n      pop\n      pop\n      swap1\n      pop\n        /* \"contracts/Swapper.sol\":11439:11569  function fetchCanceled(address _user) external view returns(Request[] memory){... */\n      swap2\n      swap1\n      pop\n      jump\t// out\n        /* \"contracts/Swapper.sol\":12158:12260  function approve(address _user) external{... */\n    tag_84:\n        /* \"contracts/Swapper.sol\":12248:12252  true */\n      0x01\n        /* \"contracts/Swapper.sol\":12209:12226  approvedAddresses */\n      0x07\n        /* \"contracts/Swapper.sol\":12209:12238  approvedAddresses[msg.sender] */\n      0x00\n        /* \"contracts/Swapper.sol\":12227:12237  msg.sender */\n      caller\n        /* \"contracts/Swapper.sol\":12209:12238  approvedAddresses[msg.sender] */\n      0xffffffffffffffffffffffffffffffffffffffff\n      and\n      0xffffffffffffffffffffffffffffffffffffffff\n      and\n      dup2\n      mstore\n      0x20\n      add\n      swap1\n      dup2\n      mstore\n      0x20\n      add\n      0x00\n      keccak256\n        /* \"contracts/Swapper.sol\":12209:12245  approvedAddresses[msg.sender][_user] */\n      0x00\n        /* \"contracts/Swapper.sol\":12239:12244  _user */\n      dup4\n        /* \"contracts/Swapper.sol\":12209:12245  approvedAddresses[msg.sender][_user] */\n      0xffffffffffffffffffffffffffffffffffffffff\n      and\n      0xffffffffffffffffffffffffffffffffffffffff\n      and\n      dup2\n      mstore\n      0x20\n      add\n      swap1\n      dup2\n      mstore\n      0x20\n      add\n      0x00\n      keccak256\n      0x00\n        /* \"contracts/Swapper.sol\":12209:12252  approvedAddresses[msg.sender][_user] = true */\n      0x0100\n      exp\n      dup2\n      sload\n      dup2\n      0xff\n      mul\n      not\n      and\n      swap1\n      dup4\n      iszero\n      iszero\n      mul\n      or\n      swap1\n      sstore\n      pop\n        /* \"contracts/Swapper.sol\":12158:12260  function approve(address _user) external{... */\n      pop\n      jump\t// out\n        /* \"contracts/Swapper.sol\":1864:1932  mapping(address _requestee => Request[]) public userAcceptedRequests */\n    tag_87:\n      mstore(0x20, 0x04)\n      dup2\n      0x00\n      mstore\n      keccak256(0x00, 0x40)\n      dup2\n      dup2\n      sload\n      dup2\n      lt\n      tag_211\n      jumpi\n      0x00\n      dup1\n      revert\n    tag_211:\n      swap1\n      0x00\n      mstore\n      keccak256(0x00, 0x20)\n      swap1\n      0x07\n      mul\n      add\n      0x00\n      swap2\n      pop\n      swap2\n      pop\n      pop\n      dup1\n      0x00\n      add\n      sload\n      swap1\n      dup1\n      0x01\n      add\n      0x00\n      swap1\n      sload\n      swap1\n      0x0100\n      exp\n      swap1\n      div\n      0xffffffffffffffffffffffffffffffffffffffff\n      and\n      swap1\n      dup1\n      0x02\n      add\n      0x00\n      swap1\n      sload\n      swap1\n      0x0100\n      exp\n      swap1\n      div\n      0xffffffffffffffffffffffffffffffffffffffff\n      and\n      swap1\n      dup1\n      0x03\n      add\n      0x00\n      swap1\n      sload\n      swap1\n      0x0100\n      exp\n      swap1\n      div\n      0xffffffffffffffffffffffffffffffffffffffff\n      and\n      swap1\n      dup1\n      0x04\n      add\n      sload\n      swap1\n      dup1\n      0x05\n      add\n      0x00\n      swap1\n      sload\n      swap1\n      0x0100\n      exp\n      swap1\n      div\n      0xffffffffffffffffffffffffffffffffffffffff\n      and\n      swap1\n      dup1\n      0x06\n      add\n      sload\n      swap1\n      pop\n      dup8\n      jump\t// out\n        /* \"contracts/Swapper.sol\":1653:1715  mapping(address _requestee => Request[]) public requesteeInbox */\n    tag_91:\n      mstore(0x20, 0x02)\n      dup2\n      0x00\n      mstore\n      keccak256(0x00, 0x40)\n      dup2\n      dup2\n      sload\n      dup2\n      lt\n      tag_213\n      jumpi\n      0x00\n      dup1\n      revert\n    tag_213:\n      swap1\n      0x00\n      mstore\n      keccak256(0x00, 0x20)\n      swap1\n      0x07\n      mul\n      add\n      0x00\n      swap2\n      pop\n      swap2\n      pop\n      pop\n      dup1\n      0x00\n      add\n      sload\n      swap1\n      dup1\n      0x01\n      add\n      0x00\n      swap1\n      sload\n      swap1\n      0x0100\n      exp\n      swap1\n      div\n      0xffffffffffffffffffffffffffffffffffffffff\n      and\n      swap1\n      dup1\n      0x02\n      add\n      0x00\n      swap1\n      sload\n      swap1\n      0x0100\n      exp\n      swap1\n      div\n      0xffffffffffffffffffffffffffffffffffffffff\n      and\n      swap1\n      dup1\n      0x03\n      add\n      0x00\n      swap1\n      sload\n      swap1\n      0x0100\n      exp\n      swap1\n      div\n      0xffffffffffffffffffffffffffffffffffffffff\n      and\n      swap1\n      dup1\n      0x04\n      add\n      sload\n      swap1\n      dup1\n      0x05\n      add\n      0x00\n      swap1\n      sload\n      swap1\n      0x0100\n      exp\n      swap1\n      div\n      0xffffffffffffffffffffffffffffffffffffffff\n      and\n      swap1\n      dup1\n      0x06\n      add\n      sload\n      swap1\n      pop\n      dup8\n      jump\t// out\n        /* \"contracts/Swapper.sol\":2998:4893  function requestNftSwap(RequestIn calldata _inRequest) external{... */\n    tag_96:\n        /* \"contracts/Swapper.sol\":3072:3095  Request memory _request */\n      0x00\n        /* \"contracts/Swapper.sol\":3098:3440  Request({... */\n      mload(0x40)\n      dup1\n      0xe0\n      add\n      0x40\n      mstore\n      dup1\n        /* \"contracts/Swapper.sol\":3132:3146  _nextRequestId */\n      sload(0x00)\n        /* \"contracts/Swapper.sol\":3098:3440  Request({... */\n      dup2\n      mstore\n      0x20\n      add\n        /* \"contracts/Swapper.sol\":3172:3182  msg.sender */\n      caller\n        /* \"contracts/Swapper.sol\":3098:3440  Request({... */\n      0xffffffffffffffffffffffffffffffffffffffff\n      and\n      dup2\n      mstore\n      0x20\n      add\n        /* \"contracts/Swapper.sol\":3208:3218  _inRequest */\n      dup4\n        /* \"contracts/Swapper.sol\":3208:3228  _inRequest.requestee */\n      0x00\n      add\n      0x20\n      dup2\n      add\n      swap1\n      tag_216\n      swap2\n      swap1\n      tag_46\n      jump\t// in\n    tag_216:\n        /* \"contracts/Swapper.sol\":3098:3440  Request({... */\n      0xffffffffffffffffffffffffffffffffffffffff\n      and\n      dup2\n      mstore\n      0x20\n      add\n        /* \"contracts/Swapper.sol\":3253:3263  _inRequest */\n      dup4\n        /* \"contracts/Swapper.sol\":3253:3272  _inRequest.ownedNft */\n      0x20\n      add\n      0x20\n      dup2\n      add\n      swap1\n      tag_217\n      swap2\n      swap1\n      tag_46\n      jump\t// in\n    tag_217:\n        /* \"contracts/Swapper.sol\":3098:3440  Request({... */\n      0xffffffffffffffffffffffffffffffffffffffff\n      and\n      dup2\n      mstore\n      0x20\n      add\n        /* \"contracts/Swapper.sol\":3299:3309  _inRequest */\n      dup4\n        /* \"contracts/Swapper.sol\":3299:3320  _inRequest.ownedNftId */\n      0x40\n      add\n      calldataload\n        /* \"contracts/Swapper.sol\":3098:3440  Request({... */\n      dup2\n      mstore\n      0x20\n      add\n        /* \"contracts/Swapper.sol\":3349:3359  _inRequest */\n      dup4\n        /* \"contracts/Swapper.sol\":3349:3372  _inRequest.requestedNft */\n      0x60\n      add\n      0x20\n      dup2\n      add\n      swap1\n      tag_218\n      swap2\n      swap1\n      tag_46\n      jump\t// in\n    tag_218:\n        /* \"contracts/Swapper.sol\":3098:3440  Request({... */\n      0xffffffffffffffffffffffffffffffffffffffff\n      and\n      dup2\n      mstore\n      0x20\n      add\n        /* \"contracts/Swapper.sol\":3403:3413  _inRequest */\n      dup4\n        /* \"contracts/Swapper.sol\":3403:3428  _inRequest.requestedNftId */\n      0x80\n      add\n      calldataload\n        /* \"contracts/Swapper.sol\":3098:3440  Request({... */\n      dup2\n      mstore\n      pop\n        /* \"contracts/Swapper.sol\":3072:3440  Request memory _request = Request({... */\n      swap1\n      pop\n        /* \"contracts/Swapper.sol\":3498:3499  0 */\n      0x00\n        /* \"contracts/Swapper.sol\":3465:3500  _request.requestedNft == address(0) */\n      0xffffffffffffffffffffffffffffffffffffffff\n      and\n        /* \"contracts/Swapper.sol\":3465:3473  _request */\n      dup2\n        /* \"contracts/Swapper.sol\":3465:3486  _request.requestedNft */\n      0xa0\n      add\n      mload\n        /* \"contracts/Swapper.sol\":3465:3500  _request.requestedNft == address(0) */\n      0xffffffffffffffffffffffffffffffffffffffff\n      and\n      eq\n        /* \"contracts/Swapper.sol\":3465:3535  _request.requestedNft == address(0) || _request.ownedNft == address(0) */\n      dup1\n      tag_219\n      jumpi\n      pop\n        /* \"contracts/Swapper.sol\":3533:3534  0 */\n      0x00\n        /* \"contracts/Swapper.sol\":3504:3535  _request.ownedNft == address(0) */\n      0xffffffffffffffffffffffffffffffffffffffff\n      and\n        /* \"contracts/Swapper.sol\":3504:3512  _request */\n      dup2\n        /* \"contracts/Swapper.sol\":3504:3521  _request.ownedNft */\n      0x60\n      add\n      mload\n        /* \"contracts/Swapper.sol\":3504:3535  _request.ownedNft == address(0) */\n      0xffffffffffffffffffffffffffffffffffffffff\n      and\n      eq\n        /* \"contracts/Swapper.sol\":3465:3535  _request.requestedNft == address(0) || _request.ownedNft == address(0) */\n    tag_219:\n        /* \"contracts/Swapper.sol\":3461:3576  if (_request.requestedNft == address(0) || _request.ownedNft == address(0)){... */\n      iszero\n      tag_220\n      jumpi\n        /* \"contracts/Swapper.sol\":3558:3574  InvalidAddress() */\n      mload(0x40)\n      0xe6c4247b00000000000000000000000000000000000000000000000000000000\n      dup2\n      mstore\n      0x04\n      add\n      mload(0x40)\n      dup1\n      swap2\n      sub\n      swap1\n      revert\n        /* \"contracts/Swapper.sol\":3461:3576  if (_request.requestedNft == address(0) || _request.ownedNft == address(0)){... */\n    tag_220:\n        /* \"contracts/Swapper.sol\":3614:3622  _request */\n      dup1\n        /* \"contracts/Swapper.sol\":3614:3632  _request.requestee */\n      0x40\n      add\n      mload\n        /* \"contracts/Swapper.sol\":3592:3632  _request.requester == _request.requestee */\n      0xffffffffffffffffffffffffffffffffffffffff\n      and\n        /* \"contracts/Swapper.sol\":3592:3600  _request */\n      dup2\n        /* \"contracts/Swapper.sol\":3592:3610  _request.requester */\n      0x20\n      add\n      mload\n        /* \"contracts/Swapper.sol\":3592:3632  _request.requester == _request.requestee */\n      0xffffffffffffffffffffffffffffffffffffffff\n      and\n      sub\n        /* \"contracts/Swapper.sol\":3588:3670  if (_request.requester == _request.requestee){... */\n      tag_221\n      jumpi\n        /* \"contracts/Swapper.sol\":3655:3668  SelfRequest() */\n      mload(0x40)\n      0xf051d55300000000000000000000000000000000000000000000000000000000\n      dup2\n      mstore\n      0x04\n      add\n      mload(0x40)\n      dup1\n      swap2\n      sub\n      swap1\n      revert\n        /* \"contracts/Swapper.sol\":3588:3670  if (_request.requester == _request.requestee){... */\n    tag_221:\n        /* \"contracts/Swapper.sol\":3763:3780  approvedAddresses */\n      0x07\n        /* \"contracts/Swapper.sol\":3763:3800  approvedAddresses[_request.requestee] */\n      0x00\n        /* \"contracts/Swapper.sol\":3781:3789  _request */\n      dup3\n        /* \"contracts/Swapper.sol\":3781:3799  _request.requestee */\n      0x40\n      add\n      mload\n        /* \"contracts/Swapper.sol\":3763:3800  approvedAddresses[_request.requestee] */\n      0xffffffffffffffffffffffffffffffffffffffff\n      and\n      0xffffffffffffffffffffffffffffffffffffffff\n      and\n      dup2\n      mstore\n      0x20\n      add\n      swap1\n      dup2\n      mstore\n      0x20\n      add\n      0x00\n      keccak256\n        /* \"contracts/Swapper.sol\":3763:3820  approvedAddresses[_request.requestee][_request.requester] */\n      0x00\n        /* \"contracts/Swapper.sol\":3801:3809  _request */\n      dup3\n        /* \"contracts/Swapper.sol\":3801:3819  _request.requester */\n      0x20\n      add\n      mload\n        /* \"contracts/Swapper.sol\":3763:3820  approvedAddresses[_request.requestee][_request.requester] */\n      0xffffffffffffffffffffffffffffffffffffffff\n      and\n      0xffffffffffffffffffffffffffffffffffffffff\n      and\n      dup2\n      mstore\n      0x20\n      add\n      swap1\n      dup2\n      mstore\n      0x20\n      add\n      0x00\n      keccak256\n      0x00\n      swap1\n      sload\n      swap1\n      0x0100\n      exp\n      swap1\n      div\n      0xff\n      and\n        /* \"contracts/Swapper.sol\":3758:3868  if (!approvedAddresses[_request.requestee][_request.requester]){... */\n      tag_222\n      jumpi\n        /* \"contracts/Swapper.sol\":3843:3856  NotApproved() */\n      mload(0x40)\n      0xc19f17a900000000000000000000000000000000000000000000000000000000\n      dup2\n      mstore\n      0x04\n      add\n      mload(0x40)\n      dup1\n      swap2\n      sub\n      swap1\n      revert\n        /* \"contracts/Swapper.sol\":3758:3868  if (!approvedAddresses[_request.requestee][_request.requester]){... */\n    tag_222:\n        /* \"contracts/Swapper.sol\":3951:3968  IERC721 _ownedNft */\n      0x00\n        /* \"contracts/Swapper.sol\":3979:3987  _request */\n      dup2\n        /* \"contracts/Swapper.sol\":3979:3996  _request.ownedNft */\n      0x60\n      add\n      mload\n        /* \"contracts/Swapper.sol\":3951:3997  IERC721 _ownedNft = IERC721(_request.ownedNft) */\n      swap1\n      pop\n        /* \"contracts/Swapper.sol\":4054:4064  msg.sender */\n      caller\n        /* \"contracts/Swapper.sol\":4012:4064  _ownedNft.ownerOf(_request.ownedNftId) != msg.sender */\n      0xffffffffffffffffffffffffffffffffffffffff\n      and\n        /* \"contracts/Swapper.sol\":4012:4021  _ownedNft */\n      dup2\n        /* \"contracts/Swapper.sol\":4012:4029  _ownedNft.ownerOf */\n      0xffffffffffffffffffffffffffffffffffffffff\n      and\n      0x6352211e\n        /* \"contracts/Swapper.sol\":4030:4038  _request */\n      dup5\n        /* \"contracts/Swapper.sol\":4030:4049  _request.ownedNftId */\n      0x80\n      add\n      mload\n        /* \"contracts/Swapper.sol\":4012:4050  _ownedNft.ownerOf(_request.ownedNftId) */\n      mload(0x40)\n      dup3\n      0xffffffff\n      and\n      0xe0\n      shl\n      dup2\n      mstore\n      0x04\n      add\n      tag_223\n      swap2\n      swap1\n      tag_166\n      jump\t// in\n    tag_223:\n      0x20\n      mload(0x40)\n      dup1\n      dup4\n      sub\n      dup2\n      dup7\n      gas\n      staticcall\n      iszero\n      dup1\n      iszero\n      tag_225\n      jumpi\n      returndatasize\n      0x00\n      dup1\n      returndatacopy\n      revert(0x00, returndatasize)\n    tag_225:\n      pop\n      pop\n      pop\n      pop\n      mload(0x40)\n      returndatasize\n      not(0x1f)\n      0x1f\n      dup3\n      add\n      and\n      dup3\n      add\n      dup1\n      0x40\n      mstore\n      pop\n      dup2\n      add\n      swap1\n      tag_226\n      swap2\n      swap1\n      tag_170\n      jump\t// in\n    tag_226:\n        /* \"contracts/Swapper.sol\":4012:4064  _ownedNft.ownerOf(_request.ownedNftId) != msg.sender */\n      0xffffffffffffffffffffffffffffffffffffffff\n      and\n      eq\n        /* \"contracts/Swapper.sol\":4008:4158  if (_ownedNft.ownerOf(_request.ownedNftId) != msg.sender){... */\n      tag_227\n      jumpi\n        /* \"contracts/Swapper.sol\":4107:4115  _request */\n      dup2\n        /* \"contracts/Swapper.sol\":4107:4124  _request.ownedNft */\n      0x60\n      add\n      mload\n        /* \"contracts/Swapper.sol\":4126:4134  _request */\n      dup3\n        /* \"contracts/Swapper.sol\":4126:4145  _request.ownedNftId */\n      0x80\n      add\n      mload\n        /* \"contracts/Swapper.sol\":4087:4146  NotOwnedByRequester(_request.ownedNft, _request.ownedNftId) */\n      mload(0x40)\n      0xa59581cf00000000000000000000000000000000000000000000000000000000\n      dup2\n      mstore\n      0x04\n      add\n      tag_228\n      swap3\n      swap2\n      swap1\n      tag_229\n      jump\t// in\n    tag_228:\n      mload(0x40)\n      dup1\n      swap2\n      sub\n      swap1\n      revert\n        /* \"contracts/Swapper.sol\":4008:4158  if (_ownedNft.ownerOf(_request.ownedNftId) != msg.sender){... */\n    tag_227:\n        /* \"contracts/Swapper.sol\":4170:4191  IERC721 _requestedNft */\n      0x00\n        /* \"contracts/Swapper.sol\":4202:4210  _request */\n      dup3\n        /* \"contracts/Swapper.sol\":4202:4223  _request.requestedNft */\n      0xa0\n      add\n      mload\n        /* \"contracts/Swapper.sol\":4170:4224  IERC721 _requestedNft = IERC721(_request.requestedNft) */\n      swap1\n      pop\n        /* \"contracts/Swapper.sol\":4289:4297  _request */\n      dup3\n        /* \"contracts/Swapper.sol\":4289:4307  _request.requestee */\n      0x40\n      add\n      mload\n        /* \"contracts/Swapper.sol\":4239:4307  _requestedNft.ownerOf(_request.requestedNftId) != _request.requestee */\n      0xffffffffffffffffffffffffffffffffffffffff\n      and\n        /* \"contracts/Swapper.sol\":4239:4252  _requestedNft */\n      dup2\n        /* \"contracts/Swapper.sol\":4239:4260  _requestedNft.ownerOf */\n      0xffffffffffffffffffffffffffffffffffffffff\n      and\n      0x6352211e\n        /* \"contracts/Swapper.sol\":4261:4269  _request */\n      dup6\n        /* \"contracts/Swapper.sol\":4261:4284  _request.requestedNftId */\n      0xc0\n      add\n      mload\n        /* \"contracts/Swapper.sol\":4239:4285  _requestedNft.ownerOf(_request.requestedNftId) */\n      mload(0x40)\n      dup3\n      0xffffffff\n      and\n      0xe0\n      shl\n      dup2\n      mstore\n      0x04\n      add\n      tag_230\n      swap2\n      swap1\n      tag_166\n      jump\t// in\n    tag_230:\n      0x20\n      mload(0x40)\n      dup1\n      dup4\n      sub\n      dup2\n      dup7\n      gas\n      staticcall\n      iszero\n      dup1\n      iszero\n      tag_232\n      jumpi\n      returndatasize\n      0x00\n      dup1\n      returndatacopy\n      revert(0x00, returndatasize)\n    tag_232:\n      pop\n      pop\n      pop\n      pop\n      mload(0x40)\n      returndatasize\n      not(0x1f)\n      0x1f\n      dup3\n      add\n      and\n      dup3\n      add\n      dup1\n      0x40\n      mstore\n      pop\n      dup2\n      add\n      swap1\n      tag_233\n      swap2\n      swap1\n      tag_170\n      jump\t// in\n    tag_233:\n        /* \"contracts/Swapper.sol\":4239:4307  _requestedNft.ownerOf(_request.requestedNftId) != _request.requestee */\n      0xffffffffffffffffffffffffffffffffffffffff\n      and\n      eq\n        /* \"contracts/Swapper.sol\":4235:4409  if (_requestedNft.ownerOf(_request.requestedNftId) != _request.requestee){... */\n      tag_234\n      jumpi\n        /* \"contracts/Swapper.sol\":4350:4358  _request */\n      dup3\n        /* \"contracts/Swapper.sol\":4350:4371  _request.requestedNft */\n      0xa0\n      add\n      mload\n        /* \"contracts/Swapper.sol\":4373:4381  _request */\n      dup4\n        /* \"contracts/Swapper.sol\":4373:4396  _request.requestedNftId */\n      0xc0\n      add\n      mload\n        /* \"contracts/Swapper.sol\":4330:4397  NotOwnedByRequestee(_request.requestedNft, _request.requestedNftId) */\n      mload(0x40)\n      0x4dc58d4f00000000000000000000000000000000000000000000000000000000\n      dup2\n      mstore\n      0x04\n      add\n      tag_235\n      swap3\n      swap2\n      swap1\n      tag_229\n      jump\t// in\n    tag_235:\n      mload(0x40)\n      dup1\n      swap2\n      sub\n      swap1\n      revert\n        /* \"contracts/Swapper.sol\":4235:4409  if (_requestedNft.ownerOf(_request.requestedNftId) != _request.requestee){... */\n    tag_234:\n        /* \"contracts/Swapper.sol\":982:983  3 */\n      0x03\n        /* \"contracts/Swapper.sol\":4478:4544  requesteeInbox[_request.requestee].length == REQUESTEE_INBOX_LIMIT */\n      0xff\n      and\n        /* \"contracts/Swapper.sol\":4478:4492  requesteeInbox */\n      0x02\n        /* \"contracts/Swapper.sol\":4478:4512  requesteeInbox[_request.requestee] */\n      0x00\n        /* \"contracts/Swapper.sol\":4493:4501  _request */\n      dup6\n        /* \"contracts/Swapper.sol\":4493:4511  _request.requestee */\n      0x40\n      add\n      mload\n        /* \"contracts/Swapper.sol\":4478:4512  requesteeInbox[_request.requestee] */\n      0xffffffffffffffffffffffffffffffffffffffff\n      and\n      0xffffffffffffffffffffffffffffffffffffffff\n      and\n      dup2\n      mstore\n      0x20\n      add\n      swap1\n      dup2\n      mstore\n      0x20\n      add\n      0x00\n      keccak256\n        /* \"contracts/Swapper.sol\":4478:4519  requesteeInbox[_request.requestee].length */\n      dup1\n      sload\n      swap1\n      pop\n        /* \"contracts/Swapper.sol\":4478:4544  requesteeInbox[_request.requestee].length == REQUESTEE_INBOX_LIMIT */\n      sub\n        /* \"contracts/Swapper.sol\":4474:4601  if (requesteeInbox[_request.requestee].length == REQUESTEE_INBOX_LIMIT){... */\n      tag_236\n      jumpi\n        /* \"contracts/Swapper.sol\":4586:4588  10 */\n      0x0a\n        /* \"contracts/Swapper.sol\":4567:4589  RequesteeInboxFull(10) */\n      mload(0x40)\n      0x5c34e6be00000000000000000000000000000000000000000000000000000000\n      dup2\n      mstore\n      0x04\n      add\n      tag_237\n      swap2\n      swap1\n      tag_238\n      jump\t// in\n    tag_237:\n      mload(0x40)\n      dup1\n      swap2\n      sub\n      swap1\n      revert\n        /* \"contracts/Swapper.sol\":4474:4601  if (requesteeInbox[_request.requestee].length == REQUESTEE_INBOX_LIMIT){... */\n    tag_236:\n        /* \"contracts/Swapper.sol\":4613:4622  _ownedNft */\n      dup2\n        /* \"contracts/Swapper.sol\":4613:4639  _ownedNft.safeTransferFrom */\n      0xffffffffffffffffffffffffffffffffffffffff\n      and\n      0x42842e0e\n        /* \"contracts/Swapper.sol\":4640:4650  msg.sender */\n      caller\n        /* \"contracts/Swapper.sol\":4660:4664  this */\n      address\n        /* \"contracts/Swapper.sol\":4667:4675  _request */\n      dup7\n        /* \"contracts/Swapper.sol\":4667:4686  _request.ownedNftId */\n      0x80\n      add\n      mload\n        /* \"contracts/Swapper.sol\":4613:4687  _ownedNft.safeTransferFrom(msg.sender, address(this), _request.ownedNftId) */\n      mload(0x40)\n      dup5\n      0xffffffff\n      and\n      0xe0\n      shl\n      dup2\n      mstore\n      0x04\n      add\n      tag_239\n      swap4\n      swap3\n      swap2\n      swap1\n      tag_114\n      jump\t// in\n    tag_239:\n      0x00\n      mload(0x40)\n      dup1\n      dup4\n      sub\n      dup2\n      0x00\n      dup8\n      dup1\n      extcodesize\n      iszero\n      dup1\n      iszero\n      tag_240\n      jumpi\n      0x00\n      dup1\n      revert\n    tag_240:\n      pop\n      gas\n      call\n      iszero\n      dup1\n      iszero\n      tag_242\n      jumpi\n      returndatasize\n      0x00\n      dup1\n      returndatacopy\n      revert(0x00, returndatasize)\n    tag_242:\n      pop\n      pop\n      pop\n      pop\n        /* \"contracts/Swapper.sol\":4763:4771  _request */\n      dup3\n        /* \"contracts/Swapper.sol\":4708:4720  _requestPool */\n      0x01\n        /* \"contracts/Swapper.sol\":4708:4740  _requestPool[_request.requestee] */\n      0x00\n        /* \"contracts/Swapper.sol\":4721:4729  _request */\n      dup6\n        /* \"contracts/Swapper.sol\":4721:4739  _request.requestee */\n      0x40\n      add\n      mload\n        /* \"contracts/Swapper.sol\":4708:4740  _requestPool[_request.requestee] */\n      0xffffffffffffffffffffffffffffffffffffffff\n      and\n      0xffffffffffffffffffffffffffffffffffffffff\n      and\n      dup2\n      mstore\n      0x20\n      add\n      swap1\n      dup2\n      mstore\n      0x20\n      add\n      0x00\n      keccak256\n        /* \"contracts/Swapper.sol\":4708:4760  _requestPool[_request.requestee][_request.requestId] */\n      0x00\n        /* \"contracts/Swapper.sol\":4741:4749  _request */\n      dup6\n        /* \"contracts/Swapper.sol\":4741:4759  _request.requestId */\n      0x00\n      add\n      mload\n        /* \"contracts/Swapper.sol\":4708:4760  _requestPool[_request.requestee][_request.requestId] */\n      dup2\n      mstore\n      0x20\n      add\n      swap1\n      dup2\n      mstore\n      0x20\n      add\n      0x00\n      keccak256\n        /* \"contracts/Swapper.sol\":4708:4771  _requestPool[_request.requestee][_request.requestId] = _request */\n      0x00\n      dup3\n      add\n      mload\n      dup2\n      0x00\n      add\n      sstore\n      0x20\n      dup3\n      add\n      mload\n      dup2\n      0x01\n      add\n      exp(0x0100, 0x00)\n      dup2\n      sload\n      dup2\n      0xffffffffffffffffffffffffffffffffffffffff\n      mul\n      not\n      and\n      swap1\n      dup4\n      0xffffffffffffffffffffffffffffffffffffffff\n      and\n      mul\n      or\n      swap1\n      sstore\n      pop\n      0x40\n      dup3\n      add\n      mload\n      dup2\n      0x02\n      add\n      exp(0x0100, 0x00)\n      dup2\n      sload\n      dup2\n      0xffffffffffffffffffffffffffffffffffffffff\n      mul\n      not\n      and\n      swap1\n      dup4\n      0xffffffffffffffffffffffffffffffffffffffff\n      and\n      mul\n      or\n      swap1\n      sstore\n      pop\n      0x60\n      dup3\n      add\n      mload\n      dup2\n      0x03\n      add\n      exp(0x0100, 0x00)\n      dup2\n      sload\n      dup2\n      0xffffffffffffffffffffffffffffffffffffffff\n      mul\n      not\n      and\n      swap1\n      dup4\n      0xffffffffffffffffffffffffffffffffffffffff\n      and\n      mul\n      or\n      swap1\n      sstore\n      pop\n      0x80\n      dup3\n      add\n      mload\n      dup2\n      0x04\n      add\n      sstore\n      0xa0\n      dup3\n      add\n      mload\n      dup2\n      0x05\n      add\n      exp(0x0100, 0x00)\n      dup2\n      sload\n      dup2\n      0xffffffffffffffffffffffffffffffffffffffff\n      mul\n      not\n      and\n      swap1\n      dup4\n      0xffffffffffffffffffffffffffffffffffffffff\n      and\n      mul\n      or\n      swap1\n      sstore\n      pop\n      0xc0\n      dup3\n      add\n      mload\n      dup2\n      0x06\n      add\n      sstore\n      swap1\n      pop\n      pop\n        /* \"contracts/Swapper.sol\":4782:4796  requesteeInbox */\n      0x02\n        /* \"contracts/Swapper.sol\":4782:4816  requesteeInbox[_request.requestee] */\n      0x00\n        /* \"contracts/Swapper.sol\":4797:4805  _request */\n      dup5\n        /* \"contracts/Swapper.sol\":4797:4815  _request.requestee */\n      0x40\n      add\n      mload\n        /* \"contracts/Swapper.sol\":4782:4816  requesteeInbox[_request.requestee] */\n      0xffffffffffffffffffffffffffffffffffffffff\n      and\n      0xffffffffffffffffffffffffffffffffffffffff\n      and\n      dup2\n      mstore\n      0x20\n      add\n      swap1\n      dup2\n      mstore\n      0x20\n      add\n      0x00\n      keccak256\n        /* \"contracts/Swapper.sol\":4822:4830  _request */\n      dup4\n        /* \"contracts/Swapper.sol\":4782:4831  requesteeInbox[_request.requestee].push(_request) */\n      swap1\n      dup1\n      0x01\n      dup2\n      sload\n      add\n      dup1\n      dup3\n      sstore\n      dup1\n      swap2\n      pop\n      pop\n      0x01\n      swap1\n      sub\n      swap1\n      0x00\n      mstore\n      keccak256(0x00, 0x20)\n      swap1\n      0x07\n      mul\n      add\n      0x00\n      swap1\n      swap2\n      swap1\n      swap2\n      swap1\n      swap2\n      pop\n      0x00\n      dup3\n      add\n      mload\n      dup2\n      0x00\n      add\n      sstore\n      0x20\n      dup3\n      add\n      mload\n      dup2\n      0x01\n      add\n      exp(0x0100, 0x00)\n      dup2\n      sload\n      dup2\n      0xffffffffffffffffffffffffffffffffffffffff\n      mul\n      not\n      and\n      swap1\n      dup4\n      0xffffffffffffffffffffffffffffffffffffffff\n      and\n      mul\n      or\n      swap1\n      sstore\n      pop\n      0x40\n      dup3\n      add\n      mload\n      dup2\n      0x02\n      add\n      exp(0x0100, 0x00)\n      dup2\n      sload\n      dup2\n      0xffffffffffffffffffffffffffffffffffffffff\n      mul\n      not\n      and\n      swap1\n      dup4\n      0xffffffffffffffffffffffffffffffffffffffff\n      and\n      mul\n      or\n      swap1\n      sstore\n      pop\n      0x60\n      dup3\n      add\n      mload\n      dup2\n      0x03\n      add\n      exp(0x0100, 0x00)\n      dup2\n      sload\n      dup2\n      0xffffffffffffffffffffffffffffffffffffffff\n      mul\n      not\n      and\n      swap1\n      dup4\n      0xffffffffffffffffffffffffffffffffffffffff\n      and\n      mul\n      or\n      swap1\n      sstore\n      pop\n      0x80\n      dup3\n      add\n      mload\n      dup2\n      0x04\n      add\n      sstore\n      0xa0\n      dup3\n      add\n      mload\n      dup2\n      0x05\n      add\n      exp(0x0100, 0x00)\n      dup2\n      sload\n      dup2\n      0xffffffffffffffffffffffffffffffffffffffff\n      mul\n      not\n      and\n      swap1\n      dup4\n      0xffffffffffffffffffffffffffffffffffffffff\n      and\n      mul\n      or\n      swap1\n      sstore\n      pop\n      0xc0\n      dup3\n      add\n      mload\n      dup2\n      0x06\n      add\n      sstore\n      pop\n      pop\n        /* \"contracts/Swapper.sol\":4842:4857  requesterOutbox */\n      0x03\n        /* \"contracts/Swapper.sol\":4842:4869  requesterOutbox[msg.sender] */\n      0x00\n        /* \"contracts/Swapper.sol\":4858:4868  msg.sender */\n      caller\n        /* \"contracts/Swapper.sol\":4842:4869  requesterOutbox[msg.sender] */\n      0xffffffffffffffffffffffffffffffffffffffff\n      and\n      0xffffffffffffffffffffffffffffffffffffffff\n      and\n      dup2\n      mstore\n      0x20\n      add\n      swap1\n      dup2\n      mstore\n      0x20\n      add\n      0x00\n      keccak256\n        /* \"contracts/Swapper.sol\":4875:4883  _request */\n      dup4\n        /* \"contracts/Swapper.sol\":4842:4884  requesterOutbox[msg.sender].push(_request) */\n      swap1\n      dup1\n      0x01\n      dup2\n      sload\n      add\n      dup1\n      dup3\n      sstore\n      dup1\n      swap2\n      pop\n      pop\n      0x01\n      swap1\n      sub\n      swap1\n      0x00\n      mstore\n      keccak256(0x00, 0x20)\n      swap1\n      0x07\n      mul\n      add\n      0x00\n      swap1\n      swap2\n      swap1\n      swap2\n      swap1\n      swap2\n      pop\n      0x00\n      dup3\n      add\n      mload\n      dup2\n      0x00\n      add\n      sstore\n      0x20\n      dup3\n      add\n      mload\n      dup2\n      0x01\n      add\n      exp(0x0100, 0x00)\n      dup2\n      sload\n      dup2\n      0xffffffffffffffffffffffffffffffffffffffff\n      mul\n      not\n      and\n      swap1\n      dup4\n      0xffffffffffffffffffffffffffffffffffffffff\n      and\n      mul\n      or\n      swap1\n      sstore\n      pop\n      0x40\n      dup3\n      add\n      mload\n      dup2\n      0x02\n      add\n      exp(0x0100, 0x00)\n      dup2\n      sload\n      dup2\n      0xffffffffffffffffffffffffffffffffffffffff\n      mul\n      not\n      and\n      swap1\n      dup4\n      0xffffffffffffffffffffffffffffffffffffffff\n      and\n      mul\n      or\n      swap1\n      sstore\n      pop\n      0x60\n      dup3\n      add\n      mload\n      dup2\n      0x03\n      add\n      exp(0x0100, 0x00)\n      dup2\n      sload\n      dup2\n      0xffffffffffffffffffffffffffffffffffffffff\n      mul\n      not\n      and\n      swap1\n      dup4\n      0xffffffffffffffffffffffffffffffffffffffff\n      and\n      mul\n      or\n      swap1\n      sstore\n      pop\n      0x80\n      dup3\n      add\n      mload\n      dup2\n      0x04\n      add\n      sstore\n      0xa0\n      dup3\n      add\n      mload\n      dup2\n      0x05\n      add\n      exp(0x0100, 0x00)\n      dup2\n      sload\n      dup2\n      0xffffffffffffffffffffffffffffffffffffffff\n      mul\n      not\n      and\n      swap1\n      dup4\n      0xffffffffffffffffffffffffffffffffffffffff\n      and\n      mul\n      or\n      swap1\n      sstore\n      pop\n      0xc0\n      dup3\n      add\n      mload\n      dup2\n      0x06\n      add\n      sstore\n      pop\n      pop\n        /* \"contracts/Swapper.sol\":3061:4893  {... */\n      pop\n      pop\n      pop\n        /* \"contracts/Swapper.sol\":2998:4893  function requestNftSwap(RequestIn calldata _inRequest) external{... */\n      pop\n      jump\t// out\n        /* \"contracts/Swapper.sol\":1978:2046  mapping(address _requestee => Request[]) public userRejectedRequests */\n    tag_99:\n      mstore(0x20, 0x05)\n      dup2\n      0x00\n      mstore\n      keccak256(0x00, 0x40)\n      dup2\n      dup2\n      sload\n      dup2\n      lt\n      tag_245\n      jumpi\n      0x00\n      dup1\n      revert\n    tag_245:\n      swap1\n      0x00\n      mstore\n      keccak256(0x00, 0x20)\n      swap1\n      0x07\n      mul\n      add\n      0x00\n      swap2\n      pop\n      swap2\n      pop\n      pop\n      dup1\n      0x00\n      add\n      sload\n      swap1\n      dup1\n      0x01\n      add\n      0x00\n      swap1\n      sload\n      swap1\n      0x0100\n      exp\n      swap1\n      div\n      0xffffffffffffffffffffffffffffffffffffffff\n      and\n      swap1\n      dup1\n      0x02\n      add\n      0x00\n      swap1\n      sload\n      swap1\n      0x0100\n      exp\n      swap1\n      div\n      0xffffffffffffffffffffffffffffffffffffffff\n      and\n      swap1\n      dup1\n      0x03\n      add\n      0x00\n      swap1\n      sload\n      swap1\n      0x0100\n      exp\n      swap1\n      div\n      0xffffffffffffffffffffffffffffffffffffffff\n      and\n      swap1\n      dup1\n      0x04\n      add\n      sload\n      swap1\n      dup1\n      0x05\n      add\n      0x00\n      swap1\n      sload\n      swap1\n      0x0100\n      exp\n      swap1\n      div\n      0xffffffffffffffffffffffffffffffffffffffff\n      and\n      swap1\n      dup1\n      0x06\n      add\n      sload\n      swap1\n      pop\n      dup8\n      jump\t// out\n        /* \"contracts/Swapper.sol\":11078:11208  function fetchAccepted(address _user) external view returns(Request[] memory){... */\n    tag_103:\n        /* \"contracts/Swapper.sol\":11138:11154  Request[] memory */\n      0x60\n        /* \"contracts/Swapper.sol\":11173:11193  userAcceptedRequests */\n      0x04\n        /* \"contracts/Swapper.sol\":11173:11200  userAcceptedRequests[_user] */\n      0x00\n        /* \"contracts/Swapper.sol\":11194:11199  _user */\n      dup4\n        /* \"contracts/Swapper.sol\":11173:11200  userAcceptedRequests[_user] */\n      0xffffffffffffffffffffffffffffffffffffffff\n      and\n      0xffffffffffffffffffffffffffffffffffffffff\n      and\n      dup2\n      mstore\n      0x20\n      add\n      swap1\n      dup2\n      mstore\n      0x20\n      add\n      0x00\n      keccak256\n        /* \"contracts/Swapper.sol\":11166:11200  return userAcceptedRequests[_user] */\n      dup1\n      sload\n      dup1\n      0x20\n      mul\n      0x20\n      add\n      mload(0x40)\n      swap1\n      dup2\n      add\n      0x40\n      mstore\n      dup1\n      swap3\n      swap2\n      swap1\n      dup2\n      dup2\n      mstore\n      0x20\n      add\n      0x00\n      swap1\n    tag_248:\n      dup3\n      dup3\n      lt\n      iszero\n      tag_249\n      jumpi\n      dup4\n      dup3\n      swap1\n      0x00\n      mstore\n      keccak256(0x00, 0x20)\n      swap1\n      0x07\n      mul\n      add\n      mload(0x40)\n      dup1\n      0xe0\n      add\n      0x40\n      mstore\n      swap1\n      dup2\n      0x00\n      dup3\n      add\n      sload\n      dup2\n      mstore\n      0x20\n      add\n      0x01\n      dup3\n      add\n      0x00\n      swap1\n      sload\n      swap1\n      0x0100\n      exp\n      swap1\n      div\n      0xffffffffffffffffffffffffffffffffffffffff\n      and\n      0xffffffffffffffffffffffffffffffffffffffff\n      and\n      0xffffffffffffffffffffffffffffffffffffffff\n      and\n      dup2\n      mstore\n      0x20\n      add\n      0x02\n      dup3\n      add\n      0x00\n      swap1\n      sload\n      swap1\n      0x0100\n      exp\n      swap1\n      div\n      0xffffffffffffffffffffffffffffffffffffffff\n      and\n      0xffffffffffffffffffffffffffffffffffffffff\n      and\n      0xffffffffffffffffffffffffffffffffffffffff\n      and\n      dup2\n      mstore\n      0x20\n      add\n      0x03\n      dup3\n      add\n      0x00\n      swap1\n      sload\n      swap1\n      0x0100\n      exp\n      swap1\n      div\n      0xffffffffffffffffffffffffffffffffffffffff\n      and\n      0xffffffffffffffffffffffffffffffffffffffff\n      and\n      0xffffffffffffffffffffffffffffffffffffffff\n      and\n      dup2\n      mstore\n      0x20\n      add\n      0x04\n      dup3\n      add\n      sload\n      dup2\n      mstore\n      0x20\n      add\n      0x05\n      dup3\n      add\n      0x00\n      swap1\n      sload\n      swap1\n      0x0100\n      exp\n      swap1\n      div\n      0xffffffffffffffffffffffffffffffffffffffff\n      and\n      0xffffffffffffffffffffffffffffffffffffffff\n      and\n      0xffffffffffffffffffffffffffffffffffffffff\n      and\n      dup2\n      mstore\n      0x20\n      add\n      0x06\n      dup3\n      add\n      sload\n      dup2\n      mstore\n      pop\n      pop\n      dup2\n      mstore\n      0x20\n      add\n      swap1\n      0x01\n      add\n      swap1\n      jump(tag_248)\n    tag_249:\n      pop\n      pop\n      pop\n      pop\n      swap1\n      pop\n        /* \"contracts/Swapper.sol\":11078:11208  function fetchAccepted(address _user) external view returns(Request[] memory){... */\n      swap2\n      swap1\n      pop\n      jump\t// out\n        /* \"contracts/Swapper.sol\":11699:12013  function _isEmpty(Request memory _request) internal pure returns(bool){... */\n    tag_108:\n        /* \"contracts/Swapper.sol\":11764:11768  bool */\n      0x00\n        /* \"contracts/Swapper.sol\":11780:11800  Request memory empty */\n      tag_252\n      tag_253\n      jump\t// in\n    tag_252:\n        /* \"contracts/Swapper.sol\":11850:11855  empty */\n      dup1\n        /* \"contracts/Swapper.sol\":11850:11865  empty.requestId */\n      0x00\n      add\n      mload\n        /* \"contracts/Swapper.sol\":11828:11836  _request */\n      dup4\n        /* \"contracts/Swapper.sol\":11828:11846  _request.requestId */\n      0x00\n      add\n      mload\n        /* \"contracts/Swapper.sol\":11828:11865  _request.requestId == empty.requestId */\n      eq\n        /* \"contracts/Swapper.sol\":11828:11906  _request.requestId == empty.requestId && _request.requester == empty.requester */\n      dup1\n      iszero\n      tag_254\n      jumpi\n      pop\n        /* \"contracts/Swapper.sol\":11891:11896  empty */\n      dup1\n        /* \"contracts/Swapper.sol\":11891:11906  empty.requester */\n      0x20\n      add\n      mload\n        /* \"contracts/Swapper.sol\":11869:11906  _request.requester == empty.requester */\n      0xffffffffffffffffffffffffffffffffffffffff\n      and\n        /* \"contracts/Swapper.sol\":11869:11877  _request */\n      dup4\n        /* \"contracts/Swapper.sol\":11869:11887  _request.requester */\n      0x20\n      add\n      mload\n        /* \"contracts/Swapper.sol\":11869:11906  _request.requester == empty.requester */\n      0xffffffffffffffffffffffffffffffffffffffff\n      and\n      eq\n        /* \"contracts/Swapper.sol\":11828:11906  _request.requestId == empty.requestId && _request.requester == empty.requester */\n    tag_254:\n        /* \"contracts/Swapper.sol\":11811:11998  if(... */\n      iszero\n      tag_255\n      jumpi\n        /* \"contracts/Swapper.sol\":11939:11943  true */\n      0x01\n        /* \"contracts/Swapper.sol\":11932:11943  return true */\n      swap2\n      pop\n      pop\n      jump(tag_251)\n        /* \"contracts/Swapper.sol\":11811:11998  if(... */\n    tag_255:\n        /* \"contracts/Swapper.sol\":11991:11996  false */\n      0x00\n        /* \"contracts/Swapper.sol\":11984:11996  return false */\n      swap2\n      pop\n      pop\n        /* \"contracts/Swapper.sol\":11699:12013  function _isEmpty(Request memory _request) internal pure returns(bool){... */\n    tag_251:\n      swap2\n      swap1\n      pop\n      jump\t// out\n        /* \"contracts/Swapper.sol\":7470:8070  function removeRequest(location _from, address _user, Request[] memory _cache, uint _requestId) internal{... */\n    tag_124:\n        /* \"contracts/Swapper.sol\":7598:7613  location.outbox */\n      0x00\n        /* \"contracts/Swapper.sol\":7589:7613  _from == location.outbox */\n      0x01\n      dup2\n      gt\n      iszero\n      tag_258\n      jumpi\n      tag_259\n      tag_260\n      jump\t// in\n    tag_259:\n    tag_258:\n        /* \"contracts/Swapper.sol\":7589:7594  _from */\n      dup5\n        /* \"contracts/Swapper.sol\":7589:7613  _from == location.outbox */\n      0x01\n      dup2\n      gt\n      iszero\n      tag_261\n      jumpi\n      tag_262\n      tag_260\n      jump\t// in\n    tag_262:\n    tag_261:\n      sub\n        /* \"contracts/Swapper.sol\":7585:8055  if (_from == location.outbox){... */\n      tag_263\n      jumpi\n        /* \"contracts/Swapper.sol\":7634:7641  uint8 i */\n      0x00\n        /* \"contracts/Swapper.sol\":7629:7809  for (uint8 i; i < _cache.length; i++){... */\n    tag_264:\n        /* \"contracts/Swapper.sol\":7647:7653  _cache */\n      dup3\n        /* \"contracts/Swapper.sol\":7647:7660  _cache.length */\n      mload\n        /* \"contracts/Swapper.sol\":7643:7644  i */\n      dup2\n        /* \"contracts/Swapper.sol\":7643:7660  i < _cache.length */\n      0xff\n      and\n      lt\n        /* \"contracts/Swapper.sol\":7629:7809  for (uint8 i; i < _cache.length; i++){... */\n      iszero\n      tag_265\n      jumpi\n        /* \"contracts/Swapper.sol\":7712:7722  _requestId */\n      dup2\n        /* \"contracts/Swapper.sol\":7689:7695  _cache */\n      dup4\n        /* \"contracts/Swapper.sol\":7696:7697  i */\n      dup3\n        /* \"contracts/Swapper.sol\":7689:7698  _cache[i] */\n      0xff\n      and\n      dup2\n      mload\n      dup2\n      lt\n      tag_267\n      jumpi\n      tag_268\n      tag_269\n      jump\t// in\n    tag_268:\n    tag_267:\n      0x20\n      mul\n      0x20\n      add\n      add\n      mload\n        /* \"contracts/Swapper.sol\":7689:7708  _cache[i].requestId */\n      0x00\n      add\n      mload\n        /* \"contracts/Swapper.sol\":7689:7722  _cache[i].requestId != _requestId */\n      eq\n        /* \"contracts/Swapper.sol\":7685:7786  if (_cache[i].requestId != _requestId){... */\n      tag_270\n      jumpi\n        /* \"contracts/Swapper.sol\":7746:7761  requesterOutbox */\n      0x03\n        /* \"contracts/Swapper.sol\":7746:7768  requesterOutbox[_user] */\n      0x00\n        /* \"contracts/Swapper.sol\":7762:7767  _user */\n      dup6\n        /* \"contracts/Swapper.sol\":7746:7768  requesterOutbox[_user] */\n      0xffffffffffffffffffffffffffffffffffffffff\n      and\n      0xffffffffffffffffffffffffffffffffffffffff\n      and\n      dup2\n      mstore\n      0x20\n      add\n      swap1\n      dup2\n      mstore\n      0x20\n      add\n      0x00\n      keccak256\n        /* \"contracts/Swapper.sol\":7774:7780  _cache */\n      dup4\n        /* \"contracts/Swapper.sol\":7781:7782  i */\n      dup3\n        /* \"contracts/Swapper.sol\":7774:7783  _cache[i] */\n      0xff\n      and\n      dup2\n      mload\n      dup2\n      lt\n      tag_271\n      jumpi\n      tag_272\n      tag_269\n      jump\t// in\n    tag_272:\n    tag_271:\n      0x20\n      mul\n      0x20\n      add\n      add\n      mload\n        /* \"contracts/Swapper.sol\":7746:7784  requesterOutbox[_user].push(_cache[i]) */\n      swap1\n      dup1\n      0x01\n      dup2\n      sload\n      add\n      dup1\n      dup3\n      sstore\n      dup1\n      swap2\n      pop\n      pop\n      0x01\n      swap1\n      sub\n      swap1\n      0x00\n      mstore\n      keccak256(0x00, 0x20)\n      swap1\n      0x07\n      mul\n      add\n      0x00\n      swap1\n      swap2\n      swap1\n      swap2\n      swap1\n      swap2\n      pop\n      0x00\n      dup3\n      add\n      mload\n      dup2\n      0x00\n      add\n      sstore\n      0x20\n      dup3\n      add\n      mload\n      dup2\n      0x01\n      add\n      exp(0x0100, 0x00)\n      dup2\n      sload\n      dup2\n      0xffffffffffffffffffffffffffffffffffffffff\n      mul\n      not\n      and\n      swap1\n      dup4\n      0xffffffffffffffffffffffffffffffffffffffff\n      and\n      mul\n      or\n      swap1\n      sstore\n      pop\n      0x40\n      dup3\n      add\n      mload\n      dup2\n      0x02\n      add\n      exp(0x0100, 0x00)\n      dup2\n      sload\n      dup2\n      0xffffffffffffffffffffffffffffffffffffffff\n      mul\n      not\n      and\n      swap1\n      dup4\n      0xffffffffffffffffffffffffffffffffffffffff\n      and\n      mul\n      or\n      swap1\n      sstore\n      pop\n      0x60\n      dup3\n      add\n      mload\n      dup2\n      0x03\n      add\n      exp(0x0100, 0x00)\n      dup2\n      sload\n      dup2\n      0xffffffffffffffffffffffffffffffffffffffff\n      mul\n      not\n      and\n      swap1\n      dup4\n      0xffffffffffffffffffffffffffffffffffffffff\n      and\n      mul\n      or\n      swap1\n      sstore\n      pop\n      0x80\n      dup3\n      add\n      mload\n      dup2\n      0x04\n      add\n      sstore\n      0xa0\n      dup3\n      add\n      mload\n      dup2\n      0x05\n      add\n      exp(0x0100, 0x00)\n      dup2\n      sload\n      dup2\n      0xffffffffffffffffffffffffffffffffffffffff\n      mul\n      not\n      and\n      swap1\n      dup4\n      0xffffffffffffffffffffffffffffffffffffffff\n      and\n      mul\n      or\n      swap1\n      sstore\n      pop\n      0xc0\n      dup3\n      add\n      mload\n      dup2\n      0x06\n      add\n      sstore\n      pop\n      pop\n        /* \"contracts/Swapper.sol\":7685:7786  if (_cache[i].requestId != _requestId){... */\n    tag_270:\n        /* \"contracts/Swapper.sol\":7662:7665  i++ */\n      dup1\n      dup1\n      tag_274\n      swap1\n      tag_275\n      jump\t// in\n    tag_274:\n      swap2\n      pop\n      pop\n        /* \"contracts/Swapper.sol\":7629:7809  for (uint8 i; i < _cache.length; i++){... */\n      jump(tag_264)\n    tag_265:\n      pop\n        /* \"contracts/Swapper.sol\":7585:8055  if (_from == location.outbox){... */\n      jump(tag_276)\n    tag_263:\n        /* \"contracts/Swapper.sol\":7862:7869  uint8 i */\n      0x00\n        /* \"contracts/Swapper.sol\":7857:8036  for (uint8 i; i < _cache.length; i++){... */\n    tag_277:\n        /* \"contracts/Swapper.sol\":7875:7881  _cache */\n      dup3\n        /* \"contracts/Swapper.sol\":7875:7888  _cache.length */\n      mload\n        /* \"contracts/Swapper.sol\":7871:7872  i */\n      dup2\n        /* \"contracts/Swapper.sol\":7871:7888  i < _cache.length */\n      0xff\n      and\n      lt\n        /* \"contracts/Swapper.sol\":7857:8036  for (uint8 i; i < _cache.length; i++){... */\n      iszero\n      tag_278\n      jumpi\n        /* \"contracts/Swapper.sol\":7940:7950  _requestId */\n      dup2\n        /* \"contracts/Swapper.sol\":7917:7923  _cache */\n      dup4\n        /* \"contracts/Swapper.sol\":7924:7925  i */\n      dup3\n        /* \"contracts/Swapper.sol\":7917:7926  _cache[i] */\n      0xff\n      and\n      dup2\n      mload\n      dup2\n      lt\n      tag_280\n      jumpi\n      tag_281\n      tag_269\n      jump\t// in\n    tag_281:\n    tag_280:\n      0x20\n      mul\n      0x20\n      add\n      add\n      mload\n        /* \"contracts/Swapper.sol\":7917:7936  _cache[i].requestId */\n      0x00\n      add\n      mload\n        /* \"contracts/Swapper.sol\":7917:7950  _cache[i].requestId != _requestId */\n      eq\n        /* \"contracts/Swapper.sol\":7913:8013  if (_cache[i].requestId != _requestId){... */\n      tag_282\n      jumpi\n        /* \"contracts/Swapper.sol\":7974:7988  requesteeInbox */\n      0x02\n        /* \"contracts/Swapper.sol\":7974:7995  requesteeInbox[_user] */\n      0x00\n        /* \"contracts/Swapper.sol\":7989:7994  _user */\n      dup6\n        /* \"contracts/Swapper.sol\":7974:7995  requesteeInbox[_user] */\n      0xffffffffffffffffffffffffffffffffffffffff\n      and\n      0xffffffffffffffffffffffffffffffffffffffff\n      and\n      dup2\n      mstore\n      0x20\n      add\n      swap1\n      dup2\n      mstore\n      0x20\n      add\n      0x00\n      keccak256\n        /* \"contracts/Swapper.sol\":8001:8007  _cache */\n      dup4\n        /* \"contracts/Swapper.sol\":8008:8009  i */\n      dup3\n        /* \"contracts/Swapper.sol\":8001:8010  _cache[i] */\n      0xff\n      and\n      dup2\n      mload\n      dup2\n      lt\n      tag_283\n      jumpi\n      tag_284\n      tag_269\n      jump\t// in\n    tag_284:\n    tag_283:\n      0x20\n      mul\n      0x20\n      add\n      add\n      mload\n        /* \"contracts/Swapper.sol\":7974:8011  requesteeInbox[_user].push(_cache[i]) */\n      swap1\n      dup1\n      0x01\n      dup2\n      sload\n      add\n      dup1\n      dup3\n      sstore\n      dup1\n      swap2\n      pop\n      pop\n      0x01\n      swap1\n      sub\n      swap1\n      0x00\n      mstore\n      keccak256(0x00, 0x20)\n      swap1\n      0x07\n      mul\n      add\n      0x00\n      swap1\n      swap2\n      swap1\n      swap2\n      swap1\n      swap2\n      pop\n      0x00\n      dup3\n      add\n      mload\n      dup2\n      0x00\n      add\n      sstore\n      0x20\n      dup3\n      add\n      mload\n      dup2\n      0x01\n      add\n      exp(0x0100, 0x00)\n      dup2\n      sload\n      dup2\n      0xffffffffffffffffffffffffffffffffffffffff\n      mul\n      not\n      and\n      swap1\n      dup4\n      0xffffffffffffffffffffffffffffffffffffffff\n      and\n      mul\n      or\n      swap1\n      sstore\n      pop\n      0x40\n      dup3\n      add\n      mload\n      dup2\n      0x02\n      add\n      exp(0x0100, 0x00)\n      dup2\n      sload\n      dup2\n      0xffffffffffffffffffffffffffffffffffffffff\n      mul\n      not\n      and\n      swap1\n      dup4\n      0xffffffffffffffffffffffffffffffffffffffff\n      and\n      mul\n      or\n      swap1\n      sstore\n      pop\n      0x60\n      dup3\n      add\n      mload\n      dup2\n      0x03\n      add\n      exp(0x0100, 0x00)\n      dup2\n      sload\n      dup2\n      0xffffffffffffffffffffffffffffffffffffffff\n      mul\n      not\n      and\n      swap1\n      dup4\n      0xffffffffffffffffffffffffffffffffffffffff\n      and\n      mul\n      or\n      swap1\n      sstore\n      pop\n      0x80\n      dup3\n      add\n      mload\n      dup2\n      0x04\n      add\n      sstore\n      0xa0\n      dup3\n      add\n      mload\n      dup2\n      0x05\n      add\n      exp(0x0100, 0x00)\n      dup2\n      sload\n      dup2\n      0xffffffffffffffffffffffffffffffffffffffff\n      mul\n      not\n      and\n      swap1\n      dup4\n      0xffffffffffffffffffffffffffffffffffffffff\n      and\n      mul\n      or\n      swap1\n      sstore\n      pop\n      0xc0\n      dup3\n      add\n      mload\n      dup2\n      0x06\n      add\n      sstore\n      pop\n      pop\n        /* \"contracts/Swapper.sol\":7913:8013  if (_cache[i].requestId != _requestId){... */\n    tag_282:\n        /* \"contracts/Swapper.sol\":7890:7893  i++ */\n      dup1\n      dup1\n      tag_286\n      swap1\n      tag_275\n      jump\t// in\n    tag_286:\n      swap2\n      pop\n      pop\n        /* \"contracts/Swapper.sol\":7857:8036  for (uint8 i; i < _cache.length; i++){... */\n      jump(tag_277)\n    tag_278:\n      pop\n        /* \"contracts/Swapper.sol\":7585:8055  if (_from == location.outbox){... */\n    tag_276:\n        /* \"contracts/Swapper.sol\":7470:8070  function removeRequest(location _from, address _user, Request[] memory _cache, uint _requestId) internal{... */\n      pop\n      pop\n      pop\n      pop\n      jump\t// out\n    tag_122:\n      pop\n      dup1\n      sload\n      0x00\n      dup3\n      sstore\n      0x07\n      mul\n      swap1\n      0x00\n      mstore\n      keccak256(0x00, 0x20)\n      swap1\n      dup2\n      add\n      swap1\n      tag_288\n      swap2\n      swap1\n      tag_289\n      jump\t// in\n    tag_288:\n      pop\n      jump\t// out\n    tag_253:\n      mload(0x40)\n      dup1\n      0xe0\n      add\n      0x40\n      mstore\n      dup1\n      0x00\n      dup2\n      mstore\n      0x20\n      add\n      and(0xffffffffffffffffffffffffffffffffffffffff, 0x00)\n      dup2\n      mstore\n      0x20\n      add\n      and(0xffffffffffffffffffffffffffffffffffffffff, 0x00)\n      dup2\n      mstore\n      0x20\n      add\n      and(0xffffffffffffffffffffffffffffffffffffffff, 0x00)\n      dup2\n      mstore\n      0x20\n      add\n      0x00\n      dup2\n      mstore\n      0x20\n      add\n      and(0xffffffffffffffffffffffffffffffffffffffff, 0x00)\n      dup2\n      mstore\n      0x20\n      add\n      0x00\n      dup2\n      mstore\n      pop\n      swap1\n      jump\t// out\n    tag_289:\n    tag_290:\n      dup1\n      dup3\n      gt\n      iszero\n      tag_291\n      jumpi\n      0x00\n      dup1\n      dup3\n      add\n      0x00\n      swap1\n      sstore\n      0x01\n      dup3\n      add\n      exp(0x0100, 0x00)\n      dup2\n      sload\n      swap1\n      0xffffffffffffffffffffffffffffffffffffffff\n      mul\n      not\n      and\n      swap1\n      sstore\n      0x02\n      dup3\n      add\n      exp(0x0100, 0x00)\n      dup2\n      sload\n      swap1\n      0xffffffffffffffffffffffffffffffffffffffff\n      mul\n      not\n      and\n      swap1\n      sstore\n      0x03\n      dup3\n      add\n      exp(0x0100, 0x00)\n      dup2\n      sload\n      swap1\n      0xffffffffffffffffffffffffffffffffffffffff\n      mul\n      not\n      and\n      swap1\n      sstore\n      0x04\n      dup3\n      add\n      0x00\n      swap1\n      sstore\n      0x05\n      dup3\n      add\n      exp(0x0100, 0x00)\n      dup2\n      sload\n      swap1\n      0xffffffffffffffffffffffffffffffffffffffff\n      mul\n      not\n      and\n      swap1\n      sstore\n      0x06\n      dup3\n      add\n      0x00\n      swap1\n      sstore\n      pop\n      0x07\n      add\n      jump(tag_290)\n    tag_291:\n      pop\n      swap1\n      jump\t// out\n        /* \"#utility.yul\":88:205   */\n    tag_293:\n        /* \"#utility.yul\":197:198   */\n      0x00\n        /* \"#utility.yul\":194:195   */\n      dup1\n        /* \"#utility.yul\":187:199   */\n      revert\n        /* \"#utility.yul\":211:328   */\n    tag_294:\n        /* \"#utility.yul\":320:321   */\n      0x00\n        /* \"#utility.yul\":317:318   */\n      dup1\n        /* \"#utility.yul\":310:322   */\n      revert\n        /* \"#utility.yul\":334:460   */\n    tag_295:\n        /* \"#utility.yul\":371:378   */\n      0x00\n        /* \"#utility.yul\":411:453   */\n      0xffffffffffffffffffffffffffffffffffffffff\n        /* \"#utility.yul\":404:409   */\n      dup3\n        /* \"#utility.yul\":400:454   */\n      and\n        /* \"#utility.yul\":389:454   */\n      swap1\n      pop\n        /* \"#utility.yul\":334:460   */\n      swap2\n      swap1\n      pop\n      jump\t// out\n        /* \"#utility.yul\":466:562   */\n    tag_296:\n        /* \"#utility.yul\":503:510   */\n      0x00\n        /* \"#utility.yul\":532:556   */\n      tag_336\n        /* \"#utility.yul\":550:555   */\n      dup3\n        /* \"#utility.yul\":532:556   */\n      tag_295\n      jump\t// in\n    tag_336:\n        /* \"#utility.yul\":521:556   */\n      swap1\n      pop\n        /* \"#utility.yul\":466:562   */\n      swap2\n      swap1\n      pop\n      jump\t// out\n        /* \"#utility.yul\":568:690   */\n    tag_297:\n        /* \"#utility.yul\":641:665   */\n      tag_338\n        /* \"#utility.yul\":659:664   */\n      dup2\n        /* \"#utility.yul\":641:665   */\n      tag_296\n      jump\t// in\n    tag_338:\n        /* \"#utility.yul\":634:639   */\n      dup2\n        /* \"#utility.yul\":631:666   */\n      eq\n        /* \"#utility.yul\":621:684   */\n      tag_339\n      jumpi\n        /* \"#utility.yul\":680:681   */\n      0x00\n        /* \"#utility.yul\":677:678   */\n      dup1\n        /* \"#utility.yul\":670:682   */\n      revert\n        /* \"#utility.yul\":621:684   */\n    tag_339:\n        /* \"#utility.yul\":568:690   */\n      pop\n      jump\t// out\n        /* \"#utility.yul\":696:835   */\n    tag_298:\n        /* \"#utility.yul\":742:747   */\n      0x00\n        /* \"#utility.yul\":780:786   */\n      dup2\n        /* \"#utility.yul\":767:787   */\n      calldataload\n        /* \"#utility.yul\":758:787   */\n      swap1\n      pop\n        /* \"#utility.yul\":796:829   */\n      tag_341\n        /* \"#utility.yul\":823:828   */\n      dup2\n        /* \"#utility.yul\":796:829   */\n      tag_297\n      jump\t// in\n    tag_341:\n        /* \"#utility.yul\":696:835   */\n      swap3\n      swap2\n      pop\n      pop\n      jump\t// out\n        /* \"#utility.yul\":841:918   */\n    tag_299:\n        /* \"#utility.yul\":878:885   */\n      0x00\n        /* \"#utility.yul\":907:912   */\n      dup2\n        /* \"#utility.yul\":896:912   */\n      swap1\n      pop\n        /* \"#utility.yul\":841:918   */\n      swap2\n      swap1\n      pop\n      jump\t// out\n        /* \"#utility.yul\":924:1046   */\n    tag_300:\n        /* \"#utility.yul\":997:1021   */\n      tag_344\n        /* \"#utility.yul\":1015:1020   */\n      dup2\n        /* \"#utility.yul\":997:1021   */\n      tag_299\n      jump\t// in\n    tag_344:\n        /* \"#utility.yul\":990:995   */\n      dup2\n        /* \"#utility.yul\":987:1022   */\n      eq\n        /* \"#utility.yul\":977:1040   */\n      tag_345\n      jumpi\n        /* \"#utility.yul\":1036:1037   */\n      0x00\n        /* \"#utility.yul\":1033:1034   */\n      dup1\n        /* \"#utility.yul\":1026:1038   */\n      revert\n        /* \"#utility.yul\":977:1040   */\n    tag_345:\n        /* \"#utility.yul\":924:1046   */\n      pop\n      jump\t// out\n        /* \"#utility.yul\":1052:1191   */\n    tag_301:\n        /* \"#utility.yul\":1098:1103   */\n      0x00\n        /* \"#utility.yul\":1136:1142   */\n      dup2\n        /* \"#utility.yul\":1123:1143   */\n      calldataload\n        /* \"#utility.yul\":1114:1143   */\n      swap1\n      pop\n        /* \"#utility.yul\":1152:1185   */\n      tag_347\n        /* \"#utility.yul\":1179:1184   */\n      dup2\n        /* \"#utility.yul\":1152:1185   */\n      tag_300\n      jump\t// in\n    tag_347:\n        /* \"#utility.yul\":1052:1191   */\n      swap3\n      swap2\n      pop\n      pop\n      jump\t// out\n        /* \"#utility.yul\":1197:1314   */\n    tag_302:\n        /* \"#utility.yul\":1306:1307   */\n      0x00\n        /* \"#utility.yul\":1303:1304   */\n      dup1\n        /* \"#utility.yul\":1296:1308   */\n      revert\n        /* \"#utility.yul\":1320:1437   */\n    tag_303:\n        /* \"#utility.yul\":1429:1430   */\n      0x00\n        /* \"#utility.yul\":1426:1427   */\n      dup1\n        /* \"#utility.yul\":1419:1431   */\n      revert\n        /* \"#utility.yul\":1443:1560   */\n    tag_304:\n        /* \"#utility.yul\":1552:1553   */\n      0x00\n        /* \"#utility.yul\":1549:1550   */\n      dup1\n        /* \"#utility.yul\":1542:1554   */\n      revert\n        /* \"#utility.yul\":1579:2131   */\n    tag_305:\n        /* \"#utility.yul\":1636:1644   */\n      0x00\n        /* \"#utility.yul\":1646:1652   */\n      dup1\n        /* \"#utility.yul\":1696:1699   */\n      dup4\n        /* \"#utility.yul\":1689:1693   */\n      0x1f\n        /* \"#utility.yul\":1681:1687   */\n      dup5\n        /* \"#utility.yul\":1677:1694   */\n      add\n        /* \"#utility.yul\":1673:1700   */\n      slt\n        /* \"#utility.yul\":1663:1785   */\n      tag_352\n      jumpi\n        /* \"#utility.yul\":1704:1783   */\n      tag_353\n      tag_302\n      jump\t// in\n    tag_353:\n        /* \"#utility.yul\":1663:1785   */\n    tag_352:\n        /* \"#utility.yul\":1817:1823   */\n      dup3\n        /* \"#utility.yul\":1804:1824   */\n      calldataload\n        /* \"#utility.yul\":1794:1824   */\n      swap1\n      pop\n        /* \"#utility.yul\":1847:1865   */\n      0xffffffffffffffff\n        /* \"#utility.yul\":1839:1845   */\n      dup2\n        /* \"#utility.yul\":1836:1866   */\n      gt\n        /* \"#utility.yul\":1833:1950   */\n      iszero\n      tag_354\n      jumpi\n        /* \"#utility.yul\":1869:1948   */\n      tag_355\n      tag_303\n      jump\t// in\n    tag_355:\n        /* \"#utility.yul\":1833:1950   */\n    tag_354:\n        /* \"#utility.yul\":1983:1987   */\n      0x20\n        /* \"#utility.yul\":1975:1981   */\n      dup4\n        /* \"#utility.yul\":1971:1988   */\n      add\n        /* \"#utility.yul\":1959:1988   */\n      swap2\n      pop\n        /* \"#utility.yul\":2037:2040   */\n      dup4\n        /* \"#utility.yul\":2029:2033   */\n      0x01\n        /* \"#utility.yul\":2021:2027   */\n      dup3\n        /* \"#utility.yul\":2017:2034   */\n      mul\n        /* \"#utility.yul\":2007:2015   */\n      dup4\n        /* \"#utility.yul\":2003:2035   */\n      add\n        /* \"#utility.yul\":2000:2041   */\n      gt\n        /* \"#utility.yul\":1997:2125   */\n      iszero\n      tag_356\n      jumpi\n        /* \"#utility.yul\":2044:2123   */\n      tag_357\n      tag_304\n      jump\t// in\n    tag_357:\n        /* \"#utility.yul\":1997:2125   */\n    tag_356:\n        /* \"#utility.yul\":1579:2131   */\n      swap3\n      pop\n      swap3\n      swap1\n      pop\n      jump\t// out\n        /* \"#utility.yul\":2137:3100   */\n    tag_27:\n        /* \"#utility.yul\":2234:2240   */\n      0x00\n        /* \"#utility.yul\":2242:2248   */\n      dup1\n        /* \"#utility.yul\":2250:2256   */\n      0x00\n        /* \"#utility.yul\":2258:2264   */\n      dup1\n        /* \"#utility.yul\":2266:2272   */\n      0x00\n        /* \"#utility.yul\":2315:2318   */\n      0x80\n        /* \"#utility.yul\":2303:2312   */\n      dup7\n        /* \"#utility.yul\":2294:2301   */\n      dup9\n        /* \"#utility.yul\":2290:2313   */\n      sub\n        /* \"#utility.yul\":2286:2319   */\n      slt\n        /* \"#utility.yul\":2283:2403   */\n      iszero\n      tag_359\n      jumpi\n        /* \"#utility.yul\":2322:2401   */\n      tag_360\n      tag_293\n      jump\t// in\n    tag_360:\n        /* \"#utility.yul\":2283:2403   */\n    tag_359:\n        /* \"#utility.yul\":2442:2443   */\n      0x00\n        /* \"#utility.yul\":2467:2520   */\n      tag_361\n        /* \"#utility.yul\":2512:2519   */\n      dup9\n        /* \"#utility.yul\":2503:2509   */\n      dup3\n        /* \"#utility.yul\":2492:2501   */\n      dup10\n        /* \"#utility.yul\":2488:2510   */\n      add\n        /* \"#utility.yul\":2467:2520   */\n      tag_298\n      jump\t// in\n    tag_361:\n        /* \"#utility.yul\":2457:2520   */\n      swap6\n      pop\n        /* \"#utility.yul\":2413:2530   */\n      pop\n        /* \"#utility.yul\":2569:2571   */\n      0x20\n        /* \"#utility.yul\":2595:2648   */\n      tag_362\n        /* \"#utility.yul\":2640:2647   */\n      dup9\n        /* \"#utility.yul\":2631:2637   */\n      dup3\n        /* \"#utility.yul\":2620:2629   */\n      dup10\n        /* \"#utility.yul\":2616:2638   */\n      add\n        /* \"#utility.yul\":2595:2648   */\n      tag_298\n      jump\t// in\n    tag_362:\n        /* \"#utility.yul\":2585:2648   */\n      swap5\n      pop\n        /* \"#utility.yul\":2540:2658   */\n      pop\n        /* \"#utility.yul\":2697:2699   */\n      0x40\n        /* \"#utility.yul\":2723:2776   */\n      tag_363\n        /* \"#utility.yul\":2768:2775   */\n      dup9\n        /* \"#utility.yul\":2759:2765   */\n      dup3\n        /* \"#utility.yul\":2748:2757   */\n      dup10\n        /* \"#utility.yul\":2744:2766   */\n      add\n        /* \"#utility.yul\":2723:2776   */\n      tag_301\n      jump\t// in\n    tag_363:\n        /* \"#utility.yul\":2713:2776   */\n      swap4\n      pop\n        /* \"#utility.yul\":2668:2786   */\n      pop\n        /* \"#utility.yul\":2853:2855   */\n      0x60\n        /* \"#utility.yul\":2842:2851   */\n      dup7\n        /* \"#utility.yul\":2838:2856   */\n      add\n        /* \"#utility.yul\":2825:2857   */\n      calldataload\n        /* \"#utility.yul\":2884:2902   */\n      0xffffffffffffffff\n        /* \"#utility.yul\":2876:2882   */\n      dup2\n        /* \"#utility.yul\":2873:2903   */\n      gt\n        /* \"#utility.yul\":2870:2987   */\n      iszero\n      tag_364\n      jumpi\n        /* \"#utility.yul\":2906:2985   */\n      tag_365\n      tag_294\n      jump\t// in\n    tag_365:\n        /* \"#utility.yul\":2870:2987   */\n    tag_364:\n        /* \"#utility.yul\":3019:3083   */\n      tag_366\n        /* \"#utility.yul\":3075:3082   */\n      dup9\n        /* \"#utility.yul\":3066:3072   */\n      dup3\n        /* \"#utility.yul\":3055:3064   */\n      dup10\n        /* \"#utility.yul\":3051:3073   */\n      add\n        /* \"#utility.yul\":3019:3083   */\n      tag_305\n      jump\t// in\n    tag_366:\n        /* \"#utility.yul\":3001:3083   */\n      swap3\n      pop\n      swap3\n      pop\n        /* \"#utility.yul\":2796:3093   */\n      pop\n        /* \"#utility.yul\":2137:3100   */\n      swap3\n      swap6\n      pop\n      swap3\n      swap6\n      swap1\n      swap4\n      pop\n      jump\t// out\n        /* \"#utility.yul\":3106:3255   */\n    tag_306:\n        /* \"#utility.yul\":3142:3149   */\n      0x00\n        /* \"#utility.yul\":3182:3248   */\n      0xffffffff00000000000000000000000000000000000000000000000000000000\n        /* \"#utility.yul\":3175:3180   */\n      dup3\n        /* \"#utility.yul\":3171:3249   */\n      and\n        /* \"#utility.yul\":3160:3249   */\n      swap1\n      pop\n        /* \"#utility.yul\":3106:3255   */\n      swap2\n      swap1\n      pop\n      jump\t// out\n        /* \"#utility.yul\":3261:3376   */\n    tag_307:\n        /* \"#utility.yul\":3346:3369   */\n      tag_369\n        /* \"#utility.yul\":3363:3368   */\n      dup2\n        /* \"#utility.yul\":3346:3369   */\n      tag_306\n      jump\t// in\n    tag_369:\n        /* \"#utility.yul\":3341:3344   */\n      dup3\n        /* \"#utility.yul\":3334:3370   */\n      mstore\n        /* \"#utility.yul\":3261:3376   */\n      pop\n      pop\n      jump\t// out\n        /* \"#utility.yul\":3382:3600   */\n    tag_30:\n        /* \"#utility.yul\":3473:3477   */\n      0x00\n        /* \"#utility.yul\":3511:3513   */\n      0x20\n        /* \"#utility.yul\":3500:3509   */\n      dup3\n        /* \"#utility.yul\":3496:3514   */\n      add\n        /* \"#utility.yul\":3488:3514   */\n      swap1\n      pop\n        /* \"#utility.yul\":3524:3593   */\n      tag_371\n        /* \"#utility.yul\":3590:3591   */\n      0x00\n        /* \"#utility.yul\":3579:3588   */\n      dup4\n        /* \"#utility.yul\":3575:3592   */\n      add\n        /* \"#utility.yul\":3566:3572   */\n      dup5\n        /* \"#utility.yul\":3524:3593   */\n      tag_307\n      jump\t// in\n    tag_371:\n        /* \"#utility.yul\":3382:3600   */\n      swap3\n      swap2\n      pop\n      pop\n      jump\t// out\n        /* \"#utility.yul\":3606:3935   */\n    tag_33:\n        /* \"#utility.yul\":3665:3671   */\n      0x00\n        /* \"#utility.yul\":3714:3716   */\n      0x20\n        /* \"#utility.yul\":3702:3711   */\n      dup3\n        /* \"#utility.yul\":3693:3700   */\n      dup5\n        /* \"#utility.yul\":3689:3712   */\n      sub\n        /* \"#utility.yul\":3685:3717   */\n      slt\n        /* \"#utility.yul\":3682:3801   */\n      iszero\n      tag_373\n      jumpi\n        /* \"#utility.yul\":3720:3799   */\n      tag_374\n      tag_293\n      jump\t// in\n    tag_374:\n        /* \"#utility.yul\":3682:3801   */\n    tag_373:\n        /* \"#utility.yul\":3840:3841   */\n      0x00\n        /* \"#utility.yul\":3865:3918   */\n      tag_375\n        /* \"#utility.yul\":3910:3917   */\n      dup5\n        /* \"#utility.yul\":3901:3907   */\n      dup3\n        /* \"#utility.yul\":3890:3899   */\n      dup6\n        /* \"#utility.yul\":3886:3908   */\n      add\n        /* \"#utility.yul\":3865:3918   */\n      tag_301\n      jump\t// in\n    tag_375:\n        /* \"#utility.yul\":3855:3918   */\n      swap2\n      pop\n        /* \"#utility.yul\":3811:3928   */\n      pop\n        /* \"#utility.yul\":3606:3935   */\n      swap3\n      swap2\n      pop\n      pop\n      jump\t// out\n        /* \"#utility.yul\":3941:4415   */\n    tag_40:\n        /* \"#utility.yul\":4009:4015   */\n      0x00\n        /* \"#utility.yul\":4017:4023   */\n      dup1\n        /* \"#utility.yul\":4066:4068   */\n      0x40\n        /* \"#utility.yul\":4054:4063   */\n      dup4\n        /* \"#utility.yul\":4045:4052   */\n      dup6\n        /* \"#utility.yul\":4041:4064   */\n      sub\n        /* \"#utility.yul\":4037:4069   */\n      slt\n        /* \"#utility.yul\":4034:4153   */\n      iszero\n      tag_377\n      jumpi\n        /* \"#utility.yul\":4072:4151   */\n      tag_378\n      tag_293\n      jump\t// in\n    tag_378:\n        /* \"#utility.yul\":4034:4153   */\n    tag_377:\n        /* \"#utility.yul\":4192:4193   */\n      0x00\n        /* \"#utility.yul\":4217:4270   */\n      tag_379\n        /* \"#utility.yul\":4262:4269   */\n      dup6\n        /* \"#utility.yul\":4253:4259   */\n      dup3\n        /* \"#utility.yul\":4242:4251   */\n      dup7\n        /* \"#utility.yul\":4238:4260   */\n      add\n        /* \"#utility.yul\":4217:4270   */\n      tag_298\n      jump\t// in\n    tag_379:\n        /* \"#utility.yul\":4207:4270   */\n      swap3\n      pop\n        /* \"#utility.yul\":4163:4280   */\n      pop\n        /* \"#utility.yul\":4319:4321   */\n      0x20\n        /* \"#utility.yul\":4345:4398   */\n      tag_380\n        /* \"#utility.yul\":4390:4397   */\n      dup6\n        /* \"#utility.yul\":4381:4387   */\n      dup3\n        /* \"#utility.yul\":4370:4379   */\n      dup7\n        /* \"#utility.yul\":4366:4388   */\n      add\n        /* \"#utility.yul\":4345:4398   */\n      tag_301\n      jump\t// in\n    tag_380:\n        /* \"#utility.yul\":4335:4398   */\n      swap2\n      pop\n        /* \"#utility.yul\":4290:4408   */\n      pop\n        /* \"#utility.yul\":3941:4415   */\n      swap3\n      pop\n      swap3\n      swap1\n      pop\n      jump\t// out\n        /* \"#utility.yul\":4421:4539   */\n    tag_308:\n        /* \"#utility.yul\":4508:4532   */\n      tag_382\n        /* \"#utility.yul\":4526:4531   */\n      dup2\n        /* \"#utility.yul\":4508:4532   */\n      tag_299\n      jump\t// in\n    tag_382:\n        /* \"#utility.yul\":4503:4506   */\n      dup3\n        /* \"#utility.yul\":4496:4533   */\n      mstore\n        /* \"#utility.yul\":4421:4539   */\n      pop\n      pop\n      jump\t// out\n        /* \"#utility.yul\":4545:4663   */\n    tag_309:\n        /* \"#utility.yul\":4632:4656   */\n      tag_384\n        /* \"#utility.yul\":4650:4655   */\n      dup2\n        /* \"#utility.yul\":4632:4656   */\n      tag_296\n      jump\t// in\n    tag_384:\n        /* \"#utility.yul\":4627:4630   */\n      dup3\n        /* \"#utility.yul\":4620:4657   */\n      mstore\n        /* \"#utility.yul\":4545:4663   */\n      pop\n      pop\n      jump\t// out\n        /* \"#utility.yul\":4669:5555   */\n    tag_43:\n        /* \"#utility.yul\":4930:4934   */\n      0x00\n        /* \"#utility.yul\":4968:4971   */\n      0xe0\n        /* \"#utility.yul\":4957:4966   */\n      dup3\n        /* \"#utility.yul\":4953:4972   */\n      add\n        /* \"#utility.yul\":4945:4972   */\n      swap1\n      pop\n        /* \"#utility.yul\":4982:5053   */\n      tag_386\n        /* \"#utility.yul\":5050:5051   */\n      0x00\n        /* \"#utility.yul\":5039:5048   */\n      dup4\n        /* \"#utility.yul\":5035:5052   */\n      add\n        /* \"#utility.yul\":5026:5032   */\n      dup11\n        /* \"#utility.yul\":4982:5053   */\n      tag_308\n      jump\t// in\n    tag_386:\n        /* \"#utility.yul\":5063:5135   */\n      tag_387\n        /* \"#utility.yul\":5131:5133   */\n      0x20\n        /* \"#utility.yul\":5120:5129   */\n      dup4\n        /* \"#utility.yul\":5116:5134   */\n      add\n        /* \"#utility.yul\":5107:5113   */\n      dup10\n        /* \"#utility.yul\":5063:5135   */\n      tag_309\n      jump\t// in\n    tag_387:\n        /* \"#utility.yul\":5145:5217   */\n      tag_388\n        /* \"#utility.yul\":5213:5215   */\n      0x40\n        /* \"#utility.yul\":5202:5211   */\n      dup4\n        /* \"#utility.yul\":5198:5216   */\n      add\n        /* \"#utility.yul\":5189:5195   */\n      dup9\n        /* \"#utility.yul\":5145:5217   */\n      tag_309\n      jump\t// in\n    tag_388:\n        /* \"#utility.yul\":5227:5299   */\n      tag_389\n        /* \"#utility.yul\":5295:5297   */\n      0x60\n        /* \"#utility.yul\":5284:5293   */\n      dup4\n        /* \"#utility.yul\":5280:5298   */\n      add\n        /* \"#utility.yul\":5271:5277   */\n      dup8\n        /* \"#utility.yul\":5227:5299   */\n      tag_309\n      jump\t// in\n    tag_389:\n        /* \"#utility.yul\":5309:5382   */\n      tag_390\n        /* \"#utility.yul\":5377:5380   */\n      0x80\n        /* \"#utility.yul\":5366:5375   */\n      dup4\n        /* \"#utility.yul\":5362:5381   */\n      add\n        /* \"#utility.yul\":5353:5359   */\n      dup7\n        /* \"#utility.yul\":5309:5382   */\n      tag_308\n      jump\t// in\n    tag_390:\n        /* \"#utility.yul\":5392:5465   */\n      tag_391\n        /* \"#utility.yul\":5460:5463   */\n      0xa0\n        /* \"#utility.yul\":5449:5458   */\n      dup4\n        /* \"#utility.yul\":5445:5464   */\n      add\n        /* \"#utility.yul\":5436:5442   */\n      dup6\n        /* \"#utility.yul\":5392:5465   */\n      tag_309\n      jump\t// in\n    tag_391:\n        /* \"#utility.yul\":5475:5548   */\n      tag_392\n        /* \"#utility.yul\":5543:5546   */\n      0xc0\n        /* \"#utility.yul\":5532:5541   */\n      dup4\n        /* \"#utility.yul\":5528:5547   */\n      add\n        /* \"#utility.yul\":5519:5525   */\n      dup5\n        /* \"#utility.yul\":5475:5548   */\n      tag_308\n      jump\t// in\n    tag_392:\n        /* \"#utility.yul\":4669:5555   */\n      swap9\n      swap8\n      pop\n      pop\n      pop\n      pop\n      pop\n      pop\n      pop\n      pop\n      jump\t// out\n        /* \"#utility.yul\":5561:5890   */\n    tag_46:\n        /* \"#utility.yul\":5620:5626   */\n      0x00\n        /* \"#utility.yul\":5669:5671   */\n      0x20\n        /* \"#utility.yul\":5657:5666   */\n      dup3\n        /* \"#utility.yul\":5648:5655   */\n      dup5\n        /* \"#utility.yul\":5644:5667   */\n      sub\n        /* \"#utility.yul\":5640:5672   */\n      slt\n        /* \"#utility.yul\":5637:5756   */\n      iszero\n      tag_394\n      jumpi\n        /* \"#utility.yul\":5675:5754   */\n      tag_395\n      tag_293\n      jump\t// in\n    tag_395:\n        /* \"#utility.yul\":5637:5756   */\n    tag_394:\n        /* \"#utility.yul\":5795:5796   */\n      0x00\n        /* \"#utility.yul\":5820:5873   */\n      tag_396\n        /* \"#utility.yul\":5865:5872   */\n      dup5\n        /* \"#utility.yul\":5856:5862   */\n      dup3\n        /* \"#utility.yul\":5845:5854   */\n      dup6\n        /* \"#utility.yul\":5841:5863   */\n      add\n        /* \"#utility.yul\":5820:5873   */\n      tag_298\n      jump\t// in\n    tag_396:\n        /* \"#utility.yul\":5810:5873   */\n      swap2\n      pop\n        /* \"#utility.yul\":5766:5883   */\n      pop\n        /* \"#utility.yul\":5561:5890   */\n      swap3\n      swap2\n      pop\n      pop\n      jump\t// out\n        /* \"#utility.yul\":5896:6034   */\n    tag_310:\n        /* \"#utility.yul\":5987:5993   */\n      0x00\n        /* \"#utility.yul\":6021:6026   */\n      dup2\n        /* \"#utility.yul\":6015:6027   */\n      mload\n        /* \"#utility.yul\":6005:6027   */\n      swap1\n      pop\n        /* \"#utility.yul\":5896:6034   */\n      swap2\n      swap1\n      pop\n      jump\t// out\n        /* \"#utility.yul\":6040:6248   */\n    tag_311:\n        /* \"#utility.yul\":6163:6174   */\n      0x00\n        /* \"#utility.yul\":6197:6203   */\n      dup3\n        /* \"#utility.yul\":6192:6195   */\n      dup3\n        /* \"#utility.yul\":6185:6204   */\n      mstore\n        /* \"#utility.yul\":6237:6241   */\n      0x20\n        /* \"#utility.yul\":6232:6235   */\n      dup3\n        /* \"#utility.yul\":6228:6242   */\n      add\n        /* \"#utility.yul\":6213:6242   */\n      swap1\n      pop\n        /* \"#utility.yul\":6040:6248   */\n      swap3\n      swap2\n      pop\n      pop\n      jump\t// out\n        /* \"#utility.yul\":6254:6410   */\n    tag_312:\n        /* \"#utility.yul\":6345:6349   */\n      0x00\n        /* \"#utility.yul\":6368:6371   */\n      dup2\n        /* \"#utility.yul\":6360:6371   */\n      swap1\n      pop\n        /* \"#utility.yul\":6398:6402   */\n      0x20\n        /* \"#utility.yul\":6393:6396   */\n      dup3\n        /* \"#utility.yul\":6389:6403   */\n      add\n        /* \"#utility.yul\":6381:6403   */\n      swap1\n      pop\n        /* \"#utility.yul\":6254:6410   */\n      swap2\n      swap1\n      pop\n      jump\t// out\n        /* \"#utility.yul\":6416:6524   */\n    tag_313:\n        /* \"#utility.yul\":6493:6517   */\n      tag_401\n        /* \"#utility.yul\":6511:6516   */\n      dup2\n        /* \"#utility.yul\":6493:6517   */\n      tag_299\n      jump\t// in\n    tag_401:\n        /* \"#utility.yul\":6488:6491   */\n      dup3\n        /* \"#utility.yul\":6481:6518   */\n      mstore\n        /* \"#utility.yul\":6416:6524   */\n      pop\n      pop\n      jump\t// out\n        /* \"#utility.yul\":6530:6638   */\n    tag_314:\n        /* \"#utility.yul\":6607:6631   */\n      tag_403\n        /* \"#utility.yul\":6625:6630   */\n      dup2\n        /* \"#utility.yul\":6607:6631   */\n      tag_296\n      jump\t// in\n    tag_403:\n        /* \"#utility.yul\":6602:6605   */\n      dup3\n        /* \"#utility.yul\":6595:6632   */\n      mstore\n        /* \"#utility.yul\":6530:6638   */\n      pop\n      pop\n      jump\t// out\n        /* \"#utility.yul\":6700:8108   */\n    tag_315:\n        /* \"#utility.yul\":6835:6839   */\n      0xe0\n        /* \"#utility.yul\":6830:6833   */\n      dup3\n        /* \"#utility.yul\":6826:6840   */\n      add\n        /* \"#utility.yul\":6927:6931   */\n      0x00\n        /* \"#utility.yul\":6920:6925   */\n      dup3\n        /* \"#utility.yul\":6916:6932   */\n      add\n        /* \"#utility.yul\":6910:6933   */\n      mload\n        /* \"#utility.yul\":6946:7009   */\n      tag_405\n        /* \"#utility.yul\":7003:7007   */\n      0x00\n        /* \"#utility.yul\":6998:7001   */\n      dup6\n        /* \"#utility.yul\":6994:7008   */\n      add\n        /* \"#utility.yul\":6980:6992   */\n      dup3\n        /* \"#utility.yul\":6946:7009   */\n      tag_313\n      jump\t// in\n    tag_405:\n        /* \"#utility.yul\":6850:7019   */\n      pop\n        /* \"#utility.yul\":7106:7110   */\n      0x20\n        /* \"#utility.yul\":7099:7104   */\n      dup3\n        /* \"#utility.yul\":7095:7111   */\n      add\n        /* \"#utility.yul\":7089:7112   */\n      mload\n        /* \"#utility.yul\":7125:7188   */\n      tag_406\n        /* \"#utility.yul\":7182:7186   */\n      0x20\n        /* \"#utility.yul\":7177:7180   */\n      dup6\n        /* \"#utility.yul\":7173:7187   */\n      add\n        /* \"#utility.yul\":7159:7171   */\n      dup3\n        /* \"#utility.yul\":7125:7188   */\n      tag_314\n      jump\t// in\n    tag_406:\n        /* \"#utility.yul\":7029:7198   */\n      pop\n        /* \"#utility.yul\":7285:7289   */\n      0x40\n        /* \"#utility.yul\":7278:7283   */\n      dup3\n        /* \"#utility.yul\":7274:7290   */\n      add\n        /* \"#utility.yul\":7268:7291   */\n      mload\n        /* \"#utility.yul\":7304:7367   */\n      tag_407\n        /* \"#utility.yul\":7361:7365   */\n      0x40\n        /* \"#utility.yul\":7356:7359   */\n      dup6\n        /* \"#utility.yul\":7352:7366   */\n      add\n        /* \"#utility.yul\":7338:7350   */\n      dup3\n        /* \"#utility.yul\":7304:7367   */\n      tag_314\n      jump\t// in\n    tag_407:\n        /* \"#utility.yul\":7208:7377   */\n      pop\n        /* \"#utility.yul\":7463:7467   */\n      0x60\n        /* \"#utility.yul\":7456:7461   */\n      dup3\n        /* \"#utility.yul\":7452:7468   */\n      add\n        /* \"#utility.yul\":7446:7469   */\n      mload\n        /* \"#utility.yul\":7482:7545   */\n      tag_408\n        /* \"#utility.yul\":7539:7543   */\n      0x60\n        /* \"#utility.yul\":7534:7537   */\n      dup6\n        /* \"#utility.yul\":7530:7544   */\n      add\n        /* \"#utility.yul\":7516:7528   */\n      dup3\n        /* \"#utility.yul\":7482:7545   */\n      tag_314\n      jump\t// in\n    tag_408:\n        /* \"#utility.yul\":7387:7555   */\n      pop\n        /* \"#utility.yul\":7643:7647   */\n      0x80\n        /* \"#utility.yul\":7636:7641   */\n      dup3\n        /* \"#utility.yul\":7632:7648   */\n      add\n        /* \"#utility.yul\":7626:7649   */\n      mload\n        /* \"#utility.yul\":7662:7725   */\n      tag_409\n        /* \"#utility.yul\":7719:7723   */\n      0x80\n        /* \"#utility.yul\":7714:7717   */\n      dup6\n        /* \"#utility.yul\":7710:7724   */\n      add\n        /* \"#utility.yul\":7696:7708   */\n      dup3\n        /* \"#utility.yul\":7662:7725   */\n      tag_313\n      jump\t// in\n    tag_409:\n        /* \"#utility.yul\":7565:7735   */\n      pop\n        /* \"#utility.yul\":7825:7829   */\n      0xa0\n        /* \"#utility.yul\":7818:7823   */\n      dup3\n        /* \"#utility.yul\":7814:7830   */\n      add\n        /* \"#utility.yul\":7808:7831   */\n      mload\n        /* \"#utility.yul\":7844:7907   */\n      tag_410\n        /* \"#utility.yul\":7901:7905   */\n      0xa0\n        /* \"#utility.yul\":7896:7899   */\n      dup6\n        /* \"#utility.yul\":7892:7906   */\n      add\n        /* \"#utility.yul\":7878:7890   */\n      dup3\n        /* \"#utility.yul\":7844:7907   */\n      tag_314\n      jump\t// in\n    tag_410:\n        /* \"#utility.yul\":7745:7917   */\n      pop\n        /* \"#utility.yul\":8009:8013   */\n      0xc0\n        /* \"#utility.yul\":8002:8007   */\n      dup3\n        /* \"#utility.yul\":7998:8014   */\n      add\n        /* \"#utility.yul\":7992:8015   */\n      mload\n        /* \"#utility.yul\":8028:8091   */\n      tag_411\n        /* \"#utility.yul\":8085:8089   */\n      0xc0\n        /* \"#utility.yul\":8080:8083   */\n      dup6\n        /* \"#utility.yul\":8076:8090   */\n      add\n        /* \"#utility.yul\":8062:8074   */\n      dup3\n        /* \"#utility.yul\":8028:8091   */\n      tag_313\n      jump\t// in\n    tag_411:\n        /* \"#utility.yul\":7927:8101   */\n      pop\n        /* \"#utility.yul\":6804:8108   */\n      pop\n        /* \"#utility.yul\":6700:8108   */\n      pop\n      pop\n      jump\t// out\n        /* \"#utility.yul\":8114:8389   */\n    tag_316:\n        /* \"#utility.yul\":8231:8241   */\n      0x00\n        /* \"#utility.yul\":8252:8346   */\n      tag_413\n        /* \"#utility.yul\":8342:8345   */\n      dup4\n        /* \"#utility.yul\":8334:8340   */\n      dup4\n        /* \"#utility.yul\":8252:8346   */\n      tag_315\n      jump\t// in\n    tag_413:\n        /* \"#utility.yul\":8378:8382   */\n      0xe0\n        /* \"#utility.yul\":8373:8376   */\n      dup4\n        /* \"#utility.yul\":8369:8383   */\n      add\n        /* \"#utility.yul\":8355:8383   */\n      swap1\n      pop\n        /* \"#utility.yul\":8114:8389   */\n      swap3\n      swap2\n      pop\n      pop\n      jump\t// out\n        /* \"#utility.yul\":8395:8532   */\n    tag_317:\n        /* \"#utility.yul\":8489:8493   */\n      0x00\n        /* \"#utility.yul\":8521:8525   */\n      0x20\n        /* \"#utility.yul\":8516:8519   */\n      dup3\n        /* \"#utility.yul\":8512:8526   */\n      add\n        /* \"#utility.yul\":8504:8526   */\n      swap1\n      pop\n        /* \"#utility.yul\":8395:8532   */\n      swap2\n      swap1\n      pop\n      jump\t// out\n        /* \"#utility.yul\":8598:9522   */\n    tag_318:\n        /* \"#utility.yul\":8765:8768   */\n      0x00\n        /* \"#utility.yul\":8794:8872   */\n      tag_416\n        /* \"#utility.yul\":8866:8871   */\n      dup3\n        /* \"#utility.yul\":8794:8872   */\n      tag_310\n      jump\t// in\n    tag_416:\n        /* \"#utility.yul\":8888:8998   */\n      tag_417\n        /* \"#utility.yul\":8991:8997   */\n      dup2\n        /* \"#utility.yul\":8986:8989   */\n      dup6\n        /* \"#utility.yul\":8888:8998   */\n      tag_311\n      jump\t// in\n    tag_417:\n        /* \"#utility.yul\":8881:8998   */\n      swap4\n      pop\n        /* \"#utility.yul\":9022:9102   */\n      tag_418\n        /* \"#utility.yul\":9096:9101   */\n      dup4\n        /* \"#utility.yul\":9022:9102   */\n      tag_312\n      jump\t// in\n    tag_418:\n        /* \"#utility.yul\":9125:9132   */\n      dup1\n        /* \"#utility.yul\":9156:9157   */\n      0x00\n        /* \"#utility.yul\":9141:9497   */\n    tag_419:\n        /* \"#utility.yul\":9166:9172   */\n      dup4\n        /* \"#utility.yul\":9163:9164   */\n      dup2\n        /* \"#utility.yul\":9160:9173   */\n      lt\n        /* \"#utility.yul\":9141:9497   */\n      iszero\n      tag_421\n      jumpi\n        /* \"#utility.yul\":9242:9248   */\n      dup2\n        /* \"#utility.yul\":9236:9249   */\n      mload\n        /* \"#utility.yul\":9269:9380   */\n      tag_422\n        /* \"#utility.yul\":9376:9379   */\n      dup9\n        /* \"#utility.yul\":9361:9374   */\n      dup3\n        /* \"#utility.yul\":9269:9380   */\n      tag_316\n      jump\t// in\n    tag_422:\n        /* \"#utility.yul\":9262:9380   */\n      swap8\n      pop\n        /* \"#utility.yul\":9403:9487   */\n      tag_423\n        /* \"#utility.yul\":9480:9486   */\n      dup4\n        /* \"#utility.yul\":9403:9487   */\n      tag_317\n      jump\t// in\n    tag_423:\n        /* \"#utility.yul\":9393:9487   */\n      swap3\n      pop\n        /* \"#utility.yul\":9201:9497   */\n      pop\n        /* \"#utility.yul\":9188:9189   */\n      0x01\n        /* \"#utility.yul\":9185:9186   */\n      dup2\n        /* \"#utility.yul\":9181:9190   */\n      add\n        /* \"#utility.yul\":9176:9190   */\n      swap1\n      pop\n        /* \"#utility.yul\":9141:9497   */\n      jump(tag_419)\n    tag_421:\n        /* \"#utility.yul\":9145:9159   */\n      pop\n        /* \"#utility.yul\":9513:9516   */\n      dup6\n        /* \"#utility.yul\":9506:9516   */\n      swap4\n      pop\n        /* \"#utility.yul\":8770:9522   */\n      pop\n      pop\n      pop\n        /* \"#utility.yul\":8598:9522   */\n      swap3\n      swap2\n      pop\n      pop\n      jump\t// out\n        /* \"#utility.yul\":9528:9997   */\n    tag_49:\n        /* \"#utility.yul\":9719:9723   */\n      0x00\n        /* \"#utility.yul\":9757:9759   */\n      0x20\n        /* \"#utility.yul\":9746:9755   */\n      dup3\n        /* \"#utility.yul\":9742:9760   */\n      add\n        /* \"#utility.yul\":9734:9760   */\n      swap1\n      pop\n        /* \"#utility.yul\":9806:9815   */\n      dup2\n        /* \"#utility.yul\":9800:9804   */\n      dup2\n        /* \"#utility.yul\":9796:9816   */\n      sub\n        /* \"#utility.yul\":9792:9793   */\n      0x00\n        /* \"#utility.yul\":9781:9790   */\n      dup4\n        /* \"#utility.yul\":9777:9794   */\n      add\n        /* \"#utility.yul\":9770:9817   */\n      mstore\n        /* \"#utility.yul\":9834:9990   */\n      tag_425\n        /* \"#utility.yul\":9985:9989   */\n      dup2\n        /* \"#utility.yul\":9976:9982   */\n      dup5\n        /* \"#utility.yul\":9834:9990   */\n      tag_318\n      jump\t// in\n    tag_425:\n        /* \"#utility.yul\":9826:9990   */\n      swap1\n      pop\n        /* \"#utility.yul\":9528:9997   */\n      swap3\n      swap2\n      pop\n      pop\n      jump\t// out\n        /* \"#utility.yul\":10003:10477   */\n    tag_74:\n        /* \"#utility.yul\":10071:10077   */\n      0x00\n        /* \"#utility.yul\":10079:10085   */\n      dup1\n        /* \"#utility.yul\":10128:10130   */\n      0x40\n        /* \"#utility.yul\":10116:10125   */\n      dup4\n        /* \"#utility.yul\":10107:10114   */\n      dup6\n        /* \"#utility.yul\":10103:10126   */\n      sub\n        /* \"#utility.yul\":10099:10131   */\n      slt\n        /* \"#utility.yul\":10096:10215   */\n      iszero\n      tag_427\n      jumpi\n        /* \"#utility.yul\":10134:10213   */\n      tag_428\n      tag_293\n      jump\t// in\n    tag_428:\n        /* \"#utility.yul\":10096:10215   */\n    tag_427:\n        /* \"#utility.yul\":10254:10255   */\n      0x00\n        /* \"#utility.yul\":10279:10332   */\n      tag_429\n        /* \"#utility.yul\":10324:10331   */\n      dup6\n        /* \"#utility.yul\":10315:10321   */\n      dup3\n        /* \"#utility.yul\":10304:10313   */\n      dup7\n        /* \"#utility.yul\":10300:10322   */\n      add\n        /* \"#utility.yul\":10279:10332   */\n      tag_298\n      jump\t// in\n    tag_429:\n        /* \"#utility.yul\":10269:10332   */\n      swap3\n      pop\n        /* \"#utility.yul\":10225:10342   */\n      pop\n        /* \"#utility.yul\":10381:10383   */\n      0x20\n        /* \"#utility.yul\":10407:10460   */\n      tag_430\n        /* \"#utility.yul\":10452:10459   */\n      dup6\n        /* \"#utility.yul\":10443:10449   */\n      dup3\n        /* \"#utility.yul\":10432:10441   */\n      dup7\n        /* \"#utility.yul\":10428:10450   */\n      add\n        /* \"#utility.yul\":10407:10460   */\n      tag_298\n      jump\t// in\n    tag_430:\n        /* \"#utility.yul\":10397:10460   */\n      swap2\n      pop\n        /* \"#utility.yul\":10352:10470   */\n      pop\n        /* \"#utility.yul\":10003:10477   */\n      swap3\n      pop\n      swap3\n      swap1\n      pop\n      jump\t// out\n        /* \"#utility.yul\":10483:10573   */\n    tag_319:\n        /* \"#utility.yul\":10517:10524   */\n      0x00\n        /* \"#utility.yul\":10560:10565   */\n      dup2\n        /* \"#utility.yul\":10553:10566   */\n      iszero\n        /* \"#utility.yul\":10546:10567   */\n      iszero\n        /* \"#utility.yul\":10535:10567   */\n      swap1\n      pop\n        /* \"#utility.yul\":10483:10573   */\n      swap2\n      swap1\n      pop\n      jump\t// out\n        /* \"#utility.yul\":10579:10688   */\n    tag_320:\n        /* \"#utility.yul\":10660:10681   */\n      tag_433\n        /* \"#utility.yul\":10675:10680   */\n      dup2\n        /* \"#utility.yul\":10660:10681   */\n      tag_319\n      jump\t// in\n    tag_433:\n        /* \"#utility.yul\":10655:10658   */\n      dup3\n        /* \"#utility.yul\":10648:10682   */\n      mstore\n        /* \"#utility.yul\":10579:10688   */\n      pop\n      pop\n      jump\t// out\n        /* \"#utility.yul\":10694:10904   */\n    tag_77:\n        /* \"#utility.yul\":10781:10785   */\n      0x00\n        /* \"#utility.yul\":10819:10821   */\n      0x20\n        /* \"#utility.yul\":10808:10817   */\n      dup3\n        /* \"#utility.yul\":10804:10822   */\n      add\n        /* \"#utility.yul\":10796:10822   */\n      swap1\n      pop\n        /* \"#utility.yul\":10832:10897   */\n      tag_435\n        /* \"#utility.yul\":10894:10895   */\n      0x00\n        /* \"#utility.yul\":10883:10892   */\n      dup4\n        /* \"#utility.yul\":10879:10896   */\n      add\n        /* \"#utility.yul\":10870:10876   */\n      dup5\n        /* \"#utility.yul\":10832:10897   */\n      tag_320\n      jump\t// in\n    tag_435:\n        /* \"#utility.yul\":10694:10904   */\n      swap3\n      swap2\n      pop\n      pop\n      jump\t// out\n        /* \"#utility.yul\":10910:11027   */\n    tag_321:\n        /* \"#utility.yul\":11019:11020   */\n      0x00\n        /* \"#utility.yul\":11016:11017   */\n      dup1\n        /* \"#utility.yul\":11009:11021   */\n      revert\n        /* \"#utility.yul\":11065:11298   */\n    tag_322:\n        /* \"#utility.yul\":11139:11144   */\n      0x00\n        /* \"#utility.yul\":11180:11183   */\n      0xa0\n        /* \"#utility.yul\":11171:11177   */\n      dup3\n        /* \"#utility.yul\":11166:11169   */\n      dup5\n        /* \"#utility.yul\":11162:11178   */\n      sub\n        /* \"#utility.yul\":11158:11184   */\n      slt\n        /* \"#utility.yul\":11155:11268   */\n      iszero\n      tag_438\n      jumpi\n        /* \"#utility.yul\":11187:11266   */\n      tag_439\n      tag_321\n      jump\t// in\n    tag_439:\n        /* \"#utility.yul\":11155:11268   */\n    tag_438:\n        /* \"#utility.yul\":11286:11292   */\n      dup2\n        /* \"#utility.yul\":11277:11292   */\n      swap1\n      pop\n        /* \"#utility.yul\":11065:11298   */\n      swap3\n      swap2\n      pop\n      pop\n      jump\t// out\n        /* \"#utility.yul\":11304:11690   */\n    tag_95:\n        /* \"#utility.yul\":11391:11397   */\n      0x00\n        /* \"#utility.yul\":11440:11443   */\n      0xa0\n        /* \"#utility.yul\":11428:11437   */\n      dup3\n        /* \"#utility.yul\":11419:11426   */\n      dup5\n        /* \"#utility.yul\":11415:11438   */\n      sub\n        /* \"#utility.yul\":11411:11444   */\n      slt\n        /* \"#utility.yul\":11408:11528   */\n      iszero\n      tag_441\n      jumpi\n        /* \"#utility.yul\":11447:11526   */\n      tag_442\n      tag_293\n      jump\t// in\n    tag_442:\n        /* \"#utility.yul\":11408:11528   */\n    tag_441:\n        /* \"#utility.yul\":11567:11568   */\n      0x00\n        /* \"#utility.yul\":11592:11673   */\n      tag_443\n        /* \"#utility.yul\":11665:11672   */\n      dup5\n        /* \"#utility.yul\":11656:11662   */\n      dup3\n        /* \"#utility.yul\":11645:11654   */\n      dup6\n        /* \"#utility.yul\":11641:11663   */\n      add\n        /* \"#utility.yul\":11592:11673   */\n      tag_322\n      jump\t// in\n    tag_443:\n        /* \"#utility.yul\":11582:11673   */\n      swap2\n      pop\n        /* \"#utility.yul\":11538:11683   */\n      pop\n        /* \"#utility.yul\":11304:11690   */\n      swap3\n      swap2\n      pop\n      pop\n      jump\t// out\n        /* \"#utility.yul\":11696:11918   */\n    tag_112:\n        /* \"#utility.yul\":11789:11793   */\n      0x00\n        /* \"#utility.yul\":11827:11829   */\n      0x20\n        /* \"#utility.yul\":11816:11825   */\n      dup3\n        /* \"#utility.yul\":11812:11830   */\n      add\n        /* \"#utility.yul\":11804:11830   */\n      swap1\n      pop\n        /* \"#utility.yul\":11840:11911   */\n      tag_445\n        /* \"#utility.yul\":11908:11909   */\n      0x00\n        /* \"#utility.yul\":11897:11906   */\n      dup4\n        /* \"#utility.yul\":11893:11910   */\n      add\n        /* \"#utility.yul\":11884:11890   */\n      dup5\n        /* \"#utility.yul\":11840:11911   */\n      tag_309\n      jump\t// in\n    tag_445:\n        /* \"#utility.yul\":11696:11918   */\n      swap3\n      swap2\n      pop\n      pop\n      jump\t// out\n        /* \"#utility.yul\":11924:12366   */\n    tag_114:\n        /* \"#utility.yul\":12073:12077   */\n      0x00\n        /* \"#utility.yul\":12111:12113   */\n      0x60\n        /* \"#utility.yul\":12100:12109   */\n      dup3\n        /* \"#utility.yul\":12096:12114   */\n      add\n        /* \"#utility.yul\":12088:12114   */\n      swap1\n      pop\n        /* \"#utility.yul\":12124:12195   */\n      tag_447\n        /* \"#utility.yul\":12192:12193   */\n      0x00\n        /* \"#utility.yul\":12181:12190   */\n      dup4\n        /* \"#utility.yul\":12177:12194   */\n      add\n        /* \"#utility.yul\":12168:12174   */\n      dup7\n        /* \"#utility.yul\":12124:12195   */\n      tag_309\n      jump\t// in\n    tag_447:\n        /* \"#utility.yul\":12205:12277   */\n      tag_448\n        /* \"#utility.yul\":12273:12275   */\n      0x20\n        /* \"#utility.yul\":12262:12271   */\n      dup4\n        /* \"#utility.yul\":12258:12276   */\n      add\n        /* \"#utility.yul\":12249:12255   */\n      dup6\n        /* \"#utility.yul\":12205:12277   */\n      tag_309\n      jump\t// in\n    tag_448:\n        /* \"#utility.yul\":12287:12359   */\n      tag_449\n        /* \"#utility.yul\":12355:12357   */\n      0x40\n        /* \"#utility.yul\":12344:12353   */\n      dup4\n        /* \"#utility.yul\":12340:12358   */\n      add\n        /* \"#utility.yul\":12331:12337   */\n      dup5\n        /* \"#utility.yul\":12287:12359   */\n      tag_308\n      jump\t// in\n    tag_449:\n        /* \"#utility.yul\":11924:12366   */\n      swap5\n      swap4\n      pop\n      pop\n      pop\n      pop\n      jump\t// out\n        /* \"#utility.yul\":12372:12594   */\n    tag_166:\n        /* \"#utility.yul\":12465:12469   */\n      0x00\n        /* \"#utility.yul\":12503:12505   */\n      0x20\n        /* \"#utility.yul\":12492:12501   */\n      dup3\n        /* \"#utility.yul\":12488:12506   */\n      add\n        /* \"#utility.yul\":12480:12506   */\n      swap1\n      pop\n        /* \"#utility.yul\":12516:12587   */\n      tag_451\n        /* \"#utility.yul\":12584:12585   */\n      0x00\n        /* \"#utility.yul\":12573:12582   */\n      dup4\n        /* \"#utility.yul\":12569:12586   */\n      add\n        /* \"#utility.yul\":12560:12566   */\n      dup5\n        /* \"#utility.yul\":12516:12587   */\n      tag_308\n      jump\t// in\n    tag_451:\n        /* \"#utility.yul\":12372:12594   */\n      swap3\n      swap2\n      pop\n      pop\n      jump\t// out\n        /* \"#utility.yul\":12600:12743   */\n    tag_323:\n        /* \"#utility.yul\":12657:12662   */\n      0x00\n        /* \"#utility.yul\":12688:12694   */\n      dup2\n        /* \"#utility.yul\":12682:12695   */\n      mload\n        /* \"#utility.yul\":12673:12695   */\n      swap1\n      pop\n        /* \"#utility.yul\":12704:12737   */\n      tag_453\n        /* \"#utility.yul\":12731:12736   */\n      dup2\n        /* \"#utility.yul\":12704:12737   */\n      tag_297\n      jump\t// in\n    tag_453:\n        /* \"#utility.yul\":12600:12743   */\n      swap3\n      swap2\n      pop\n      pop\n      jump\t// out\n        /* \"#utility.yul\":12749:13100   */\n    tag_170:\n        /* \"#utility.yul\":12819:12825   */\n      0x00\n        /* \"#utility.yul\":12868:12870   */\n      0x20\n        /* \"#utility.yul\":12856:12865   */\n      dup3\n        /* \"#utility.yul\":12847:12854   */\n      dup5\n        /* \"#utility.yul\":12843:12866   */\n      sub\n        /* \"#utility.yul\":12839:12871   */\n      slt\n        /* \"#utility.yul\":12836:12955   */\n      iszero\n      tag_455\n      jumpi\n        /* \"#utility.yul\":12874:12953   */\n      tag_456\n      tag_293\n      jump\t// in\n    tag_456:\n        /* \"#utility.yul\":12836:12955   */\n    tag_455:\n        /* \"#utility.yul\":12994:12995   */\n      0x00\n        /* \"#utility.yul\":13019:13083   */\n      tag_457\n        /* \"#utility.yul\":13075:13082   */\n      dup5\n        /* \"#utility.yul\":13066:13072   */\n      dup3\n        /* \"#utility.yul\":13055:13064   */\n      dup6\n        /* \"#utility.yul\":13051:13073   */\n      add\n        /* \"#utility.yul\":13019:13083   */\n      tag_323\n      jump\t// in\n    tag_457:\n        /* \"#utility.yul\":13009:13083   */\n      swap2\n      pop\n        /* \"#utility.yul\":12965:13093   */\n      pop\n        /* \"#utility.yul\":12749:13100   */\n      swap3\n      swap2\n      pop\n      pop\n      jump\t// out\n        /* \"#utility.yul\":13106:13438   */\n    tag_229:\n        /* \"#utility.yul\":13227:13231   */\n      0x00\n        /* \"#utility.yul\":13265:13267   */\n      0x40\n        /* \"#utility.yul\":13254:13263   */\n      dup3\n        /* \"#utility.yul\":13250:13268   */\n      add\n        /* \"#utility.yul\":13242:13268   */\n      swap1\n      pop\n        /* \"#utility.yul\":13278:13349   */\n      tag_459\n        /* \"#utility.yul\":13346:13347   */\n      0x00\n        /* \"#utility.yul\":13335:13344   */\n      dup4\n        /* \"#utility.yul\":13331:13348   */\n      add\n        /* \"#utility.yul\":13322:13328   */\n      dup6\n        /* \"#utility.yul\":13278:13349   */\n      tag_309\n      jump\t// in\n    tag_459:\n        /* \"#utility.yul\":13359:13431   */\n      tag_460\n        /* \"#utility.yul\":13427:13429   */\n      0x20\n        /* \"#utility.yul\":13416:13425   */\n      dup4\n        /* \"#utility.yul\":13412:13430   */\n      add\n        /* \"#utility.yul\":13403:13409   */\n      dup5\n        /* \"#utility.yul\":13359:13431   */\n      tag_308\n      jump\t// in\n    tag_460:\n        /* \"#utility.yul\":13106:13438   */\n      swap4\n      swap3\n      pop\n      pop\n      pop\n      jump\t// out\n        /* \"#utility.yul\":13444:13530   */\n    tag_324:\n        /* \"#utility.yul\":13490:13497   */\n      0x00\n        /* \"#utility.yul\":13519:13524   */\n      dup2\n        /* \"#utility.yul\":13508:13524   */\n      swap1\n      pop\n        /* \"#utility.yul\":13444:13530   */\n      swap2\n      swap1\n      pop\n      jump\t// out\n        /* \"#utility.yul\":13536:13622   */\n    tag_325:\n        /* \"#utility.yul\":13571:13578   */\n      0x00\n        /* \"#utility.yul\":13611:13615   */\n      0xff\n        /* \"#utility.yul\":13604:13609   */\n      dup3\n        /* \"#utility.yul\":13600:13616   */\n      and\n        /* \"#utility.yul\":13589:13616   */\n      swap1\n      pop\n        /* \"#utility.yul\":13536:13622   */\n      swap2\n      swap1\n      pop\n      jump\t// out\n        /* \"#utility.yul\":13628:13688   */\n    tag_326:\n        /* \"#utility.yul\":13656:13659   */\n      0x00\n        /* \"#utility.yul\":13677:13682   */\n      dup2\n        /* \"#utility.yul\":13670:13682   */\n      swap1\n      pop\n        /* \"#utility.yul\":13628:13688   */\n      swap2\n      swap1\n      pop\n      jump\t// out\n        /* \"#utility.yul\":13694:13850   */\n    tag_327:\n        /* \"#utility.yul\":13751:13760   */\n      0x00\n        /* \"#utility.yul\":13784:13844   */\n      tag_465\n        /* \"#utility.yul\":13800:13843   */\n      tag_466\n        /* \"#utility.yul\":13809:13842   */\n      tag_467\n        /* \"#utility.yul\":13836:13841   */\n      dup5\n        /* \"#utility.yul\":13809:13842   */\n      tag_324\n      jump\t// in\n    tag_467:\n        /* \"#utility.yul\":13800:13843   */\n      tag_326\n      jump\t// in\n    tag_466:\n        /* \"#utility.yul\":13784:13844   */\n      tag_325\n      jump\t// in\n    tag_465:\n        /* \"#utility.yul\":13771:13844   */\n      swap1\n      pop\n        /* \"#utility.yul\":13694:13850   */\n      swap2\n      swap1\n      pop\n      jump\t// out\n        /* \"#utility.yul\":13856:14001   */\n    tag_328:\n        /* \"#utility.yul\":13950:13994   */\n      tag_469\n        /* \"#utility.yul\":13988:13993   */\n      dup2\n        /* \"#utility.yul\":13950:13994   */\n      tag_327\n      jump\t// in\n    tag_469:\n        /* \"#utility.yul\":13945:13948   */\n      dup3\n        /* \"#utility.yul\":13938:13995   */\n      mstore\n        /* \"#utility.yul\":13856:14001   */\n      pop\n      pop\n      jump\t// out\n        /* \"#utility.yul\":14007:14243   */\n    tag_238:\n        /* \"#utility.yul\":14107:14111   */\n      0x00\n        /* \"#utility.yul\":14145:14147   */\n      0x20\n        /* \"#utility.yul\":14134:14143   */\n      dup3\n        /* \"#utility.yul\":14130:14148   */\n      add\n        /* \"#utility.yul\":14122:14148   */\n      swap1\n      pop\n        /* \"#utility.yul\":14158:14236   */\n      tag_471\n        /* \"#utility.yul\":14233:14234   */\n      0x00\n        /* \"#utility.yul\":14222:14231   */\n      dup4\n        /* \"#utility.yul\":14218:14235   */\n      add\n        /* \"#utility.yul\":14209:14215   */\n      dup5\n        /* \"#utility.yul\":14158:14236   */\n      tag_328\n      jump\t// in\n    tag_471:\n        /* \"#utility.yul\":14007:14243   */\n      swap3\n      swap2\n      pop\n      pop\n      jump\t// out\n        /* \"#utility.yul\":14249:14429   */\n    tag_260:\n        /* \"#utility.yul\":14297:14374   */\n      0x4e487b7100000000000000000000000000000000000000000000000000000000\n        /* \"#utility.yul\":14294:14295   */\n      0x00\n        /* \"#utility.yul\":14287:14375   */\n      mstore\n        /* \"#utility.yul\":14394:14398   */\n      0x21\n        /* \"#utility.yul\":14391:14392   */\n      0x04\n        /* \"#utility.yul\":14384:14399   */\n      mstore\n        /* \"#utility.yul\":14418:14422   */\n      0x24\n        /* \"#utility.yul\":14415:14416   */\n      0x00\n        /* \"#utility.yul\":14408:14423   */\n      revert\n        /* \"#utility.yul\":14435:14615   */\n    tag_269:\n        /* \"#utility.yul\":14483:14560   */\n      0x4e487b7100000000000000000000000000000000000000000000000000000000\n        /* \"#utility.yul\":14480:14481   */\n      0x00\n        /* \"#utility.yul\":14473:14561   */\n      mstore\n        /* \"#utility.yul\":14580:14584   */\n      0x32\n        /* \"#utility.yul\":14577:14578   */\n      0x04\n        /* \"#utility.yul\":14570:14585   */\n      mstore\n        /* \"#utility.yul\":14604:14608   */\n      0x24\n        /* \"#utility.yul\":14601:14602   */\n      0x00\n        /* \"#utility.yul\":14594:14609   */\n      revert\n        /* \"#utility.yul\":14621:14801   */\n    tag_329:\n        /* \"#utility.yul\":14669:14746   */\n      0x4e487b7100000000000000000000000000000000000000000000000000000000\n        /* \"#utility.yul\":14666:14667   */\n      0x00\n        /* \"#utility.yul\":14659:14747   */\n      mstore\n        /* \"#utility.yul\":14766:14770   */\n      0x11\n        /* \"#utility.yul\":14763:14764   */\n      0x04\n        /* \"#utility.yul\":14756:14771   */\n      mstore\n        /* \"#utility.yul\":14790:14794   */\n      0x24\n        /* \"#utility.yul\":14787:14788   */\n      0x00\n        /* \"#utility.yul\":14780:14795   */\n      revert\n        /* \"#utility.yul\":14807:14974   */\n    tag_275:\n        /* \"#utility.yul\":14844:14847   */\n      0x00\n        /* \"#utility.yul\":14867:14889   */\n      tag_476\n        /* \"#utility.yul\":14883:14888   */\n      dup3\n        /* \"#utility.yul\":14867:14889   */\n      tag_325\n      jump\t// in\n    tag_476:\n        /* \"#utility.yul\":14858:14889   */\n      swap2\n      pop\n        /* \"#utility.yul\":14911:14915   */\n      0xff\n        /* \"#utility.yul\":14904:14909   */\n      dup3\n        /* \"#utility.yul\":14901:14916   */\n      sub\n        /* \"#utility.yul\":14898:14939   */\n      tag_477\n      jumpi\n        /* \"#utility.yul\":14919:14937   */\n      tag_478\n      tag_329\n      jump\t// in\n    tag_478:\n        /* \"#utility.yul\":14898:14939   */\n    tag_477:\n        /* \"#utility.yul\":14966:14967   */\n      0x01\n        /* \"#utility.yul\":14959:14964   */\n      dup3\n        /* \"#utility.yul\":14955:14968   */\n      add\n        /* \"#utility.yul\":14948:14968   */\n      swap1\n      pop\n        /* \"#utility.yul\":14807:14974   */\n      swap2\n      swap1\n      pop\n      jump\t// out\n\n    auxdata: 0xa26469706673582212208382502b87b6ef5e8a89b01a783f7712a5dee30f5103ea961236dea93ba0bb9064736f6c63430008190033\n}\n",
				"bytecode": {
					"linkReferences": {},
					"object": "608060405260015f553480156012575f80fd5b506153c7806100205f395ff3fe608060405234801561000f575f80fd5b506004361061011f575f3560e01c80636da8c3a5116100ab578063db49380e1161006f578063db49380e14610371578063dfe6f6b9146103a7578063e48af81a146103dd578063f74aa766146103f9578063fc4b1a7d1461042f5761011f565b80636da8c3a51461028f5780638fb5d8c7146102c5578063a001585d146102f5578063cff1c1d114610325578063daea85c5146103555761011f565b80633eec3703116100f25780633eec3703146101c1578063484685b0146101f15780634ab4e4c11461020d5780634b346b681461023d5780634ba1f098146102735761011f565b8063150b7a02146101235780632d7788db146101535780633015394c1461016f57806338d24b691461018b575b5f80fd5b61013d60048036038101906101389190614d88565b61045f565b60405161014a9190614e46565b60405180910390f35b61016d60048036038101906101689190614e5f565b610473565b005b61018960048036038101906101849190614e5f565b61106d565b005b6101a560048036038101906101a09190614e8a565b611aed565b6040516101b89796959493929190614ee6565b60405180910390f35b6101db60048036038101906101d69190614f53565b611bc1565b6040516101e891906150d0565b60405180910390f35b61020b60048036038101906102069190614f53565b611dcb565b005b61022760048036038101906102229190614f53565b611e5d565b60405161023491906150d0565b60405180910390f35b61025760048036038101906102529190614e8a565b612067565b60405161026a9796959493929190614ee6565b60405180910390f35b61028d60048036038101906102889190614e5f565b61212c565b005b6102a960048036038101906102a49190614e8a565b6131f0565b6040516102bc9796959493929190614ee6565b60405180910390f35b6102df60048036038101906102da9190614f53565b6132c4565b6040516102ec91906150d0565b60405180910390f35b61030f600480360381019061030a91906150f0565b6134ce565b60405161031c9190615148565b60405180910390f35b61033f600480360381019061033a9190614f53565b6134f8565b60405161034c91906150d0565b60405180910390f35b61036f600480360381019061036a9190614f53565b613702565b005b61038b60048036038101906103869190614e8a565b613795565b60405161039e9796959493929190614ee6565b60405180910390f35b6103c160048036038101906103bc9190614e8a565b613869565b6040516103d49796959493929190614ee6565b60405180910390f35b6103f760048036038101906103f29190615183565b61393d565b005b610413600480360381019061040e9190614e8a565b61439f565b6040516104269796959493929190614ee6565b60405180910390f35b61044960048036038101906104449190614f53565b614473565b60405161045691906150d0565b60405180910390f35b5f63150b7a0260e01b905095945050505050565b5f60015f3373ffffffffffffffffffffffffffffffffffffffff1673ffffffffffffffffffffffffffffffffffffffff1681526020019081526020015f205f8381526020019081526020015f206040518060e00160405290815f8201548152602001600182015f9054906101000a900473ffffffffffffffffffffffffffffffffffffffff1673ffffffffffffffffffffffffffffffffffffffff1673ffffffffffffffffffffffffffffffffffffffff168152602001600282015f9054906101000a900473ffffffffffffffffffffffffffffffffffffffff1673ffffffffffffffffffffffffffffffffffffffff1673ffffffffffffffffffffffffffffffffffffffff168152602001600382015f9054906101000a900473ffffffffffffffffffffffffffffffffffffffff1673ffffffffffffffffffffffffffffffffffffffff1673ffffffffffffffffffffffffffffffffffffffff16815260200160048201548152602001600582015f9054906101000a900473ffffffffffffffffffffffffffffffffffffffff1673ffffffffffffffffffffffffffffffffffffffff1673ffffffffffffffffffffffffffffffffffffffff16815260200160068201548152505090506106478161467d565b1561067e576040517f41cc6b2100000000000000000000000000000000000000000000000000000000815260040160405180910390fd5b3373ffffffffffffffffffffffffffffffffffffffff16816040015173ffffffffffffffffffffffffffffffffffffffff16146106f257336040517fce1f365a0000000000000000000000000000000000000000000000000000000081526004016106e991906151ae565b60405180910390fd5b5f816060015190508073ffffffffffffffffffffffffffffffffffffffff166342842e0e30846020015185608001516040518463ffffffff1660e01b815260040161073f939291906151c7565b5f604051808303815f87803b158015610756575f80fd5b505af1158015610768573d5f803e3d5ffd5b505050505f826020015190505f8360400151905060015f856040015173ffffffffffffffffffffffffffffffffffffffff1673ffffffffffffffffffffffffffffffffffffffff1681526020019081526020015f205f8681526020019081526020015f205f8082015f9055600182015f6101000a81549073ffffffffffffffffffffffffffffffffffffffff0219169055600282015f6101000a81549073ffffffffffffffffffffffffffffffffffffffff0219169055600382015f6101000a81549073ffffffffffffffffffffffffffffffffffffffff0219169055600482015f9055600582015f6101000a81549073ffffffffffffffffffffffffffffffffffffffff0219169055600682015f905550505f60025f8373ffffffffffffffffffffffffffffffffffffffff1673ffffffffffffffffffffffffffffffffffffffff1681526020019081526020015f20805480602002602001604051908101604052809291908181526020015f905b82821015610a79578382905f5260205f2090600702016040518060e00160405290815f8201548152602001600182015f9054906101000a900473ffffffffffffffffffffffffffffffffffffffff1673ffffffffffffffffffffffffffffffffffffffff1673ffffffffffffffffffffffffffffffffffffffff168152602001600282015f9054906101000a900473ffffffffffffffffffffffffffffffffffffffff1673ffffffffffffffffffffffffffffffffffffffff1673ffffffffffffffffffffffffffffffffffffffff168152602001600382015f9054906101000a900473ffffffffffffffffffffffffffffffffffffffff1673ffffffffffffffffffffffffffffffffffffffff1673ffffffffffffffffffffffffffffffffffffffff16815260200160048201548152602001600582015f9054906101000a900473ffffffffffffffffffffffffffffffffffffffff1673ffffffffffffffffffffffffffffffffffffffff1673ffffffffffffffffffffffffffffffffffffffff168152602001600682015481525050815260200190600101906108d8565b50505050905060025f866040015173ffffffffffffffffffffffffffffffffffffffff1673ffffffffffffffffffffffffffffffffffffffff1681526020019081526020015f205f610acb9190614b20565b610ad860018383896146e7565b5f60035f8573ffffffffffffffffffffffffffffffffffffffff1673ffffffffffffffffffffffffffffffffffffffff1681526020019081526020015f20805480602002602001604051908101604052809291908181526020015f905b82821015610cd6578382905f5260205f2090600702016040518060e00160405290815f8201548152602001600182015f9054906101000a900473ffffffffffffffffffffffffffffffffffffffff1673ffffffffffffffffffffffffffffffffffffffff1673ffffffffffffffffffffffffffffffffffffffff168152602001600282015f9054906101000a900473ffffffffffffffffffffffffffffffffffffffff1673ffffffffffffffffffffffffffffffffffffffff1673ffffffffffffffffffffffffffffffffffffffff168152602001600382015f9054906101000a900473ffffffffffffffffffffffffffffffffffffffff1673ffffffffffffffffffffffffffffffffffffffff1673ffffffffffffffffffffffffffffffffffffffff16815260200160048201548152602001600582015f9054906101000a900473ffffffffffffffffffffffffffffffffffffffff1673ffffffffffffffffffffffffffffffffffffffff1673ffffffffffffffffffffffffffffffffffffffff16815260200160068201548152505081526020019060010190610b35565b50505050905060035f8573ffffffffffffffffffffffffffffffffffffffff1673ffffffffffffffffffffffffffffffffffffffff1681526020019081526020015f205f610d249190614b20565b610d305f85838a6146e7565b60055f8473ffffffffffffffffffffffffffffffffffffffff1673ffffffffffffffffffffffffffffffffffffffff1681526020019081526020015f2086908060018154018082558091505060019003905f5260205f2090600702015f909190919091505f820151815f01556020820151816001015f6101000a81548173ffffffffffffffffffffffffffffffffffffffff021916908373ffffffffffffffffffffffffffffffffffffffff1602179055506040820151816002015f6101000a81548173ffffffffffffffffffffffffffffffffffffffff021916908373ffffffffffffffffffffffffffffffffffffffff1602179055506060820151816003015f6101000a81548173ffffffffffffffffffffffffffffffffffffffff021916908373ffffffffffffffffffffffffffffffffffffffff1602179055506080820151816004015560a0820151816005015f6101000a81548173ffffffffffffffffffffffffffffffffffffffff021916908373ffffffffffffffffffffffffffffffffffffffff16021790555060c08201518160060155505060055f8573ffffffffffffffffffffffffffffffffffffffff1673ffffffffffffffffffffffffffffffffffffffff1681526020019081526020015f2086908060018154018082558091505060019003905f5260205f2090600702015f909190919091505f820151815f01556020820151816001015f6101000a81548173ffffffffffffffffffffffffffffffffffffffff021916908373ffffffffffffffffffffffffffffffffffffffff1602179055506040820151816002015f6101000a81548173ffffffffffffffffffffffffffffffffffffffff021916908373ffffffffffffffffffffffffffffffffffffffff1602179055506060820151816003015f6101000a81548173ffffffffffffffffffffffffffffffffffffffff021916908373ffffffffffffffffffffffffffffffffffffffff1602179055506080820151816004015560a0820151816005015f6101000a81548173ffffffffffffffffffffffffffffffffffffffff021916908373ffffffffffffffffffffffffffffffffffffffff16021790555060c08201518160060155505050505050505050565b5f60015f3373ffffffffffffffffffffffffffffffffffffffff1673ffffffffffffffffffffffffffffffffffffffff1681526020019081526020015f205f8381526020019081526020015f206040518060e00160405290815f8201548152602001600182015f9054906101000a900473ffffffffffffffffffffffffffffffffffffffff1673ffffffffffffffffffffffffffffffffffffffff1673ffffffffffffffffffffffffffffffffffffffff168152602001600282015f9054906101000a900473ffffffffffffffffffffffffffffffffffffffff1673ffffffffffffffffffffffffffffffffffffffff1673ffffffffffffffffffffffffffffffffffffffff168152602001600382015f9054906101000a900473ffffffffffffffffffffffffffffffffffffffff1673ffffffffffffffffffffffffffffffffffffffff1673ffffffffffffffffffffffffffffffffffffffff16815260200160048201548152602001600582015f9054906101000a900473ffffffffffffffffffffffffffffffffffffffff1673ffffffffffffffffffffffffffffffffffffffff1673ffffffffffffffffffffffffffffffffffffffff16815260200160068201548152505090506112418161467d565b15611278576040517f41cc6b2100000000000000000000000000000000000000000000000000000000815260040160405180910390fd5b3373ffffffffffffffffffffffffffffffffffffffff16816020015173ffffffffffffffffffffffffffffffffffffffff16146112ec57336040517fce1f365a0000000000000000000000000000000000000000000000000000000081526004016112e391906151ae565b60405180910390fd5b5f816020015190505f826040015190505f60035f3373ffffffffffffffffffffffffffffffffffffffff1673ffffffffffffffffffffffffffffffffffffffff1681526020019081526020015f20805480602002602001604051908101604052809291908181526020015f905b828210156114fa578382905f5260205f2090600702016040518060e00160405290815f8201548152602001600182015f9054906101000a900473ffffffffffffffffffffffffffffffffffffffff1673ffffffffffffffffffffffffffffffffffffffff1673ffffffffffffffffffffffffffffffffffffffff168152602001600282015f9054906101000a900473ffffffffffffffffffffffffffffffffffffffff1673ffffffffffffffffffffffffffffffffffffffff1673ffffffffffffffffffffffffffffffffffffffff168152602001600382015f9054906101000a900473ffffffffffffffffffffffffffffffffffffffff1673ffffffffffffffffffffffffffffffffffffffff1673ffffffffffffffffffffffffffffffffffffffff16815260200160048201548152602001600582015f9054906101000a900473ffffffffffffffffffffffffffffffffffffffff1673ffffffffffffffffffffffffffffffffffffffff1673ffffffffffffffffffffffffffffffffffffffff16815260200160068201548152505081526020019060010190611359565b5050505090505f60025f866040015173ffffffffffffffffffffffffffffffffffffffff1673ffffffffffffffffffffffffffffffffffffffff1681526020019081526020015f20805480602002602001604051908101604052809291908181526020015f905b82821015611702578382905f5260205f2090600702016040518060e00160405290815f8201548152602001600182015f9054906101000a900473ffffffffffffffffffffffffffffffffffffffff1673ffffffffffffffffffffffffffffffffffffffff1673ffffffffffffffffffffffffffffffffffffffff168152602001600282015f9054906101000a900473ffffffffffffffffffffffffffffffffffffffff1673ffffffffffffffffffffffffffffffffffffffff1673ffffffffffffffffffffffffffffffffffffffff168152602001600382015f9054906101000a900473ffffffffffffffffffffffffffffffffffffffff1673ffffffffffffffffffffffffffffffffffffffff1673ffffffffffffffffffffffffffffffffffffffff16815260200160048201548152602001600582015f9054906101000a900473ffffffffffffffffffffffffffffffffffffffff1673ffffffffffffffffffffffffffffffffffffffff1673ffffffffffffffffffffffffffffffffffffffff16815260200160068201548152505081526020019060010190611561565b50505050905060035f8573ffffffffffffffffffffffffffffffffffffffff1673ffffffffffffffffffffffffffffffffffffffff1681526020019081526020015f205f6117509190614b20565b61175c5f8584896146e7565b60025f8473ffffffffffffffffffffffffffffffffffffffff1673ffffffffffffffffffffffffffffffffffffffff1681526020019081526020015f205f6117a49190614b20565b6117b160018483896146e7565b60065f8573ffffffffffffffffffffffffffffffffffffffff1673ffffffffffffffffffffffffffffffffffffffff1681526020019081526020015f2085908060018154018082558091505060019003905f5260205f2090600702015f909190919091505f820151815f01556020820151816001015f6101000a81548173ffffffffffffffffffffffffffffffffffffffff021916908373ffffffffffffffffffffffffffffffffffffffff1602179055506040820151816002015f6101000a81548173ffffffffffffffffffffffffffffffffffffffff021916908373ffffffffffffffffffffffffffffffffffffffff1602179055506060820151816003015f6101000a81548173ffffffffffffffffffffffffffffffffffffffff021916908373ffffffffffffffffffffffffffffffffffffffff1602179055506080820151816004015560a0820151816005015f6101000a81548173ffffffffffffffffffffffffffffffffffffffff021916908373ffffffffffffffffffffffffffffffffffffffff16021790555060c08201518160060155505060065f8473ffffffffffffffffffffffffffffffffffffffff1673ffffffffffffffffffffffffffffffffffffffff1681526020019081526020015f2085908060018154018082558091505060019003905f5260205f2090600702015f909190919091505f820151815f01556020820151816001015f6101000a81548173ffffffffffffffffffffffffffffffffffffffff021916908373ffffffffffffffffffffffffffffffffffffffff1602179055506040820151816002015f6101000a81548173ffffffffffffffffffffffffffffffffffffffff021916908373ffffffffffffffffffffffffffffffffffffffff1602179055506060820151816003015f6101000a81548173ffffffffffffffffffffffffffffffffffffffff021916908373ffffffffffffffffffffffffffffffffffffffff1602179055506080820151816004015560a0820151816005015f6101000a81548173ffffffffffffffffffffffffffffffffffffffff021916908373ffffffffffffffffffffffffffffffffffffffff16021790555060c082015181600601555050505050505050565b6006602052815f5260405f208181548110611b06575f80fd5b905f5260205f2090600702015f9150915050805f015490806001015f9054906101000a900473ffffffffffffffffffffffffffffffffffffffff1690806002015f9054906101000a900473ffffffffffffffffffffffffffffffffffffffff1690806003015f9054906101000a900473ffffffffffffffffffffffffffffffffffffffff1690806004015490806005015f9054906101000a900473ffffffffffffffffffffffffffffffffffffffff16908060060154905087565b606060025f8373ffffffffffffffffffffffffffffffffffffffff1673ffffffffffffffffffffffffffffffffffffffff1681526020019081526020015f20805480602002602001604051908101604052809291908181526020015f905b82821015611dc0578382905f5260205f2090600702016040518060e00160405290815f8201548152602001600182015f9054906101000a900473ffffffffffffffffffffffffffffffffffffffff1673ffffffffffffffffffffffffffffffffffffffff1673ffffffffffffffffffffffffffffffffffffffff168152602001600282015f9054906101000a900473ffffffffffffffffffffffffffffffffffffffff1673ffffffffffffffffffffffffffffffffffffffff1673ffffffffffffffffffffffffffffffffffffffff168152602001600382015f9054906101000a900473ffffffffffffffffffffffffffffffffffffffff1673ffffffffffffffffffffffffffffffffffffffff1673ffffffffffffffffffffffffffffffffffffffff16815260200160048201548152602001600582015f9054906101000a900473ffffffffffffffffffffffffffffffffffffffff1673ffffffffffffffffffffffffffffffffffffffff1673ffffffffffffffffffffffffffffffffffffffff16815260200160068201548152505081526020019060010190611c1f565b505050509050919050565b5f60075f3373ffffffffffffffffffffffffffffffffffffffff1673ffffffffffffffffffffffffffffffffffffffff1681526020019081526020015f205f8373ffffffffffffffffffffffffffffffffffffffff1673ffffffffffffffffffffffffffffffffffffffff1681526020019081526020015f205f6101000a81548160ff02191690831515021790555050565b606060035f8373ffffffffffffffffffffffffffffffffffffffff1673ffffffffffffffffffffffffffffffffffffffff1681526020019081526020015f20805480602002602001604051908101604052809291908181526020015f905b8282101561205c578382905f5260205f2090600702016040518060e00160405290815f8201548152602001600182015f9054906101000a900473ffffffffffffffffffffffffffffffffffffffff1673ffffffffffffffffffffffffffffffffffffffff1673ffffffffffffffffffffffffffffffffffffffff168152602001600282015f9054906101000a900473ffffffffffffffffffffffffffffffffffffffff1673ffffffffffffffffffffffffffffffffffffffff1673ffffffffffffffffffffffffffffffffffffffff168152602001600382015f9054906101000a900473ffffffffffffffffffffffffffffffffffffffff1673ffffffffffffffffffffffffffffffffffffffff1673ffffffffffffffffffffffffffffffffffffffff16815260200160048201548152602001600582015f9054906101000a900473ffffffffffffffffffffffffffffffffffffffff1673ffffffffffffffffffffffffffffffffffffffff1673ffffffffffffffffffffffffffffffffffffffff16815260200160068201548152505081526020019060010190611ebb565b505050509050919050565b6001602052815f5260405f20602052805f5260405f205f9150915050805f015490806001015f9054906101000a900473ffffffffffffffffffffffffffffffffffffffff1690806002015f9054906101000a900473ffffffffffffffffffffffffffffffffffffffff1690806003015f9054906101000a900473ffffffffffffffffffffffffffffffffffffffff1690806004015490806005015f9054906101000a900473ffffffffffffffffffffffffffffffffffffffff16908060060154905087565b5f60015f3373ffffffffffffffffffffffffffffffffffffffff1673ffffffffffffffffffffffffffffffffffffffff1681526020019081526020015f205f8381526020019081526020015f206040518060e00160405290815f8201548152602001600182015f9054906101000a900473ffffffffffffffffffffffffffffffffffffffff1673ffffffffffffffffffffffffffffffffffffffff1673ffffffffffffffffffffffffffffffffffffffff168152602001600282015f9054906101000a900473ffffffffffffffffffffffffffffffffffffffff1673ffffffffffffffffffffffffffffffffffffffff1673ffffffffffffffffffffffffffffffffffffffff168152602001600382015f9054906101000a900473ffffffffffffffffffffffffffffffffffffffff1673ffffffffffffffffffffffffffffffffffffffff1673ffffffffffffffffffffffffffffffffffffffff16815260200160048201548152602001600582015f9054906101000a900473ffffffffffffffffffffffffffffffffffffffff1673ffffffffffffffffffffffffffffffffffffffff1673ffffffffffffffffffffffffffffffffffffffff16815260200160068201548152505090506123008161467d565b15612337576040517f41cc6b2100000000000000000000000000000000000000000000000000000000815260040160405180910390fd5b3373ffffffffffffffffffffffffffffffffffffffff16816040015173ffffffffffffffffffffffffffffffffffffffff16146123ab57336040517fce1f365a0000000000000000000000000000000000000000000000000000000081526004016123a291906151ae565b60405180910390fd5b5f816020015190505f826040015190505f8360a0015190505f846060015190503373ffffffffffffffffffffffffffffffffffffffff168273ffffffffffffffffffffffffffffffffffffffff16636352211e8760c001516040518263ffffffff1660e01b815260040161241f91906151fc565b602060405180830381865afa15801561243a573d5f803e3d5ffd5b505050506040513d601f19601f8201168201806040525081019061245e9190615229565b73ffffffffffffffffffffffffffffffffffffffff16146127bb5761248286610473565b60065f8573ffffffffffffffffffffffffffffffffffffffff1673ffffffffffffffffffffffffffffffffffffffff1681526020019081526020015f2085908060018154018082558091505060019003905f5260205f2090600702015f909190919091505f820151815f01556020820151816001015f6101000a81548173ffffffffffffffffffffffffffffffffffffffff021916908373ffffffffffffffffffffffffffffffffffffffff1602179055506040820151816002015f6101000a81548173ffffffffffffffffffffffffffffffffffffffff021916908373ffffffffffffffffffffffffffffffffffffffff1602179055506060820151816003015f6101000a81548173ffffffffffffffffffffffffffffffffffffffff021916908373ffffffffffffffffffffffffffffffffffffffff1602179055506080820151816004015560a0820151816005015f6101000a81548173ffffffffffffffffffffffffffffffffffffffff021916908373ffffffffffffffffffffffffffffffffffffffff16021790555060c08201518160060155505060065f8473ffffffffffffffffffffffffffffffffffffffff1673ffffffffffffffffffffffffffffffffffffffff1681526020019081526020015f2085908060018154018082558091505060019003905f5260205f2090600702015f909190919091505f820151815f01556020820151816001015f6101000a81548173ffffffffffffffffffffffffffffffffffffffff021916908373ffffffffffffffffffffffffffffffffffffffff1602179055506040820151816002015f6101000a81548173ffffffffffffffffffffffffffffffffffffffff021916908373ffffffffffffffffffffffffffffffffffffffff1602179055506060820151816003015f6101000a81548173ffffffffffffffffffffffffffffffffffffffff021916908373ffffffffffffffffffffffffffffffffffffffff1602179055506080820151816004015560a0820151816005015f6101000a81548173ffffffffffffffffffffffffffffffffffffffff021916908373ffffffffffffffffffffffffffffffffffffffff16021790555060c0820151816006015550506131e8565b8173ffffffffffffffffffffffffffffffffffffffff166342842e0e33308860c001516040518463ffffffff1660e01b81526004016127fc939291906151c7565b5f604051808303815f87803b158015612813575f80fd5b505af1158015612825573d5f803e3d5ffd5b505050508073ffffffffffffffffffffffffffffffffffffffff166342842e0e308588608001516040518463ffffffff1660e01b815260040161286a939291906151c7565b5f604051808303815f87803b158015612881575f80fd5b505af1158015612893573d5f803e3d5ffd5b505050508173ffffffffffffffffffffffffffffffffffffffff166342842e0e30868860c001516040518463ffffffff1660e01b81526004016128d8939291906151c7565b5f604051808303815f87803b1580156128ef575f80fd5b505af1158015612901573d5f803e3d5ffd5b5050505060015f8473ffffffffffffffffffffffffffffffffffffffff1673ffffffffffffffffffffffffffffffffffffffff1681526020019081526020015f205f8781526020019081526020015f205f8082015f9055600182015f6101000a81549073ffffffffffffffffffffffffffffffffffffffff0219169055600282015f6101000a81549073ffffffffffffffffffffffffffffffffffffffff0219169055600382015f6101000a81549073ffffffffffffffffffffffffffffffffffffffff0219169055600482015f9055600582015f6101000a81549073ffffffffffffffffffffffffffffffffffffffff0219169055600682015f905550505f60025f8573ffffffffffffffffffffffffffffffffffffffff1673ffffffffffffffffffffffffffffffffffffffff1681526020019081526020015f20805480602002602001604051908101604052809291908181526020015f905b82821015612bfe578382905f5260205f2090600702016040518060e00160405290815f8201548152602001600182015f9054906101000a900473ffffffffffffffffffffffffffffffffffffffff1673ffffffffffffffffffffffffffffffffffffffff1673ffffffffffffffffffffffffffffffffffffffff168152602001600282015f9054906101000a900473ffffffffffffffffffffffffffffffffffffffff1673ffffffffffffffffffffffffffffffffffffffff1673ffffffffffffffffffffffffffffffffffffffff168152602001600382015f9054906101000a900473ffffffffffffffffffffffffffffffffffffffff1673ffffffffffffffffffffffffffffffffffffffff1673ffffffffffffffffffffffffffffffffffffffff16815260200160048201548152602001600582015f9054906101000a900473ffffffffffffffffffffffffffffffffffffffff1673ffffffffffffffffffffffffffffffffffffffff1673ffffffffffffffffffffffffffffffffffffffff16815260200160068201548152505081526020019060010190612a5d565b5050505090505f60035f8773ffffffffffffffffffffffffffffffffffffffff1673ffffffffffffffffffffffffffffffffffffffff1681526020019081526020015f20805480602002602001604051908101604052809291908181526020015f905b82821015612e02578382905f5260205f2090600702016040518060e00160405290815f8201548152602001600182015f9054906101000a900473ffffffffffffffffffffffffffffffffffffffff1673ffffffffffffffffffffffffffffffffffffffff1673ffffffffffffffffffffffffffffffffffffffff168152602001600282015f9054906101000a900473ffffffffffffffffffffffffffffffffffffffff1673ffffffffffffffffffffffffffffffffffffffff1673ffffffffffffffffffffffffffffffffffffffff168152602001600382015f9054906101000a900473ffffffffffffffffffffffffffffffffffffffff1673ffffffffffffffffffffffffffffffffffffffff1673ffffffffffffffffffffffffffffffffffffffff16815260200160048201548152602001600582015f9054906101000a900473ffffffffffffffffffffffffffffffffffffffff1673ffffffffffffffffffffffffffffffffffffffff1673ffffffffffffffffffffffffffffffffffffffff16815260200160068201548152505081526020019060010190612c61565b50505050905060025f8673ffffffffffffffffffffffffffffffffffffffff1673ffffffffffffffffffffffffffffffffffffffff1681526020019081526020015f205f612e509190614b20565b612e5d600186848b6146e7565b60045f8673ffffffffffffffffffffffffffffffffffffffff1673ffffffffffffffffffffffffffffffffffffffff1681526020019081526020015f2087908060018154018082558091505060019003905f5260205f2090600702015f909190919091505f820151815f01556020820151816001015f6101000a81548173ffffffffffffffffffffffffffffffffffffffff021916908373ffffffffffffffffffffffffffffffffffffffff1602179055506040820151816002015f6101000a81548173ffffffffffffffffffffffffffffffffffffffff021916908373ffffffffffffffffffffffffffffffffffffffff1602179055506060820151816003015f6101000a81548173ffffffffffffffffffffffffffffffffffffffff021916908373ffffffffffffffffffffffffffffffffffffffff1602179055506080820151816004015560a0820151816005015f6101000a81548173ffffffffffffffffffffffffffffffffffffffff021916908373ffffffffffffffffffffffffffffffffffffffff16021790555060c08201518160060155505060035f8773ffffffffffffffffffffffffffffffffffffffff1673ffffffffffffffffffffffffffffffffffffffff1681526020019081526020015f205f61303f9190614b20565b61304b5f87838b6146e7565b60045f8773ffffffffffffffffffffffffffffffffffffffff1673ffffffffffffffffffffffffffffffffffffffff1681526020019081526020015f2087908060018154018082558091505060019003905f5260205f2090600702015f909190919091505f820151815f01556020820151816001015f6101000a81548173ffffffffffffffffffffffffffffffffffffffff021916908373ffffffffffffffffffffffffffffffffffffffff1602179055506040820151816002015f6101000a81548173ffffffffffffffffffffffffffffffffffffffff021916908373ffffffffffffffffffffffffffffffffffffffff1602179055506060820151816003015f6101000a81548173ffffffffffffffffffffffffffffffffffffffff021916908373ffffffffffffffffffffffffffffffffffffffff1602179055506080820151816004015560a0820151816005015f6101000a81548173ffffffffffffffffffffffffffffffffffffffff021916908373ffffffffffffffffffffffffffffffffffffffff16021790555060c08201518160060155505050505b505050505050565b6003602052815f5260405f208181548110613209575f80fd5b905f5260205f2090600702015f9150915050805f015490806001015f9054906101000a900473ffffffffffffffffffffffffffffffffffffffff1690806002015f9054906101000a900473ffffffffffffffffffffffffffffffffffffffff1690806003015f9054906101000a900473ffffffffffffffffffffffffffffffffffffffff1690806004015490806005015f9054906101000a900473ffffffffffffffffffffffffffffffffffffffff16908060060154905087565b606060055f8373ffffffffffffffffffffffffffffffffffffffff1673ffffffffffffffffffffffffffffffffffffffff1681526020019081526020015f20805480602002602001604051908101604052809291908181526020015f905b828210156134c3578382905f5260205f2090600702016040518060e00160405290815f8201548152602001600182015f9054906101000a900473ffffffffffffffffffffffffffffffffffffffff1673ffffffffffffffffffffffffffffffffffffffff1673ffffffffffffffffffffffffffffffffffffffff168152602001600282015f9054906101000a900473ffffffffffffffffffffffffffffffffffffffff1673ffffffffffffffffffffffffffffffffffffffff1673ffffffffffffffffffffffffffffffffffffffff168152602001600382015f9054906101000a900473ffffffffffffffffffffffffffffffffffffffff1673ffffffffffffffffffffffffffffffffffffffff1673ffffffffffffffffffffffffffffffffffffffff16815260200160048201548152602001600582015f9054906101000a900473ffffffffffffffffffffffffffffffffffffffff1673ffffffffffffffffffffffffffffffffffffffff1673ffffffffffffffffffffffffffffffffffffffff16815260200160068201548152505081526020019060010190613322565b505050509050919050565b6007602052815f5260405f20602052805f5260405f205f915091509054906101000a900460ff1681565b606060065f8373ffffffffffffffffffffffffffffffffffffffff1673ffffffffffffffffffffffffffffffffffffffff1681526020019081526020015f20805480602002602001604051908101604052809291908181526020015f905b828210156136f7578382905f5260205f2090600702016040518060e00160405290815f8201548152602001600182015f9054906101000a900473ffffffffffffffffffffffffffffffffffffffff1673ffffffffffffffffffffffffffffffffffffffff1673ffffffffffffffffffffffffffffffffffffffff168152602001600282015f9054906101000a900473ffffffffffffffffffffffffffffffffffffffff1673ffffffffffffffffffffffffffffffffffffffff1673ffffffffffffffffffffffffffffffffffffffff168152602001600382015f9054906101000a900473ffffffffffffffffffffffffffffffffffffffff1673ffffffffffffffffffffffffffffffffffffffff1673ffffffffffffffffffffffffffffffffffffffff16815260200160048201548152602001600582015f9054906101000a900473ffffffffffffffffffffffffffffffffffffffff1673ffffffffffffffffffffffffffffffffffffffff1673ffffffffffffffffffffffffffffffffffffffff16815260200160068201548152505081526020019060010190613556565b505050509050919050565b600160075f3373ffffffffffffffffffffffffffffffffffffffff1673ffffffffffffffffffffffffffffffffffffffff1681526020019081526020015f205f8373ffffffffffffffffffffffffffffffffffffffff1673ffffffffffffffffffffffffffffffffffffffff1681526020019081526020015f205f6101000a81548160ff02191690831515021790555050565b6004602052815f5260405f2081815481106137ae575f80fd5b905f5260205f2090600702015f9150915050805f015490806001015f9054906101000a900473ffffffffffffffffffffffffffffffffffffffff1690806002015f9054906101000a900473ffffffffffffffffffffffffffffffffffffffff1690806003015f9054906101000a900473ffffffffffffffffffffffffffffffffffffffff1690806004015490806005015f9054906101000a900473ffffffffffffffffffffffffffffffffffffffff16908060060154905087565b6002602052815f5260405f208181548110613882575f80fd5b905f5260205f2090600702015f9150915050805f015490806001015f9054906101000a900473ffffffffffffffffffffffffffffffffffffffff1690806002015f9054906101000a900473ffffffffffffffffffffffffffffffffffffffff1690806003015f9054906101000a900473ffffffffffffffffffffffffffffffffffffffff1690806004015490806005015f9054906101000a900473ffffffffffffffffffffffffffffffffffffffff16908060060154905087565b5f6040518060e001604052805f5481526020013373ffffffffffffffffffffffffffffffffffffffff168152602001835f01602081019061397e9190614f53565b73ffffffffffffffffffffffffffffffffffffffff1681526020018360200160208101906139ac9190614f53565b73ffffffffffffffffffffffffffffffffffffffff168152602001836040013581526020018360600160208101906139e49190614f53565b73ffffffffffffffffffffffffffffffffffffffff168152602001836080013581525090505f73ffffffffffffffffffffffffffffffffffffffff168160a0015173ffffffffffffffffffffffffffffffffffffffff161480613a7657505f73ffffffffffffffffffffffffffffffffffffffff16816060015173ffffffffffffffffffffffffffffffffffffffff16145b15613aad576040517fe6c4247b00000000000000000000000000000000000000000000000000000000815260040160405180910390fd5b806040015173ffffffffffffffffffffffffffffffffffffffff16816020015173ffffffffffffffffffffffffffffffffffffffff1603613b1a576040517ff051d55300000000000000000000000000000000000000000000000000000000815260040160405180910390fd5b60075f826040015173ffffffffffffffffffffffffffffffffffffffff1673ffffffffffffffffffffffffffffffffffffffff1681526020019081526020015f205f826020015173ffffffffffffffffffffffffffffffffffffffff1673ffffffffffffffffffffffffffffffffffffffff1681526020019081526020015f205f9054906101000a900460ff16613bdd576040517fc19f17a900000000000000000000000000000000000000000000000000000000815260040160405180910390fd5b5f816060015190503373ffffffffffffffffffffffffffffffffffffffff168173ffffffffffffffffffffffffffffffffffffffff16636352211e84608001516040518263ffffffff1660e01b8152600401613c3991906151fc565b602060405180830381865afa158015613c54573d5f803e3d5ffd5b505050506040513d601f19601f82011682018060405250810190613c789190615229565b73ffffffffffffffffffffffffffffffffffffffff1614613cda57816060015182608001516040517fa59581cf000000000000000000000000000000000000000000000000000000008152600401613cd1929190615254565b60405180910390fd5b5f8260a001519050826040015173ffffffffffffffffffffffffffffffffffffffff168173ffffffffffffffffffffffffffffffffffffffff16636352211e8560c001516040518263ffffffff1660e01b8152600401613d3a91906151fc565b602060405180830381865afa158015613d55573d5f803e3d5ffd5b505050506040513d601f19601f82011682018060405250810190613d799190615229565b73ffffffffffffffffffffffffffffffffffffffff1614613ddb578260a001518360c001516040517f4dc58d4f000000000000000000000000000000000000000000000000000000008152600401613dd2929190615254565b60405180910390fd5b600360ff1660025f856040015173ffffffffffffffffffffffffffffffffffffffff1673ffffffffffffffffffffffffffffffffffffffff1681526020019081526020015f208054905003613e6857600a6040517f5c34e6be000000000000000000000000000000000000000000000000000000008152600401613e5f91906152c9565b60405180910390fd5b8173ffffffffffffffffffffffffffffffffffffffff166342842e0e333086608001516040518463ffffffff1660e01b8152600401613ea9939291906151c7565b5f604051808303815f87803b158015613ec0575f80fd5b505af1158015613ed2573d5f803e3d5ffd5b505050508260015f856040015173ffffffffffffffffffffffffffffffffffffffff1673ffffffffffffffffffffffffffffffffffffffff1681526020019081526020015f205f855f015181526020019081526020015f205f820151815f01556020820151816001015f6101000a81548173ffffffffffffffffffffffffffffffffffffffff021916908373ffffffffffffffffffffffffffffffffffffffff1602179055506040820151816002015f6101000a81548173ffffffffffffffffffffffffffffffffffffffff021916908373ffffffffffffffffffffffffffffffffffffffff1602179055506060820151816003015f6101000a81548173ffffffffffffffffffffffffffffffffffffffff021916908373ffffffffffffffffffffffffffffffffffffffff1602179055506080820151816004015560a0820151816005015f6101000a81548173ffffffffffffffffffffffffffffffffffffffff021916908373ffffffffffffffffffffffffffffffffffffffff16021790555060c0820151816006015590505060025f846040015173ffffffffffffffffffffffffffffffffffffffff1673ffffffffffffffffffffffffffffffffffffffff1681526020019081526020015f2083908060018154018082558091505060019003905f5260205f2090600702015f909190919091505f820151815f01556020820151816001015f6101000a81548173ffffffffffffffffffffffffffffffffffffffff021916908373ffffffffffffffffffffffffffffffffffffffff1602179055506040820151816002015f6101000a81548173ffffffffffffffffffffffffffffffffffffffff021916908373ffffffffffffffffffffffffffffffffffffffff1602179055506060820151816003015f6101000a81548173ffffffffffffffffffffffffffffffffffffffff021916908373ffffffffffffffffffffffffffffffffffffffff1602179055506080820151816004015560a0820151816005015f6101000a81548173ffffffffffffffffffffffffffffffffffffffff021916908373ffffffffffffffffffffffffffffffffffffffff16021790555060c08201518160060155505060035f3373ffffffffffffffffffffffffffffffffffffffff1673ffffffffffffffffffffffffffffffffffffffff1681526020019081526020015f2083908060018154018082558091505060019003905f5260205f2090600702015f909190919091505f820151815f01556020820151816001015f6101000a81548173ffffffffffffffffffffffffffffffffffffffff021916908373ffffffffffffffffffffffffffffffffffffffff1602179055506040820151816002015f6101000a81548173ffffffffffffffffffffffffffffffffffffffff021916908373ffffffffffffffffffffffffffffffffffffffff1602179055506060820151816003015f6101000a81548173ffffffffffffffffffffffffffffffffffffffff021916908373ffffffffffffffffffffffffffffffffffffffff1602179055506080820151816004015560a0820151816005015f6101000a81548173ffffffffffffffffffffffffffffffffffffffff021916908373ffffffffffffffffffffffffffffffffffffffff16021790555060c08201518160060155505050505050565b6005602052815f5260405f2081815481106143b8575f80fd5b905f5260205f2090600702015f9150915050805f015490806001015f9054906101000a900473ffffffffffffffffffffffffffffffffffffffff1690806002015f9054906101000a900473ffffffffffffffffffffffffffffffffffffffff1690806003015f9054906101000a900473ffffffffffffffffffffffffffffffffffffffff1690806004015490806005015f9054906101000a900473ffffffffffffffffffffffffffffffffffffffff16908060060154905087565b606060045f8373ffffffffffffffffffffffffffffffffffffffff1673ffffffffffffffffffffffffffffffffffffffff1681526020019081526020015f20805480602002602001604051908101604052809291908181526020015f905b82821015614672578382905f5260205f2090600702016040518060e00160405290815f8201548152602001600182015f9054906101000a900473ffffffffffffffffffffffffffffffffffffffff1673ffffffffffffffffffffffffffffffffffffffff1673ffffffffffffffffffffffffffffffffffffffff168152602001600282015f9054906101000a900473ffffffffffffffffffffffffffffffffffffffff1673ffffffffffffffffffffffffffffffffffffffff1673ffffffffffffffffffffffffffffffffffffffff168152602001600382015f9054906101000a900473ffffffffffffffffffffffffffffffffffffffff1673ffffffffffffffffffffffffffffffffffffffff1673ffffffffffffffffffffffffffffffffffffffff16815260200160048201548152602001600582015f9054906101000a900473ffffffffffffffffffffffffffffffffffffffff1673ffffffffffffffffffffffffffffffffffffffff1673ffffffffffffffffffffffffffffffffffffffff168152602001600682015481525050815260200190600101906144d1565b505050509050919050565b5f614686614b41565b805f0151835f01511480156146ce5750806020015173ffffffffffffffffffffffffffffffffffffffff16836020015173ffffffffffffffffffffffffffffffffffffffff16145b156146dd5760019150506146e2565b5f9150505b919050565b5f60018111156146fa576146f96152e2565b5b84600181111561470d5761470c6152e2565b5b03614918575f5b82518160ff1610156149125781838260ff16815181106147375761473661530f565b5b60200260200101515f0151146148ff5760035f8573ffffffffffffffffffffffffffffffffffffffff1673ffffffffffffffffffffffffffffffffffffffff1681526020019081526020015f20838260ff168151811061479a5761479961530f565b5b6020026020010151908060018154018082558091505060019003905f5260205f2090600702015f909190919091505f820151815f01556020820151816001015f6101000a81548173ffffffffffffffffffffffffffffffffffffffff021916908373ffffffffffffffffffffffffffffffffffffffff1602179055506040820151816002015f6101000a81548173ffffffffffffffffffffffffffffffffffffffff021916908373ffffffffffffffffffffffffffffffffffffffff1602179055506060820151816003015f6101000a81548173ffffffffffffffffffffffffffffffffffffffff021916908373ffffffffffffffffffffffffffffffffffffffff1602179055506080820151816004015560a0820151816005015f6101000a81548173ffffffffffffffffffffffffffffffffffffffff021916908373ffffffffffffffffffffffffffffffffffffffff16021790555060c0820151816006015550505b808061490a90615369565b915050614714565b50614b1a565b5f5b82518160ff161015614b185781838260ff168151811061493d5761493c61530f565b5b60200260200101515f015114614b055760025f8573ffffffffffffffffffffffffffffffffffffffff1673ffffffffffffffffffffffffffffffffffffffff1681526020019081526020015f20838260ff16815181106149a05761499f61530f565b5b6020026020010151908060018154018082558091505060019003905f5260205f2090600702015f909190919091505f820151815f01556020820151816001015f6101000a81548173ffffffffffffffffffffffffffffffffffffffff021916908373ffffffffffffffffffffffffffffffffffffffff1602179055506040820151816002015f6101000a81548173ffffffffffffffffffffffffffffffffffffffff021916908373ffffffffffffffffffffffffffffffffffffffff1602179055506060820151816003015f6101000a81548173ffffffffffffffffffffffffffffffffffffffff021916908373ffffffffffffffffffffffffffffffffffffffff1602179055506080820151816004015560a0820151816005015f6101000a81548173ffffffffffffffffffffffffffffffffffffffff021916908373ffffffffffffffffffffffffffffffffffffffff16021790555060c0820151816006015550505b8080614b1090615369565b91505061491a565b505b50505050565b5080545f8255600702905f5260205f2090810190614b3e9190614bcf565b50565b6040518060e001604052805f81526020015f73ffffffffffffffffffffffffffffffffffffffff1681526020015f73ffffffffffffffffffffffffffffffffffffffff1681526020015f73ffffffffffffffffffffffffffffffffffffffff1681526020015f81526020015f73ffffffffffffffffffffffffffffffffffffffff1681526020015f81525090565b5b80821115614c8e575f8082015f9055600182015f6101000a81549073ffffffffffffffffffffffffffffffffffffffff0219169055600282015f6101000a81549073ffffffffffffffffffffffffffffffffffffffff0219169055600382015f6101000a81549073ffffffffffffffffffffffffffffffffffffffff0219169055600482015f9055600582015f6101000a81549073ffffffffffffffffffffffffffffffffffffffff0219169055600682015f905550600701614bd0565b5090565b5f80fd5b5f80fd5b5f73ffffffffffffffffffffffffffffffffffffffff82169050919050565b5f614cc382614c9a565b9050919050565b614cd381614cb9565b8114614cdd575f80fd5b50565b5f81359050614cee81614cca565b92915050565b5f819050919050565b614d0681614cf4565b8114614d10575f80fd5b50565b5f81359050614d2181614cfd565b92915050565b5f80fd5b5f80fd5b5f80fd5b5f8083601f840112614d4857614d47614d27565b5b8235905067ffffffffffffffff811115614d6557614d64614d2b565b5b602083019150836001820283011115614d8157614d80614d2f565b5b9250929050565b5f805f805f60808688031215614da157614da0614c92565b5b5f614dae88828901614ce0565b9550506020614dbf88828901614ce0565b9450506040614dd088828901614d13565b935050606086013567ffffffffffffffff811115614df157614df0614c96565b5b614dfd88828901614d33565b92509250509295509295909350565b5f7fffffffff0000000000000000000000000000000000000000000000000000000082169050919050565b614e4081614e0c565b82525050565b5f602082019050614e595f830184614e37565b92915050565b5f60208284031215614e7457614e73614c92565b5b5f614e8184828501614d13565b91505092915050565b5f8060408385031215614ea057614e9f614c92565b5b5f614ead85828601614ce0565b9250506020614ebe85828601614d13565b9150509250929050565b614ed181614cf4565b82525050565b614ee081614cb9565b82525050565b5f60e082019050614ef95f83018a614ec8565b614f066020830189614ed7565b614f136040830188614ed7565b614f206060830187614ed7565b614f2d6080830186614ec8565b614f3a60a0830185614ed7565b614f4760c0830184614ec8565b98975050505050505050565b5f60208284031215614f6857614f67614c92565b5b5f614f7584828501614ce0565b91505092915050565b5f81519050919050565b5f82825260208201905092915050565b5f819050602082019050919050565b614fb081614cf4565b82525050565b614fbf81614cb9565b82525050565b60e082015f820151614fd95f850182614fa7565b506020820151614fec6020850182614fb6565b506040820151614fff6040850182614fb6565b5060608201516150126060850182614fb6565b5060808201516150256080850182614fa7565b5060a082015161503860a0850182614fb6565b5060c082015161504b60c0850182614fa7565b50505050565b5f61505c8383614fc5565b60e08301905092915050565b5f602082019050919050565b5f61507e82614f7e565b6150888185614f88565b935061509383614f98565b805f5b838110156150c35781516150aa8882615051565b97506150b583615068565b925050600181019050615096565b5085935050505092915050565b5f6020820190508181035f8301526150e88184615074565b905092915050565b5f806040838503121561510657615105614c92565b5b5f61511385828601614ce0565b925050602061512485828601614ce0565b9150509250929050565b5f8115159050919050565b6151428161512e565b82525050565b5f60208201905061515b5f830184615139565b92915050565b5f80fd5b5f60a0828403121561517a57615179615161565b5b81905092915050565b5f60a0828403121561519857615197614c92565b5b5f6151a584828501615165565b91505092915050565b5f6020820190506151c15f830184614ed7565b92915050565b5f6060820190506151da5f830186614ed7565b6151e76020830185614ed7565b6151f46040830184614ec8565b949350505050565b5f60208201905061520f5f830184614ec8565b92915050565b5f8151905061522381614cca565b92915050565b5f6020828403121561523e5761523d614c92565b5b5f61524b84828501615215565b91505092915050565b5f6040820190506152675f830185614ed7565b6152746020830184614ec8565b9392505050565b5f819050919050565b5f60ff82169050919050565b5f819050919050565b5f6152b36152ae6152a98461527b565b615290565b615284565b9050919050565b6152c381615299565b82525050565b5f6020820190506152dc5f8301846152ba565b92915050565b7f4e487b71000000000000000000000000000000000000000000000000000000005f52602160045260245ffd5b7f4e487b71000000000000000000000000000000000000000000000000000000005f52603260045260245ffd5b7f4e487b71000000000000000000000000000000000000000000000000000000005f52601160045260245ffd5b5f61537382615284565b915060ff82036153865761538561533c565b5b60018201905091905056fea26469706673582212208382502b87b6ef5e8a89b01a783f7712a5dee30f5103ea961236dea93ba0bb9064736f6c63430008190033",
					"opcodes": "PUSH1 0x80 PUSH1 0x40 MSTORE PUSH1 0x1 PUSH0 SSTORE CALLVALUE DUP1 ISZERO PUSH1 0x12 JUMPI PUSH0 DUP1 REVERT JUMPDEST POP PUSH2 0x53C7 DUP1 PUSH2 0x20 PUSH0 CODECOPY PUSH0 RETURN INVALID PUSH1 0x80 PUSH1 0x40 MSTORE CALLVALUE DUP1 ISZERO PUSH2 0xF JUMPI PUSH0 DUP1 REVERT JUMPDEST POP PUSH1 0x4 CALLDATASIZE LT PUSH2 0x11F JUMPI PUSH0 CALLDATALOAD PUSH1 0xE0 SHR DUP1 PUSH4 0x6DA8C3A5 GT PUSH2 0xAB JUMPI DUP1 PUSH4 0xDB49380E GT PUSH2 0x6F JUMPI DUP1 PUSH4 0xDB49380E EQ PUSH2 0x371 JUMPI DUP1 PUSH4 0xDFE6F6B9 EQ PUSH2 0x3A7 JUMPI DUP1 PUSH4 0xE48AF81A EQ PUSH2 0x3DD JUMPI DUP1 PUSH4 0xF74AA766 EQ PUSH2 0x3F9 JUMPI DUP1 PUSH4 0xFC4B1A7D EQ PUSH2 0x42F JUMPI PUSH2 0x11F JUMP JUMPDEST DUP1 PUSH4 0x6DA8C3A5 EQ PUSH2 0x28F JUMPI DUP1 PUSH4 0x8FB5D8C7 EQ PUSH2 0x2C5 JUMPI DUP1 PUSH4 0xA001585D EQ PUSH2 0x2F5 JUMPI DUP1 PUSH4 0xCFF1C1D1 EQ PUSH2 0x325 JUMPI DUP1 PUSH4 0xDAEA85C5 EQ PUSH2 0x355 JUMPI PUSH2 0x11F JUMP JUMPDEST DUP1 PUSH4 0x3EEC3703 GT PUSH2 0xF2 JUMPI DUP1 PUSH4 0x3EEC3703 EQ PUSH2 0x1C1 JUMPI DUP1 PUSH4 0x484685B0 EQ PUSH2 0x1F1 JUMPI DUP1 PUSH4 0x4AB4E4C1 EQ PUSH2 0x20D JUMPI DUP1 PUSH4 0x4B346B68 EQ PUSH2 0x23D JUMPI DUP1 PUSH4 0x4BA1F098 EQ PUSH2 0x273 JUMPI PUSH2 0x11F JUMP JUMPDEST DUP1 PUSH4 0x150B7A02 EQ PUSH2 0x123 JUMPI DUP1 PUSH4 0x2D7788DB EQ PUSH2 0x153 JUMPI DUP1 PUSH4 0x3015394C EQ PUSH2 0x16F JUMPI DUP1 PUSH4 0x38D24B69 EQ PUSH2 0x18B JUMPI JUMPDEST PUSH0 DUP1 REVERT JUMPDEST PUSH2 0x13D PUSH1 0x4 DUP1 CALLDATASIZE SUB DUP2 ADD SWAP1 PUSH2 0x138 SWAP2 SWAP1 PUSH2 0x4D88 JUMP JUMPDEST PUSH2 0x45F JUMP JUMPDEST PUSH1 0x40 MLOAD PUSH2 0x14A SWAP2 SWAP1 PUSH2 0x4E46 JUMP JUMPDEST PUSH1 0x40 MLOAD DUP1 SWAP2 SUB SWAP1 RETURN JUMPDEST PUSH2 0x16D PUSH1 0x4 DUP1 CALLDATASIZE SUB DUP2 ADD SWAP1 PUSH2 0x168 SWAP2 SWAP1 PUSH2 0x4E5F JUMP JUMPDEST PUSH2 0x473 JUMP JUMPDEST STOP JUMPDEST PUSH2 0x189 PUSH1 0x4 DUP1 CALLDATASIZE SUB DUP2 ADD SWAP1 PUSH2 0x184 SWAP2 SWAP1 PUSH2 0x4E5F JUMP JUMPDEST PUSH2 0x106D JUMP JUMPDEST STOP JUMPDEST PUSH2 0x1A5 PUSH1 0x4 DUP1 CALLDATASIZE SUB DUP2 ADD SWAP1 PUSH2 0x1A0 SWAP2 SWAP1 PUSH2 0x4E8A JUMP JUMPDEST PUSH2 0x1AED JUMP JUMPDEST PUSH1 0x40 MLOAD PUSH2 0x1B8 SWAP8 SWAP7 SWAP6 SWAP5 SWAP4 SWAP3 SWAP2 SWAP1 PUSH2 0x4EE6 JUMP JUMPDEST PUSH1 0x40 MLOAD DUP1 SWAP2 SUB SWAP1 RETURN JUMPDEST PUSH2 0x1DB PUSH1 0x4 DUP1 CALLDATASIZE SUB DUP2 ADD SWAP1 PUSH2 0x1D6 SWAP2 SWAP1 PUSH2 0x4F53 JUMP JUMPDEST PUSH2 0x1BC1 JUMP JUMPDEST PUSH1 0x40 MLOAD PUSH2 0x1E8 SWAP2 SWAP1 PUSH2 0x50D0 JUMP JUMPDEST PUSH1 0x40 MLOAD DUP1 SWAP2 SUB SWAP1 RETURN JUMPDEST PUSH2 0x20B PUSH1 0x4 DUP1 CALLDATASIZE SUB DUP2 ADD SWAP1 PUSH2 0x206 SWAP2 SWAP1 PUSH2 0x4F53 JUMP JUMPDEST PUSH2 0x1DCB JUMP JUMPDEST STOP JUMPDEST PUSH2 0x227 PUSH1 0x4 DUP1 CALLDATASIZE SUB DUP2 ADD SWAP1 PUSH2 0x222 SWAP2 SWAP1 PUSH2 0x4F53 JUMP JUMPDEST PUSH2 0x1E5D JUMP JUMPDEST PUSH1 0x40 MLOAD PUSH2 0x234 SWAP2 SWAP1 PUSH2 0x50D0 JUMP JUMPDEST PUSH1 0x40 MLOAD DUP1 SWAP2 SUB SWAP1 RETURN JUMPDEST PUSH2 0x257 PUSH1 0x4 DUP1 CALLDATASIZE SUB DUP2 ADD SWAP1 PUSH2 0x252 SWAP2 SWAP1 PUSH2 0x4E8A JUMP JUMPDEST PUSH2 0x2067 JUMP JUMPDEST PUSH1 0x40 MLOAD PUSH2 0x26A SWAP8 SWAP7 SWAP6 SWAP5 SWAP4 SWAP3 SWAP2 SWAP1 PUSH2 0x4EE6 JUMP JUMPDEST PUSH1 0x40 MLOAD DUP1 SWAP2 SUB SWAP1 RETURN JUMPDEST PUSH2 0x28D PUSH1 0x4 DUP1 CALLDATASIZE SUB DUP2 ADD SWAP1 PUSH2 0x288 SWAP2 SWAP1 PUSH2 0x4E5F JUMP JUMPDEST PUSH2 0x212C JUMP JUMPDEST STOP JUMPDEST PUSH2 0x2A9 PUSH1 0x4 DUP1 CALLDATASIZE SUB DUP2 ADD SWAP1 PUSH2 0x2A4 SWAP2 SWAP1 PUSH2 0x4E8A JUMP JUMPDEST PUSH2 0x31F0 JUMP JUMPDEST PUSH1 0x40 MLOAD PUSH2 0x2BC SWAP8 SWAP7 SWAP6 SWAP5 SWAP4 SWAP3 SWAP2 SWAP1 PUSH2 0x4EE6 JUMP JUMPDEST PUSH1 0x40 MLOAD DUP1 SWAP2 SUB SWAP1 RETURN JUMPDEST PUSH2 0x2DF PUSH1 0x4 DUP1 CALLDATASIZE SUB DUP2 ADD SWAP1 PUSH2 0x2DA SWAP2 SWAP1 PUSH2 0x4F53 JUMP JUMPDEST PUSH2 0x32C4 JUMP JUMPDEST PUSH1 0x40 MLOAD PUSH2 0x2EC SWAP2 SWAP1 PUSH2 0x50D0 JUMP JUMPDEST PUSH1 0x40 MLOAD DUP1 SWAP2 SUB SWAP1 RETURN JUMPDEST PUSH2 0x30F PUSH1 0x4 DUP1 CALLDATASIZE SUB DUP2 ADD SWAP1 PUSH2 0x30A SWAP2 SWAP1 PUSH2 0x50F0 JUMP JUMPDEST PUSH2 0x34CE JUMP JUMPDEST PUSH1 0x40 MLOAD PUSH2 0x31C SWAP2 SWAP1 PUSH2 0x5148 JUMP JUMPDEST PUSH1 0x40 MLOAD DUP1 SWAP2 SUB SWAP1 RETURN JUMPDEST PUSH2 0x33F PUSH1 0x4 DUP1 CALLDATASIZE SUB DUP2 ADD SWAP1 PUSH2 0x33A SWAP2 SWAP1 PUSH2 0x4F53 JUMP JUMPDEST PUSH2 0x34F8 JUMP JUMPDEST PUSH1 0x40 MLOAD PUSH2 0x34C SWAP2 SWAP1 PUSH2 0x50D0 JUMP JUMPDEST PUSH1 0x40 MLOAD DUP1 SWAP2 SUB SWAP1 RETURN JUMPDEST PUSH2 0x36F PUSH1 0x4 DUP1 CALLDATASIZE SUB DUP2 ADD SWAP1 PUSH2 0x36A SWAP2 SWAP1 PUSH2 0x4F53 JUMP JUMPDEST PUSH2 0x3702 JUMP JUMPDEST STOP JUMPDEST PUSH2 0x38B PUSH1 0x4 DUP1 CALLDATASIZE SUB DUP2 ADD SWAP1 PUSH2 0x386 SWAP2 SWAP1 PUSH2 0x4E8A JUMP JUMPDEST PUSH2 0x3795 JUMP JUMPDEST PUSH1 0x40 MLOAD PUSH2 0x39E SWAP8 SWAP7 SWAP6 SWAP5 SWAP4 SWAP3 SWAP2 SWAP1 PUSH2 0x4EE6 JUMP JUMPDEST PUSH1 0x40 MLOAD DUP1 SWAP2 SUB SWAP1 RETURN JUMPDEST PUSH2 0x3C1 PUSH1 0x4 DUP1 CALLDATASIZE SUB DUP2 ADD SWAP1 PUSH2 0x3BC SWAP2 SWAP1 PUSH2 0x4E8A JUMP JUMPDEST PUSH2 0x3869 JUMP JUMPDEST PUSH1 0x40 MLOAD PUSH2 0x3D4 SWAP8 SWAP7 SWAP6 SWAP5 SWAP4 SWAP3 SWAP2 SWAP1 PUSH2 0x4EE6 JUMP JUMPDEST PUSH1 0x40 MLOAD DUP1 SWAP2 SUB SWAP1 RETURN JUMPDEST PUSH2 0x3F7 PUSH1 0x4 DUP1 CALLDATASIZE SUB DUP2 ADD SWAP1 PUSH2 0x3F2 SWAP2 SWAP1 PUSH2 0x5183 JUMP JUMPDEST PUSH2 0x393D JUMP JUMPDEST STOP JUMPDEST PUSH2 0x413 PUSH1 0x4 DUP1 CALLDATASIZE SUB DUP2 ADD SWAP1 PUSH2 0x40E SWAP2 SWAP1 PUSH2 0x4E8A JUMP JUMPDEST PUSH2 0x439F JUMP JUMPDEST PUSH1 0x40 MLOAD PUSH2 0x426 SWAP8 SWAP7 SWAP6 SWAP5 SWAP4 SWAP3 SWAP2 SWAP1 PUSH2 0x4EE6 JUMP JUMPDEST PUSH1 0x40 MLOAD DUP1 SWAP2 SUB SWAP1 RETURN JUMPDEST PUSH2 0x449 PUSH1 0x4 DUP1 CALLDATASIZE SUB DUP2 ADD SWAP1 PUSH2 0x444 SWAP2 SWAP1 PUSH2 0x4F53 JUMP JUMPDEST PUSH2 0x4473 JUMP JUMPDEST PUSH1 0x40 MLOAD PUSH2 0x456 SWAP2 SWAP1 PUSH2 0x50D0 JUMP JUMPDEST PUSH1 0x40 MLOAD DUP1 SWAP2 SUB SWAP1 RETURN JUMPDEST PUSH0 PUSH4 0x150B7A02 PUSH1 0xE0 SHL SWAP1 POP SWAP6 SWAP5 POP POP POP POP POP JUMP JUMPDEST PUSH0 PUSH1 0x1 PUSH0 CALLER PUSH20 0xFFFFFFFFFFFFFFFFFFFFFFFFFFFFFFFFFFFFFFFF AND PUSH20 0xFFFFFFFFFFFFFFFFFFFFFFFFFFFFFFFFFFFFFFFF AND DUP2 MSTORE PUSH1 0x20 ADD SWAP1 DUP2 MSTORE PUSH1 0x20 ADD PUSH0 KECCAK256 PUSH0 DUP4 DUP2 MSTORE PUSH1 0x20 ADD SWAP1 DUP2 MSTORE PUSH1 0x20 ADD PUSH0 KECCAK256 PUSH1 0x40 MLOAD DUP1 PUSH1 0xE0 ADD PUSH1 0x40 MSTORE SWAP1 DUP2 PUSH0 DUP3 ADD SLOAD DUP2 MSTORE PUSH1 0x20 ADD PUSH1 0x1 DUP3 ADD PUSH0 SWAP1 SLOAD SWAP1 PUSH2 0x100 EXP SWAP1 DIV PUSH20 0xFFFFFFFFFFFFFFFFFFFFFFFFFFFFFFFFFFFFFFFF AND PUSH20 0xFFFFFFFFFFFFFFFFFFFFFFFFFFFFFFFFFFFFFFFF AND PUSH20 0xFFFFFFFFFFFFFFFFFFFFFFFFFFFFFFFFFFFFFFFF AND DUP2 MSTORE PUSH1 0x20 ADD PUSH1 0x2 DUP3 ADD PUSH0 SWAP1 SLOAD SWAP1 PUSH2 0x100 EXP SWAP1 DIV PUSH20 0xFFFFFFFFFFFFFFFFFFFFFFFFFFFFFFFFFFFFFFFF AND PUSH20 0xFFFFFFFFFFFFFFFFFFFFFFFFFFFFFFFFFFFFFFFF AND PUSH20 0xFFFFFFFFFFFFFFFFFFFFFFFFFFFFFFFFFFFFFFFF AND DUP2 MSTORE PUSH1 0x20 ADD PUSH1 0x3 DUP3 ADD PUSH0 SWAP1 SLOAD SWAP1 PUSH2 0x100 EXP SWAP1 DIV PUSH20 0xFFFFFFFFFFFFFFFFFFFFFFFFFFFFFFFFFFFFFFFF AND PUSH20 0xFFFFFFFFFFFFFFFFFFFFFFFFFFFFFFFFFFFFFFFF AND PUSH20 0xFFFFFFFFFFFFFFFFFFFFFFFFFFFFFFFFFFFFFFFF AND DUP2 MSTORE PUSH1 0x20 ADD PUSH1 0x4 DUP3 ADD SLOAD DUP2 MSTORE PUSH1 0x20 ADD PUSH1 0x5 DUP3 ADD PUSH0 SWAP1 SLOAD SWAP1 PUSH2 0x100 EXP SWAP1 DIV PUSH20 0xFFFFFFFFFFFFFFFFFFFFFFFFFFFFFFFFFFFFFFFF AND PUSH20 0xFFFFFFFFFFFFFFFFFFFFFFFFFFFFFFFFFFFFFFFF AND PUSH20 0xFFFFFFFFFFFFFFFFFFFFFFFFFFFFFFFFFFFFFFFF AND DUP2 MSTORE PUSH1 0x20 ADD PUSH1 0x6 DUP3 ADD SLOAD DUP2 MSTORE POP POP SWAP1 POP PUSH2 0x647 DUP2 PUSH2 0x467D JUMP JUMPDEST ISZERO PUSH2 0x67E JUMPI PUSH1 0x40 MLOAD PUSH32 0x41CC6B2100000000000000000000000000000000000000000000000000000000 DUP2 MSTORE PUSH1 0x4 ADD PUSH1 0x40 MLOAD DUP1 SWAP2 SUB SWAP1 REVERT JUMPDEST CALLER PUSH20 0xFFFFFFFFFFFFFFFFFFFFFFFFFFFFFFFFFFFFFFFF AND DUP2 PUSH1 0x40 ADD MLOAD PUSH20 0xFFFFFFFFFFFFFFFFFFFFFFFFFFFFFFFFFFFFFFFF AND EQ PUSH2 0x6F2 JUMPI CALLER PUSH1 0x40 MLOAD PUSH32 0xCE1F365A00000000000000000000000000000000000000000000000000000000 DUP2 MSTORE PUSH1 0x4 ADD PUSH2 0x6E9 SWAP2 SWAP1 PUSH2 0x51AE JUMP JUMPDEST PUSH1 0x40 MLOAD DUP1 SWAP2 SUB SWAP1 REVERT JUMPDEST PUSH0 DUP2 PUSH1 0x60 ADD MLOAD SWAP1 POP DUP1 PUSH20 0xFFFFFFFFFFFFFFFFFFFFFFFFFFFFFFFFFFFFFFFF AND PUSH4 0x42842E0E ADDRESS DUP5 PUSH1 0x20 ADD MLOAD DUP6 PUSH1 0x80 ADD MLOAD PUSH1 0x40 MLOAD DUP5 PUSH4 0xFFFFFFFF AND PUSH1 0xE0 SHL DUP2 MSTORE PUSH1 0x4 ADD PUSH2 0x73F SWAP4 SWAP3 SWAP2 SWAP1 PUSH2 0x51C7 JUMP JUMPDEST PUSH0 PUSH1 0x40 MLOAD DUP1 DUP4 SUB DUP2 PUSH0 DUP8 DUP1 EXTCODESIZE ISZERO DUP1 ISZERO PUSH2 0x756 JUMPI PUSH0 DUP1 REVERT JUMPDEST POP GAS CALL ISZERO DUP1 ISZERO PUSH2 0x768 JUMPI RETURNDATASIZE PUSH0 DUP1 RETURNDATACOPY RETURNDATASIZE PUSH0 REVERT JUMPDEST POP POP POP POP PUSH0 DUP3 PUSH1 0x20 ADD MLOAD SWAP1 POP PUSH0 DUP4 PUSH1 0x40 ADD MLOAD SWAP1 POP PUSH1 0x1 PUSH0 DUP6 PUSH1 0x40 ADD MLOAD PUSH20 0xFFFFFFFFFFFFFFFFFFFFFFFFFFFFFFFFFFFFFFFF AND PUSH20 0xFFFFFFFFFFFFFFFFFFFFFFFFFFFFFFFFFFFFFFFF AND DUP2 MSTORE PUSH1 0x20 ADD SWAP1 DUP2 MSTORE PUSH1 0x20 ADD PUSH0 KECCAK256 PUSH0 DUP7 DUP2 MSTORE PUSH1 0x20 ADD SWAP1 DUP2 MSTORE PUSH1 0x20 ADD PUSH0 KECCAK256 PUSH0 DUP1 DUP3 ADD PUSH0 SWAP1 SSTORE PUSH1 0x1 DUP3 ADD PUSH0 PUSH2 0x100 EXP DUP2 SLOAD SWAP1 PUSH20 0xFFFFFFFFFFFFFFFFFFFFFFFFFFFFFFFFFFFFFFFF MUL NOT AND SWAP1 SSTORE PUSH1 0x2 DUP3 ADD PUSH0 PUSH2 0x100 EXP DUP2 SLOAD SWAP1 PUSH20 0xFFFFFFFFFFFFFFFFFFFFFFFFFFFFFFFFFFFFFFFF MUL NOT AND SWAP1 SSTORE PUSH1 0x3 DUP3 ADD PUSH0 PUSH2 0x100 EXP DUP2 SLOAD SWAP1 PUSH20 0xFFFFFFFFFFFFFFFFFFFFFFFFFFFFFFFFFFFFFFFF MUL NOT AND SWAP1 SSTORE PUSH1 0x4 DUP3 ADD PUSH0 SWAP1 SSTORE PUSH1 0x5 DUP3 ADD PUSH0 PUSH2 0x100 EXP DUP2 SLOAD SWAP1 PUSH20 0xFFFFFFFFFFFFFFFFFFFFFFFFFFFFFFFFFFFFFFFF MUL NOT AND SWAP1 SSTORE PUSH1 0x6 DUP3 ADD PUSH0 SWAP1 SSTORE POP POP PUSH0 PUSH1 0x2 PUSH0 DUP4 PUSH20 0xFFFFFFFFFFFFFFFFFFFFFFFFFFFFFFFFFFFFFFFF AND PUSH20 0xFFFFFFFFFFFFFFFFFFFFFFFFFFFFFFFFFFFFFFFF AND DUP2 MSTORE PUSH1 0x20 ADD SWAP1 DUP2 MSTORE PUSH1 0x20 ADD PUSH0 KECCAK256 DUP1 SLOAD DUP1 PUSH1 0x20 MUL PUSH1 0x20 ADD PUSH1 0x40 MLOAD SWAP1 DUP2 ADD PUSH1 0x40 MSTORE DUP1 SWAP3 SWAP2 SWAP1 DUP2 DUP2 MSTORE PUSH1 0x20 ADD PUSH0 SWAP1 JUMPDEST DUP3 DUP3 LT ISZERO PUSH2 0xA79 JUMPI DUP4 DUP3 SWAP1 PUSH0 MSTORE PUSH1 0x20 PUSH0 KECCAK256 SWAP1 PUSH1 0x7 MUL ADD PUSH1 0x40 MLOAD DUP1 PUSH1 0xE0 ADD PUSH1 0x40 MSTORE SWAP1 DUP2 PUSH0 DUP3 ADD SLOAD DUP2 MSTORE PUSH1 0x20 ADD PUSH1 0x1 DUP3 ADD PUSH0 SWAP1 SLOAD SWAP1 PUSH2 0x100 EXP SWAP1 DIV PUSH20 0xFFFFFFFFFFFFFFFFFFFFFFFFFFFFFFFFFFFFFFFF AND PUSH20 0xFFFFFFFFFFFFFFFFFFFFFFFFFFFFFFFFFFFFFFFF AND PUSH20 0xFFFFFFFFFFFFFFFFFFFFFFFFFFFFFFFFFFFFFFFF AND DUP2 MSTORE PUSH1 0x20 ADD PUSH1 0x2 DUP3 ADD PUSH0 SWAP1 SLOAD SWAP1 PUSH2 0x100 EXP SWAP1 DIV PUSH20 0xFFFFFFFFFFFFFFFFFFFFFFFFFFFFFFFFFFFFFFFF AND PUSH20 0xFFFFFFFFFFFFFFFFFFFFFFFFFFFFFFFFFFFFFFFF AND PUSH20 0xFFFFFFFFFFFFFFFFFFFFFFFFFFFFFFFFFFFFFFFF AND DUP2 MSTORE PUSH1 0x20 ADD PUSH1 0x3 DUP3 ADD PUSH0 SWAP1 SLOAD SWAP1 PUSH2 0x100 EXP SWAP1 DIV PUSH20 0xFFFFFFFFFFFFFFFFFFFFFFFFFFFFFFFFFFFFFFFF AND PUSH20 0xFFFFFFFFFFFFFFFFFFFFFFFFFFFFFFFFFFFFFFFF AND PUSH20 0xFFFFFFFFFFFFFFFFFFFFFFFFFFFFFFFFFFFFFFFF AND DUP2 MSTORE PUSH1 0x20 ADD PUSH1 0x4 DUP3 ADD SLOAD DUP2 MSTORE PUSH1 0x20 ADD PUSH1 0x5 DUP3 ADD PUSH0 SWAP1 SLOAD SWAP1 PUSH2 0x100 EXP SWAP1 DIV PUSH20 0xFFFFFFFFFFFFFFFFFFFFFFFFFFFFFFFFFFFFFFFF AND PUSH20 0xFFFFFFFFFFFFFFFFFFFFFFFFFFFFFFFFFFFFFFFF AND PUSH20 0xFFFFFFFFFFFFFFFFFFFFFFFFFFFFFFFFFFFFFFFF AND DUP2 MSTORE PUSH1 0x20 ADD PUSH1 0x6 DUP3 ADD SLOAD DUP2 MSTORE POP POP DUP2 MSTORE PUSH1 0x20 ADD SWAP1 PUSH1 0x1 ADD SWAP1 PUSH2 0x8D8 JUMP JUMPDEST POP POP POP POP SWAP1 POP PUSH1 0x2 PUSH0 DUP7 PUSH1 0x40 ADD MLOAD PUSH20 0xFFFFFFFFFFFFFFFFFFFFFFFFFFFFFFFFFFFFFFFF AND PUSH20 0xFFFFFFFFFFFFFFFFFFFFFFFFFFFFFFFFFFFFFFFF AND DUP2 MSTORE PUSH1 0x20 ADD SWAP1 DUP2 MSTORE PUSH1 0x20 ADD PUSH0 KECCAK256 PUSH0 PUSH2 0xACB SWAP2 SWAP1 PUSH2 0x4B20 JUMP JUMPDEST PUSH2 0xAD8 PUSH1 0x1 DUP4 DUP4 DUP10 PUSH2 0x46E7 JUMP JUMPDEST PUSH0 PUSH1 0x3 PUSH0 DUP6 PUSH20 0xFFFFFFFFFFFFFFFFFFFFFFFFFFFFFFFFFFFFFFFF AND PUSH20 0xFFFFFFFFFFFFFFFFFFFFFFFFFFFFFFFFFFFFFFFF AND DUP2 MSTORE PUSH1 0x20 ADD SWAP1 DUP2 MSTORE PUSH1 0x20 ADD PUSH0 KECCAK256 DUP1 SLOAD DUP1 PUSH1 0x20 MUL PUSH1 0x20 ADD PUSH1 0x40 MLOAD SWAP1 DUP2 ADD PUSH1 0x40 MSTORE DUP1 SWAP3 SWAP2 SWAP1 DUP2 DUP2 MSTORE PUSH1 0x20 ADD PUSH0 SWAP1 JUMPDEST DUP3 DUP3 LT ISZERO PUSH2 0xCD6 JUMPI DUP4 DUP3 SWAP1 PUSH0 MSTORE PUSH1 0x20 PUSH0 KECCAK256 SWAP1 PUSH1 0x7 MUL ADD PUSH1 0x40 MLOAD DUP1 PUSH1 0xE0 ADD PUSH1 0x40 MSTORE SWAP1 DUP2 PUSH0 DUP3 ADD SLOAD DUP2 MSTORE PUSH1 0x20 ADD PUSH1 0x1 DUP3 ADD PUSH0 SWAP1 SLOAD SWAP1 PUSH2 0x100 EXP SWAP1 DIV PUSH20 0xFFFFFFFFFFFFFFFFFFFFFFFFFFFFFFFFFFFFFFFF AND PUSH20 0xFFFFFFFFFFFFFFFFFFFFFFFFFFFFFFFFFFFFFFFF AND PUSH20 0xFFFFFFFFFFFFFFFFFFFFFFFFFFFFFFFFFFFFFFFF AND DUP2 MSTORE PUSH1 0x20 ADD PUSH1 0x2 DUP3 ADD PUSH0 SWAP1 SLOAD SWAP1 PUSH2 0x100 EXP SWAP1 DIV PUSH20 0xFFFFFFFFFFFFFFFFFFFFFFFFFFFFFFFFFFFFFFFF AND PUSH20 0xFFFFFFFFFFFFFFFFFFFFFFFFFFFFFFFFFFFFFFFF AND PUSH20 0xFFFFFFFFFFFFFFFFFFFFFFFFFFFFFFFFFFFFFFFF AND DUP2 MSTORE PUSH1 0x20 ADD PUSH1 0x3 DUP3 ADD PUSH0 SWAP1 SLOAD SWAP1 PUSH2 0x100 EXP SWAP1 DIV PUSH20 0xFFFFFFFFFFFFFFFFFFFFFFFFFFFFFFFFFFFFFFFF AND PUSH20 0xFFFFFFFFFFFFFFFFFFFFFFFFFFFFFFFFFFFFFFFF AND PUSH20 0xFFFFFFFFFFFFFFFFFFFFFFFFFFFFFFFFFFFFFFFF AND DUP2 MSTORE PUSH1 0x20 ADD PUSH1 0x4 DUP3 ADD SLOAD DUP2 MSTORE PUSH1 0x20 ADD PUSH1 0x5 DUP3 ADD PUSH0 SWAP1 SLOAD SWAP1 PUSH2 0x100 EXP SWAP1 DIV PUSH20 0xFFFFFFFFFFFFFFFFFFFFFFFFFFFFFFFFFFFFFFFF AND PUSH20 0xFFFFFFFFFFFFFFFFFFFFFFFFFFFFFFFFFFFFFFFF AND PUSH20 0xFFFFFFFFFFFFFFFFFFFFFFFFFFFFFFFFFFFFFFFF AND DUP2 MSTORE PUSH1 0x20 ADD PUSH1 0x6 DUP3 ADD SLOAD DUP2 MSTORE POP POP DUP2 MSTORE PUSH1 0x20 ADD SWAP1 PUSH1 0x1 ADD SWAP1 PUSH2 0xB35 JUMP JUMPDEST POP POP POP POP SWAP1 POP PUSH1 0x3 PUSH0 DUP6 PUSH20 0xFFFFFFFFFFFFFFFFFFFFFFFFFFFFFFFFFFFFFFFF AND PUSH20 0xFFFFFFFFFFFFFFFFFFFFFFFFFFFFFFFFFFFFFFFF AND DUP2 MSTORE PUSH1 0x20 ADD SWAP1 DUP2 MSTORE PUSH1 0x20 ADD PUSH0 KECCAK256 PUSH0 PUSH2 0xD24 SWAP2 SWAP1 PUSH2 0x4B20 JUMP JUMPDEST PUSH2 0xD30 PUSH0 DUP6 DUP4 DUP11 PUSH2 0x46E7 JUMP JUMPDEST PUSH1 0x5 PUSH0 DUP5 PUSH20 0xFFFFFFFFFFFFFFFFFFFFFFFFFFFFFFFFFFFFFFFF AND PUSH20 0xFFFFFFFFFFFFFFFFFFFFFFFFFFFFFFFFFFFFFFFF AND DUP2 MSTORE PUSH1 0x20 ADD SWAP1 DUP2 MSTORE PUSH1 0x20 ADD PUSH0 KECCAK256 DUP7 SWAP1 DUP1 PUSH1 0x1 DUP2 SLOAD ADD DUP1 DUP3 SSTORE DUP1 SWAP2 POP POP PUSH1 0x1 SWAP1 SUB SWAP1 PUSH0 MSTORE PUSH1 0x20 PUSH0 KECCAK256 SWAP1 PUSH1 0x7 MUL ADD PUSH0 SWAP1 SWAP2 SWAP1 SWAP2 SWAP1 SWAP2 POP PUSH0 DUP3 ADD MLOAD DUP2 PUSH0 ADD SSTORE PUSH1 0x20 DUP3 ADD MLOAD DUP2 PUSH1 0x1 ADD PUSH0 PUSH2 0x100 EXP DUP2 SLOAD DUP2 PUSH20 0xFFFFFFFFFFFFFFFFFFFFFFFFFFFFFFFFFFFFFFFF MUL NOT AND SWAP1 DUP4 PUSH20 0xFFFFFFFFFFFFFFFFFFFFFFFFFFFFFFFFFFFFFFFF AND MUL OR SWAP1 SSTORE POP PUSH1 0x40 DUP3 ADD MLOAD DUP2 PUSH1 0x2 ADD PUSH0 PUSH2 0x100 EXP DUP2 SLOAD DUP2 PUSH20 0xFFFFFFFFFFFFFFFFFFFFFFFFFFFFFFFFFFFFFFFF MUL NOT AND SWAP1 DUP4 PUSH20 0xFFFFFFFFFFFFFFFFFFFFFFFFFFFFFFFFFFFFFFFF AND MUL OR SWAP1 SSTORE POP PUSH1 0x60 DUP3 ADD MLOAD DUP2 PUSH1 0x3 ADD PUSH0 PUSH2 0x100 EXP DUP2 SLOAD DUP2 PUSH20 0xFFFFFFFFFFFFFFFFFFFFFFFFFFFFFFFFFFFFFFFF MUL NOT AND SWAP1 DUP4 PUSH20 0xFFFFFFFFFFFFFFFFFFFFFFFFFFFFFFFFFFFFFFFF AND MUL OR SWAP1 SSTORE POP PUSH1 0x80 DUP3 ADD MLOAD DUP2 PUSH1 0x4 ADD SSTORE PUSH1 0xA0 DUP3 ADD MLOAD DUP2 PUSH1 0x5 ADD PUSH0 PUSH2 0x100 EXP DUP2 SLOAD DUP2 PUSH20 0xFFFFFFFFFFFFFFFFFFFFFFFFFFFFFFFFFFFFFFFF MUL NOT AND SWAP1 DUP4 PUSH20 0xFFFFFFFFFFFFFFFFFFFFFFFFFFFFFFFFFFFFFFFF AND MUL OR SWAP1 SSTORE POP PUSH1 0xC0 DUP3 ADD MLOAD DUP2 PUSH1 0x6 ADD SSTORE POP POP PUSH1 0x5 PUSH0 DUP6 PUSH20 0xFFFFFFFFFFFFFFFFFFFFFFFFFFFFFFFFFFFFFFFF AND PUSH20 0xFFFFFFFFFFFFFFFFFFFFFFFFFFFFFFFFFFFFFFFF AND DUP2 MSTORE PUSH1 0x20 ADD SWAP1 DUP2 MSTORE PUSH1 0x20 ADD PUSH0 KECCAK256 DUP7 SWAP1 DUP1 PUSH1 0x1 DUP2 SLOAD ADD DUP1 DUP3 SSTORE DUP1 SWAP2 POP POP PUSH1 0x1 SWAP1 SUB SWAP1 PUSH0 MSTORE PUSH1 0x20 PUSH0 KECCAK256 SWAP1 PUSH1 0x7 MUL ADD PUSH0 SWAP1 SWAP2 SWAP1 SWAP2 SWAP1 SWAP2 POP PUSH0 DUP3 ADD MLOAD DUP2 PUSH0 ADD SSTORE PUSH1 0x20 DUP3 ADD MLOAD DUP2 PUSH1 0x1 ADD PUSH0 PUSH2 0x100 EXP DUP2 SLOAD DUP2 PUSH20 0xFFFFFFFFFFFFFFFFFFFFFFFFFFFFFFFFFFFFFFFF MUL NOT AND SWAP1 DUP4 PUSH20 0xFFFFFFFFFFFFFFFFFFFFFFFFFFFFFFFFFFFFFFFF AND MUL OR SWAP1 SSTORE POP PUSH1 0x40 DUP3 ADD MLOAD DUP2 PUSH1 0x2 ADD PUSH0 PUSH2 0x100 EXP DUP2 SLOAD DUP2 PUSH20 0xFFFFFFFFFFFFFFFFFFFFFFFFFFFFFFFFFFFFFFFF MUL NOT AND SWAP1 DUP4 PUSH20 0xFFFFFFFFFFFFFFFFFFFFFFFFFFFFFFFFFFFFFFFF AND MUL OR SWAP1 SSTORE POP PUSH1 0x60 DUP3 ADD MLOAD DUP2 PUSH1 0x3 ADD PUSH0 PUSH2 0x100 EXP DUP2 SLOAD DUP2 PUSH20 0xFFFFFFFFFFFFFFFFFFFFFFFFFFFFFFFFFFFFFFFF MUL NOT AND SWAP1 DUP4 PUSH20 0xFFFFFFFFFFFFFFFFFFFFFFFFFFFFFFFFFFFFFFFF AND MUL OR SWAP1 SSTORE POP PUSH1 0x80 DUP3 ADD MLOAD DUP2 PUSH1 0x4 ADD SSTORE PUSH1 0xA0 DUP3 ADD MLOAD DUP2 PUSH1 0x5 ADD PUSH0 PUSH2 0x100 EXP DUP2 SLOAD DUP2 PUSH20 0xFFFFFFFFFFFFFFFFFFFFFFFFFFFFFFFFFFFFFFFF MUL NOT AND SWAP1 DUP4 PUSH20 0xFFFFFFFFFFFFFFFFFFFFFFFFFFFFFFFFFFFFFFFF AND MUL OR SWAP1 SSTORE POP PUSH1 0xC0 DUP3 ADD MLOAD DUP2 PUSH1 0x6 ADD SSTORE POP POP POP POP POP POP POP POP POP JUMP JUMPDEST PUSH0 PUSH1 0x1 PUSH0 CALLER PUSH20 0xFFFFFFFFFFFFFFFFFFFFFFFFFFFFFFFFFFFFFFFF AND PUSH20 0xFFFFFFFFFFFFFFFFFFFFFFFFFFFFFFFFFFFFFFFF AND DUP2 MSTORE PUSH1 0x20 ADD SWAP1 DUP2 MSTORE PUSH1 0x20 ADD PUSH0 KECCAK256 PUSH0 DUP4 DUP2 MSTORE PUSH1 0x20 ADD SWAP1 DUP2 MSTORE PUSH1 0x20 ADD PUSH0 KECCAK256 PUSH1 0x40 MLOAD DUP1 PUSH1 0xE0 ADD PUSH1 0x40 MSTORE SWAP1 DUP2 PUSH0 DUP3 ADD SLOAD DUP2 MSTORE PUSH1 0x20 ADD PUSH1 0x1 DUP3 ADD PUSH0 SWAP1 SLOAD SWAP1 PUSH2 0x100 EXP SWAP1 DIV PUSH20 0xFFFFFFFFFFFFFFFFFFFFFFFFFFFFFFFFFFFFFFFF AND PUSH20 0xFFFFFFFFFFFFFFFFFFFFFFFFFFFFFFFFFFFFFFFF AND PUSH20 0xFFFFFFFFFFFFFFFFFFFFFFFFFFFFFFFFFFFFFFFF AND DUP2 MSTORE PUSH1 0x20 ADD PUSH1 0x2 DUP3 ADD PUSH0 SWAP1 SLOAD SWAP1 PUSH2 0x100 EXP SWAP1 DIV PUSH20 0xFFFFFFFFFFFFFFFFFFFFFFFFFFFFFFFFFFFFFFFF AND PUSH20 0xFFFFFFFFFFFFFFFFFFFFFFFFFFFFFFFFFFFFFFFF AND PUSH20 0xFFFFFFFFFFFFFFFFFFFFFFFFFFFFFFFFFFFFFFFF AND DUP2 MSTORE PUSH1 0x20 ADD PUSH1 0x3 DUP3 ADD PUSH0 SWAP1 SLOAD SWAP1 PUSH2 0x100 EXP SWAP1 DIV PUSH20 0xFFFFFFFFFFFFFFFFFFFFFFFFFFFFFFFFFFFFFFFF AND PUSH20 0xFFFFFFFFFFFFFFFFFFFFFFFFFFFFFFFFFFFFFFFF AND PUSH20 0xFFFFFFFFFFFFFFFFFFFFFFFFFFFFFFFFFFFFFFFF AND DUP2 MSTORE PUSH1 0x20 ADD PUSH1 0x4 DUP3 ADD SLOAD DUP2 MSTORE PUSH1 0x20 ADD PUSH1 0x5 DUP3 ADD PUSH0 SWAP1 SLOAD SWAP1 PUSH2 0x100 EXP SWAP1 DIV PUSH20 0xFFFFFFFFFFFFFFFFFFFFFFFFFFFFFFFFFFFFFFFF AND PUSH20 0xFFFFFFFFFFFFFFFFFFFFFFFFFFFFFFFFFFFFFFFF AND PUSH20 0xFFFFFFFFFFFFFFFFFFFFFFFFFFFFFFFFFFFFFFFF AND DUP2 MSTORE PUSH1 0x20 ADD PUSH1 0x6 DUP3 ADD SLOAD DUP2 MSTORE POP POP SWAP1 POP PUSH2 0x1241 DUP2 PUSH2 0x467D JUMP JUMPDEST ISZERO PUSH2 0x1278 JUMPI PUSH1 0x40 MLOAD PUSH32 0x41CC6B2100000000000000000000000000000000000000000000000000000000 DUP2 MSTORE PUSH1 0x4 ADD PUSH1 0x40 MLOAD DUP1 SWAP2 SUB SWAP1 REVERT JUMPDEST CALLER PUSH20 0xFFFFFFFFFFFFFFFFFFFFFFFFFFFFFFFFFFFFFFFF AND DUP2 PUSH1 0x20 ADD MLOAD PUSH20 0xFFFFFFFFFFFFFFFFFFFFFFFFFFFFFFFFFFFFFFFF AND EQ PUSH2 0x12EC JUMPI CALLER PUSH1 0x40 MLOAD PUSH32 0xCE1F365A00000000000000000000000000000000000000000000000000000000 DUP2 MSTORE PUSH1 0x4 ADD PUSH2 0x12E3 SWAP2 SWAP1 PUSH2 0x51AE JUMP JUMPDEST PUSH1 0x40 MLOAD DUP1 SWAP2 SUB SWAP1 REVERT JUMPDEST PUSH0 DUP2 PUSH1 0x20 ADD MLOAD SWAP1 POP PUSH0 DUP3 PUSH1 0x40 ADD MLOAD SWAP1 POP PUSH0 PUSH1 0x3 PUSH0 CALLER PUSH20 0xFFFFFFFFFFFFFFFFFFFFFFFFFFFFFFFFFFFFFFFF AND PUSH20 0xFFFFFFFFFFFFFFFFFFFFFFFFFFFFFFFFFFFFFFFF AND DUP2 MSTORE PUSH1 0x20 ADD SWAP1 DUP2 MSTORE PUSH1 0x20 ADD PUSH0 KECCAK256 DUP1 SLOAD DUP1 PUSH1 0x20 MUL PUSH1 0x20 ADD PUSH1 0x40 MLOAD SWAP1 DUP2 ADD PUSH1 0x40 MSTORE DUP1 SWAP3 SWAP2 SWAP1 DUP2 DUP2 MSTORE PUSH1 0x20 ADD PUSH0 SWAP1 JUMPDEST DUP3 DUP3 LT ISZERO PUSH2 0x14FA JUMPI DUP4 DUP3 SWAP1 PUSH0 MSTORE PUSH1 0x20 PUSH0 KECCAK256 SWAP1 PUSH1 0x7 MUL ADD PUSH1 0x40 MLOAD DUP1 PUSH1 0xE0 ADD PUSH1 0x40 MSTORE SWAP1 DUP2 PUSH0 DUP3 ADD SLOAD DUP2 MSTORE PUSH1 0x20 ADD PUSH1 0x1 DUP3 ADD PUSH0 SWAP1 SLOAD SWAP1 PUSH2 0x100 EXP SWAP1 DIV PUSH20 0xFFFFFFFFFFFFFFFFFFFFFFFFFFFFFFFFFFFFFFFF AND PUSH20 0xFFFFFFFFFFFFFFFFFFFFFFFFFFFFFFFFFFFFFFFF AND PUSH20 0xFFFFFFFFFFFFFFFFFFFFFFFFFFFFFFFFFFFFFFFF AND DUP2 MSTORE PUSH1 0x20 ADD PUSH1 0x2 DUP3 ADD PUSH0 SWAP1 SLOAD SWAP1 PUSH2 0x100 EXP SWAP1 DIV PUSH20 0xFFFFFFFFFFFFFFFFFFFFFFFFFFFFFFFFFFFFFFFF AND PUSH20 0xFFFFFFFFFFFFFFFFFFFFFFFFFFFFFFFFFFFFFFFF AND PUSH20 0xFFFFFFFFFFFFFFFFFFFFFFFFFFFFFFFFFFFFFFFF AND DUP2 MSTORE PUSH1 0x20 ADD PUSH1 0x3 DUP3 ADD PUSH0 SWAP1 SLOAD SWAP1 PUSH2 0x100 EXP SWAP1 DIV PUSH20 0xFFFFFFFFFFFFFFFFFFFFFFFFFFFFFFFFFFFFFFFF AND PUSH20 0xFFFFFFFFFFFFFFFFFFFFFFFFFFFFFFFFFFFFFFFF AND PUSH20 0xFFFFFFFFFFFFFFFFFFFFFFFFFFFFFFFFFFFFFFFF AND DUP2 MSTORE PUSH1 0x20 ADD PUSH1 0x4 DUP3 ADD SLOAD DUP2 MSTORE PUSH1 0x20 ADD PUSH1 0x5 DUP3 ADD PUSH0 SWAP1 SLOAD SWAP1 PUSH2 0x100 EXP SWAP1 DIV PUSH20 0xFFFFFFFFFFFFFFFFFFFFFFFFFFFFFFFFFFFFFFFF AND PUSH20 0xFFFFFFFFFFFFFFFFFFFFFFFFFFFFFFFFFFFFFFFF AND PUSH20 0xFFFFFFFFFFFFFFFFFFFFFFFFFFFFFFFFFFFFFFFF AND DUP2 MSTORE PUSH1 0x20 ADD PUSH1 0x6 DUP3 ADD SLOAD DUP2 MSTORE POP POP DUP2 MSTORE PUSH1 0x20 ADD SWAP1 PUSH1 0x1 ADD SWAP1 PUSH2 0x1359 JUMP JUMPDEST POP POP POP POP SWAP1 POP PUSH0 PUSH1 0x2 PUSH0 DUP7 PUSH1 0x40 ADD MLOAD PUSH20 0xFFFFFFFFFFFFFFFFFFFFFFFFFFFFFFFFFFFFFFFF AND PUSH20 0xFFFFFFFFFFFFFFFFFFFFFFFFFFFFFFFFFFFFFFFF AND DUP2 MSTORE PUSH1 0x20 ADD SWAP1 DUP2 MSTORE PUSH1 0x20 ADD PUSH0 KECCAK256 DUP1 SLOAD DUP1 PUSH1 0x20 MUL PUSH1 0x20 ADD PUSH1 0x40 MLOAD SWAP1 DUP2 ADD PUSH1 0x40 MSTORE DUP1 SWAP3 SWAP2 SWAP1 DUP2 DUP2 MSTORE PUSH1 0x20 ADD PUSH0 SWAP1 JUMPDEST DUP3 DUP3 LT ISZERO PUSH2 0x1702 JUMPI DUP4 DUP3 SWAP1 PUSH0 MSTORE PUSH1 0x20 PUSH0 KECCAK256 SWAP1 PUSH1 0x7 MUL ADD PUSH1 0x40 MLOAD DUP1 PUSH1 0xE0 ADD PUSH1 0x40 MSTORE SWAP1 DUP2 PUSH0 DUP3 ADD SLOAD DUP2 MSTORE PUSH1 0x20 ADD PUSH1 0x1 DUP3 ADD PUSH0 SWAP1 SLOAD SWAP1 PUSH2 0x100 EXP SWAP1 DIV PUSH20 0xFFFFFFFFFFFFFFFFFFFFFFFFFFFFFFFFFFFFFFFF AND PUSH20 0xFFFFFFFFFFFFFFFFFFFFFFFFFFFFFFFFFFFFFFFF AND PUSH20 0xFFFFFFFFFFFFFFFFFFFFFFFFFFFFFFFFFFFFFFFF AND DUP2 MSTORE PUSH1 0x20 ADD PUSH1 0x2 DUP3 ADD PUSH0 SWAP1 SLOAD SWAP1 PUSH2 0x100 EXP SWAP1 DIV PUSH20 0xFFFFFFFFFFFFFFFFFFFFFFFFFFFFFFFFFFFFFFFF AND PUSH20 0xFFFFFFFFFFFFFFFFFFFFFFFFFFFFFFFFFFFFFFFF AND PUSH20 0xFFFFFFFFFFFFFFFFFFFFFFFFFFFFFFFFFFFFFFFF AND DUP2 MSTORE PUSH1 0x20 ADD PUSH1 0x3 DUP3 ADD PUSH0 SWAP1 SLOAD SWAP1 PUSH2 0x100 EXP SWAP1 DIV PUSH20 0xFFFFFFFFFFFFFFFFFFFFFFFFFFFFFFFFFFFFFFFF AND PUSH20 0xFFFFFFFFFFFFFFFFFFFFFFFFFFFFFFFFFFFFFFFF AND PUSH20 0xFFFFFFFFFFFFFFFFFFFFFFFFFFFFFFFFFFFFFFFF AND DUP2 MSTORE PUSH1 0x20 ADD PUSH1 0x4 DUP3 ADD SLOAD DUP2 MSTORE PUSH1 0x20 ADD PUSH1 0x5 DUP3 ADD PUSH0 SWAP1 SLOAD SWAP1 PUSH2 0x100 EXP SWAP1 DIV PUSH20 0xFFFFFFFFFFFFFFFFFFFFFFFFFFFFFFFFFFFFFFFF AND PUSH20 0xFFFFFFFFFFFFFFFFFFFFFFFFFFFFFFFFFFFFFFFF AND PUSH20 0xFFFFFFFFFFFFFFFFFFFFFFFFFFFFFFFFFFFFFFFF AND DUP2 MSTORE PUSH1 0x20 ADD PUSH1 0x6 DUP3 ADD SLOAD DUP2 MSTORE POP POP DUP2 MSTORE PUSH1 0x20 ADD SWAP1 PUSH1 0x1 ADD SWAP1 PUSH2 0x1561 JUMP JUMPDEST POP POP POP POP SWAP1 POP PUSH1 0x3 PUSH0 DUP6 PUSH20 0xFFFFFFFFFFFFFFFFFFFFFFFFFFFFFFFFFFFFFFFF AND PUSH20 0xFFFFFFFFFFFFFFFFFFFFFFFFFFFFFFFFFFFFFFFF AND DUP2 MSTORE PUSH1 0x20 ADD SWAP1 DUP2 MSTORE PUSH1 0x20 ADD PUSH0 KECCAK256 PUSH0 PUSH2 0x1750 SWAP2 SWAP1 PUSH2 0x4B20 JUMP JUMPDEST PUSH2 0x175C PUSH0 DUP6 DUP5 DUP10 PUSH2 0x46E7 JUMP JUMPDEST PUSH1 0x2 PUSH0 DUP5 PUSH20 0xFFFFFFFFFFFFFFFFFFFFFFFFFFFFFFFFFFFFFFFF AND PUSH20 0xFFFFFFFFFFFFFFFFFFFFFFFFFFFFFFFFFFFFFFFF AND DUP2 MSTORE PUSH1 0x20 ADD SWAP1 DUP2 MSTORE PUSH1 0x20 ADD PUSH0 KECCAK256 PUSH0 PUSH2 0x17A4 SWAP2 SWAP1 PUSH2 0x4B20 JUMP JUMPDEST PUSH2 0x17B1 PUSH1 0x1 DUP5 DUP4 DUP10 PUSH2 0x46E7 JUMP JUMPDEST PUSH1 0x6 PUSH0 DUP6 PUSH20 0xFFFFFFFFFFFFFFFFFFFFFFFFFFFFFFFFFFFFFFFF AND PUSH20 0xFFFFFFFFFFFFFFFFFFFFFFFFFFFFFFFFFFFFFFFF AND DUP2 MSTORE PUSH1 0x20 ADD SWAP1 DUP2 MSTORE PUSH1 0x20 ADD PUSH0 KECCAK256 DUP6 SWAP1 DUP1 PUSH1 0x1 DUP2 SLOAD ADD DUP1 DUP3 SSTORE DUP1 SWAP2 POP POP PUSH1 0x1 SWAP1 SUB SWAP1 PUSH0 MSTORE PUSH1 0x20 PUSH0 KECCAK256 SWAP1 PUSH1 0x7 MUL ADD PUSH0 SWAP1 SWAP2 SWAP1 SWAP2 SWAP1 SWAP2 POP PUSH0 DUP3 ADD MLOAD DUP2 PUSH0 ADD SSTORE PUSH1 0x20 DUP3 ADD MLOAD DUP2 PUSH1 0x1 ADD PUSH0 PUSH2 0x100 EXP DUP2 SLOAD DUP2 PUSH20 0xFFFFFFFFFFFFFFFFFFFFFFFFFFFFFFFFFFFFFFFF MUL NOT AND SWAP1 DUP4 PUSH20 0xFFFFFFFFFFFFFFFFFFFFFFFFFFFFFFFFFFFFFFFF AND MUL OR SWAP1 SSTORE POP PUSH1 0x40 DUP3 ADD MLOAD DUP2 PUSH1 0x2 ADD PUSH0 PUSH2 0x100 EXP DUP2 SLOAD DUP2 PUSH20 0xFFFFFFFFFFFFFFFFFFFFFFFFFFFFFFFFFFFFFFFF MUL NOT AND SWAP1 DUP4 PUSH20 0xFFFFFFFFFFFFFFFFFFFFFFFFFFFFFFFFFFFFFFFF AND MUL OR SWAP1 SSTORE POP PUSH1 0x60 DUP3 ADD MLOAD DUP2 PUSH1 0x3 ADD PUSH0 PUSH2 0x100 EXP DUP2 SLOAD DUP2 PUSH20 0xFFFFFFFFFFFFFFFFFFFFFFFFFFFFFFFFFFFFFFFF MUL NOT AND SWAP1 DUP4 PUSH20 0xFFFFFFFFFFFFFFFFFFFFFFFFFFFFFFFFFFFFFFFF AND MUL OR SWAP1 SSTORE POP PUSH1 0x80 DUP3 ADD MLOAD DUP2 PUSH1 0x4 ADD SSTORE PUSH1 0xA0 DUP3 ADD MLOAD DUP2 PUSH1 0x5 ADD PUSH0 PUSH2 0x100 EXP DUP2 SLOAD DUP2 PUSH20 0xFFFFFFFFFFFFFFFFFFFFFFFFFFFFFFFFFFFFFFFF MUL NOT AND SWAP1 DUP4 PUSH20 0xFFFFFFFFFFFFFFFFFFFFFFFFFFFFFFFFFFFFFFFF AND MUL OR SWAP1 SSTORE POP PUSH1 0xC0 DUP3 ADD MLOAD DUP2 PUSH1 0x6 ADD SSTORE POP POP PUSH1 0x6 PUSH0 DUP5 PUSH20 0xFFFFFFFFFFFFFFFFFFFFFFFFFFFFFFFFFFFFFFFF AND PUSH20 0xFFFFFFFFFFFFFFFFFFFFFFFFFFFFFFFFFFFFFFFF AND DUP2 MSTORE PUSH1 0x20 ADD SWAP1 DUP2 MSTORE PUSH1 0x20 ADD PUSH0 KECCAK256 DUP6 SWAP1 DUP1 PUSH1 0x1 DUP2 SLOAD ADD DUP1 DUP3 SSTORE DUP1 SWAP2 POP POP PUSH1 0x1 SWAP1 SUB SWAP1 PUSH0 MSTORE PUSH1 0x20 PUSH0 KECCAK256 SWAP1 PUSH1 0x7 MUL ADD PUSH0 SWAP1 SWAP2 SWAP1 SWAP2 SWAP1 SWAP2 POP PUSH0 DUP3 ADD MLOAD DUP2 PUSH0 ADD SSTORE PUSH1 0x20 DUP3 ADD MLOAD DUP2 PUSH1 0x1 ADD PUSH0 PUSH2 0x100 EXP DUP2 SLOAD DUP2 PUSH20 0xFFFFFFFFFFFFFFFFFFFFFFFFFFFFFFFFFFFFFFFF MUL NOT AND SWAP1 DUP4 PUSH20 0xFFFFFFFFFFFFFFFFFFFFFFFFFFFFFFFFFFFFFFFF AND MUL OR SWAP1 SSTORE POP PUSH1 0x40 DUP3 ADD MLOAD DUP2 PUSH1 0x2 ADD PUSH0 PUSH2 0x100 EXP DUP2 SLOAD DUP2 PUSH20 0xFFFFFFFFFFFFFFFFFFFFFFFFFFFFFFFFFFFFFFFF MUL NOT AND SWAP1 DUP4 PUSH20 0xFFFFFFFFFFFFFFFFFFFFFFFFFFFFFFFFFFFFFFFF AND MUL OR SWAP1 SSTORE POP PUSH1 0x60 DUP3 ADD MLOAD DUP2 PUSH1 0x3 ADD PUSH0 PUSH2 0x100 EXP DUP2 SLOAD DUP2 PUSH20 0xFFFFFFFFFFFFFFFFFFFFFFFFFFFFFFFFFFFFFFFF MUL NOT AND SWAP1 DUP4 PUSH20 0xFFFFFFFFFFFFFFFFFFFFFFFFFFFFFFFFFFFFFFFF AND MUL OR SWAP1 SSTORE POP PUSH1 0x80 DUP3 ADD MLOAD DUP2 PUSH1 0x4 ADD SSTORE PUSH1 0xA0 DUP3 ADD MLOAD DUP2 PUSH1 0x5 ADD PUSH0 PUSH2 0x100 EXP DUP2 SLOAD DUP2 PUSH20 0xFFFFFFFFFFFFFFFFFFFFFFFFFFFFFFFFFFFFFFFF MUL NOT AND SWAP1 DUP4 PUSH20 0xFFFFFFFFFFFFFFFFFFFFFFFFFFFFFFFFFFFFFFFF AND MUL OR SWAP1 SSTORE POP PUSH1 0xC0 DUP3 ADD MLOAD DUP2 PUSH1 0x6 ADD SSTORE POP POP POP POP POP POP POP POP JUMP JUMPDEST PUSH1 0x6 PUSH1 0x20 MSTORE DUP2 PUSH0 MSTORE PUSH1 0x40 PUSH0 KECCAK256 DUP2 DUP2 SLOAD DUP2 LT PUSH2 0x1B06 JUMPI PUSH0 DUP1 REVERT JUMPDEST SWAP1 PUSH0 MSTORE PUSH1 0x20 PUSH0 KECCAK256 SWAP1 PUSH1 0x7 MUL ADD PUSH0 SWAP2 POP SWAP2 POP POP DUP1 PUSH0 ADD SLOAD SWAP1 DUP1 PUSH1 0x1 ADD PUSH0 SWAP1 SLOAD SWAP1 PUSH2 0x100 EXP SWAP1 DIV PUSH20 0xFFFFFFFFFFFFFFFFFFFFFFFFFFFFFFFFFFFFFFFF AND SWAP1 DUP1 PUSH1 0x2 ADD PUSH0 SWAP1 SLOAD SWAP1 PUSH2 0x100 EXP SWAP1 DIV PUSH20 0xFFFFFFFFFFFFFFFFFFFFFFFFFFFFFFFFFFFFFFFF AND SWAP1 DUP1 PUSH1 0x3 ADD PUSH0 SWAP1 SLOAD SWAP1 PUSH2 0x100 EXP SWAP1 DIV PUSH20 0xFFFFFFFFFFFFFFFFFFFFFFFFFFFFFFFFFFFFFFFF AND SWAP1 DUP1 PUSH1 0x4 ADD SLOAD SWAP1 DUP1 PUSH1 0x5 ADD PUSH0 SWAP1 SLOAD SWAP1 PUSH2 0x100 EXP SWAP1 DIV PUSH20 0xFFFFFFFFFFFFFFFFFFFFFFFFFFFFFFFFFFFFFFFF AND SWAP1 DUP1 PUSH1 0x6 ADD SLOAD SWAP1 POP DUP8 JUMP JUMPDEST PUSH1 0x60 PUSH1 0x2 PUSH0 DUP4 PUSH20 0xFFFFFFFFFFFFFFFFFFFFFFFFFFFFFFFFFFFFFFFF AND PUSH20 0xFFFFFFFFFFFFFFFFFFFFFFFFFFFFFFFFFFFFFFFF AND DUP2 MSTORE PUSH1 0x20 ADD SWAP1 DUP2 MSTORE PUSH1 0x20 ADD PUSH0 KECCAK256 DUP1 SLOAD DUP1 PUSH1 0x20 MUL PUSH1 0x20 ADD PUSH1 0x40 MLOAD SWAP1 DUP2 ADD PUSH1 0x40 MSTORE DUP1 SWAP3 SWAP2 SWAP1 DUP2 DUP2 MSTORE PUSH1 0x20 ADD PUSH0 SWAP1 JUMPDEST DUP3 DUP3 LT ISZERO PUSH2 0x1DC0 JUMPI DUP4 DUP3 SWAP1 PUSH0 MSTORE PUSH1 0x20 PUSH0 KECCAK256 SWAP1 PUSH1 0x7 MUL ADD PUSH1 0x40 MLOAD DUP1 PUSH1 0xE0 ADD PUSH1 0x40 MSTORE SWAP1 DUP2 PUSH0 DUP3 ADD SLOAD DUP2 MSTORE PUSH1 0x20 ADD PUSH1 0x1 DUP3 ADD PUSH0 SWAP1 SLOAD SWAP1 PUSH2 0x100 EXP SWAP1 DIV PUSH20 0xFFFFFFFFFFFFFFFFFFFFFFFFFFFFFFFFFFFFFFFF AND PUSH20 0xFFFFFFFFFFFFFFFFFFFFFFFFFFFFFFFFFFFFFFFF AND PUSH20 0xFFFFFFFFFFFFFFFFFFFFFFFFFFFFFFFFFFFFFFFF AND DUP2 MSTORE PUSH1 0x20 ADD PUSH1 0x2 DUP3 ADD PUSH0 SWAP1 SLOAD SWAP1 PUSH2 0x100 EXP SWAP1 DIV PUSH20 0xFFFFFFFFFFFFFFFFFFFFFFFFFFFFFFFFFFFFFFFF AND PUSH20 0xFFFFFFFFFFFFFFFFFFFFFFFFFFFFFFFFFFFFFFFF AND PUSH20 0xFFFFFFFFFFFFFFFFFFFFFFFFFFFFFFFFFFFFFFFF AND DUP2 MSTORE PUSH1 0x20 ADD PUSH1 0x3 DUP3 ADD PUSH0 SWAP1 SLOAD SWAP1 PUSH2 0x100 EXP SWAP1 DIV PUSH20 0xFFFFFFFFFFFFFFFFFFFFFFFFFFFFFFFFFFFFFFFF AND PUSH20 0xFFFFFFFFFFFFFFFFFFFFFFFFFFFFFFFFFFFFFFFF AND PUSH20 0xFFFFFFFFFFFFFFFFFFFFFFFFFFFFFFFFFFFFFFFF AND DUP2 MSTORE PUSH1 0x20 ADD PUSH1 0x4 DUP3 ADD SLOAD DUP2 MSTORE PUSH1 0x20 ADD PUSH1 0x5 DUP3 ADD PUSH0 SWAP1 SLOAD SWAP1 PUSH2 0x100 EXP SWAP1 DIV PUSH20 0xFFFFFFFFFFFFFFFFFFFFFFFFFFFFFFFFFFFFFFFF AND PUSH20 0xFFFFFFFFFFFFFFFFFFFFFFFFFFFFFFFFFFFFFFFF AND PUSH20 0xFFFFFFFFFFFFFFFFFFFFFFFFFFFFFFFFFFFFFFFF AND DUP2 MSTORE PUSH1 0x20 ADD PUSH1 0x6 DUP3 ADD SLOAD DUP2 MSTORE POP POP DUP2 MSTORE PUSH1 0x20 ADD SWAP1 PUSH1 0x1 ADD SWAP1 PUSH2 0x1C1F JUMP JUMPDEST POP POP POP POP SWAP1 POP SWAP2 SWAP1 POP JUMP JUMPDEST PUSH0 PUSH1 0x7 PUSH0 CALLER PUSH20 0xFFFFFFFFFFFFFFFFFFFFFFFFFFFFFFFFFFFFFFFF AND PUSH20 0xFFFFFFFFFFFFFFFFFFFFFFFFFFFFFFFFFFFFFFFF AND DUP2 MSTORE PUSH1 0x20 ADD SWAP1 DUP2 MSTORE PUSH1 0x20 ADD PUSH0 KECCAK256 PUSH0 DUP4 PUSH20 0xFFFFFFFFFFFFFFFFFFFFFFFFFFFFFFFFFFFFFFFF AND PUSH20 0xFFFFFFFFFFFFFFFFFFFFFFFFFFFFFFFFFFFFFFFF AND DUP2 MSTORE PUSH1 0x20 ADD SWAP1 DUP2 MSTORE PUSH1 0x20 ADD PUSH0 KECCAK256 PUSH0 PUSH2 0x100 EXP DUP2 SLOAD DUP2 PUSH1 0xFF MUL NOT AND SWAP1 DUP4 ISZERO ISZERO MUL OR SWAP1 SSTORE POP POP JUMP JUMPDEST PUSH1 0x60 PUSH1 0x3 PUSH0 DUP4 PUSH20 0xFFFFFFFFFFFFFFFFFFFFFFFFFFFFFFFFFFFFFFFF AND PUSH20 0xFFFFFFFFFFFFFFFFFFFFFFFFFFFFFFFFFFFFFFFF AND DUP2 MSTORE PUSH1 0x20 ADD SWAP1 DUP2 MSTORE PUSH1 0x20 ADD PUSH0 KECCAK256 DUP1 SLOAD DUP1 PUSH1 0x20 MUL PUSH1 0x20 ADD PUSH1 0x40 MLOAD SWAP1 DUP2 ADD PUSH1 0x40 MSTORE DUP1 SWAP3 SWAP2 SWAP1 DUP2 DUP2 MSTORE PUSH1 0x20 ADD PUSH0 SWAP1 JUMPDEST DUP3 DUP3 LT ISZERO PUSH2 0x205C JUMPI DUP4 DUP3 SWAP1 PUSH0 MSTORE PUSH1 0x20 PUSH0 KECCAK256 SWAP1 PUSH1 0x7 MUL ADD PUSH1 0x40 MLOAD DUP1 PUSH1 0xE0 ADD PUSH1 0x40 MSTORE SWAP1 DUP2 PUSH0 DUP3 ADD SLOAD DUP2 MSTORE PUSH1 0x20 ADD PUSH1 0x1 DUP3 ADD PUSH0 SWAP1 SLOAD SWAP1 PUSH2 0x100 EXP SWAP1 DIV PUSH20 0xFFFFFFFFFFFFFFFFFFFFFFFFFFFFFFFFFFFFFFFF AND PUSH20 0xFFFFFFFFFFFFFFFFFFFFFFFFFFFFFFFFFFFFFFFF AND PUSH20 0xFFFFFFFFFFFFFFFFFFFFFFFFFFFFFFFFFFFFFFFF AND DUP2 MSTORE PUSH1 0x20 ADD PUSH1 0x2 DUP3 ADD PUSH0 SWAP1 SLOAD SWAP1 PUSH2 0x100 EXP SWAP1 DIV PUSH20 0xFFFFFFFFFFFFFFFFFFFFFFFFFFFFFFFFFFFFFFFF AND PUSH20 0xFFFFFFFFFFFFFFFFFFFFFFFFFFFFFFFFFFFFFFFF AND PUSH20 0xFFFFFFFFFFFFFFFFFFFFFFFFFFFFFFFFFFFFFFFF AND DUP2 MSTORE PUSH1 0x20 ADD PUSH1 0x3 DUP3 ADD PUSH0 SWAP1 SLOAD SWAP1 PUSH2 0x100 EXP SWAP1 DIV PUSH20 0xFFFFFFFFFFFFFFFFFFFFFFFFFFFFFFFFFFFFFFFF AND PUSH20 0xFFFFFFFFFFFFFFFFFFFFFFFFFFFFFFFFFFFFFFFF AND PUSH20 0xFFFFFFFFFFFFFFFFFFFFFFFFFFFFFFFFFFFFFFFF AND DUP2 MSTORE PUSH1 0x20 ADD PUSH1 0x4 DUP3 ADD SLOAD DUP2 MSTORE PUSH1 0x20 ADD PUSH1 0x5 DUP3 ADD PUSH0 SWAP1 SLOAD SWAP1 PUSH2 0x100 EXP SWAP1 DIV PUSH20 0xFFFFFFFFFFFFFFFFFFFFFFFFFFFFFFFFFFFFFFFF AND PUSH20 0xFFFFFFFFFFFFFFFFFFFFFFFFFFFFFFFFFFFFFFFF AND PUSH20 0xFFFFFFFFFFFFFFFFFFFFFFFFFFFFFFFFFFFFFFFF AND DUP2 MSTORE PUSH1 0x20 ADD PUSH1 0x6 DUP3 ADD SLOAD DUP2 MSTORE POP POP DUP2 MSTORE PUSH1 0x20 ADD SWAP1 PUSH1 0x1 ADD SWAP1 PUSH2 0x1EBB JUMP JUMPDEST POP POP POP POP SWAP1 POP SWAP2 SWAP1 POP JUMP JUMPDEST PUSH1 0x1 PUSH1 0x20 MSTORE DUP2 PUSH0 MSTORE PUSH1 0x40 PUSH0 KECCAK256 PUSH1 0x20 MSTORE DUP1 PUSH0 MSTORE PUSH1 0x40 PUSH0 KECCAK256 PUSH0 SWAP2 POP SWAP2 POP POP DUP1 PUSH0 ADD SLOAD SWAP1 DUP1 PUSH1 0x1 ADD PUSH0 SWAP1 SLOAD SWAP1 PUSH2 0x100 EXP SWAP1 DIV PUSH20 0xFFFFFFFFFFFFFFFFFFFFFFFFFFFFFFFFFFFFFFFF AND SWAP1 DUP1 PUSH1 0x2 ADD PUSH0 SWAP1 SLOAD SWAP1 PUSH2 0x100 EXP SWAP1 DIV PUSH20 0xFFFFFFFFFFFFFFFFFFFFFFFFFFFFFFFFFFFFFFFF AND SWAP1 DUP1 PUSH1 0x3 ADD PUSH0 SWAP1 SLOAD SWAP1 PUSH2 0x100 EXP SWAP1 DIV PUSH20 0xFFFFFFFFFFFFFFFFFFFFFFFFFFFFFFFFFFFFFFFF AND SWAP1 DUP1 PUSH1 0x4 ADD SLOAD SWAP1 DUP1 PUSH1 0x5 ADD PUSH0 SWAP1 SLOAD SWAP1 PUSH2 0x100 EXP SWAP1 DIV PUSH20 0xFFFFFFFFFFFFFFFFFFFFFFFFFFFFFFFFFFFFFFFF AND SWAP1 DUP1 PUSH1 0x6 ADD SLOAD SWAP1 POP DUP8 JUMP JUMPDEST PUSH0 PUSH1 0x1 PUSH0 CALLER PUSH20 0xFFFFFFFFFFFFFFFFFFFFFFFFFFFFFFFFFFFFFFFF AND PUSH20 0xFFFFFFFFFFFFFFFFFFFFFFFFFFFFFFFFFFFFFFFF AND DUP2 MSTORE PUSH1 0x20 ADD SWAP1 DUP2 MSTORE PUSH1 0x20 ADD PUSH0 KECCAK256 PUSH0 DUP4 DUP2 MSTORE PUSH1 0x20 ADD SWAP1 DUP2 MSTORE PUSH1 0x20 ADD PUSH0 KECCAK256 PUSH1 0x40 MLOAD DUP1 PUSH1 0xE0 ADD PUSH1 0x40 MSTORE SWAP1 DUP2 PUSH0 DUP3 ADD SLOAD DUP2 MSTORE PUSH1 0x20 ADD PUSH1 0x1 DUP3 ADD PUSH0 SWAP1 SLOAD SWAP1 PUSH2 0x100 EXP SWAP1 DIV PUSH20 0xFFFFFFFFFFFFFFFFFFFFFFFFFFFFFFFFFFFFFFFF AND PUSH20 0xFFFFFFFFFFFFFFFFFFFFFFFFFFFFFFFFFFFFFFFF AND PUSH20 0xFFFFFFFFFFFFFFFFFFFFFFFFFFFFFFFFFFFFFFFF AND DUP2 MSTORE PUSH1 0x20 ADD PUSH1 0x2 DUP3 ADD PUSH0 SWAP1 SLOAD SWAP1 PUSH2 0x100 EXP SWAP1 DIV PUSH20 0xFFFFFFFFFFFFFFFFFFFFFFFFFFFFFFFFFFFFFFFF AND PUSH20 0xFFFFFFFFFFFFFFFFFFFFFFFFFFFFFFFFFFFFFFFF AND PUSH20 0xFFFFFFFFFFFFFFFFFFFFFFFFFFFFFFFFFFFFFFFF AND DUP2 MSTORE PUSH1 0x20 ADD PUSH1 0x3 DUP3 ADD PUSH0 SWAP1 SLOAD SWAP1 PUSH2 0x100 EXP SWAP1 DIV PUSH20 0xFFFFFFFFFFFFFFFFFFFFFFFFFFFFFFFFFFFFFFFF AND PUSH20 0xFFFFFFFFFFFFFFFFFFFFFFFFFFFFFFFFFFFFFFFF AND PUSH20 0xFFFFFFFFFFFFFFFFFFFFFFFFFFFFFFFFFFFFFFFF AND DUP2 MSTORE PUSH1 0x20 ADD PUSH1 0x4 DUP3 ADD SLOAD DUP2 MSTORE PUSH1 0x20 ADD PUSH1 0x5 DUP3 ADD PUSH0 SWAP1 SLOAD SWAP1 PUSH2 0x100 EXP SWAP1 DIV PUSH20 0xFFFFFFFFFFFFFFFFFFFFFFFFFFFFFFFFFFFFFFFF AND PUSH20 0xFFFFFFFFFFFFFFFFFFFFFFFFFFFFFFFFFFFFFFFF AND PUSH20 0xFFFFFFFFFFFFFFFFFFFFFFFFFFFFFFFFFFFFFFFF AND DUP2 MSTORE PUSH1 0x20 ADD PUSH1 0x6 DUP3 ADD SLOAD DUP2 MSTORE POP POP SWAP1 POP PUSH2 0x2300 DUP2 PUSH2 0x467D JUMP JUMPDEST ISZERO PUSH2 0x2337 JUMPI PUSH1 0x40 MLOAD PUSH32 0x41CC6B2100000000000000000000000000000000000000000000000000000000 DUP2 MSTORE PUSH1 0x4 ADD PUSH1 0x40 MLOAD DUP1 SWAP2 SUB SWAP1 REVERT JUMPDEST CALLER PUSH20 0xFFFFFFFFFFFFFFFFFFFFFFFFFFFFFFFFFFFFFFFF AND DUP2 PUSH1 0x40 ADD MLOAD PUSH20 0xFFFFFFFFFFFFFFFFFFFFFFFFFFFFFFFFFFFFFFFF AND EQ PUSH2 0x23AB JUMPI CALLER PUSH1 0x40 MLOAD PUSH32 0xCE1F365A00000000000000000000000000000000000000000000000000000000 DUP2 MSTORE PUSH1 0x4 ADD PUSH2 0x23A2 SWAP2 SWAP1 PUSH2 0x51AE JUMP JUMPDEST PUSH1 0x40 MLOAD DUP1 SWAP2 SUB SWAP1 REVERT JUMPDEST PUSH0 DUP2 PUSH1 0x20 ADD MLOAD SWAP1 POP PUSH0 DUP3 PUSH1 0x40 ADD MLOAD SWAP1 POP PUSH0 DUP4 PUSH1 0xA0 ADD MLOAD SWAP1 POP PUSH0 DUP5 PUSH1 0x60 ADD MLOAD SWAP1 POP CALLER PUSH20 0xFFFFFFFFFFFFFFFFFFFFFFFFFFFFFFFFFFFFFFFF AND DUP3 PUSH20 0xFFFFFFFFFFFFFFFFFFFFFFFFFFFFFFFFFFFFFFFF AND PUSH4 0x6352211E DUP8 PUSH1 0xC0 ADD MLOAD PUSH1 0x40 MLOAD DUP3 PUSH4 0xFFFFFFFF AND PUSH1 0xE0 SHL DUP2 MSTORE PUSH1 0x4 ADD PUSH2 0x241F SWAP2 SWAP1 PUSH2 0x51FC JUMP JUMPDEST PUSH1 0x20 PUSH1 0x40 MLOAD DUP1 DUP4 SUB DUP2 DUP7 GAS STATICCALL ISZERO DUP1 ISZERO PUSH2 0x243A JUMPI RETURNDATASIZE PUSH0 DUP1 RETURNDATACOPY RETURNDATASIZE PUSH0 REVERT JUMPDEST POP POP POP POP PUSH1 0x40 MLOAD RETURNDATASIZE PUSH1 0x1F NOT PUSH1 0x1F DUP3 ADD AND DUP3 ADD DUP1 PUSH1 0x40 MSTORE POP DUP2 ADD SWAP1 PUSH2 0x245E SWAP2 SWAP1 PUSH2 0x5229 JUMP JUMPDEST PUSH20 0xFFFFFFFFFFFFFFFFFFFFFFFFFFFFFFFFFFFFFFFF AND EQ PUSH2 0x27BB JUMPI PUSH2 0x2482 DUP7 PUSH2 0x473 JUMP JUMPDEST PUSH1 0x6 PUSH0 DUP6 PUSH20 0xFFFFFFFFFFFFFFFFFFFFFFFFFFFFFFFFFFFFFFFF AND PUSH20 0xFFFFFFFFFFFFFFFFFFFFFFFFFFFFFFFFFFFFFFFF AND DUP2 MSTORE PUSH1 0x20 ADD SWAP1 DUP2 MSTORE PUSH1 0x20 ADD PUSH0 KECCAK256 DUP6 SWAP1 DUP1 PUSH1 0x1 DUP2 SLOAD ADD DUP1 DUP3 SSTORE DUP1 SWAP2 POP POP PUSH1 0x1 SWAP1 SUB SWAP1 PUSH0 MSTORE PUSH1 0x20 PUSH0 KECCAK256 SWAP1 PUSH1 0x7 MUL ADD PUSH0 SWAP1 SWAP2 SWAP1 SWAP2 SWAP1 SWAP2 POP PUSH0 DUP3 ADD MLOAD DUP2 PUSH0 ADD SSTORE PUSH1 0x20 DUP3 ADD MLOAD DUP2 PUSH1 0x1 ADD PUSH0 PUSH2 0x100 EXP DUP2 SLOAD DUP2 PUSH20 0xFFFFFFFFFFFFFFFFFFFFFFFFFFFFFFFFFFFFFFFF MUL NOT AND SWAP1 DUP4 PUSH20 0xFFFFFFFFFFFFFFFFFFFFFFFFFFFFFFFFFFFFFFFF AND MUL OR SWAP1 SSTORE POP PUSH1 0x40 DUP3 ADD MLOAD DUP2 PUSH1 0x2 ADD PUSH0 PUSH2 0x100 EXP DUP2 SLOAD DUP2 PUSH20 0xFFFFFFFFFFFFFFFFFFFFFFFFFFFFFFFFFFFFFFFF MUL NOT AND SWAP1 DUP4 PUSH20 0xFFFFFFFFFFFFFFFFFFFFFFFFFFFFFFFFFFFFFFFF AND MUL OR SWAP1 SSTORE POP PUSH1 0x60 DUP3 ADD MLOAD DUP2 PUSH1 0x3 ADD PUSH0 PUSH2 0x100 EXP DUP2 SLOAD DUP2 PUSH20 0xFFFFFFFFFFFFFFFFFFFFFFFFFFFFFFFFFFFFFFFF MUL NOT AND SWAP1 DUP4 PUSH20 0xFFFFFFFFFFFFFFFFFFFFFFFFFFFFFFFFFFFFFFFF AND MUL OR SWAP1 SSTORE POP PUSH1 0x80 DUP3 ADD MLOAD DUP2 PUSH1 0x4 ADD SSTORE PUSH1 0xA0 DUP3 ADD MLOAD DUP2 PUSH1 0x5 ADD PUSH0 PUSH2 0x100 EXP DUP2 SLOAD DUP2 PUSH20 0xFFFFFFFFFFFFFFFFFFFFFFFFFFFFFFFFFFFFFFFF MUL NOT AND SWAP1 DUP4 PUSH20 0xFFFFFFFFFFFFFFFFFFFFFFFFFFFFFFFFFFFFFFFF AND MUL OR SWAP1 SSTORE POP PUSH1 0xC0 DUP3 ADD MLOAD DUP2 PUSH1 0x6 ADD SSTORE POP POP PUSH1 0x6 PUSH0 DUP5 PUSH20 0xFFFFFFFFFFFFFFFFFFFFFFFFFFFFFFFFFFFFFFFF AND PUSH20 0xFFFFFFFFFFFFFFFFFFFFFFFFFFFFFFFFFFFFFFFF AND DUP2 MSTORE PUSH1 0x20 ADD SWAP1 DUP2 MSTORE PUSH1 0x20 ADD PUSH0 KECCAK256 DUP6 SWAP1 DUP1 PUSH1 0x1 DUP2 SLOAD ADD DUP1 DUP3 SSTORE DUP1 SWAP2 POP POP PUSH1 0x1 SWAP1 SUB SWAP1 PUSH0 MSTORE PUSH1 0x20 PUSH0 KECCAK256 SWAP1 PUSH1 0x7 MUL ADD PUSH0 SWAP1 SWAP2 SWAP1 SWAP2 SWAP1 SWAP2 POP PUSH0 DUP3 ADD MLOAD DUP2 PUSH0 ADD SSTORE PUSH1 0x20 DUP3 ADD MLOAD DUP2 PUSH1 0x1 ADD PUSH0 PUSH2 0x100 EXP DUP2 SLOAD DUP2 PUSH20 0xFFFFFFFFFFFFFFFFFFFFFFFFFFFFFFFFFFFFFFFF MUL NOT AND SWAP1 DUP4 PUSH20 0xFFFFFFFFFFFFFFFFFFFFFFFFFFFFFFFFFFFFFFFF AND MUL OR SWAP1 SSTORE POP PUSH1 0x40 DUP3 ADD MLOAD DUP2 PUSH1 0x2 ADD PUSH0 PUSH2 0x100 EXP DUP2 SLOAD DUP2 PUSH20 0xFFFFFFFFFFFFFFFFFFFFFFFFFFFFFFFFFFFFFFFF MUL NOT AND SWAP1 DUP4 PUSH20 0xFFFFFFFFFFFFFFFFFFFFFFFFFFFFFFFFFFFFFFFF AND MUL OR SWAP1 SSTORE POP PUSH1 0x60 DUP3 ADD MLOAD DUP2 PUSH1 0x3 ADD PUSH0 PUSH2 0x100 EXP DUP2 SLOAD DUP2 PUSH20 0xFFFFFFFFFFFFFFFFFFFFFFFFFFFFFFFFFFFFFFFF MUL NOT AND SWAP1 DUP4 PUSH20 0xFFFFFFFFFFFFFFFFFFFFFFFFFFFFFFFFFFFFFFFF AND MUL OR SWAP1 SSTORE POP PUSH1 0x80 DUP3 ADD MLOAD DUP2 PUSH1 0x4 ADD SSTORE PUSH1 0xA0 DUP3 ADD MLOAD DUP2 PUSH1 0x5 ADD PUSH0 PUSH2 0x100 EXP DUP2 SLOAD DUP2 PUSH20 0xFFFFFFFFFFFFFFFFFFFFFFFFFFFFFFFFFFFFFFFF MUL NOT AND SWAP1 DUP4 PUSH20 0xFFFFFFFFFFFFFFFFFFFFFFFFFFFFFFFFFFFFFFFF AND MUL OR SWAP1 SSTORE POP PUSH1 0xC0 DUP3 ADD MLOAD DUP2 PUSH1 0x6 ADD SSTORE POP POP PUSH2 0x31E8 JUMP JUMPDEST DUP2 PUSH20 0xFFFFFFFFFFFFFFFFFFFFFFFFFFFFFFFFFFFFFFFF AND PUSH4 0x42842E0E CALLER ADDRESS DUP9 PUSH1 0xC0 ADD MLOAD PUSH1 0x40 MLOAD DUP5 PUSH4 0xFFFFFFFF AND PUSH1 0xE0 SHL DUP2 MSTORE PUSH1 0x4 ADD PUSH2 0x27FC SWAP4 SWAP3 SWAP2 SWAP1 PUSH2 0x51C7 JUMP JUMPDEST PUSH0 PUSH1 0x40 MLOAD DUP1 DUP4 SUB DUP2 PUSH0 DUP8 DUP1 EXTCODESIZE ISZERO DUP1 ISZERO PUSH2 0x2813 JUMPI PUSH0 DUP1 REVERT JUMPDEST POP GAS CALL ISZERO DUP1 ISZERO PUSH2 0x2825 JUMPI RETURNDATASIZE PUSH0 DUP1 RETURNDATACOPY RETURNDATASIZE PUSH0 REVERT JUMPDEST POP POP POP POP DUP1 PUSH20 0xFFFFFFFFFFFFFFFFFFFFFFFFFFFFFFFFFFFFFFFF AND PUSH4 0x42842E0E ADDRESS DUP6 DUP9 PUSH1 0x80 ADD MLOAD PUSH1 0x40 MLOAD DUP5 PUSH4 0xFFFFFFFF AND PUSH1 0xE0 SHL DUP2 MSTORE PUSH1 0x4 ADD PUSH2 0x286A SWAP4 SWAP3 SWAP2 SWAP1 PUSH2 0x51C7 JUMP JUMPDEST PUSH0 PUSH1 0x40 MLOAD DUP1 DUP4 SUB DUP2 PUSH0 DUP8 DUP1 EXTCODESIZE ISZERO DUP1 ISZERO PUSH2 0x2881 JUMPI PUSH0 DUP1 REVERT JUMPDEST POP GAS CALL ISZERO DUP1 ISZERO PUSH2 0x2893 JUMPI RETURNDATASIZE PUSH0 DUP1 RETURNDATACOPY RETURNDATASIZE PUSH0 REVERT JUMPDEST POP POP POP POP DUP2 PUSH20 0xFFFFFFFFFFFFFFFFFFFFFFFFFFFFFFFFFFFFFFFF AND PUSH4 0x42842E0E ADDRESS DUP7 DUP9 PUSH1 0xC0 ADD MLOAD PUSH1 0x40 MLOAD DUP5 PUSH4 0xFFFFFFFF AND PUSH1 0xE0 SHL DUP2 MSTORE PUSH1 0x4 ADD PUSH2 0x28D8 SWAP4 SWAP3 SWAP2 SWAP1 PUSH2 0x51C7 JUMP JUMPDEST PUSH0 PUSH1 0x40 MLOAD DUP1 DUP4 SUB DUP2 PUSH0 DUP8 DUP1 EXTCODESIZE ISZERO DUP1 ISZERO PUSH2 0x28EF JUMPI PUSH0 DUP1 REVERT JUMPDEST POP GAS CALL ISZERO DUP1 ISZERO PUSH2 0x2901 JUMPI RETURNDATASIZE PUSH0 DUP1 RETURNDATACOPY RETURNDATASIZE PUSH0 REVERT JUMPDEST POP POP POP POP PUSH1 0x1 PUSH0 DUP5 PUSH20 0xFFFFFFFFFFFFFFFFFFFFFFFFFFFFFFFFFFFFFFFF AND PUSH20 0xFFFFFFFFFFFFFFFFFFFFFFFFFFFFFFFFFFFFFFFF AND DUP2 MSTORE PUSH1 0x20 ADD SWAP1 DUP2 MSTORE PUSH1 0x20 ADD PUSH0 KECCAK256 PUSH0 DUP8 DUP2 MSTORE PUSH1 0x20 ADD SWAP1 DUP2 MSTORE PUSH1 0x20 ADD PUSH0 KECCAK256 PUSH0 DUP1 DUP3 ADD PUSH0 SWAP1 SSTORE PUSH1 0x1 DUP3 ADD PUSH0 PUSH2 0x100 EXP DUP2 SLOAD SWAP1 PUSH20 0xFFFFFFFFFFFFFFFFFFFFFFFFFFFFFFFFFFFFFFFF MUL NOT AND SWAP1 SSTORE PUSH1 0x2 DUP3 ADD PUSH0 PUSH2 0x100 EXP DUP2 SLOAD SWAP1 PUSH20 0xFFFFFFFFFFFFFFFFFFFFFFFFFFFFFFFFFFFFFFFF MUL NOT AND SWAP1 SSTORE PUSH1 0x3 DUP3 ADD PUSH0 PUSH2 0x100 EXP DUP2 SLOAD SWAP1 PUSH20 0xFFFFFFFFFFFFFFFFFFFFFFFFFFFFFFFFFFFFFFFF MUL NOT AND SWAP1 SSTORE PUSH1 0x4 DUP3 ADD PUSH0 SWAP1 SSTORE PUSH1 0x5 DUP3 ADD PUSH0 PUSH2 0x100 EXP DUP2 SLOAD SWAP1 PUSH20 0xFFFFFFFFFFFFFFFFFFFFFFFFFFFFFFFFFFFFFFFF MUL NOT AND SWAP1 SSTORE PUSH1 0x6 DUP3 ADD PUSH0 SWAP1 SSTORE POP POP PUSH0 PUSH1 0x2 PUSH0 DUP6 PUSH20 0xFFFFFFFFFFFFFFFFFFFFFFFFFFFFFFFFFFFFFFFF AND PUSH20 0xFFFFFFFFFFFFFFFFFFFFFFFFFFFFFFFFFFFFFFFF AND DUP2 MSTORE PUSH1 0x20 ADD SWAP1 DUP2 MSTORE PUSH1 0x20 ADD PUSH0 KECCAK256 DUP1 SLOAD DUP1 PUSH1 0x20 MUL PUSH1 0x20 ADD PUSH1 0x40 MLOAD SWAP1 DUP2 ADD PUSH1 0x40 MSTORE DUP1 SWAP3 SWAP2 SWAP1 DUP2 DUP2 MSTORE PUSH1 0x20 ADD PUSH0 SWAP1 JUMPDEST DUP3 DUP3 LT ISZERO PUSH2 0x2BFE JUMPI DUP4 DUP3 SWAP1 PUSH0 MSTORE PUSH1 0x20 PUSH0 KECCAK256 SWAP1 PUSH1 0x7 MUL ADD PUSH1 0x40 MLOAD DUP1 PUSH1 0xE0 ADD PUSH1 0x40 MSTORE SWAP1 DUP2 PUSH0 DUP3 ADD SLOAD DUP2 MSTORE PUSH1 0x20 ADD PUSH1 0x1 DUP3 ADD PUSH0 SWAP1 SLOAD SWAP1 PUSH2 0x100 EXP SWAP1 DIV PUSH20 0xFFFFFFFFFFFFFFFFFFFFFFFFFFFFFFFFFFFFFFFF AND PUSH20 0xFFFFFFFFFFFFFFFFFFFFFFFFFFFFFFFFFFFFFFFF AND PUSH20 0xFFFFFFFFFFFFFFFFFFFFFFFFFFFFFFFFFFFFFFFF AND DUP2 MSTORE PUSH1 0x20 ADD PUSH1 0x2 DUP3 ADD PUSH0 SWAP1 SLOAD SWAP1 PUSH2 0x100 EXP SWAP1 DIV PUSH20 0xFFFFFFFFFFFFFFFFFFFFFFFFFFFFFFFFFFFFFFFF AND PUSH20 0xFFFFFFFFFFFFFFFFFFFFFFFFFFFFFFFFFFFFFFFF AND PUSH20 0xFFFFFFFFFFFFFFFFFFFFFFFFFFFFFFFFFFFFFFFF AND DUP2 MSTORE PUSH1 0x20 ADD PUSH1 0x3 DUP3 ADD PUSH0 SWAP1 SLOAD SWAP1 PUSH2 0x100 EXP SWAP1 DIV PUSH20 0xFFFFFFFFFFFFFFFFFFFFFFFFFFFFFFFFFFFFFFFF AND PUSH20 0xFFFFFFFFFFFFFFFFFFFFFFFFFFFFFFFFFFFFFFFF AND PUSH20 0xFFFFFFFFFFFFFFFFFFFFFFFFFFFFFFFFFFFFFFFF AND DUP2 MSTORE PUSH1 0x20 ADD PUSH1 0x4 DUP3 ADD SLOAD DUP2 MSTORE PUSH1 0x20 ADD PUSH1 0x5 DUP3 ADD PUSH0 SWAP1 SLOAD SWAP1 PUSH2 0x100 EXP SWAP1 DIV PUSH20 0xFFFFFFFFFFFFFFFFFFFFFFFFFFFFFFFFFFFFFFFF AND PUSH20 0xFFFFFFFFFFFFFFFFFFFFFFFFFFFFFFFFFFFFFFFF AND PUSH20 0xFFFFFFFFFFFFFFFFFFFFFFFFFFFFFFFFFFFFFFFF AND DUP2 MSTORE PUSH1 0x20 ADD PUSH1 0x6 DUP3 ADD SLOAD DUP2 MSTORE POP POP DUP2 MSTORE PUSH1 0x20 ADD SWAP1 PUSH1 0x1 ADD SWAP1 PUSH2 0x2A5D JUMP JUMPDEST POP POP POP POP SWAP1 POP PUSH0 PUSH1 0x3 PUSH0 DUP8 PUSH20 0xFFFFFFFFFFFFFFFFFFFFFFFFFFFFFFFFFFFFFFFF AND PUSH20 0xFFFFFFFFFFFFFFFFFFFFFFFFFFFFFFFFFFFFFFFF AND DUP2 MSTORE PUSH1 0x20 ADD SWAP1 DUP2 MSTORE PUSH1 0x20 ADD PUSH0 KECCAK256 DUP1 SLOAD DUP1 PUSH1 0x20 MUL PUSH1 0x20 ADD PUSH1 0x40 MLOAD SWAP1 DUP2 ADD PUSH1 0x40 MSTORE DUP1 SWAP3 SWAP2 SWAP1 DUP2 DUP2 MSTORE PUSH1 0x20 ADD PUSH0 SWAP1 JUMPDEST DUP3 DUP3 LT ISZERO PUSH2 0x2E02 JUMPI DUP4 DUP3 SWAP1 PUSH0 MSTORE PUSH1 0x20 PUSH0 KECCAK256 SWAP1 PUSH1 0x7 MUL ADD PUSH1 0x40 MLOAD DUP1 PUSH1 0xE0 ADD PUSH1 0x40 MSTORE SWAP1 DUP2 PUSH0 DUP3 ADD SLOAD DUP2 MSTORE PUSH1 0x20 ADD PUSH1 0x1 DUP3 ADD PUSH0 SWAP1 SLOAD SWAP1 PUSH2 0x100 EXP SWAP1 DIV PUSH20 0xFFFFFFFFFFFFFFFFFFFFFFFFFFFFFFFFFFFFFFFF AND PUSH20 0xFFFFFFFFFFFFFFFFFFFFFFFFFFFFFFFFFFFFFFFF AND PUSH20 0xFFFFFFFFFFFFFFFFFFFFFFFFFFFFFFFFFFFFFFFF AND DUP2 MSTORE PUSH1 0x20 ADD PUSH1 0x2 DUP3 ADD PUSH0 SWAP1 SLOAD SWAP1 PUSH2 0x100 EXP SWAP1 DIV PUSH20 0xFFFFFFFFFFFFFFFFFFFFFFFFFFFFFFFFFFFFFFFF AND PUSH20 0xFFFFFFFFFFFFFFFFFFFFFFFFFFFFFFFFFFFFFFFF AND PUSH20 0xFFFFFFFFFFFFFFFFFFFFFFFFFFFFFFFFFFFFFFFF AND DUP2 MSTORE PUSH1 0x20 ADD PUSH1 0x3 DUP3 ADD PUSH0 SWAP1 SLOAD SWAP1 PUSH2 0x100 EXP SWAP1 DIV PUSH20 0xFFFFFFFFFFFFFFFFFFFFFFFFFFFFFFFFFFFFFFFF AND PUSH20 0xFFFFFFFFFFFFFFFFFFFFFFFFFFFFFFFFFFFFFFFF AND PUSH20 0xFFFFFFFFFFFFFFFFFFFFFFFFFFFFFFFFFFFFFFFF AND DUP2 MSTORE PUSH1 0x20 ADD PUSH1 0x4 DUP3 ADD SLOAD DUP2 MSTORE PUSH1 0x20 ADD PUSH1 0x5 DUP3 ADD PUSH0 SWAP1 SLOAD SWAP1 PUSH2 0x100 EXP SWAP1 DIV PUSH20 0xFFFFFFFFFFFFFFFFFFFFFFFFFFFFFFFFFFFFFFFF AND PUSH20 0xFFFFFFFFFFFFFFFFFFFFFFFFFFFFFFFFFFFFFFFF AND PUSH20 0xFFFFFFFFFFFFFFFFFFFFFFFFFFFFFFFFFFFFFFFF AND DUP2 MSTORE PUSH1 0x20 ADD PUSH1 0x6 DUP3 ADD SLOAD DUP2 MSTORE POP POP DUP2 MSTORE PUSH1 0x20 ADD SWAP1 PUSH1 0x1 ADD SWAP1 PUSH2 0x2C61 JUMP JUMPDEST POP POP POP POP SWAP1 POP PUSH1 0x2 PUSH0 DUP7 PUSH20 0xFFFFFFFFFFFFFFFFFFFFFFFFFFFFFFFFFFFFFFFF AND PUSH20 0xFFFFFFFFFFFFFFFFFFFFFFFFFFFFFFFFFFFFFFFF AND DUP2 MSTORE PUSH1 0x20 ADD SWAP1 DUP2 MSTORE PUSH1 0x20 ADD PUSH0 KECCAK256 PUSH0 PUSH2 0x2E50 SWAP2 SWAP1 PUSH2 0x4B20 JUMP JUMPDEST PUSH2 0x2E5D PUSH1 0x1 DUP7 DUP5 DUP12 PUSH2 0x46E7 JUMP JUMPDEST PUSH1 0x4 PUSH0 DUP7 PUSH20 0xFFFFFFFFFFFFFFFFFFFFFFFFFFFFFFFFFFFFFFFF AND PUSH20 0xFFFFFFFFFFFFFFFFFFFFFFFFFFFFFFFFFFFFFFFF AND DUP2 MSTORE PUSH1 0x20 ADD SWAP1 DUP2 MSTORE PUSH1 0x20 ADD PUSH0 KECCAK256 DUP8 SWAP1 DUP1 PUSH1 0x1 DUP2 SLOAD ADD DUP1 DUP3 SSTORE DUP1 SWAP2 POP POP PUSH1 0x1 SWAP1 SUB SWAP1 PUSH0 MSTORE PUSH1 0x20 PUSH0 KECCAK256 SWAP1 PUSH1 0x7 MUL ADD PUSH0 SWAP1 SWAP2 SWAP1 SWAP2 SWAP1 SWAP2 POP PUSH0 DUP3 ADD MLOAD DUP2 PUSH0 ADD SSTORE PUSH1 0x20 DUP3 ADD MLOAD DUP2 PUSH1 0x1 ADD PUSH0 PUSH2 0x100 EXP DUP2 SLOAD DUP2 PUSH20 0xFFFFFFFFFFFFFFFFFFFFFFFFFFFFFFFFFFFFFFFF MUL NOT AND SWAP1 DUP4 PUSH20 0xFFFFFFFFFFFFFFFFFFFFFFFFFFFFFFFFFFFFFFFF AND MUL OR SWAP1 SSTORE POP PUSH1 0x40 DUP3 ADD MLOAD DUP2 PUSH1 0x2 ADD PUSH0 PUSH2 0x100 EXP DUP2 SLOAD DUP2 PUSH20 0xFFFFFFFFFFFFFFFFFFFFFFFFFFFFFFFFFFFFFFFF MUL NOT AND SWAP1 DUP4 PUSH20 0xFFFFFFFFFFFFFFFFFFFFFFFFFFFFFFFFFFFFFFFF AND MUL OR SWAP1 SSTORE POP PUSH1 0x60 DUP3 ADD MLOAD DUP2 PUSH1 0x3 ADD PUSH0 PUSH2 0x100 EXP DUP2 SLOAD DUP2 PUSH20 0xFFFFFFFFFFFFFFFFFFFFFFFFFFFFFFFFFFFFFFFF MUL NOT AND SWAP1 DUP4 PUSH20 0xFFFFFFFFFFFFFFFFFFFFFFFFFFFFFFFFFFFFFFFF AND MUL OR SWAP1 SSTORE POP PUSH1 0x80 DUP3 ADD MLOAD DUP2 PUSH1 0x4 ADD SSTORE PUSH1 0xA0 DUP3 ADD MLOAD DUP2 PUSH1 0x5 ADD PUSH0 PUSH2 0x100 EXP DUP2 SLOAD DUP2 PUSH20 0xFFFFFFFFFFFFFFFFFFFFFFFFFFFFFFFFFFFFFFFF MUL NOT AND SWAP1 DUP4 PUSH20 0xFFFFFFFFFFFFFFFFFFFFFFFFFFFFFFFFFFFFFFFF AND MUL OR SWAP1 SSTORE POP PUSH1 0xC0 DUP3 ADD MLOAD DUP2 PUSH1 0x6 ADD SSTORE POP POP PUSH1 0x3 PUSH0 DUP8 PUSH20 0xFFFFFFFFFFFFFFFFFFFFFFFFFFFFFFFFFFFFFFFF AND PUSH20 0xFFFFFFFFFFFFFFFFFFFFFFFFFFFFFFFFFFFFFFFF AND DUP2 MSTORE PUSH1 0x20 ADD SWAP1 DUP2 MSTORE PUSH1 0x20 ADD PUSH0 KECCAK256 PUSH0 PUSH2 0x303F SWAP2 SWAP1 PUSH2 0x4B20 JUMP JUMPDEST PUSH2 0x304B PUSH0 DUP8 DUP4 DUP12 PUSH2 0x46E7 JUMP JUMPDEST PUSH1 0x4 PUSH0 DUP8 PUSH20 0xFFFFFFFFFFFFFFFFFFFFFFFFFFFFFFFFFFFFFFFF AND PUSH20 0xFFFFFFFFFFFFFFFFFFFFFFFFFFFFFFFFFFFFFFFF AND DUP2 MSTORE PUSH1 0x20 ADD SWAP1 DUP2 MSTORE PUSH1 0x20 ADD PUSH0 KECCAK256 DUP8 SWAP1 DUP1 PUSH1 0x1 DUP2 SLOAD ADD DUP1 DUP3 SSTORE DUP1 SWAP2 POP POP PUSH1 0x1 SWAP1 SUB SWAP1 PUSH0 MSTORE PUSH1 0x20 PUSH0 KECCAK256 SWAP1 PUSH1 0x7 MUL ADD PUSH0 SWAP1 SWAP2 SWAP1 SWAP2 SWAP1 SWAP2 POP PUSH0 DUP3 ADD MLOAD DUP2 PUSH0 ADD SSTORE PUSH1 0x20 DUP3 ADD MLOAD DUP2 PUSH1 0x1 ADD PUSH0 PUSH2 0x100 EXP DUP2 SLOAD DUP2 PUSH20 0xFFFFFFFFFFFFFFFFFFFFFFFFFFFFFFFFFFFFFFFF MUL NOT AND SWAP1 DUP4 PUSH20 0xFFFFFFFFFFFFFFFFFFFFFFFFFFFFFFFFFFFFFFFF AND MUL OR SWAP1 SSTORE POP PUSH1 0x40 DUP3 ADD MLOAD DUP2 PUSH1 0x2 ADD PUSH0 PUSH2 0x100 EXP DUP2 SLOAD DUP2 PUSH20 0xFFFFFFFFFFFFFFFFFFFFFFFFFFFFFFFFFFFFFFFF MUL NOT AND SWAP1 DUP4 PUSH20 0xFFFFFFFFFFFFFFFFFFFFFFFFFFFFFFFFFFFFFFFF AND MUL OR SWAP1 SSTORE POP PUSH1 0x60 DUP3 ADD MLOAD DUP2 PUSH1 0x3 ADD PUSH0 PUSH2 0x100 EXP DUP2 SLOAD DUP2 PUSH20 0xFFFFFFFFFFFFFFFFFFFFFFFFFFFFFFFFFFFFFFFF MUL NOT AND SWAP1 DUP4 PUSH20 0xFFFFFFFFFFFFFFFFFFFFFFFFFFFFFFFFFFFFFFFF AND MUL OR SWAP1 SSTORE POP PUSH1 0x80 DUP3 ADD MLOAD DUP2 PUSH1 0x4 ADD SSTORE PUSH1 0xA0 DUP3 ADD MLOAD DUP2 PUSH1 0x5 ADD PUSH0 PUSH2 0x100 EXP DUP2 SLOAD DUP2 PUSH20 0xFFFFFFFFFFFFFFFFFFFFFFFFFFFFFFFFFFFFFFFF MUL NOT AND SWAP1 DUP4 PUSH20 0xFFFFFFFFFFFFFFFFFFFFFFFFFFFFFFFFFFFFFFFF AND MUL OR SWAP1 SSTORE POP PUSH1 0xC0 DUP3 ADD MLOAD DUP2 PUSH1 0x6 ADD SSTORE POP POP POP POP JUMPDEST POP POP POP POP POP POP JUMP JUMPDEST PUSH1 0x3 PUSH1 0x20 MSTORE DUP2 PUSH0 MSTORE PUSH1 0x40 PUSH0 KECCAK256 DUP2 DUP2 SLOAD DUP2 LT PUSH2 0x3209 JUMPI PUSH0 DUP1 REVERT JUMPDEST SWAP1 PUSH0 MSTORE PUSH1 0x20 PUSH0 KECCAK256 SWAP1 PUSH1 0x7 MUL ADD PUSH0 SWAP2 POP SWAP2 POP POP DUP1 PUSH0 ADD SLOAD SWAP1 DUP1 PUSH1 0x1 ADD PUSH0 SWAP1 SLOAD SWAP1 PUSH2 0x100 EXP SWAP1 DIV PUSH20 0xFFFFFFFFFFFFFFFFFFFFFFFFFFFFFFFFFFFFFFFF AND SWAP1 DUP1 PUSH1 0x2 ADD PUSH0 SWAP1 SLOAD SWAP1 PUSH2 0x100 EXP SWAP1 DIV PUSH20 0xFFFFFFFFFFFFFFFFFFFFFFFFFFFFFFFFFFFFFFFF AND SWAP1 DUP1 PUSH1 0x3 ADD PUSH0 SWAP1 SLOAD SWAP1 PUSH2 0x100 EXP SWAP1 DIV PUSH20 0xFFFFFFFFFFFFFFFFFFFFFFFFFFFFFFFFFFFFFFFF AND SWAP1 DUP1 PUSH1 0x4 ADD SLOAD SWAP1 DUP1 PUSH1 0x5 ADD PUSH0 SWAP1 SLOAD SWAP1 PUSH2 0x100 EXP SWAP1 DIV PUSH20 0xFFFFFFFFFFFFFFFFFFFFFFFFFFFFFFFFFFFFFFFF AND SWAP1 DUP1 PUSH1 0x6 ADD SLOAD SWAP1 POP DUP8 JUMP JUMPDEST PUSH1 0x60 PUSH1 0x5 PUSH0 DUP4 PUSH20 0xFFFFFFFFFFFFFFFFFFFFFFFFFFFFFFFFFFFFFFFF AND PUSH20 0xFFFFFFFFFFFFFFFFFFFFFFFFFFFFFFFFFFFFFFFF AND DUP2 MSTORE PUSH1 0x20 ADD SWAP1 DUP2 MSTORE PUSH1 0x20 ADD PUSH0 KECCAK256 DUP1 SLOAD DUP1 PUSH1 0x20 MUL PUSH1 0x20 ADD PUSH1 0x40 MLOAD SWAP1 DUP2 ADD PUSH1 0x40 MSTORE DUP1 SWAP3 SWAP2 SWAP1 DUP2 DUP2 MSTORE PUSH1 0x20 ADD PUSH0 SWAP1 JUMPDEST DUP3 DUP3 LT ISZERO PUSH2 0x34C3 JUMPI DUP4 DUP3 SWAP1 PUSH0 MSTORE PUSH1 0x20 PUSH0 KECCAK256 SWAP1 PUSH1 0x7 MUL ADD PUSH1 0x40 MLOAD DUP1 PUSH1 0xE0 ADD PUSH1 0x40 MSTORE SWAP1 DUP2 PUSH0 DUP3 ADD SLOAD DUP2 MSTORE PUSH1 0x20 ADD PUSH1 0x1 DUP3 ADD PUSH0 SWAP1 SLOAD SWAP1 PUSH2 0x100 EXP SWAP1 DIV PUSH20 0xFFFFFFFFFFFFFFFFFFFFFFFFFFFFFFFFFFFFFFFF AND PUSH20 0xFFFFFFFFFFFFFFFFFFFFFFFFFFFFFFFFFFFFFFFF AND PUSH20 0xFFFFFFFFFFFFFFFFFFFFFFFFFFFFFFFFFFFFFFFF AND DUP2 MSTORE PUSH1 0x20 ADD PUSH1 0x2 DUP3 ADD PUSH0 SWAP1 SLOAD SWAP1 PUSH2 0x100 EXP SWAP1 DIV PUSH20 0xFFFFFFFFFFFFFFFFFFFFFFFFFFFFFFFFFFFFFFFF AND PUSH20 0xFFFFFFFFFFFFFFFFFFFFFFFFFFFFFFFFFFFFFFFF AND PUSH20 0xFFFFFFFFFFFFFFFFFFFFFFFFFFFFFFFFFFFFFFFF AND DUP2 MSTORE PUSH1 0x20 ADD PUSH1 0x3 DUP3 ADD PUSH0 SWAP1 SLOAD SWAP1 PUSH2 0x100 EXP SWAP1 DIV PUSH20 0xFFFFFFFFFFFFFFFFFFFFFFFFFFFFFFFFFFFFFFFF AND PUSH20 0xFFFFFFFFFFFFFFFFFFFFFFFFFFFFFFFFFFFFFFFF AND PUSH20 0xFFFFFFFFFFFFFFFFFFFFFFFFFFFFFFFFFFFFFFFF AND DUP2 MSTORE PUSH1 0x20 ADD PUSH1 0x4 DUP3 ADD SLOAD DUP2 MSTORE PUSH1 0x20 ADD PUSH1 0x5 DUP3 ADD PUSH0 SWAP1 SLOAD SWAP1 PUSH2 0x100 EXP SWAP1 DIV PUSH20 0xFFFFFFFFFFFFFFFFFFFFFFFFFFFFFFFFFFFFFFFF AND PUSH20 0xFFFFFFFFFFFFFFFFFFFFFFFFFFFFFFFFFFFFFFFF AND PUSH20 0xFFFFFFFFFFFFFFFFFFFFFFFFFFFFFFFFFFFFFFFF AND DUP2 MSTORE PUSH1 0x20 ADD PUSH1 0x6 DUP3 ADD SLOAD DUP2 MSTORE POP POP DUP2 MSTORE PUSH1 0x20 ADD SWAP1 PUSH1 0x1 ADD SWAP1 PUSH2 0x3322 JUMP JUMPDEST POP POP POP POP SWAP1 POP SWAP2 SWAP1 POP JUMP JUMPDEST PUSH1 0x7 PUSH1 0x20 MSTORE DUP2 PUSH0 MSTORE PUSH1 0x40 PUSH0 KECCAK256 PUSH1 0x20 MSTORE DUP1 PUSH0 MSTORE PUSH1 0x40 PUSH0 KECCAK256 PUSH0 SWAP2 POP SWAP2 POP SWAP1 SLOAD SWAP1 PUSH2 0x100 EXP SWAP1 DIV PUSH1 0xFF AND DUP2 JUMP JUMPDEST PUSH1 0x60 PUSH1 0x6 PUSH0 DUP4 PUSH20 0xFFFFFFFFFFFFFFFFFFFFFFFFFFFFFFFFFFFFFFFF AND PUSH20 0xFFFFFFFFFFFFFFFFFFFFFFFFFFFFFFFFFFFFFFFF AND DUP2 MSTORE PUSH1 0x20 ADD SWAP1 DUP2 MSTORE PUSH1 0x20 ADD PUSH0 KECCAK256 DUP1 SLOAD DUP1 PUSH1 0x20 MUL PUSH1 0x20 ADD PUSH1 0x40 MLOAD SWAP1 DUP2 ADD PUSH1 0x40 MSTORE DUP1 SWAP3 SWAP2 SWAP1 DUP2 DUP2 MSTORE PUSH1 0x20 ADD PUSH0 SWAP1 JUMPDEST DUP3 DUP3 LT ISZERO PUSH2 0x36F7 JUMPI DUP4 DUP3 SWAP1 PUSH0 MSTORE PUSH1 0x20 PUSH0 KECCAK256 SWAP1 PUSH1 0x7 MUL ADD PUSH1 0x40 MLOAD DUP1 PUSH1 0xE0 ADD PUSH1 0x40 MSTORE SWAP1 DUP2 PUSH0 DUP3 ADD SLOAD DUP2 MSTORE PUSH1 0x20 ADD PUSH1 0x1 DUP3 ADD PUSH0 SWAP1 SLOAD SWAP1 PUSH2 0x100 EXP SWAP1 DIV PUSH20 0xFFFFFFFFFFFFFFFFFFFFFFFFFFFFFFFFFFFFFFFF AND PUSH20 0xFFFFFFFFFFFFFFFFFFFFFFFFFFFFFFFFFFFFFFFF AND PUSH20 0xFFFFFFFFFFFFFFFFFFFFFFFFFFFFFFFFFFFFFFFF AND DUP2 MSTORE PUSH1 0x20 ADD PUSH1 0x2 DUP3 ADD PUSH0 SWAP1 SLOAD SWAP1 PUSH2 0x100 EXP SWAP1 DIV PUSH20 0xFFFFFFFFFFFFFFFFFFFFFFFFFFFFFFFFFFFFFFFF AND PUSH20 0xFFFFFFFFFFFFFFFFFFFFFFFFFFFFFFFFFFFFFFFF AND PUSH20 0xFFFFFFFFFFFFFFFFFFFFFFFFFFFFFFFFFFFFFFFF AND DUP2 MSTORE PUSH1 0x20 ADD PUSH1 0x3 DUP3 ADD PUSH0 SWAP1 SLOAD SWAP1 PUSH2 0x100 EXP SWAP1 DIV PUSH20 0xFFFFFFFFFFFFFFFFFFFFFFFFFFFFFFFFFFFFFFFF AND PUSH20 0xFFFFFFFFFFFFFFFFFFFFFFFFFFFFFFFFFFFFFFFF AND PUSH20 0xFFFFFFFFFFFFFFFFFFFFFFFFFFFFFFFFFFFFFFFF AND DUP2 MSTORE PUSH1 0x20 ADD PUSH1 0x4 DUP3 ADD SLOAD DUP2 MSTORE PUSH1 0x20 ADD PUSH1 0x5 DUP3 ADD PUSH0 SWAP1 SLOAD SWAP1 PUSH2 0x100 EXP SWAP1 DIV PUSH20 0xFFFFFFFFFFFFFFFFFFFFFFFFFFFFFFFFFFFFFFFF AND PUSH20 0xFFFFFFFFFFFFFFFFFFFFFFFFFFFFFFFFFFFFFFFF AND PUSH20 0xFFFFFFFFFFFFFFFFFFFFFFFFFFFFFFFFFFFFFFFF AND DUP2 MSTORE PUSH1 0x20 ADD PUSH1 0x6 DUP3 ADD SLOAD DUP2 MSTORE POP POP DUP2 MSTORE PUSH1 0x20 ADD SWAP1 PUSH1 0x1 ADD SWAP1 PUSH2 0x3556 JUMP JUMPDEST POP POP POP POP SWAP1 POP SWAP2 SWAP1 POP JUMP JUMPDEST PUSH1 0x1 PUSH1 0x7 PUSH0 CALLER PUSH20 0xFFFFFFFFFFFFFFFFFFFFFFFFFFFFFFFFFFFFFFFF AND PUSH20 0xFFFFFFFFFFFFFFFFFFFFFFFFFFFFFFFFFFFFFFFF AND DUP2 MSTORE PUSH1 0x20 ADD SWAP1 DUP2 MSTORE PUSH1 0x20 ADD PUSH0 KECCAK256 PUSH0 DUP4 PUSH20 0xFFFFFFFFFFFFFFFFFFFFFFFFFFFFFFFFFFFFFFFF AND PUSH20 0xFFFFFFFFFFFFFFFFFFFFFFFFFFFFFFFFFFFFFFFF AND DUP2 MSTORE PUSH1 0x20 ADD SWAP1 DUP2 MSTORE PUSH1 0x20 ADD PUSH0 KECCAK256 PUSH0 PUSH2 0x100 EXP DUP2 SLOAD DUP2 PUSH1 0xFF MUL NOT AND SWAP1 DUP4 ISZERO ISZERO MUL OR SWAP1 SSTORE POP POP JUMP JUMPDEST PUSH1 0x4 PUSH1 0x20 MSTORE DUP2 PUSH0 MSTORE PUSH1 0x40 PUSH0 KECCAK256 DUP2 DUP2 SLOAD DUP2 LT PUSH2 0x37AE JUMPI PUSH0 DUP1 REVERT JUMPDEST SWAP1 PUSH0 MSTORE PUSH1 0x20 PUSH0 KECCAK256 SWAP1 PUSH1 0x7 MUL ADD PUSH0 SWAP2 POP SWAP2 POP POP DUP1 PUSH0 ADD SLOAD SWAP1 DUP1 PUSH1 0x1 ADD PUSH0 SWAP1 SLOAD SWAP1 PUSH2 0x100 EXP SWAP1 DIV PUSH20 0xFFFFFFFFFFFFFFFFFFFFFFFFFFFFFFFFFFFFFFFF AND SWAP1 DUP1 PUSH1 0x2 ADD PUSH0 SWAP1 SLOAD SWAP1 PUSH2 0x100 EXP SWAP1 DIV PUSH20 0xFFFFFFFFFFFFFFFFFFFFFFFFFFFFFFFFFFFFFFFF AND SWAP1 DUP1 PUSH1 0x3 ADD PUSH0 SWAP1 SLOAD SWAP1 PUSH2 0x100 EXP SWAP1 DIV PUSH20 0xFFFFFFFFFFFFFFFFFFFFFFFFFFFFFFFFFFFFFFFF AND SWAP1 DUP1 PUSH1 0x4 ADD SLOAD SWAP1 DUP1 PUSH1 0x5 ADD PUSH0 SWAP1 SLOAD SWAP1 PUSH2 0x100 EXP SWAP1 DIV PUSH20 0xFFFFFFFFFFFFFFFFFFFFFFFFFFFFFFFFFFFFFFFF AND SWAP1 DUP1 PUSH1 0x6 ADD SLOAD SWAP1 POP DUP8 JUMP JUMPDEST PUSH1 0x2 PUSH1 0x20 MSTORE DUP2 PUSH0 MSTORE PUSH1 0x40 PUSH0 KECCAK256 DUP2 DUP2 SLOAD DUP2 LT PUSH2 0x3882 JUMPI PUSH0 DUP1 REVERT JUMPDEST SWAP1 PUSH0 MSTORE PUSH1 0x20 PUSH0 KECCAK256 SWAP1 PUSH1 0x7 MUL ADD PUSH0 SWAP2 POP SWAP2 POP POP DUP1 PUSH0 ADD SLOAD SWAP1 DUP1 PUSH1 0x1 ADD PUSH0 SWAP1 SLOAD SWAP1 PUSH2 0x100 EXP SWAP1 DIV PUSH20 0xFFFFFFFFFFFFFFFFFFFFFFFFFFFFFFFFFFFFFFFF AND SWAP1 DUP1 PUSH1 0x2 ADD PUSH0 SWAP1 SLOAD SWAP1 PUSH2 0x100 EXP SWAP1 DIV PUSH20 0xFFFFFFFFFFFFFFFFFFFFFFFFFFFFFFFFFFFFFFFF AND SWAP1 DUP1 PUSH1 0x3 ADD PUSH0 SWAP1 SLOAD SWAP1 PUSH2 0x100 EXP SWAP1 DIV PUSH20 0xFFFFFFFFFFFFFFFFFFFFFFFFFFFFFFFFFFFFFFFF AND SWAP1 DUP1 PUSH1 0x4 ADD SLOAD SWAP1 DUP1 PUSH1 0x5 ADD PUSH0 SWAP1 SLOAD SWAP1 PUSH2 0x100 EXP SWAP1 DIV PUSH20 0xFFFFFFFFFFFFFFFFFFFFFFFFFFFFFFFFFFFFFFFF AND SWAP1 DUP1 PUSH1 0x6 ADD SLOAD SWAP1 POP DUP8 JUMP JUMPDEST PUSH0 PUSH1 0x40 MLOAD DUP1 PUSH1 0xE0 ADD PUSH1 0x40 MSTORE DUP1 PUSH0 SLOAD DUP2 MSTORE PUSH1 0x20 ADD CALLER PUSH20 0xFFFFFFFFFFFFFFFFFFFFFFFFFFFFFFFFFFFFFFFF AND DUP2 MSTORE PUSH1 0x20 ADD DUP4 PUSH0 ADD PUSH1 0x20 DUP2 ADD SWAP1 PUSH2 0x397E SWAP2 SWAP1 PUSH2 0x4F53 JUMP JUMPDEST PUSH20 0xFFFFFFFFFFFFFFFFFFFFFFFFFFFFFFFFFFFFFFFF AND DUP2 MSTORE PUSH1 0x20 ADD DUP4 PUSH1 0x20 ADD PUSH1 0x20 DUP2 ADD SWAP1 PUSH2 0x39AC SWAP2 SWAP1 PUSH2 0x4F53 JUMP JUMPDEST PUSH20 0xFFFFFFFFFFFFFFFFFFFFFFFFFFFFFFFFFFFFFFFF AND DUP2 MSTORE PUSH1 0x20 ADD DUP4 PUSH1 0x40 ADD CALLDATALOAD DUP2 MSTORE PUSH1 0x20 ADD DUP4 PUSH1 0x60 ADD PUSH1 0x20 DUP2 ADD SWAP1 PUSH2 0x39E4 SWAP2 SWAP1 PUSH2 0x4F53 JUMP JUMPDEST PUSH20 0xFFFFFFFFFFFFFFFFFFFFFFFFFFFFFFFFFFFFFFFF AND DUP2 MSTORE PUSH1 0x20 ADD DUP4 PUSH1 0x80 ADD CALLDATALOAD DUP2 MSTORE POP SWAP1 POP PUSH0 PUSH20 0xFFFFFFFFFFFFFFFFFFFFFFFFFFFFFFFFFFFFFFFF AND DUP2 PUSH1 0xA0 ADD MLOAD PUSH20 0xFFFFFFFFFFFFFFFFFFFFFFFFFFFFFFFFFFFFFFFF AND EQ DUP1 PUSH2 0x3A76 JUMPI POP PUSH0 PUSH20 0xFFFFFFFFFFFFFFFFFFFFFFFFFFFFFFFFFFFFFFFF AND DUP2 PUSH1 0x60 ADD MLOAD PUSH20 0xFFFFFFFFFFFFFFFFFFFFFFFFFFFFFFFFFFFFFFFF AND EQ JUMPDEST ISZERO PUSH2 0x3AAD JUMPI PUSH1 0x40 MLOAD PUSH32 0xE6C4247B00000000000000000000000000000000000000000000000000000000 DUP2 MSTORE PUSH1 0x4 ADD PUSH1 0x40 MLOAD DUP1 SWAP2 SUB SWAP1 REVERT JUMPDEST DUP1 PUSH1 0x40 ADD MLOAD PUSH20 0xFFFFFFFFFFFFFFFFFFFFFFFFFFFFFFFFFFFFFFFF AND DUP2 PUSH1 0x20 ADD MLOAD PUSH20 0xFFFFFFFFFFFFFFFFFFFFFFFFFFFFFFFFFFFFFFFF AND SUB PUSH2 0x3B1A JUMPI PUSH1 0x40 MLOAD PUSH32 0xF051D55300000000000000000000000000000000000000000000000000000000 DUP2 MSTORE PUSH1 0x4 ADD PUSH1 0x40 MLOAD DUP1 SWAP2 SUB SWAP1 REVERT JUMPDEST PUSH1 0x7 PUSH0 DUP3 PUSH1 0x40 ADD MLOAD PUSH20 0xFFFFFFFFFFFFFFFFFFFFFFFFFFFFFFFFFFFFFFFF AND PUSH20 0xFFFFFFFFFFFFFFFFFFFFFFFFFFFFFFFFFFFFFFFF AND DUP2 MSTORE PUSH1 0x20 ADD SWAP1 DUP2 MSTORE PUSH1 0x20 ADD PUSH0 KECCAK256 PUSH0 DUP3 PUSH1 0x20 ADD MLOAD PUSH20 0xFFFFFFFFFFFFFFFFFFFFFFFFFFFFFFFFFFFFFFFF AND PUSH20 0xFFFFFFFFFFFFFFFFFFFFFFFFFFFFFFFFFFFFFFFF AND DUP2 MSTORE PUSH1 0x20 ADD SWAP1 DUP2 MSTORE PUSH1 0x20 ADD PUSH0 KECCAK256 PUSH0 SWAP1 SLOAD SWAP1 PUSH2 0x100 EXP SWAP1 DIV PUSH1 0xFF AND PUSH2 0x3BDD JUMPI PUSH1 0x40 MLOAD PUSH32 0xC19F17A900000000000000000000000000000000000000000000000000000000 DUP2 MSTORE PUSH1 0x4 ADD PUSH1 0x40 MLOAD DUP1 SWAP2 SUB SWAP1 REVERT JUMPDEST PUSH0 DUP2 PUSH1 0x60 ADD MLOAD SWAP1 POP CALLER PUSH20 0xFFFFFFFFFFFFFFFFFFFFFFFFFFFFFFFFFFFFFFFF AND DUP2 PUSH20 0xFFFFFFFFFFFFFFFFFFFFFFFFFFFFFFFFFFFFFFFF AND PUSH4 0x6352211E DUP5 PUSH1 0x80 ADD MLOAD PUSH1 0x40 MLOAD DUP3 PUSH4 0xFFFFFFFF AND PUSH1 0xE0 SHL DUP2 MSTORE PUSH1 0x4 ADD PUSH2 0x3C39 SWAP2 SWAP1 PUSH2 0x51FC JUMP JUMPDEST PUSH1 0x20 PUSH1 0x40 MLOAD DUP1 DUP4 SUB DUP2 DUP7 GAS STATICCALL ISZERO DUP1 ISZERO PUSH2 0x3C54 JUMPI RETURNDATASIZE PUSH0 DUP1 RETURNDATACOPY RETURNDATASIZE PUSH0 REVERT JUMPDEST POP POP POP POP PUSH1 0x40 MLOAD RETURNDATASIZE PUSH1 0x1F NOT PUSH1 0x1F DUP3 ADD AND DUP3 ADD DUP1 PUSH1 0x40 MSTORE POP DUP2 ADD SWAP1 PUSH2 0x3C78 SWAP2 SWAP1 PUSH2 0x5229 JUMP JUMPDEST PUSH20 0xFFFFFFFFFFFFFFFFFFFFFFFFFFFFFFFFFFFFFFFF AND EQ PUSH2 0x3CDA JUMPI DUP2 PUSH1 0x60 ADD MLOAD DUP3 PUSH1 0x80 ADD MLOAD PUSH1 0x40 MLOAD PUSH32 0xA59581CF00000000000000000000000000000000000000000000000000000000 DUP2 MSTORE PUSH1 0x4 ADD PUSH2 0x3CD1 SWAP3 SWAP2 SWAP1 PUSH2 0x5254 JUMP JUMPDEST PUSH1 0x40 MLOAD DUP1 SWAP2 SUB SWAP1 REVERT JUMPDEST PUSH0 DUP3 PUSH1 0xA0 ADD MLOAD SWAP1 POP DUP3 PUSH1 0x40 ADD MLOAD PUSH20 0xFFFFFFFFFFFFFFFFFFFFFFFFFFFFFFFFFFFFFFFF AND DUP2 PUSH20 0xFFFFFFFFFFFFFFFFFFFFFFFFFFFFFFFFFFFFFFFF AND PUSH4 0x6352211E DUP6 PUSH1 0xC0 ADD MLOAD PUSH1 0x40 MLOAD DUP3 PUSH4 0xFFFFFFFF AND PUSH1 0xE0 SHL DUP2 MSTORE PUSH1 0x4 ADD PUSH2 0x3D3A SWAP2 SWAP1 PUSH2 0x51FC JUMP JUMPDEST PUSH1 0x20 PUSH1 0x40 MLOAD DUP1 DUP4 SUB DUP2 DUP7 GAS STATICCALL ISZERO DUP1 ISZERO PUSH2 0x3D55 JUMPI RETURNDATASIZE PUSH0 DUP1 RETURNDATACOPY RETURNDATASIZE PUSH0 REVERT JUMPDEST POP POP POP POP PUSH1 0x40 MLOAD RETURNDATASIZE PUSH1 0x1F NOT PUSH1 0x1F DUP3 ADD AND DUP3 ADD DUP1 PUSH1 0x40 MSTORE POP DUP2 ADD SWAP1 PUSH2 0x3D79 SWAP2 SWAP1 PUSH2 0x5229 JUMP JUMPDEST PUSH20 0xFFFFFFFFFFFFFFFFFFFFFFFFFFFFFFFFFFFFFFFF AND EQ PUSH2 0x3DDB JUMPI DUP3 PUSH1 0xA0 ADD MLOAD DUP4 PUSH1 0xC0 ADD MLOAD PUSH1 0x40 MLOAD PUSH32 0x4DC58D4F00000000000000000000000000000000000000000000000000000000 DUP2 MSTORE PUSH1 0x4 ADD PUSH2 0x3DD2 SWAP3 SWAP2 SWAP1 PUSH2 0x5254 JUMP JUMPDEST PUSH1 0x40 MLOAD DUP1 SWAP2 SUB SWAP1 REVERT JUMPDEST PUSH1 0x3 PUSH1 0xFF AND PUSH1 0x2 PUSH0 DUP6 PUSH1 0x40 ADD MLOAD PUSH20 0xFFFFFFFFFFFFFFFFFFFFFFFFFFFFFFFFFFFFFFFF AND PUSH20 0xFFFFFFFFFFFFFFFFFFFFFFFFFFFFFFFFFFFFFFFF AND DUP2 MSTORE PUSH1 0x20 ADD SWAP1 DUP2 MSTORE PUSH1 0x20 ADD PUSH0 KECCAK256 DUP1 SLOAD SWAP1 POP SUB PUSH2 0x3E68 JUMPI PUSH1 0xA PUSH1 0x40 MLOAD PUSH32 0x5C34E6BE00000000000000000000000000000000000000000000000000000000 DUP2 MSTORE PUSH1 0x4 ADD PUSH2 0x3E5F SWAP2 SWAP1 PUSH2 0x52C9 JUMP JUMPDEST PUSH1 0x40 MLOAD DUP1 SWAP2 SUB SWAP1 REVERT JUMPDEST DUP2 PUSH20 0xFFFFFFFFFFFFFFFFFFFFFFFFFFFFFFFFFFFFFFFF AND PUSH4 0x42842E0E CALLER ADDRESS DUP7 PUSH1 0x80 ADD MLOAD PUSH1 0x40 MLOAD DUP5 PUSH4 0xFFFFFFFF AND PUSH1 0xE0 SHL DUP2 MSTORE PUSH1 0x4 ADD PUSH2 0x3EA9 SWAP4 SWAP3 SWAP2 SWAP1 PUSH2 0x51C7 JUMP JUMPDEST PUSH0 PUSH1 0x40 MLOAD DUP1 DUP4 SUB DUP2 PUSH0 DUP8 DUP1 EXTCODESIZE ISZERO DUP1 ISZERO PUSH2 0x3EC0 JUMPI PUSH0 DUP1 REVERT JUMPDEST POP GAS CALL ISZERO DUP1 ISZERO PUSH2 0x3ED2 JUMPI RETURNDATASIZE PUSH0 DUP1 RETURNDATACOPY RETURNDATASIZE PUSH0 REVERT JUMPDEST POP POP POP POP DUP3 PUSH1 0x1 PUSH0 DUP6 PUSH1 0x40 ADD MLOAD PUSH20 0xFFFFFFFFFFFFFFFFFFFFFFFFFFFFFFFFFFFFFFFF AND PUSH20 0xFFFFFFFFFFFFFFFFFFFFFFFFFFFFFFFFFFFFFFFF AND DUP2 MSTORE PUSH1 0x20 ADD SWAP1 DUP2 MSTORE PUSH1 0x20 ADD PUSH0 KECCAK256 PUSH0 DUP6 PUSH0 ADD MLOAD DUP2 MSTORE PUSH1 0x20 ADD SWAP1 DUP2 MSTORE PUSH1 0x20 ADD PUSH0 KECCAK256 PUSH0 DUP3 ADD MLOAD DUP2 PUSH0 ADD SSTORE PUSH1 0x20 DUP3 ADD MLOAD DUP2 PUSH1 0x1 ADD PUSH0 PUSH2 0x100 EXP DUP2 SLOAD DUP2 PUSH20 0xFFFFFFFFFFFFFFFFFFFFFFFFFFFFFFFFFFFFFFFF MUL NOT AND SWAP1 DUP4 PUSH20 0xFFFFFFFFFFFFFFFFFFFFFFFFFFFFFFFFFFFFFFFF AND MUL OR SWAP1 SSTORE POP PUSH1 0x40 DUP3 ADD MLOAD DUP2 PUSH1 0x2 ADD PUSH0 PUSH2 0x100 EXP DUP2 SLOAD DUP2 PUSH20 0xFFFFFFFFFFFFFFFFFFFFFFFFFFFFFFFFFFFFFFFF MUL NOT AND SWAP1 DUP4 PUSH20 0xFFFFFFFFFFFFFFFFFFFFFFFFFFFFFFFFFFFFFFFF AND MUL OR SWAP1 SSTORE POP PUSH1 0x60 DUP3 ADD MLOAD DUP2 PUSH1 0x3 ADD PUSH0 PUSH2 0x100 EXP DUP2 SLOAD DUP2 PUSH20 0xFFFFFFFFFFFFFFFFFFFFFFFFFFFFFFFFFFFFFFFF MUL NOT AND SWAP1 DUP4 PUSH20 0xFFFFFFFFFFFFFFFFFFFFFFFFFFFFFFFFFFFFFFFF AND MUL OR SWAP1 SSTORE POP PUSH1 0x80 DUP3 ADD MLOAD DUP2 PUSH1 0x4 ADD SSTORE PUSH1 0xA0 DUP3 ADD MLOAD DUP2 PUSH1 0x5 ADD PUSH0 PUSH2 0x100 EXP DUP2 SLOAD DUP2 PUSH20 0xFFFFFFFFFFFFFFFFFFFFFFFFFFFFFFFFFFFFFFFF MUL NOT AND SWAP1 DUP4 PUSH20 0xFFFFFFFFFFFFFFFFFFFFFFFFFFFFFFFFFFFFFFFF AND MUL OR SWAP1 SSTORE POP PUSH1 0xC0 DUP3 ADD MLOAD DUP2 PUSH1 0x6 ADD SSTORE SWAP1 POP POP PUSH1 0x2 PUSH0 DUP5 PUSH1 0x40 ADD MLOAD PUSH20 0xFFFFFFFFFFFFFFFFFFFFFFFFFFFFFFFFFFFFFFFF AND PUSH20 0xFFFFFFFFFFFFFFFFFFFFFFFFFFFFFFFFFFFFFFFF AND DUP2 MSTORE PUSH1 0x20 ADD SWAP1 DUP2 MSTORE PUSH1 0x20 ADD PUSH0 KECCAK256 DUP4 SWAP1 DUP1 PUSH1 0x1 DUP2 SLOAD ADD DUP1 DUP3 SSTORE DUP1 SWAP2 POP POP PUSH1 0x1 SWAP1 SUB SWAP1 PUSH0 MSTORE PUSH1 0x20 PUSH0 KECCAK256 SWAP1 PUSH1 0x7 MUL ADD PUSH0 SWAP1 SWAP2 SWAP1 SWAP2 SWAP1 SWAP2 POP PUSH0 DUP3 ADD MLOAD DUP2 PUSH0 ADD SSTORE PUSH1 0x20 DUP3 ADD MLOAD DUP2 PUSH1 0x1 ADD PUSH0 PUSH2 0x100 EXP DUP2 SLOAD DUP2 PUSH20 0xFFFFFFFFFFFFFFFFFFFFFFFFFFFFFFFFFFFFFFFF MUL NOT AND SWAP1 DUP4 PUSH20 0xFFFFFFFFFFFFFFFFFFFFFFFFFFFFFFFFFFFFFFFF AND MUL OR SWAP1 SSTORE POP PUSH1 0x40 DUP3 ADD MLOAD DUP2 PUSH1 0x2 ADD PUSH0 PUSH2 0x100 EXP DUP2 SLOAD DUP2 PUSH20 0xFFFFFFFFFFFFFFFFFFFFFFFFFFFFFFFFFFFFFFFF MUL NOT AND SWAP1 DUP4 PUSH20 0xFFFFFFFFFFFFFFFFFFFFFFFFFFFFFFFFFFFFFFFF AND MUL OR SWAP1 SSTORE POP PUSH1 0x60 DUP3 ADD MLOAD DUP2 PUSH1 0x3 ADD PUSH0 PUSH2 0x100 EXP DUP2 SLOAD DUP2 PUSH20 0xFFFFFFFFFFFFFFFFFFFFFFFFFFFFFFFFFFFFFFFF MUL NOT AND SWAP1 DUP4 PUSH20 0xFFFFFFFFFFFFFFFFFFFFFFFFFFFFFFFFFFFFFFFF AND MUL OR SWAP1 SSTORE POP PUSH1 0x80 DUP3 ADD MLOAD DUP2 PUSH1 0x4 ADD SSTORE PUSH1 0xA0 DUP3 ADD MLOAD DUP2 PUSH1 0x5 ADD PUSH0 PUSH2 0x100 EXP DUP2 SLOAD DUP2 PUSH20 0xFFFFFFFFFFFFFFFFFFFFFFFFFFFFFFFFFFFFFFFF MUL NOT AND SWAP1 DUP4 PUSH20 0xFFFFFFFFFFFFFFFFFFFFFFFFFFFFFFFFFFFFFFFF AND MUL OR SWAP1 SSTORE POP PUSH1 0xC0 DUP3 ADD MLOAD DUP2 PUSH1 0x6 ADD SSTORE POP POP PUSH1 0x3 PUSH0 CALLER PUSH20 0xFFFFFFFFFFFFFFFFFFFFFFFFFFFFFFFFFFFFFFFF AND PUSH20 0xFFFFFFFFFFFFFFFFFFFFFFFFFFFFFFFFFFFFFFFF AND DUP2 MSTORE PUSH1 0x20 ADD SWAP1 DUP2 MSTORE PUSH1 0x20 ADD PUSH0 KECCAK256 DUP4 SWAP1 DUP1 PUSH1 0x1 DUP2 SLOAD ADD DUP1 DUP3 SSTORE DUP1 SWAP2 POP POP PUSH1 0x1 SWAP1 SUB SWAP1 PUSH0 MSTORE PUSH1 0x20 PUSH0 KECCAK256 SWAP1 PUSH1 0x7 MUL ADD PUSH0 SWAP1 SWAP2 SWAP1 SWAP2 SWAP1 SWAP2 POP PUSH0 DUP3 ADD MLOAD DUP2 PUSH0 ADD SSTORE PUSH1 0x20 DUP3 ADD MLOAD DUP2 PUSH1 0x1 ADD PUSH0 PUSH2 0x100 EXP DUP2 SLOAD DUP2 PUSH20 0xFFFFFFFFFFFFFFFFFFFFFFFFFFFFFFFFFFFFFFFF MUL NOT AND SWAP1 DUP4 PUSH20 0xFFFFFFFFFFFFFFFFFFFFFFFFFFFFFFFFFFFFFFFF AND MUL OR SWAP1 SSTORE POP PUSH1 0x40 DUP3 ADD MLOAD DUP2 PUSH1 0x2 ADD PUSH0 PUSH2 0x100 EXP DUP2 SLOAD DUP2 PUSH20 0xFFFFFFFFFFFFFFFFFFFFFFFFFFFFFFFFFFFFFFFF MUL NOT AND SWAP1 DUP4 PUSH20 0xFFFFFFFFFFFFFFFFFFFFFFFFFFFFFFFFFFFFFFFF AND MUL OR SWAP1 SSTORE POP PUSH1 0x60 DUP3 ADD MLOAD DUP2 PUSH1 0x3 ADD PUSH0 PUSH2 0x100 EXP DUP2 SLOAD DUP2 PUSH20 0xFFFFFFFFFFFFFFFFFFFFFFFFFFFFFFFFFFFFFFFF MUL NOT AND SWAP1 DUP4 PUSH20 0xFFFFFFFFFFFFFFFFFFFFFFFFFFFFFFFFFFFFFFFF AND MUL OR SWAP1 SSTORE POP PUSH1 0x80 DUP3 ADD MLOAD DUP2 PUSH1 0x4 ADD SSTORE PUSH1 0xA0 DUP3 ADD MLOAD DUP2 PUSH1 0x5 ADD PUSH0 PUSH2 0x100 EXP DUP2 SLOAD DUP2 PUSH20 0xFFFFFFFFFFFFFFFFFFFFFFFFFFFFFFFFFFFFFFFF MUL NOT AND SWAP1 DUP4 PUSH20 0xFFFFFFFFFFFFFFFFFFFFFFFFFFFFFFFFFFFFFFFF AND MUL OR SWAP1 SSTORE POP PUSH1 0xC0 DUP3 ADD MLOAD DUP2 PUSH1 0x6 ADD SSTORE POP POP POP POP POP POP JUMP JUMPDEST PUSH1 0x5 PUSH1 0x20 MSTORE DUP2 PUSH0 MSTORE PUSH1 0x40 PUSH0 KECCAK256 DUP2 DUP2 SLOAD DUP2 LT PUSH2 0x43B8 JUMPI PUSH0 DUP1 REVERT JUMPDEST SWAP1 PUSH0 MSTORE PUSH1 0x20 PUSH0 KECCAK256 SWAP1 PUSH1 0x7 MUL ADD PUSH0 SWAP2 POP SWAP2 POP POP DUP1 PUSH0 ADD SLOAD SWAP1 DUP1 PUSH1 0x1 ADD PUSH0 SWAP1 SLOAD SWAP1 PUSH2 0x100 EXP SWAP1 DIV PUSH20 0xFFFFFFFFFFFFFFFFFFFFFFFFFFFFFFFFFFFFFFFF AND SWAP1 DUP1 PUSH1 0x2 ADD PUSH0 SWAP1 SLOAD SWAP1 PUSH2 0x100 EXP SWAP1 DIV PUSH20 0xFFFFFFFFFFFFFFFFFFFFFFFFFFFFFFFFFFFFFFFF AND SWAP1 DUP1 PUSH1 0x3 ADD PUSH0 SWAP1 SLOAD SWAP1 PUSH2 0x100 EXP SWAP1 DIV PUSH20 0xFFFFFFFFFFFFFFFFFFFFFFFFFFFFFFFFFFFFFFFF AND SWAP1 DUP1 PUSH1 0x4 ADD SLOAD SWAP1 DUP1 PUSH1 0x5 ADD PUSH0 SWAP1 SLOAD SWAP1 PUSH2 0x100 EXP SWAP1 DIV PUSH20 0xFFFFFFFFFFFFFFFFFFFFFFFFFFFFFFFFFFFFFFFF AND SWAP1 DUP1 PUSH1 0x6 ADD SLOAD SWAP1 POP DUP8 JUMP JUMPDEST PUSH1 0x60 PUSH1 0x4 PUSH0 DUP4 PUSH20 0xFFFFFFFFFFFFFFFFFFFFFFFFFFFFFFFFFFFFFFFF AND PUSH20 0xFFFFFFFFFFFFFFFFFFFFFFFFFFFFFFFFFFFFFFFF AND DUP2 MSTORE PUSH1 0x20 ADD SWAP1 DUP2 MSTORE PUSH1 0x20 ADD PUSH0 KECCAK256 DUP1 SLOAD DUP1 PUSH1 0x20 MUL PUSH1 0x20 ADD PUSH1 0x40 MLOAD SWAP1 DUP2 ADD PUSH1 0x40 MSTORE DUP1 SWAP3 SWAP2 SWAP1 DUP2 DUP2 MSTORE PUSH1 0x20 ADD PUSH0 SWAP1 JUMPDEST DUP3 DUP3 LT ISZERO PUSH2 0x4672 JUMPI DUP4 DUP3 SWAP1 PUSH0 MSTORE PUSH1 0x20 PUSH0 KECCAK256 SWAP1 PUSH1 0x7 MUL ADD PUSH1 0x40 MLOAD DUP1 PUSH1 0xE0 ADD PUSH1 0x40 MSTORE SWAP1 DUP2 PUSH0 DUP3 ADD SLOAD DUP2 MSTORE PUSH1 0x20 ADD PUSH1 0x1 DUP3 ADD PUSH0 SWAP1 SLOAD SWAP1 PUSH2 0x100 EXP SWAP1 DIV PUSH20 0xFFFFFFFFFFFFFFFFFFFFFFFFFFFFFFFFFFFFFFFF AND PUSH20 0xFFFFFFFFFFFFFFFFFFFFFFFFFFFFFFFFFFFFFFFF AND PUSH20 0xFFFFFFFFFFFFFFFFFFFFFFFFFFFFFFFFFFFFFFFF AND DUP2 MSTORE PUSH1 0x20 ADD PUSH1 0x2 DUP3 ADD PUSH0 SWAP1 SLOAD SWAP1 PUSH2 0x100 EXP SWAP1 DIV PUSH20 0xFFFFFFFFFFFFFFFFFFFFFFFFFFFFFFFFFFFFFFFF AND PUSH20 0xFFFFFFFFFFFFFFFFFFFFFFFFFFFFFFFFFFFFFFFF AND PUSH20 0xFFFFFFFFFFFFFFFFFFFFFFFFFFFFFFFFFFFFFFFF AND DUP2 MSTORE PUSH1 0x20 ADD PUSH1 0x3 DUP3 ADD PUSH0 SWAP1 SLOAD SWAP1 PUSH2 0x100 EXP SWAP1 DIV PUSH20 0xFFFFFFFFFFFFFFFFFFFFFFFFFFFFFFFFFFFFFFFF AND PUSH20 0xFFFFFFFFFFFFFFFFFFFFFFFFFFFFFFFFFFFFFFFF AND PUSH20 0xFFFFFFFFFFFFFFFFFFFFFFFFFFFFFFFFFFFFFFFF AND DUP2 MSTORE PUSH1 0x20 ADD PUSH1 0x4 DUP3 ADD SLOAD DUP2 MSTORE PUSH1 0x20 ADD PUSH1 0x5 DUP3 ADD PUSH0 SWAP1 SLOAD SWAP1 PUSH2 0x100 EXP SWAP1 DIV PUSH20 0xFFFFFFFFFFFFFFFFFFFFFFFFFFFFFFFFFFFFFFFF AND PUSH20 0xFFFFFFFFFFFFFFFFFFFFFFFFFFFFFFFFFFFFFFFF AND PUSH20 0xFFFFFFFFFFFFFFFFFFFFFFFFFFFFFFFFFFFFFFFF AND DUP2 MSTORE PUSH1 0x20 ADD PUSH1 0x6 DUP3 ADD SLOAD DUP2 MSTORE POP POP DUP2 MSTORE PUSH1 0x20 ADD SWAP1 PUSH1 0x1 ADD SWAP1 PUSH2 0x44D1 JUMP JUMPDEST POP POP POP POP SWAP1 POP SWAP2 SWAP1 POP JUMP JUMPDEST PUSH0 PUSH2 0x4686 PUSH2 0x4B41 JUMP JUMPDEST DUP1 PUSH0 ADD MLOAD DUP4 PUSH0 ADD MLOAD EQ DUP1 ISZERO PUSH2 0x46CE JUMPI POP DUP1 PUSH1 0x20 ADD MLOAD PUSH20 0xFFFFFFFFFFFFFFFFFFFFFFFFFFFFFFFFFFFFFFFF AND DUP4 PUSH1 0x20 ADD MLOAD PUSH20 0xFFFFFFFFFFFFFFFFFFFFFFFFFFFFFFFFFFFFFFFF AND EQ JUMPDEST ISZERO PUSH2 0x46DD JUMPI PUSH1 0x1 SWAP2 POP POP PUSH2 0x46E2 JUMP JUMPDEST PUSH0 SWAP2 POP POP JUMPDEST SWAP2 SWAP1 POP JUMP JUMPDEST PUSH0 PUSH1 0x1 DUP2 GT ISZERO PUSH2 0x46FA JUMPI PUSH2 0x46F9 PUSH2 0x52E2 JUMP JUMPDEST JUMPDEST DUP5 PUSH1 0x1 DUP2 GT ISZERO PUSH2 0x470D JUMPI PUSH2 0x470C PUSH2 0x52E2 JUMP JUMPDEST JUMPDEST SUB PUSH2 0x4918 JUMPI PUSH0 JUMPDEST DUP3 MLOAD DUP2 PUSH1 0xFF AND LT ISZERO PUSH2 0x4912 JUMPI DUP2 DUP4 DUP3 PUSH1 0xFF AND DUP2 MLOAD DUP2 LT PUSH2 0x4737 JUMPI PUSH2 0x4736 PUSH2 0x530F JUMP JUMPDEST JUMPDEST PUSH1 0x20 MUL PUSH1 0x20 ADD ADD MLOAD PUSH0 ADD MLOAD EQ PUSH2 0x48FF JUMPI PUSH1 0x3 PUSH0 DUP6 PUSH20 0xFFFFFFFFFFFFFFFFFFFFFFFFFFFFFFFFFFFFFFFF AND PUSH20 0xFFFFFFFFFFFFFFFFFFFFFFFFFFFFFFFFFFFFFFFF AND DUP2 MSTORE PUSH1 0x20 ADD SWAP1 DUP2 MSTORE PUSH1 0x20 ADD PUSH0 KECCAK256 DUP4 DUP3 PUSH1 0xFF AND DUP2 MLOAD DUP2 LT PUSH2 0x479A JUMPI PUSH2 0x4799 PUSH2 0x530F JUMP JUMPDEST JUMPDEST PUSH1 0x20 MUL PUSH1 0x20 ADD ADD MLOAD SWAP1 DUP1 PUSH1 0x1 DUP2 SLOAD ADD DUP1 DUP3 SSTORE DUP1 SWAP2 POP POP PUSH1 0x1 SWAP1 SUB SWAP1 PUSH0 MSTORE PUSH1 0x20 PUSH0 KECCAK256 SWAP1 PUSH1 0x7 MUL ADD PUSH0 SWAP1 SWAP2 SWAP1 SWAP2 SWAP1 SWAP2 POP PUSH0 DUP3 ADD MLOAD DUP2 PUSH0 ADD SSTORE PUSH1 0x20 DUP3 ADD MLOAD DUP2 PUSH1 0x1 ADD PUSH0 PUSH2 0x100 EXP DUP2 SLOAD DUP2 PUSH20 0xFFFFFFFFFFFFFFFFFFFFFFFFFFFFFFFFFFFFFFFF MUL NOT AND SWAP1 DUP4 PUSH20 0xFFFFFFFFFFFFFFFFFFFFFFFFFFFFFFFFFFFFFFFF AND MUL OR SWAP1 SSTORE POP PUSH1 0x40 DUP3 ADD MLOAD DUP2 PUSH1 0x2 ADD PUSH0 PUSH2 0x100 EXP DUP2 SLOAD DUP2 PUSH20 0xFFFFFFFFFFFFFFFFFFFFFFFFFFFFFFFFFFFFFFFF MUL NOT AND SWAP1 DUP4 PUSH20 0xFFFFFFFFFFFFFFFFFFFFFFFFFFFFFFFFFFFFFFFF AND MUL OR SWAP1 SSTORE POP PUSH1 0x60 DUP3 ADD MLOAD DUP2 PUSH1 0x3 ADD PUSH0 PUSH2 0x100 EXP DUP2 SLOAD DUP2 PUSH20 0xFFFFFFFFFFFFFFFFFFFFFFFFFFFFFFFFFFFFFFFF MUL NOT AND SWAP1 DUP4 PUSH20 0xFFFFFFFFFFFFFFFFFFFFFFFFFFFFFFFFFFFFFFFF AND MUL OR SWAP1 SSTORE POP PUSH1 0x80 DUP3 ADD MLOAD DUP2 PUSH1 0x4 ADD SSTORE PUSH1 0xA0 DUP3 ADD MLOAD DUP2 PUSH1 0x5 ADD PUSH0 PUSH2 0x100 EXP DUP2 SLOAD DUP2 PUSH20 0xFFFFFFFFFFFFFFFFFFFFFFFFFFFFFFFFFFFFFFFF MUL NOT AND SWAP1 DUP4 PUSH20 0xFFFFFFFFFFFFFFFFFFFFFFFFFFFFFFFFFFFFFFFF AND MUL OR SWAP1 SSTORE POP PUSH1 0xC0 DUP3 ADD MLOAD DUP2 PUSH1 0x6 ADD SSTORE POP POP JUMPDEST DUP1 DUP1 PUSH2 0x490A SWAP1 PUSH2 0x5369 JUMP JUMPDEST SWAP2 POP POP PUSH2 0x4714 JUMP JUMPDEST POP PUSH2 0x4B1A JUMP JUMPDEST PUSH0 JUMPDEST DUP3 MLOAD DUP2 PUSH1 0xFF AND LT ISZERO PUSH2 0x4B18 JUMPI DUP2 DUP4 DUP3 PUSH1 0xFF AND DUP2 MLOAD DUP2 LT PUSH2 0x493D JUMPI PUSH2 0x493C PUSH2 0x530F JUMP JUMPDEST JUMPDEST PUSH1 0x20 MUL PUSH1 0x20 ADD ADD MLOAD PUSH0 ADD MLOAD EQ PUSH2 0x4B05 JUMPI PUSH1 0x2 PUSH0 DUP6 PUSH20 0xFFFFFFFFFFFFFFFFFFFFFFFFFFFFFFFFFFFFFFFF AND PUSH20 0xFFFFFFFFFFFFFFFFFFFFFFFFFFFFFFFFFFFFFFFF AND DUP2 MSTORE PUSH1 0x20 ADD SWAP1 DUP2 MSTORE PUSH1 0x20 ADD PUSH0 KECCAK256 DUP4 DUP3 PUSH1 0xFF AND DUP2 MLOAD DUP2 LT PUSH2 0x49A0 JUMPI PUSH2 0x499F PUSH2 0x530F JUMP JUMPDEST JUMPDEST PUSH1 0x20 MUL PUSH1 0x20 ADD ADD MLOAD SWAP1 DUP1 PUSH1 0x1 DUP2 SLOAD ADD DUP1 DUP3 SSTORE DUP1 SWAP2 POP POP PUSH1 0x1 SWAP1 SUB SWAP1 PUSH0 MSTORE PUSH1 0x20 PUSH0 KECCAK256 SWAP1 PUSH1 0x7 MUL ADD PUSH0 SWAP1 SWAP2 SWAP1 SWAP2 SWAP1 SWAP2 POP PUSH0 DUP3 ADD MLOAD DUP2 PUSH0 ADD SSTORE PUSH1 0x20 DUP3 ADD MLOAD DUP2 PUSH1 0x1 ADD PUSH0 PUSH2 0x100 EXP DUP2 SLOAD DUP2 PUSH20 0xFFFFFFFFFFFFFFFFFFFFFFFFFFFFFFFFFFFFFFFF MUL NOT AND SWAP1 DUP4 PUSH20 0xFFFFFFFFFFFFFFFFFFFFFFFFFFFFFFFFFFFFFFFF AND MUL OR SWAP1 SSTORE POP PUSH1 0x40 DUP3 ADD MLOAD DUP2 PUSH1 0x2 ADD PUSH0 PUSH2 0x100 EXP DUP2 SLOAD DUP2 PUSH20 0xFFFFFFFFFFFFFFFFFFFFFFFFFFFFFFFFFFFFFFFF MUL NOT AND SWAP1 DUP4 PUSH20 0xFFFFFFFFFFFFFFFFFFFFFFFFFFFFFFFFFFFFFFFF AND MUL OR SWAP1 SSTORE POP PUSH1 0x60 DUP3 ADD MLOAD DUP2 PUSH1 0x3 ADD PUSH0 PUSH2 0x100 EXP DUP2 SLOAD DUP2 PUSH20 0xFFFFFFFFFFFFFFFFFFFFFFFFFFFFFFFFFFFFFFFF MUL NOT AND SWAP1 DUP4 PUSH20 0xFFFFFFFFFFFFFFFFFFFFFFFFFFFFFFFFFFFFFFFF AND MUL OR SWAP1 SSTORE POP PUSH1 0x80 DUP3 ADD MLOAD DUP2 PUSH1 0x4 ADD SSTORE PUSH1 0xA0 DUP3 ADD MLOAD DUP2 PUSH1 0x5 ADD PUSH0 PUSH2 0x100 EXP DUP2 SLOAD DUP2 PUSH20 0xFFFFFFFFFFFFFFFFFFFFFFFFFFFFFFFFFFFFFFFF MUL NOT AND SWAP1 DUP4 PUSH20 0xFFFFFFFFFFFFFFFFFFFFFFFFFFFFFFFFFFFFFFFF AND MUL OR SWAP1 SSTORE POP PUSH1 0xC0 DUP3 ADD MLOAD DUP2 PUSH1 0x6 ADD SSTORE POP POP JUMPDEST DUP1 DUP1 PUSH2 0x4B10 SWAP1 PUSH2 0x5369 JUMP JUMPDEST SWAP2 POP POP PUSH2 0x491A JUMP JUMPDEST POP JUMPDEST POP POP POP POP JUMP JUMPDEST POP DUP1 SLOAD PUSH0 DUP3 SSTORE PUSH1 0x7 MUL SWAP1 PUSH0 MSTORE PUSH1 0x20 PUSH0 KECCAK256 SWAP1 DUP2 ADD SWAP1 PUSH2 0x4B3E SWAP2 SWAP1 PUSH2 0x4BCF JUMP JUMPDEST POP JUMP JUMPDEST PUSH1 0x40 MLOAD DUP1 PUSH1 0xE0 ADD PUSH1 0x40 MSTORE DUP1 PUSH0 DUP2 MSTORE PUSH1 0x20 ADD PUSH0 PUSH20 0xFFFFFFFFFFFFFFFFFFFFFFFFFFFFFFFFFFFFFFFF AND DUP2 MSTORE PUSH1 0x20 ADD PUSH0 PUSH20 0xFFFFFFFFFFFFFFFFFFFFFFFFFFFFFFFFFFFFFFFF AND DUP2 MSTORE PUSH1 0x20 ADD PUSH0 PUSH20 0xFFFFFFFFFFFFFFFFFFFFFFFFFFFFFFFFFFFFFFFF AND DUP2 MSTORE PUSH1 0x20 ADD PUSH0 DUP2 MSTORE PUSH1 0x20 ADD PUSH0 PUSH20 0xFFFFFFFFFFFFFFFFFFFFFFFFFFFFFFFFFFFFFFFF AND DUP2 MSTORE PUSH1 0x20 ADD PUSH0 DUP2 MSTORE POP SWAP1 JUMP JUMPDEST JUMPDEST DUP1 DUP3 GT ISZERO PUSH2 0x4C8E JUMPI PUSH0 DUP1 DUP3 ADD PUSH0 SWAP1 SSTORE PUSH1 0x1 DUP3 ADD PUSH0 PUSH2 0x100 EXP DUP2 SLOAD SWAP1 PUSH20 0xFFFFFFFFFFFFFFFFFFFFFFFFFFFFFFFFFFFFFFFF MUL NOT AND SWAP1 SSTORE PUSH1 0x2 DUP3 ADD PUSH0 PUSH2 0x100 EXP DUP2 SLOAD SWAP1 PUSH20 0xFFFFFFFFFFFFFFFFFFFFFFFFFFFFFFFFFFFFFFFF MUL NOT AND SWAP1 SSTORE PUSH1 0x3 DUP3 ADD PUSH0 PUSH2 0x100 EXP DUP2 SLOAD SWAP1 PUSH20 0xFFFFFFFFFFFFFFFFFFFFFFFFFFFFFFFFFFFFFFFF MUL NOT AND SWAP1 SSTORE PUSH1 0x4 DUP3 ADD PUSH0 SWAP1 SSTORE PUSH1 0x5 DUP3 ADD PUSH0 PUSH2 0x100 EXP DUP2 SLOAD SWAP1 PUSH20 0xFFFFFFFFFFFFFFFFFFFFFFFFFFFFFFFFFFFFFFFF MUL NOT AND SWAP1 SSTORE PUSH1 0x6 DUP3 ADD PUSH0 SWAP1 SSTORE POP PUSH1 0x7 ADD PUSH2 0x4BD0 JUMP JUMPDEST POP SWAP1 JUMP JUMPDEST PUSH0 DUP1 REVERT JUMPDEST PUSH0 DUP1 REVERT JUMPDEST PUSH0 PUSH20 0xFFFFFFFFFFFFFFFFFFFFFFFFFFFFFFFFFFFFFFFF DUP3 AND SWAP1 POP SWAP2 SWAP1 POP JUMP JUMPDEST PUSH0 PUSH2 0x4CC3 DUP3 PUSH2 0x4C9A JUMP JUMPDEST SWAP1 POP SWAP2 SWAP1 POP JUMP JUMPDEST PUSH2 0x4CD3 DUP2 PUSH2 0x4CB9 JUMP JUMPDEST DUP2 EQ PUSH2 0x4CDD JUMPI PUSH0 DUP1 REVERT JUMPDEST POP JUMP JUMPDEST PUSH0 DUP2 CALLDATALOAD SWAP1 POP PUSH2 0x4CEE DUP2 PUSH2 0x4CCA JUMP JUMPDEST SWAP3 SWAP2 POP POP JUMP JUMPDEST PUSH0 DUP2 SWAP1 POP SWAP2 SWAP1 POP JUMP JUMPDEST PUSH2 0x4D06 DUP2 PUSH2 0x4CF4 JUMP JUMPDEST DUP2 EQ PUSH2 0x4D10 JUMPI PUSH0 DUP1 REVERT JUMPDEST POP JUMP JUMPDEST PUSH0 DUP2 CALLDATALOAD SWAP1 POP PUSH2 0x4D21 DUP2 PUSH2 0x4CFD JUMP JUMPDEST SWAP3 SWAP2 POP POP JUMP JUMPDEST PUSH0 DUP1 REVERT JUMPDEST PUSH0 DUP1 REVERT JUMPDEST PUSH0 DUP1 REVERT JUMPDEST PUSH0 DUP1 DUP4 PUSH1 0x1F DUP5 ADD SLT PUSH2 0x4D48 JUMPI PUSH2 0x4D47 PUSH2 0x4D27 JUMP JUMPDEST JUMPDEST DUP3 CALLDATALOAD SWAP1 POP PUSH8 0xFFFFFFFFFFFFFFFF DUP2 GT ISZERO PUSH2 0x4D65 JUMPI PUSH2 0x4D64 PUSH2 0x4D2B JUMP JUMPDEST JUMPDEST PUSH1 0x20 DUP4 ADD SWAP2 POP DUP4 PUSH1 0x1 DUP3 MUL DUP4 ADD GT ISZERO PUSH2 0x4D81 JUMPI PUSH2 0x4D80 PUSH2 0x4D2F JUMP JUMPDEST JUMPDEST SWAP3 POP SWAP3 SWAP1 POP JUMP JUMPDEST PUSH0 DUP1 PUSH0 DUP1 PUSH0 PUSH1 0x80 DUP7 DUP9 SUB SLT ISZERO PUSH2 0x4DA1 JUMPI PUSH2 0x4DA0 PUSH2 0x4C92 JUMP JUMPDEST JUMPDEST PUSH0 PUSH2 0x4DAE DUP9 DUP3 DUP10 ADD PUSH2 0x4CE0 JUMP JUMPDEST SWAP6 POP POP PUSH1 0x20 PUSH2 0x4DBF DUP9 DUP3 DUP10 ADD PUSH2 0x4CE0 JUMP JUMPDEST SWAP5 POP POP PUSH1 0x40 PUSH2 0x4DD0 DUP9 DUP3 DUP10 ADD PUSH2 0x4D13 JUMP JUMPDEST SWAP4 POP POP PUSH1 0x60 DUP7 ADD CALLDATALOAD PUSH8 0xFFFFFFFFFFFFFFFF DUP2 GT ISZERO PUSH2 0x4DF1 JUMPI PUSH2 0x4DF0 PUSH2 0x4C96 JUMP JUMPDEST JUMPDEST PUSH2 0x4DFD DUP9 DUP3 DUP10 ADD PUSH2 0x4D33 JUMP JUMPDEST SWAP3 POP SWAP3 POP POP SWAP3 SWAP6 POP SWAP3 SWAP6 SWAP1 SWAP4 POP JUMP JUMPDEST PUSH0 PUSH32 0xFFFFFFFF00000000000000000000000000000000000000000000000000000000 DUP3 AND SWAP1 POP SWAP2 SWAP1 POP JUMP JUMPDEST PUSH2 0x4E40 DUP2 PUSH2 0x4E0C JUMP JUMPDEST DUP3 MSTORE POP POP JUMP JUMPDEST PUSH0 PUSH1 0x20 DUP3 ADD SWAP1 POP PUSH2 0x4E59 PUSH0 DUP4 ADD DUP5 PUSH2 0x4E37 JUMP JUMPDEST SWAP3 SWAP2 POP POP JUMP JUMPDEST PUSH0 PUSH1 0x20 DUP3 DUP5 SUB SLT ISZERO PUSH2 0x4E74 JUMPI PUSH2 0x4E73 PUSH2 0x4C92 JUMP JUMPDEST JUMPDEST PUSH0 PUSH2 0x4E81 DUP5 DUP3 DUP6 ADD PUSH2 0x4D13 JUMP JUMPDEST SWAP2 POP POP SWAP3 SWAP2 POP POP JUMP JUMPDEST PUSH0 DUP1 PUSH1 0x40 DUP4 DUP6 SUB SLT ISZERO PUSH2 0x4EA0 JUMPI PUSH2 0x4E9F PUSH2 0x4C92 JUMP JUMPDEST JUMPDEST PUSH0 PUSH2 0x4EAD DUP6 DUP3 DUP7 ADD PUSH2 0x4CE0 JUMP JUMPDEST SWAP3 POP POP PUSH1 0x20 PUSH2 0x4EBE DUP6 DUP3 DUP7 ADD PUSH2 0x4D13 JUMP JUMPDEST SWAP2 POP POP SWAP3 POP SWAP3 SWAP1 POP JUMP JUMPDEST PUSH2 0x4ED1 DUP2 PUSH2 0x4CF4 JUMP JUMPDEST DUP3 MSTORE POP POP JUMP JUMPDEST PUSH2 0x4EE0 DUP2 PUSH2 0x4CB9 JUMP JUMPDEST DUP3 MSTORE POP POP JUMP JUMPDEST PUSH0 PUSH1 0xE0 DUP3 ADD SWAP1 POP PUSH2 0x4EF9 PUSH0 DUP4 ADD DUP11 PUSH2 0x4EC8 JUMP JUMPDEST PUSH2 0x4F06 PUSH1 0x20 DUP4 ADD DUP10 PUSH2 0x4ED7 JUMP JUMPDEST PUSH2 0x4F13 PUSH1 0x40 DUP4 ADD DUP9 PUSH2 0x4ED7 JUMP JUMPDEST PUSH2 0x4F20 PUSH1 0x60 DUP4 ADD DUP8 PUSH2 0x4ED7 JUMP JUMPDEST PUSH2 0x4F2D PUSH1 0x80 DUP4 ADD DUP7 PUSH2 0x4EC8 JUMP JUMPDEST PUSH2 0x4F3A PUSH1 0xA0 DUP4 ADD DUP6 PUSH2 0x4ED7 JUMP JUMPDEST PUSH2 0x4F47 PUSH1 0xC0 DUP4 ADD DUP5 PUSH2 0x4EC8 JUMP JUMPDEST SWAP9 SWAP8 POP POP POP POP POP POP POP POP JUMP JUMPDEST PUSH0 PUSH1 0x20 DUP3 DUP5 SUB SLT ISZERO PUSH2 0x4F68 JUMPI PUSH2 0x4F67 PUSH2 0x4C92 JUMP JUMPDEST JUMPDEST PUSH0 PUSH2 0x4F75 DUP5 DUP3 DUP6 ADD PUSH2 0x4CE0 JUMP JUMPDEST SWAP2 POP POP SWAP3 SWAP2 POP POP JUMP JUMPDEST PUSH0 DUP2 MLOAD SWAP1 POP SWAP2 SWAP1 POP JUMP JUMPDEST PUSH0 DUP3 DUP3 MSTORE PUSH1 0x20 DUP3 ADD SWAP1 POP SWAP3 SWAP2 POP POP JUMP JUMPDEST PUSH0 DUP2 SWAP1 POP PUSH1 0x20 DUP3 ADD SWAP1 POP SWAP2 SWAP1 POP JUMP JUMPDEST PUSH2 0x4FB0 DUP2 PUSH2 0x4CF4 JUMP JUMPDEST DUP3 MSTORE POP POP JUMP JUMPDEST PUSH2 0x4FBF DUP2 PUSH2 0x4CB9 JUMP JUMPDEST DUP3 MSTORE POP POP JUMP JUMPDEST PUSH1 0xE0 DUP3 ADD PUSH0 DUP3 ADD MLOAD PUSH2 0x4FD9 PUSH0 DUP6 ADD DUP3 PUSH2 0x4FA7 JUMP JUMPDEST POP PUSH1 0x20 DUP3 ADD MLOAD PUSH2 0x4FEC PUSH1 0x20 DUP6 ADD DUP3 PUSH2 0x4FB6 JUMP JUMPDEST POP PUSH1 0x40 DUP3 ADD MLOAD PUSH2 0x4FFF PUSH1 0x40 DUP6 ADD DUP3 PUSH2 0x4FB6 JUMP JUMPDEST POP PUSH1 0x60 DUP3 ADD MLOAD PUSH2 0x5012 PUSH1 0x60 DUP6 ADD DUP3 PUSH2 0x4FB6 JUMP JUMPDEST POP PUSH1 0x80 DUP3 ADD MLOAD PUSH2 0x5025 PUSH1 0x80 DUP6 ADD DUP3 PUSH2 0x4FA7 JUMP JUMPDEST POP PUSH1 0xA0 DUP3 ADD MLOAD PUSH2 0x5038 PUSH1 0xA0 DUP6 ADD DUP3 PUSH2 0x4FB6 JUMP JUMPDEST POP PUSH1 0xC0 DUP3 ADD MLOAD PUSH2 0x504B PUSH1 0xC0 DUP6 ADD DUP3 PUSH2 0x4FA7 JUMP JUMPDEST POP POP POP POP JUMP JUMPDEST PUSH0 PUSH2 0x505C DUP4 DUP4 PUSH2 0x4FC5 JUMP JUMPDEST PUSH1 0xE0 DUP4 ADD SWAP1 POP SWAP3 SWAP2 POP POP JUMP JUMPDEST PUSH0 PUSH1 0x20 DUP3 ADD SWAP1 POP SWAP2 SWAP1 POP JUMP JUMPDEST PUSH0 PUSH2 0x507E DUP3 PUSH2 0x4F7E JUMP JUMPDEST PUSH2 0x5088 DUP2 DUP6 PUSH2 0x4F88 JUMP JUMPDEST SWAP4 POP PUSH2 0x5093 DUP4 PUSH2 0x4F98 JUMP JUMPDEST DUP1 PUSH0 JUMPDEST DUP4 DUP2 LT ISZERO PUSH2 0x50C3 JUMPI DUP2 MLOAD PUSH2 0x50AA DUP9 DUP3 PUSH2 0x5051 JUMP JUMPDEST SWAP8 POP PUSH2 0x50B5 DUP4 PUSH2 0x5068 JUMP JUMPDEST SWAP3 POP POP PUSH1 0x1 DUP2 ADD SWAP1 POP PUSH2 0x5096 JUMP JUMPDEST POP DUP6 SWAP4 POP POP POP POP SWAP3 SWAP2 POP POP JUMP JUMPDEST PUSH0 PUSH1 0x20 DUP3 ADD SWAP1 POP DUP2 DUP2 SUB PUSH0 DUP4 ADD MSTORE PUSH2 0x50E8 DUP2 DUP5 PUSH2 0x5074 JUMP JUMPDEST SWAP1 POP SWAP3 SWAP2 POP POP JUMP JUMPDEST PUSH0 DUP1 PUSH1 0x40 DUP4 DUP6 SUB SLT ISZERO PUSH2 0x5106 JUMPI PUSH2 0x5105 PUSH2 0x4C92 JUMP JUMPDEST JUMPDEST PUSH0 PUSH2 0x5113 DUP6 DUP3 DUP7 ADD PUSH2 0x4CE0 JUMP JUMPDEST SWAP3 POP POP PUSH1 0x20 PUSH2 0x5124 DUP6 DUP3 DUP7 ADD PUSH2 0x4CE0 JUMP JUMPDEST SWAP2 POP POP SWAP3 POP SWAP3 SWAP1 POP JUMP JUMPDEST PUSH0 DUP2 ISZERO ISZERO SWAP1 POP SWAP2 SWAP1 POP JUMP JUMPDEST PUSH2 0x5142 DUP2 PUSH2 0x512E JUMP JUMPDEST DUP3 MSTORE POP POP JUMP JUMPDEST PUSH0 PUSH1 0x20 DUP3 ADD SWAP1 POP PUSH2 0x515B PUSH0 DUP4 ADD DUP5 PUSH2 0x5139 JUMP JUMPDEST SWAP3 SWAP2 POP POP JUMP JUMPDEST PUSH0 DUP1 REVERT JUMPDEST PUSH0 PUSH1 0xA0 DUP3 DUP5 SUB SLT ISZERO PUSH2 0x517A JUMPI PUSH2 0x5179 PUSH2 0x5161 JUMP JUMPDEST JUMPDEST DUP2 SWAP1 POP SWAP3 SWAP2 POP POP JUMP JUMPDEST PUSH0 PUSH1 0xA0 DUP3 DUP5 SUB SLT ISZERO PUSH2 0x5198 JUMPI PUSH2 0x5197 PUSH2 0x4C92 JUMP JUMPDEST JUMPDEST PUSH0 PUSH2 0x51A5 DUP5 DUP3 DUP6 ADD PUSH2 0x5165 JUMP JUMPDEST SWAP2 POP POP SWAP3 SWAP2 POP POP JUMP JUMPDEST PUSH0 PUSH1 0x20 DUP3 ADD SWAP1 POP PUSH2 0x51C1 PUSH0 DUP4 ADD DUP5 PUSH2 0x4ED7 JUMP JUMPDEST SWAP3 SWAP2 POP POP JUMP JUMPDEST PUSH0 PUSH1 0x60 DUP3 ADD SWAP1 POP PUSH2 0x51DA PUSH0 DUP4 ADD DUP7 PUSH2 0x4ED7 JUMP JUMPDEST PUSH2 0x51E7 PUSH1 0x20 DUP4 ADD DUP6 PUSH2 0x4ED7 JUMP JUMPDEST PUSH2 0x51F4 PUSH1 0x40 DUP4 ADD DUP5 PUSH2 0x4EC8 JUMP JUMPDEST SWAP5 SWAP4 POP POP POP POP JUMP JUMPDEST PUSH0 PUSH1 0x20 DUP3 ADD SWAP1 POP PUSH2 0x520F PUSH0 DUP4 ADD DUP5 PUSH2 0x4EC8 JUMP JUMPDEST SWAP3 SWAP2 POP POP JUMP JUMPDEST PUSH0 DUP2 MLOAD SWAP1 POP PUSH2 0x5223 DUP2 PUSH2 0x4CCA JUMP JUMPDEST SWAP3 SWAP2 POP POP JUMP JUMPDEST PUSH0 PUSH1 0x20 DUP3 DUP5 SUB SLT ISZERO PUSH2 0x523E JUMPI PUSH2 0x523D PUSH2 0x4C92 JUMP JUMPDEST JUMPDEST PUSH0 PUSH2 0x524B DUP5 DUP3 DUP6 ADD PUSH2 0x5215 JUMP JUMPDEST SWAP2 POP POP SWAP3 SWAP2 POP POP JUMP JUMPDEST PUSH0 PUSH1 0x40 DUP3 ADD SWAP1 POP PUSH2 0x5267 PUSH0 DUP4 ADD DUP6 PUSH2 0x4ED7 JUMP JUMPDEST PUSH2 0x5274 PUSH1 0x20 DUP4 ADD DUP5 PUSH2 0x4EC8 JUMP JUMPDEST SWAP4 SWAP3 POP POP POP JUMP JUMPDEST PUSH0 DUP2 SWAP1 POP SWAP2 SWAP1 POP JUMP JUMPDEST PUSH0 PUSH1 0xFF DUP3 AND SWAP1 POP SWAP2 SWAP1 POP JUMP JUMPDEST PUSH0 DUP2 SWAP1 POP SWAP2 SWAP1 POP JUMP JUMPDEST PUSH0 PUSH2 0x52B3 PUSH2 0x52AE PUSH2 0x52A9 DUP5 PUSH2 0x527B JUMP JUMPDEST PUSH2 0x5290 JUMP JUMPDEST PUSH2 0x5284 JUMP JUMPDEST SWAP1 POP SWAP2 SWAP1 POP JUMP JUMPDEST PUSH2 0x52C3 DUP2 PUSH2 0x5299 JUMP JUMPDEST DUP3 MSTORE POP POP JUMP JUMPDEST PUSH0 PUSH1 0x20 DUP3 ADD SWAP1 POP PUSH2 0x52DC PUSH0 DUP4 ADD DUP5 PUSH2 0x52BA JUMP JUMPDEST SWAP3 SWAP2 POP POP JUMP JUMPDEST PUSH32 0x4E487B7100000000000000000000000000000000000000000000000000000000 PUSH0 MSTORE PUSH1 0x21 PUSH1 0x4 MSTORE PUSH1 0x24 PUSH0 REVERT JUMPDEST PUSH32 0x4E487B7100000000000000000000000000000000000000000000000000000000 PUSH0 MSTORE PUSH1 0x32 PUSH1 0x4 MSTORE PUSH1 0x24 PUSH0 REVERT JUMPDEST PUSH32 0x4E487B7100000000000000000000000000000000000000000000000000000000 PUSH0 MSTORE PUSH1 0x11 PUSH1 0x4 MSTORE PUSH1 0x24 PUSH0 REVERT JUMPDEST PUSH0 PUSH2 0x5373 DUP3 PUSH2 0x5284 JUMP JUMPDEST SWAP2 POP PUSH1 0xFF DUP3 SUB PUSH2 0x5386 JUMPI PUSH2 0x5385 PUSH2 0x533C JUMP JUMPDEST JUMPDEST PUSH1 0x1 DUP3 ADD SWAP1 POP SWAP2 SWAP1 POP JUMP INVALID LOG2 PUSH5 0x6970667358 0x22 SLT KECCAK256 DUP4 DUP3 POP 0x2B DUP8 0xB6 0xEF MCOPY DUP11 DUP10 0xB0 BYTE PUSH25 0x3F7712A5DEE30F5103EA961236DEA93BA0BB9064736F6C6343 STOP ADDMOD NOT STOP CALLER "
				},
				"gasEstimates": {
					"creation": {
						"codeDepositCost": "4289400",
						"executionCost": "27059",
						"totalCost": "4316459"
					},
					"external": {
						"_requestPool(address,uint256)": "infinite",
						"acceptRequest(uint256)": "16166",
						"approve(address)": "25001",
						"approvedAddresses(address,address)": "infinite",
						"cancelRequest(uint256)": "16123",
						"fetchAccepted(address)": "infinite",
						"fetchCanceled(address)": "infinite",
						"fetchInbox(address)": "infinite",
						"fetchOutbox(address)": "infinite",
						"fetchRejected(address)": "infinite",
						"onERC721Received(address,address,uint256,bytes)": "infinite",
						"rejectRequest(uint256)": "16101",
						"requestNftSwap((address,address,uint256,address,uint256))": "infinite",
						"requesteeInbox(address,uint256)": "infinite",
						"requesterOutbox(address,uint256)": "infinite",
						"revokeApproval(address)": "24934",
						"userAcceptedRequests(address,uint256)": "infinite",
						"userCanceledRequests(address,uint256)": "infinite",
						"userRejectedRequests(address,uint256)": "infinite"
					},
					"internal": {
						"_isEmpty(struct Swapper.Request memory)": "infinite",
						"removeRequest(enum Swapper.location,address,struct Swapper.Request memory[] memory,uint256)": "infinite"
					}
				},
				"methodIdentifiers": {
					"_requestPool(address,uint256)": "4b346b68",
					"acceptRequest(uint256)": "4ba1f098",
					"approve(address)": "daea85c5",
					"approvedAddresses(address,address)": "a001585d",
					"cancelRequest(uint256)": "3015394c",
					"fetchAccepted(address)": "fc4b1a7d",
					"fetchCanceled(address)": "cff1c1d1",
					"fetchInbox(address)": "3eec3703",
					"fetchOutbox(address)": "4ab4e4c1",
					"fetchRejected(address)": "8fb5d8c7",
					"onERC721Received(address,address,uint256,bytes)": "150b7a02",
					"rejectRequest(uint256)": "2d7788db",
					"requestNftSwap((address,address,uint256,address,uint256))": "e48af81a",
					"requesteeInbox(address,uint256)": "dfe6f6b9",
					"requesterOutbox(address,uint256)": "6da8c3a5",
					"revokeApproval(address)": "484685b0",
					"userAcceptedRequests(address,uint256)": "db49380e",
					"userCanceledRequests(address,uint256)": "38d24b69",
					"userRejectedRequests(address,uint256)": "f74aa766"
				}
			},
			"storageLayout": {
				"storage": [
					{
						"astId": 159,
						"contract": "contracts/Swapper.sol:Swapper",
						"label": "_nextRequestId",
						"offset": 0,
						"slot": "0",
						"type": "t_uint256"
					},
					{
						"astId": 192,
						"contract": "contracts/Swapper.sol:Swapper",
						"label": "_requestPool",
						"offset": 0,
						"slot": "1",
						"type": "t_mapping(t_address,t_mapping(t_uint256,t_struct(Request)185_storage))"
					},
					{
						"astId": 198,
						"contract": "contracts/Swapper.sol:Swapper",
						"label": "requesteeInbox",
						"offset": 0,
						"slot": "2",
						"type": "t_mapping(t_address,t_array(t_struct(Request)185_storage)dyn_storage)"
					},
					{
						"astId": 204,
						"contract": "contracts/Swapper.sol:Swapper",
						"label": "requesterOutbox",
						"offset": 0,
						"slot": "3",
						"type": "t_mapping(t_address,t_array(t_struct(Request)185_storage)dyn_storage)"
					},
					{
						"astId": 210,
						"contract": "contracts/Swapper.sol:Swapper",
						"label": "userAcceptedRequests",
						"offset": 0,
						"slot": "4",
						"type": "t_mapping(t_address,t_array(t_struct(Request)185_storage)dyn_storage)"
					},
					{
						"astId": 216,
						"contract": "contracts/Swapper.sol:Swapper",
						"label": "userRejectedRequests",
						"offset": 0,
						"slot": "5",
						"type": "t_mapping(t_address,t_array(t_struct(Request)185_storage)dyn_storage)"
					},
					{
						"astId": 222,
						"contract": "contracts/Swapper.sol:Swapper",
						"label": "userCanceledRequests",
						"offset": 0,
						"slot": "6",
						"type": "t_mapping(t_address,t_array(t_struct(Request)185_storage)dyn_storage)"
					},
					{
						"astId": 228,
						"contract": "contracts/Swapper.sol:Swapper",
						"label": "approvedAddresses",
						"offset": 0,
						"slot": "7",
						"type": "t_mapping(t_address,t_mapping(t_address,t_bool))"
					}
				],
				"types": {
					"t_address": {
						"encoding": "inplace",
						"label": "address",
						"numberOfBytes": "20"
					},
					"t_array(t_struct(Request)185_storage)dyn_storage": {
						"base": "t_struct(Request)185_storage",
						"encoding": "dynamic_array",
						"label": "struct Swapper.Request[]",
						"numberOfBytes": "32"
					},
					"t_bool": {
						"encoding": "inplace",
						"label": "bool",
						"numberOfBytes": "1"
					},
					"t_mapping(t_address,t_array(t_struct(Request)185_storage)dyn_storage)": {
						"encoding": "mapping",
						"key": "t_address",
						"label": "mapping(address => struct Swapper.Request[])",
						"numberOfBytes": "32",
						"value": "t_array(t_struct(Request)185_storage)dyn_storage"
					},
					"t_mapping(t_address,t_bool)": {
						"encoding": "mapping",
						"key": "t_address",
						"label": "mapping(address => bool)",
						"numberOfBytes": "32",
						"value": "t_bool"
					},
					"t_mapping(t_address,t_mapping(t_address,t_bool))": {
						"encoding": "mapping",
						"key": "t_address",
						"label": "mapping(address => mapping(address => bool))",
						"numberOfBytes": "32",
						"value": "t_mapping(t_address,t_bool)"
					},
					"t_mapping(t_address,t_mapping(t_uint256,t_struct(Request)185_storage))": {
						"encoding": "mapping",
						"key": "t_address",
						"label": "mapping(address => mapping(uint256 => struct Swapper.Request))",
						"numberOfBytes": "32",
						"value": "t_mapping(t_uint256,t_struct(Request)185_storage)"
					},
					"t_mapping(t_uint256,t_struct(Request)185_storage)": {
						"encoding": "mapping",
						"key": "t_uint256",
						"label": "mapping(uint256 => struct Swapper.Request)",
						"numberOfBytes": "32",
						"value": "t_struct(Request)185_storage"
					},
					"t_struct(Request)185_storage": {
						"encoding": "inplace",
						"label": "struct Swapper.Request",
						"members": [
							{
								"astId": 172,
								"contract": "contracts/Swapper.sol:Swapper",
								"label": "requestId",
								"offset": 0,
								"slot": "0",
								"type": "t_uint256"
							},
							{
								"astId": 174,
								"contract": "contracts/Swapper.sol:Swapper",
								"label": "requester",
								"offset": 0,
								"slot": "1",
								"type": "t_address"
							},
							{
								"astId": 176,
								"contract": "contracts/Swapper.sol:Swapper",
								"label": "requestee",
								"offset": 0,
								"slot": "2",
								"type": "t_address"
							},
							{
								"astId": 178,
								"contract": "contracts/Swapper.sol:Swapper",
								"label": "ownedNft",
								"offset": 0,
								"slot": "3",
								"type": "t_address"
							},
							{
								"astId": 180,
								"contract": "contracts/Swapper.sol:Swapper",
								"label": "ownedNftId",
								"offset": 0,
								"slot": "4",
								"type": "t_uint256"
							},
							{
								"astId": 182,
								"contract": "contracts/Swapper.sol:Swapper",
								"label": "requestedNft",
								"offset": 0,
								"slot": "5",
								"type": "t_address"
							},
							{
								"astId": 184,
								"contract": "contracts/Swapper.sol:Swapper",
								"label": "requestedNftId",
								"offset": 0,
								"slot": "6",
								"type": "t_uint256"
							}
						],
						"numberOfBytes": "224"
					},
					"t_uint256": {
						"encoding": "inplace",
						"label": "uint256",
						"numberOfBytes": "32"
					}
				}
			},
			"userdoc": {
				"kind": "user",
				"methods": {
					"acceptRequest(uint256)": {
						"notice": "Only the requestee provided in the request data can accept the requestAutomatically rejects if the requestee no longer hold the required nft."
					},
					"cancelRequest(uint256)": {
						"notice": "A requester can only cancel their request if the requestee has not accepted or rejected the request at their end."
					},
					"requestNftSwap((address,address,uint256,address,uint256))": {
						"notice": "Ensures that both requester and requestee owns the nfts required for the transaction. contract takes requester's nft into custody, gives the request an id and sends it to requestee's inbox."
					}
				},
				"version": 1
			}
		}
	}
}